{
	"contracts/SnakeGame.sol": {
		"SnakeGame": {
			"abi": [
				{
					"anonymous": false,
					"inputs": [
						{
							"indexed": false,
							"internalType": "address",
							"name": "player",
							"type": "address"
						},
						{
							"indexed": false,
							"internalType": "uint256",
							"name": "rank",
							"type": "uint256"
						},
						{
							"indexed": false,
							"internalType": "uint256",
							"name": "amount",
							"type": "uint256"
						},
						{
							"indexed": false,
							"internalType": "uint256",
							"name": "timestamp",
							"type": "uint256"
						}
					],
					"name": "Award",
					"type": "event"
				},
				{
					"anonymous": false,
					"inputs": [
						{
							"indexed": false,
							"internalType": "address",
							"name": "player",
							"type": "address"
						},
						{
							"indexed": false,
							"internalType": "uint256",
							"name": "point",
							"type": "uint256"
						},
						{
							"indexed": false,
							"internalType": "uint256",
							"name": "timestamp",
							"type": "uint256"
						}
					],
					"name": "EndGame",
					"type": "event"
				},
				{
					"anonymous": false,
					"inputs": [
						{
							"indexed": true,
							"internalType": "address",
							"name": "previousOwner",
							"type": "address"
						},
						{
							"indexed": true,
							"internalType": "address",
							"name": "newOwner",
							"type": "address"
						}
					],
					"name": "OwnershipTransferred",
					"type": "event"
				},
				{
					"anonymous": false,
					"inputs": [
						{
							"indexed": false,
							"internalType": "address",
							"name": "player",
							"type": "address"
						},
						{
							"indexed": false,
							"internalType": "uint256",
							"name": "timestamp",
							"type": "uint256"
						}
					],
					"name": "StartGame",
					"type": "event"
				},
				{
					"inputs": [
						{
							"internalType": "address",
							"name": "",
							"type": "address"
						}
					],
					"name": "accAwards",
					"outputs": [
						{
							"internalType": "uint256",
							"name": "",
							"type": "uint256"
						}
					],
					"stateMutability": "view",
					"type": "function"
				},
				{
					"inputs": [
						{
							"internalType": "address",
							"name": "",
							"type": "address"
						}
					],
					"name": "accPoints",
					"outputs": [
						{
							"internalType": "uint256",
							"name": "",
							"type": "uint256"
						}
					],
					"stateMutability": "view",
					"type": "function"
				},
				{
					"inputs": [
						{
							"internalType": "uint256",
							"name": "",
							"type": "uint256"
						}
					],
					"name": "awardRecords",
					"outputs": [
						{
							"internalType": "uint256",
							"name": "timestamp",
							"type": "uint256"
						}
					],
					"stateMutability": "view",
					"type": "function"
				},
				{
					"inputs": [
						{
							"internalType": "uint256",
							"name": "",
							"type": "uint256"
						}
					],
					"name": "awardShare",
					"outputs": [
						{
							"internalType": "uint256",
							"name": "",
							"type": "uint256"
						}
					],
					"stateMutability": "view",
					"type": "function"
				},
				{
					"inputs": [],
					"name": "awardize",
					"outputs": [],
					"stateMutability": "nonpayable",
					"type": "function"
				},
				{
					"inputs": [
						{
							"internalType": "uint256",
							"name": "point",
							"type": "uint256"
						}
					],
					"name": "endGame",
					"outputs": [],
					"stateMutability": "nonpayable",
					"type": "function"
				},
				{
					"inputs": [],
					"name": "getAwardRecords",
					"outputs": [
						{
							"components": [
								{
									"internalType": "address[5]",
									"name": "awardees",
									"type": "address[5]"
								},
								{
									"internalType": "uint256[5]",
									"name": "scores",
									"type": "uint256[5]"
								},
								{
									"internalType": "uint256[5]",
									"name": "amounts",
									"type": "uint256[5]"
								},
								{
									"internalType": "uint256",
									"name": "timestamp",
									"type": "uint256"
								}
							],
							"internalType": "struct SnakeGame.AwardRecord[]",
							"name": "",
							"type": "tuple[]"
						}
					],
					"stateMutability": "view",
					"type": "function"
				},
				{
					"inputs": [],
					"name": "getAwardShare",
					"outputs": [
						{
							"internalType": "uint256[5]",
							"name": "",
							"type": "uint256[5]"
						}
					],
					"stateMutability": "view",
					"type": "function"
				},
				{
					"inputs": [],
					"name": "getParticipants",
					"outputs": [
						{
							"internalType": "address[]",
							"name": "",
							"type": "address[]"
						}
					],
					"stateMutability": "view",
					"type": "function"
				},
				{
					"inputs": [],
					"name": "getPlayers",
					"outputs": [
						{
							"internalType": "address[]",
							"name": "",
							"type": "address[]"
						}
					],
					"stateMutability": "view",
					"type": "function"
				},
				{
					"inputs": [
						{
							"internalType": "address",
							"name": "",
							"type": "address"
						}
					],
					"name": "lastPlayedTimes",
					"outputs": [
						{
							"internalType": "uint256",
							"name": "",
							"type": "uint256"
						}
					],
					"stateMutability": "view",
					"type": "function"
				},
				{
					"inputs": [],
					"name": "owner",
					"outputs": [
						{
							"internalType": "address",
							"name": "",
							"type": "address"
						}
					],
					"stateMutability": "view",
					"type": "function"
				},
				{
					"inputs": [
						{
							"internalType": "uint256",
							"name": "",
							"type": "uint256"
						}
					],
					"name": "participants",
					"outputs": [
						{
							"internalType": "address",
							"name": "",
							"type": "address"
						}
					],
					"stateMutability": "view",
					"type": "function"
				},
				{
					"inputs": [
						{
							"internalType": "address",
							"name": "",
							"type": "address"
						}
					],
					"name": "playable",
					"outputs": [
						{
							"internalType": "bool",
							"name": "",
							"type": "bool"
						}
					],
					"stateMutability": "view",
					"type": "function"
				},
				{
					"inputs": [
						{
							"internalType": "uint256",
							"name": "",
							"type": "uint256"
						}
					],
					"name": "players",
					"outputs": [
						{
							"internalType": "address",
							"name": "",
							"type": "address"
						}
					],
					"stateMutability": "view",
					"type": "function"
				},
				{
					"inputs": [],
					"name": "price",
					"outputs": [
						{
							"internalType": "uint256",
							"name": "",
							"type": "uint256"
						}
					],
					"stateMutability": "view",
					"type": "function"
				},
				{
					"inputs": [],
					"name": "renounceOwnership",
					"outputs": [],
					"stateMutability": "nonpayable",
					"type": "function"
				},
				{
					"inputs": [
						{
							"internalType": "uint256",
							"name": "first",
							"type": "uint256"
						},
						{
							"internalType": "uint256",
							"name": "second",
							"type": "uint256"
						},
						{
							"internalType": "uint256",
							"name": "third",
							"type": "uint256"
						},
						{
							"internalType": "uint256",
							"name": "fourth",
							"type": "uint256"
						},
						{
							"internalType": "uint256",
							"name": "fifth",
							"type": "uint256"
						}
					],
					"name": "setAward",
					"outputs": [],
					"stateMutability": "nonpayable",
					"type": "function"
				},
				{
					"inputs": [
						{
							"internalType": "uint256",
							"name": "_price",
							"type": "uint256"
						}
					],
					"name": "setPrice",
					"outputs": [],
					"stateMutability": "nonpayable",
					"type": "function"
				},
				{
					"inputs": [
						{
							"internalType": "address",
							"name": "_withdrawAddress",
							"type": "address"
						}
					],
					"name": "setWithdrawAddress",
					"outputs": [],
					"stateMutability": "nonpayable",
					"type": "function"
				},
				{
					"inputs": [],
					"name": "startGame",
					"outputs": [],
					"stateMutability": "payable",
					"type": "function"
				},
				{
					"inputs": [
						{
							"internalType": "address",
							"name": "",
							"type": "address"
						}
					],
					"name": "totalPoints",
					"outputs": [
						{
							"internalType": "uint256",
							"name": "",
							"type": "uint256"
						}
					],
					"stateMutability": "view",
					"type": "function"
				},
				{
					"inputs": [
						{
							"internalType": "address",
							"name": "newOwner",
							"type": "address"
						}
					],
					"name": "transferOwnership",
					"outputs": [],
					"stateMutability": "nonpayable",
					"type": "function"
				},
				{
					"inputs": [],
					"name": "withdrawAddress",
					"outputs": [
						{
							"internalType": "address",
							"name": "",
							"type": "address"
						}
					],
					"stateMutability": "view",
					"type": "function"
				}
			],
			"devdoc": {
				"kind": "dev",
				"methods": {
					"owner()": {
						"details": "Returns the address of the current owner."
					},
					"renounceOwnership()": {
						"details": "Leaves the contract without owner. It will not be possible to call `onlyOwner` functions anymore. Can only be called by the current owner. NOTE: Renouncing ownership will leave the contract without an owner, thereby removing any functionality that is only available to the owner."
					},
					"transferOwnership(address)": {
						"details": "Transfers ownership of the contract to a new account (`newOwner`). Can only be called by the current owner."
					}
				},
				"version": 1
			},
			"evm": {
				"assembly": "    /* \"contracts/SnakeGame.sol\":319:6073  contract SnakeGame is Context, Ownable, ReentrancyGuard {... */\n  mstore(0x40, 0x80)\n    /* \"contracts/SnakeGame.sol\":767:809  0xf753C11e5167247f156D22B0dd6C6333b934835c */\n  0xf753c11e5167247f156d22b0dd6c6333b934835c\n    /* \"contracts/SnakeGame.sol\":718:810  address public withdrawAddress =... */\n  0x02\n  exp(0x0100, 0x00)\n  dup2\n  sload\n  dup2\n  0xffffffffffffffffffffffffffffffffffffffff\n  mul\n  not\n  and\n  swap1\n  dup4\n  0xffffffffffffffffffffffffffffffffffffffff\n  and\n  mul\n  or\n  swap1\n  sstore\n  pop\n    /* \"contracts/SnakeGame.sol\":816:866  uint256[5] public awardShare = [29, 24, 19, 14, 9] */\n  mload(0x40)\n  dup1\n  0xa0\n  add\n  0x40\n  mstore\n  dup1\n    /* \"contracts/SnakeGame.sol\":848:850  29 */\n  0x1d\n    /* \"contracts/SnakeGame.sol\":816:866  uint256[5] public awardShare = [29, 24, 19, 14, 9] */\n  0xff\n  and\n  dup2\n  mstore\n  0x20\n  add\n    /* \"contracts/SnakeGame.sol\":852:854  24 */\n  0x18\n    /* \"contracts/SnakeGame.sol\":816:866  uint256[5] public awardShare = [29, 24, 19, 14, 9] */\n  0xff\n  and\n  dup2\n  mstore\n  0x20\n  add\n    /* \"contracts/SnakeGame.sol\":856:858  19 */\n  0x13\n    /* \"contracts/SnakeGame.sol\":816:866  uint256[5] public awardShare = [29, 24, 19, 14, 9] */\n  0xff\n  and\n  dup2\n  mstore\n  0x20\n  add\n    /* \"contracts/SnakeGame.sol\":860:862  14 */\n  0x0e\n    /* \"contracts/SnakeGame.sol\":816:866  uint256[5] public awardShare = [29, 24, 19, 14, 9] */\n  0xff\n  and\n  dup2\n  mstore\n  0x20\n  add\n    /* \"contracts/SnakeGame.sol\":864:865  9 */\n  0x09\n    /* \"contracts/SnakeGame.sol\":816:866  uint256[5] public awardShare = [29, 24, 19, 14, 9] */\n  0xff\n  and\n  dup2\n  mstore\n  pop\n  0x03\n  swap1\n  0x05\n  tag_1\n  swap3\n  swap2\n  swap1\n  tag_2\n  jump\t// in\ntag_1:\n  pop\n    /* \"contracts/SnakeGame.sol\":319:6073  contract SnakeGame is Context, Ownable, ReentrancyGuard {... */\n  callvalue\n  dup1\n  iszero\n  tag_3\n  jumpi\n  0x00\n  dup1\n  revert\ntag_3:\n  pop\n    /* \"@openzeppelin/contracts/access/Ownable.sol\":936:968  _transferOwnership(_msgSender()) */\n  tag_7\n    /* \"@openzeppelin/contracts/access/Ownable.sol\":955:967  _msgSender() */\n  tag_8\n    /* \"@openzeppelin/contracts/access/Ownable.sol\":955:965  _msgSender */\n  shl(0x20, tag_9)\n    /* \"@openzeppelin/contracts/access/Ownable.sol\":955:967  _msgSender() */\n  0x20\n  shr\n  jump\t// in\ntag_8:\n    /* \"@openzeppelin/contracts/access/Ownable.sol\":936:954  _transferOwnership */\n  shl(0x20, tag_10)\n    /* \"@openzeppelin/contracts/access/Ownable.sol\":936:968  _transferOwnership(_msgSender()) */\n  0x20\n  shr\n  jump\t// in\ntag_7:\n    /* \"@openzeppelin/contracts/security/ReentrancyGuard.sol\":1716:1717  1 */\n  0x01\n    /* \"@openzeppelin/contracts/security/ReentrancyGuard.sol\":1821:1828  _status */\n  dup1\n    /* \"@openzeppelin/contracts/security/ReentrancyGuard.sol\":1821:1843  _status = _NOT_ENTERED */\n  dup2\n  swap1\n  sstore\n  pop\n    /* \"contracts/SnakeGame.sol\":319:6073  contract SnakeGame is Context, Ownable, ReentrancyGuard {... */\n  jump(tag_12)\n    /* \"@openzeppelin/contracts/utils/Context.sol\":640:736  function _msgSender() internal view virtual returns (address) {... */\ntag_9:\n    /* \"@openzeppelin/contracts/utils/Context.sol\":693:700  address */\n  0x00\n    /* \"@openzeppelin/contracts/utils/Context.sol\":719:729  msg.sender */\n  caller\n    /* \"@openzeppelin/contracts/utils/Context.sol\":712:729  return msg.sender */\n  swap1\n  pop\n    /* \"@openzeppelin/contracts/utils/Context.sol\":640:736  function _msgSender() internal view virtual returns (address) {... */\n  swap1\n  jump\t// out\n    /* \"@openzeppelin/contracts/access/Ownable.sol\":2433:2620  function _transferOwnership(address newOwner) internal virtual {... */\ntag_10:\n    /* \"@openzeppelin/contracts/access/Ownable.sol\":2506:2522  address oldOwner */\n  0x00\n    /* \"@openzeppelin/contracts/access/Ownable.sol\":2525:2531  _owner */\n  dup1\n  0x00\n  swap1\n  sload\n  swap1\n  0x0100\n  exp\n  swap1\n  div\n  0xffffffffffffffffffffffffffffffffffffffff\n  and\n    /* \"@openzeppelin/contracts/access/Ownable.sol\":2506:2531  address oldOwner = _owner */\n  swap1\n  pop\n    /* \"@openzeppelin/contracts/access/Ownable.sol\":2550:2558  newOwner */\n  dup2\n    /* \"@openzeppelin/contracts/access/Ownable.sol\":2541:2547  _owner */\n  0x00\n  dup1\n    /* \"@openzeppelin/contracts/access/Ownable.sol\":2541:2558  _owner = newOwner */\n  0x0100\n  exp\n  dup2\n  sload\n  dup2\n  0xffffffffffffffffffffffffffffffffffffffff\n  mul\n  not\n  and\n  swap1\n  dup4\n  0xffffffffffffffffffffffffffffffffffffffff\n  and\n  mul\n  or\n  swap1\n  sstore\n  pop\n    /* \"@openzeppelin/contracts/access/Ownable.sol\":2604:2612  newOwner */\n  dup2\n    /* \"@openzeppelin/contracts/access/Ownable.sol\":2573:2613  OwnershipTransferred(oldOwner, newOwner) */\n  0xffffffffffffffffffffffffffffffffffffffff\n  and\n    /* \"@openzeppelin/contracts/access/Ownable.sol\":2594:2602  oldOwner */\n  dup2\n    /* \"@openzeppelin/contracts/access/Ownable.sol\":2573:2613  OwnershipTransferred(oldOwner, newOwner) */\n  0xffffffffffffffffffffffffffffffffffffffff\n  and\n  0x8be0079c531659141344cd1fd0a4f28419497f9722a3daafe3b4186f6b6457e0\n  mload(0x40)\n  mload(0x40)\n  dup1\n  swap2\n  sub\n  swap1\n  log3\n    /* \"@openzeppelin/contracts/access/Ownable.sol\":2496:2620  {... */\n  pop\n    /* \"@openzeppelin/contracts/access/Ownable.sol\":2433:2620  function _transferOwnership(address newOwner) internal virtual {... */\n  pop\n  jump\t// out\n    /* \"contracts/SnakeGame.sol\":319:6073  contract SnakeGame is Context, Ownable, ReentrancyGuard {... */\ntag_2:\n  dup3\n  0x05\n  dup2\n  add\n  swap3\n  dup3\n  iszero\n  tag_15\n  jumpi\n  swap2\n  0x20\n  mul\n  dup3\n  add\ntag_16:\n  dup3\n  dup2\n  gt\n  iszero\n  tag_17\n  jumpi\n  dup3\n  mload\n  dup3\n  swap1\n  0xff\n  and\n  swap1\n  sstore\n  swap2\n  0x20\n  add\n  swap2\n  swap1\n  0x01\n  add\n  swap1\n  jump(tag_16)\ntag_17:\ntag_15:\n  pop\n  swap1\n  pop\n  tag_18\n  swap2\n  swap1\n  tag_19\n  jump\t// in\ntag_18:\n  pop\n  swap1\n  jump\t// out\ntag_19:\ntag_20:\n  dup1\n  dup3\n  gt\n  iszero\n  tag_21\n  jumpi\n  0x00\n  dup2\n  0x00\n  swap1\n  sstore\n  pop\n  0x01\n  add\n  jump(tag_20)\ntag_21:\n  pop\n  swap1\n  jump\t// out\ntag_12:\n  dataSize(sub_0)\n  dup1\n  dataOffset(sub_0)\n  0x00\n  codecopy\n  0x00\n  return\nstop\n\nsub_0: assembly {\n        /* \"contracts/SnakeGame.sol\":319:6073  contract SnakeGame is Context, Ownable, ReentrancyGuard {... */\n      mstore(0x40, 0x80)\n      jumpi(tag_1, lt(calldatasize, 0x04))\n      shr(0xe0, calldataload(0x00))\n      dup1\n      0x91b7f5ed\n      gt\n      tag_26\n      jumpi\n      dup1\n      0xd0399bb8\n      gt\n      tag_27\n      jumpi\n      dup1\n      0xd0399bb8\n      eq\n      tag_20\n      jumpi\n      dup1\n      0xd65ab5f2\n      eq\n      tag_21\n      jumpi\n      dup1\n      0xe4312377\n      eq\n      tag_22\n      jumpi\n      dup1\n      0xf2fde38b\n      eq\n      tag_23\n      jumpi\n      dup1\n      0xf71d96cb\n      eq\n      tag_24\n      jumpi\n      dup1\n      0xfa305949\n      eq\n      tag_25\n      jumpi\n      jump(tag_1)\n    tag_27:\n      dup1\n      0x91b7f5ed\n      eq\n      tag_14\n      jumpi\n      dup1\n      0xa035b1fe\n      eq\n      tag_15\n      jumpi\n      dup1\n      0xafc865dd\n      eq\n      tag_16\n      jumpi\n      dup1\n      0xb2eeed86\n      eq\n      tag_17\n      jumpi\n      dup1\n      0xbbe192ba\n      eq\n      tag_18\n      jumpi\n      dup1\n      0xbdc78c95\n      eq\n      tag_19\n      jumpi\n      jump(tag_1)\n    tag_26:\n      dup1\n      0x3ab1a494\n      gt\n      tag_28\n      jumpi\n      dup1\n      0x3ab1a494\n      eq\n      tag_8\n      jumpi\n      dup1\n      0x5aa68ac0\n      eq\n      tag_9\n      jumpi\n      dup1\n      0x715018a6\n      eq\n      tag_10\n      jumpi\n      dup1\n      0x8b5b9ccc\n      eq\n      tag_11\n      jumpi\n      dup1\n      0x8da5cb5b\n      eq\n      tag_12\n      jumpi\n      dup1\n      0x8fefec47\n      eq\n      tag_13\n      jumpi\n      jump(tag_1)\n    tag_28:\n      dup1\n      0x073cd85f\n      eq\n      tag_2\n      jumpi\n      dup1\n      0x094bb204\n      eq\n      tag_3\n      jumpi\n      dup1\n      0x0fac9100\n      eq\n      tag_4\n      jumpi\n      dup1\n      0x1581b600\n      eq\n      tag_5\n      jumpi\n      dup1\n      0x247bdda3\n      eq\n      tag_6\n      jumpi\n      dup1\n      0x35c1d349\n      eq\n      tag_7\n      jumpi\n    tag_1:\n      0x00\n      dup1\n      revert\n        /* \"contracts/SnakeGame.sol\":3051:4855  function awardize() external onlyOwner {... */\n    tag_2:\n      callvalue\n      dup1\n      iszero\n      tag_29\n      jumpi\n      0x00\n      dup1\n      revert\n    tag_29:\n      pop\n      tag_30\n      tag_31\n      jump\t// in\n    tag_30:\n      stop\n        /* \"contracts/SnakeGame.sol\":1144:1188  mapping(address => uint256) public accAwards */\n    tag_3:\n      callvalue\n      dup1\n      iszero\n      tag_32\n      jumpi\n      0x00\n      dup1\n      revert\n    tag_32:\n      pop\n      tag_33\n      0x04\n      dup1\n      calldatasize\n      sub\n      dup2\n      add\n      swap1\n      tag_34\n      swap2\n      swap1\n      tag_35\n      jump\t// in\n    tag_34:\n      tag_36\n      jump\t// in\n    tag_33:\n      mload(0x40)\n      tag_37\n      swap2\n      swap1\n      tag_38\n      jump\t// in\n    tag_37:\n      mload(0x40)\n      dup1\n      swap2\n      sub\n      swap1\n      return\n        /* \"contracts/SnakeGame.sol\":1518:1564  mapping(address => uint256) public totalPoints */\n    tag_4:\n      callvalue\n      dup1\n      iszero\n      tag_39\n      jumpi\n      0x00\n      dup1\n      revert\n    tag_39:\n      pop\n      tag_40\n      0x04\n      dup1\n      calldatasize\n      sub\n      dup2\n      add\n      swap1\n      tag_41\n      swap2\n      swap1\n      tag_35\n      jump\t// in\n    tag_41:\n      tag_42\n      jump\t// in\n    tag_40:\n      mload(0x40)\n      tag_43\n      swap2\n      swap1\n      tag_38\n      jump\t// in\n    tag_43:\n      mload(0x40)\n      dup1\n      swap2\n      sub\n      swap1\n      return\n        /* \"contracts/SnakeGame.sol\":718:810  address public withdrawAddress =... */\n    tag_5:\n      callvalue\n      dup1\n      iszero\n      tag_44\n      jumpi\n      0x00\n      dup1\n      revert\n    tag_44:\n      pop\n      tag_45\n      tag_46\n      jump\t// in\n    tag_45:\n      mload(0x40)\n      tag_47\n      swap2\n      swap1\n      tag_48\n      jump\t// in\n    tag_47:\n      mload(0x40)\n      dup1\n      swap2\n      sub\n      swap1\n      return\n        /* \"contracts/SnakeGame.sol\":816:866  uint256[5] public awardShare = [29, 24, 19, 14, 9] */\n    tag_6:\n      callvalue\n      dup1\n      iszero\n      tag_49\n      jumpi\n      0x00\n      dup1\n      revert\n    tag_49:\n      pop\n      tag_50\n      0x04\n      dup1\n      calldatasize\n      sub\n      dup2\n      add\n      swap1\n      tag_51\n      swap2\n      swap1\n      tag_52\n      jump\t// in\n    tag_51:\n      tag_53\n      jump\t// in\n    tag_50:\n      mload(0x40)\n      tag_54\n      swap2\n      swap1\n      tag_38\n      jump\t// in\n    tag_54:\n      mload(0x40)\n      dup1\n      swap2\n      sub\n      swap1\n      return\n        /* \"contracts/SnakeGame.sol\":1451:1480  address[] public participants */\n    tag_7:\n      callvalue\n      dup1\n      iszero\n      tag_55\n      jumpi\n      0x00\n      dup1\n      revert\n    tag_55:\n      pop\n      tag_56\n      0x04\n      dup1\n      calldatasize\n      sub\n      dup2\n      add\n      swap1\n      tag_57\n      swap2\n      swap1\n      tag_52\n      jump\t// in\n    tag_57:\n      tag_58\n      jump\t// in\n    tag_56:\n      mload(0x40)\n      tag_59\n      swap2\n      swap1\n      tag_48\n      jump\t// in\n    tag_59:\n      mload(0x40)\n      dup1\n      swap2\n      sub\n      swap1\n      return\n        /* \"contracts/SnakeGame.sol\":4936:5060  function setWithdrawAddress(address _withdrawAddress) external onlyOwner {... */\n    tag_8:\n      callvalue\n      dup1\n      iszero\n      tag_60\n      jumpi\n      0x00\n      dup1\n      revert\n    tag_60:\n      pop\n      tag_61\n      0x04\n      dup1\n      calldatasize\n      sub\n      dup2\n      add\n      swap1\n      tag_62\n      swap2\n      swap1\n      tag_35\n      jump\t// in\n    tag_62:\n      tag_63\n      jump\t// in\n    tag_61:\n      stop\n        /* \"contracts/SnakeGame.sol\":5967:6071  function getParticipants() external view returns (address[] memory) {... */\n    tag_9:\n      callvalue\n      dup1\n      iszero\n      tag_64\n      jumpi\n      0x00\n      dup1\n      revert\n    tag_64:\n      pop\n      tag_65\n      tag_66\n      jump\t// in\n    tag_65:\n      mload(0x40)\n      tag_67\n      swap2\n      swap1\n      tag_68\n      jump\t// in\n    tag_67:\n      mload(0x40)\n      dup1\n      swap2\n      sub\n      swap1\n      return\n        /* \"@openzeppelin/contracts/access/Ownable.sol\":1831:1932  function renounceOwnership() public virtual onlyOwner {... */\n    tag_10:\n      callvalue\n      dup1\n      iszero\n      tag_69\n      jumpi\n      0x00\n      dup1\n      revert\n    tag_69:\n      pop\n      tag_70\n      tag_71\n      jump\t// in\n    tag_70:\n      stop\n        /* \"contracts/SnakeGame.sol\":5867:5961  function getPlayers() external view returns (address[] memory) {... */\n    tag_11:\n      callvalue\n      dup1\n      iszero\n      tag_72\n      jumpi\n      0x00\n      dup1\n      revert\n    tag_72:\n      pop\n      tag_73\n      tag_74\n      jump\t// in\n    tag_73:\n      mload(0x40)\n      tag_75\n      swap2\n      swap1\n      tag_68\n      jump\t// in\n    tag_75:\n      mload(0x40)\n      dup1\n      swap2\n      sub\n      swap1\n      return\n        /* \"@openzeppelin/contracts/access/Ownable.sol\":1201:1286  function owner() public view virtual returns (address) {... */\n    tag_12:\n      callvalue\n      dup1\n      iszero\n      tag_76\n      jumpi\n      0x00\n      dup1\n      revert\n    tag_76:\n      pop\n      tag_77\n      tag_78\n      jump\t// in\n    tag_77:\n      mload(0x40)\n      tag_79\n      swap2\n      swap1\n      tag_48\n      jump\t// in\n    tag_79:\n      mload(0x40)\n      dup1\n      swap2\n      sub\n      swap1\n      return\n        /* \"contracts/SnakeGame.sol\":5753:5861  function getAwardRecords() external view returns (AwardRecord[] memory) {... */\n    tag_13:\n      callvalue\n      dup1\n      iszero\n      tag_80\n      jumpi\n      0x00\n      dup1\n      revert\n    tag_80:\n      pop\n      tag_81\n      tag_82\n      jump\t// in\n    tag_81:\n      mload(0x40)\n      tag_83\n      swap2\n      swap1\n      tag_84\n      jump\t// in\n    tag_83:\n      mload(0x40)\n      dup1\n      swap2\n      sub\n      swap1\n      return\n        /* \"contracts/SnakeGame.sol\":5130:5214  function setPrice(uint256 _price) external onlyOwner {... */\n    tag_14:\n      callvalue\n      dup1\n      iszero\n      tag_85\n      jumpi\n      0x00\n      dup1\n      revert\n    tag_85:\n      pop\n      tag_86\n      0x04\n      dup1\n      calldatasize\n      sub\n      dup2\n      add\n      swap1\n      tag_87\n      swap2\n      swap1\n      tag_52\n      jump\t// in\n    tag_87:\n      tag_88\n      jump\t// in\n    tag_86:\n      stop\n        /* \"contracts/SnakeGame.sol\":920:940  uint256 public price */\n    tag_15:\n      callvalue\n      dup1\n      iszero\n      tag_89\n      jumpi\n      0x00\n      dup1\n      revert\n    tag_89:\n      pop\n      tag_90\n      tag_91\n      jump\t// in\n    tag_90:\n      mload(0x40)\n      tag_92\n      swap2\n      swap1\n      tag_38\n      jump\t// in\n    tag_92:\n      mload(0x40)\n      dup1\n      swap2\n      sub\n      swap1\n      return\n        /* \"contracts/SnakeGame.sol\":1310:1343  AwardRecord[] public awardRecords */\n    tag_16:\n      callvalue\n      dup1\n      iszero\n      tag_93\n      jumpi\n      0x00\n      dup1\n      revert\n    tag_93:\n      pop\n      tag_94\n      0x04\n      dup1\n      calldatasize\n      sub\n      dup2\n      add\n      swap1\n      tag_95\n      swap2\n      swap1\n      tag_52\n      jump\t// in\n    tag_95:\n      tag_96\n      jump\t// in\n    tag_94:\n      mload(0x40)\n      tag_97\n      swap2\n      swap1\n      tag_38\n      jump\t// in\n    tag_97:\n      mload(0x40)\n      dup1\n      swap2\n      sub\n      swap1\n      return\n        /* \"contracts/SnakeGame.sol\":1614:1664  mapping(address => uint256) public lastPlayedTimes */\n    tag_17:\n      callvalue\n      dup1\n      iszero\n      tag_98\n      jumpi\n      0x00\n      dup1\n      revert\n    tag_98:\n      pop\n      tag_99\n      0x04\n      dup1\n      calldatasize\n      sub\n      dup2\n      add\n      swap1\n      tag_100\n      swap2\n      swap1\n      tag_35\n      jump\t// in\n    tag_100:\n      tag_101\n      jump\t// in\n    tag_99:\n      mload(0x40)\n      tag_102\n      swap2\n      swap1\n      tag_38\n      jump\t// in\n    tag_102:\n      mload(0x40)\n      dup1\n      swap2\n      sub\n      swap1\n      return\n        /* \"contracts/SnakeGame.sol\":5295:5619  function setAward(... */\n    tag_18:\n      callvalue\n      dup1\n      iszero\n      tag_103\n      jumpi\n      0x00\n      dup1\n      revert\n    tag_103:\n      pop\n      tag_104\n      0x04\n      dup1\n      calldatasize\n      sub\n      dup2\n      add\n      swap1\n      tag_105\n      swap2\n      swap1\n      tag_106\n      jump\t// in\n    tag_105:\n      tag_107\n      jump\t// in\n    tag_104:\n      stop\n        /* \"contracts/SnakeGame.sol\":1227:1267  mapping(address => bool) public playable */\n    tag_19:\n      callvalue\n      dup1\n      iszero\n      tag_108\n      jumpi\n      0x00\n      dup1\n      revert\n    tag_108:\n      pop\n      tag_109\n      0x04\n      dup1\n      calldatasize\n      sub\n      dup2\n      add\n      swap1\n      tag_110\n      swap2\n      swap1\n      tag_35\n      jump\t// in\n    tag_110:\n      tag_111\n      jump\t// in\n    tag_109:\n      mload(0x40)\n      tag_112\n      swap2\n      swap1\n      tag_113\n      jump\t// in\n    tag_112:\n      mload(0x40)\n      dup1\n      swap2\n      sub\n      swap1\n      return\n        /* \"contracts/SnakeGame.sol\":2310:2976  function endGame(uint256 point) external nonReentrant {... */\n    tag_20:\n      callvalue\n      dup1\n      iszero\n      tag_114\n      jumpi\n      0x00\n      dup1\n      revert\n    tag_114:\n      pop\n      tag_115\n      0x04\n      dup1\n      calldatasize\n      sub\n      dup2\n      add\n      swap1\n      tag_116\n      swap2\n      swap1\n      tag_52\n      jump\t// in\n    tag_116:\n      tag_117\n      jump\t// in\n    tag_115:\n      stop\n        /* \"contracts/SnakeGame.sol\":2134:2288  function startGame() external payable paymentCovered {... */\n    tag_21:\n      tag_118\n      tag_119\n      jump\t// in\n    tag_118:\n      stop\n        /* \"contracts/SnakeGame.sol\":5646:5747  function getAwardShare() external view returns (uint256[5] memory) {... */\n    tag_22:\n      callvalue\n      dup1\n      iszero\n      tag_120\n      jumpi\n      0x00\n      dup1\n      revert\n    tag_120:\n      pop\n      tag_121\n      tag_122\n      jump\t// in\n    tag_121:\n      mload(0x40)\n      tag_123\n      swap2\n      swap1\n      tag_124\n      jump\t// in\n    tag_123:\n      mload(0x40)\n      dup1\n      swap2\n      sub\n      swap1\n      return\n        /* \"@openzeppelin/contracts/access/Ownable.sol\":2081:2279  function transferOwnership(address newOwner) public virtual onlyOwner {... */\n    tag_23:\n      callvalue\n      dup1\n      iszero\n      tag_125\n      jumpi\n      0x00\n      dup1\n      revert\n    tag_125:\n      pop\n      tag_126\n      0x04\n      dup1\n      calldatasize\n      sub\n      dup2\n      add\n      swap1\n      tag_127\n      swap2\n      swap1\n      tag_35\n      jump\t// in\n    tag_127:\n      tag_128\n      jump\t// in\n    tag_126:\n      stop\n        /* \"contracts/SnakeGame.sol\":1009:1033  address[] public players */\n    tag_24:\n      callvalue\n      dup1\n      iszero\n      tag_129\n      jumpi\n      0x00\n      dup1\n      revert\n    tag_129:\n      pop\n      tag_130\n      0x04\n      dup1\n      calldatasize\n      sub\n      dup2\n      add\n      swap1\n      tag_131\n      swap2\n      swap1\n      tag_52\n      jump\t// in\n    tag_131:\n      tag_132\n      jump\t// in\n    tag_130:\n      mload(0x40)\n      tag_133\n      swap2\n      swap1\n      tag_48\n      jump\t// in\n    tag_133:\n      mload(0x40)\n      dup1\n      swap2\n      sub\n      swap1\n      return\n        /* \"contracts/SnakeGame.sol\":1061:1105  mapping(address => uint256) public accPoints */\n    tag_25:\n      callvalue\n      dup1\n      iszero\n      tag_134\n      jumpi\n      0x00\n      dup1\n      revert\n    tag_134:\n      pop\n      tag_135\n      0x04\n      dup1\n      calldatasize\n      sub\n      dup2\n      add\n      swap1\n      tag_136\n      swap2\n      swap1\n      tag_35\n      jump\t// in\n    tag_136:\n      tag_137\n      jump\t// in\n    tag_135:\n      mload(0x40)\n      tag_138\n      swap2\n      swap1\n      tag_38\n      jump\t// in\n    tag_138:\n      mload(0x40)\n      dup1\n      swap2\n      sub\n      swap1\n      return\n        /* \"contracts/SnakeGame.sol\":3051:4855  function awardize() external onlyOwner {... */\n    tag_31:\n        /* \"@openzeppelin/contracts/access/Ownable.sol\":1094:1107  _checkOwner() */\n      tag_140\n        /* \"@openzeppelin/contracts/access/Ownable.sol\":1094:1105  _checkOwner */\n      tag_141\n        /* \"@openzeppelin/contracts/access/Ownable.sol\":1094:1107  _checkOwner() */\n      jump\t// in\n    tag_140:\n        /* \"contracts/SnakeGame.sol\":3100:3125  address[5] memory winners */\n      tag_143\n      tag_144\n      jump\t// in\n    tag_143:\n        /* \"contracts/SnakeGame.sol\":3135:3160  AwardRecord memory record */\n      tag_145\n      tag_146\n      jump\t// in\n    tag_145:\n        /* \"contracts/SnakeGame.sol\":3175:3184  uint256 i */\n      0x00\n        /* \"contracts/SnakeGame.sol\":3170:3776  for (uint256 i = 0; i < participants.length; i++) {... */\n    tag_147:\n        /* \"contracts/SnakeGame.sol\":3194:3206  participants */\n      0x0f\n        /* \"contracts/SnakeGame.sol\":3194:3213  participants.length */\n      dup1\n      sload\n      swap1\n      pop\n        /* \"contracts/SnakeGame.sol\":3190:3191  i */\n      dup2\n        /* \"contracts/SnakeGame.sol\":3190:3213  i < participants.length */\n      lt\n        /* \"contracts/SnakeGame.sol\":3170:3776  for (uint256 i = 0; i < participants.length; i++) {... */\n      iszero\n      tag_148\n      jumpi\n        /* \"contracts/SnakeGame.sol\":3239:3248  uint256 j */\n      0x00\n        /* \"contracts/SnakeGame.sol\":3234:3766  for (uint256 j = 0; j < 5; j++) {... */\n    tag_150:\n        /* \"contracts/SnakeGame.sol\":3258:3259  5 */\n      0x05\n        /* \"contracts/SnakeGame.sol\":3254:3255  j */\n      dup2\n        /* \"contracts/SnakeGame.sol\":3254:3259  j < 5 */\n      lt\n        /* \"contracts/SnakeGame.sol\":3234:3766  for (uint256 j = 0; j < 5; j++) {... */\n      iszero\n      tag_151\n      jumpi\n        /* \"contracts/SnakeGame.sol\":3331:3332  0 */\n      0x00\n        /* \"contracts/SnakeGame.sol\":3309:3333  winners[j] == address(0) */\n      0xffffffffffffffffffffffffffffffffffffffff\n      and\n        /* \"contracts/SnakeGame.sol\":3309:3316  winners */\n      dup5\n        /* \"contracts/SnakeGame.sol\":3317:3318  j */\n      dup3\n        /* \"contracts/SnakeGame.sol\":3309:3319  winners[j] */\n      0x05\n      dup2\n      lt\n      tag_153\n      jumpi\n      tag_154\n      tag_155\n      jump\t// in\n    tag_154:\n    tag_153:\n      0x20\n      mul\n      add\n      mload\n        /* \"contracts/SnakeGame.sol\":3309:3333  winners[j] == address(0) */\n      0xffffffffffffffffffffffffffffffffffffffff\n      and\n      eq\n        /* \"contracts/SnakeGame.sol\":3309:3528  winners[j] == address(0) ||... */\n      dup1\n      tag_156\n      jumpi\n      pop\n        /* \"contracts/SnakeGame.sol\":3390:3401  totalPoints */\n      0x10\n        /* \"contracts/SnakeGame.sol\":3390:3413  totalPoints[winners[j]] */\n      0x00\n        /* \"contracts/SnakeGame.sol\":3402:3409  winners */\n      dup6\n        /* \"contracts/SnakeGame.sol\":3410:3411  j */\n      dup4\n        /* \"contracts/SnakeGame.sol\":3402:3412  winners[j] */\n      0x05\n      dup2\n      lt\n      tag_157\n      jumpi\n      tag_158\n      tag_155\n      jump\t// in\n    tag_158:\n    tag_157:\n      0x20\n      mul\n      add\n      mload\n        /* \"contracts/SnakeGame.sol\":3390:3413  totalPoints[winners[j]] */\n      0xffffffffffffffffffffffffffffffffffffffff\n      and\n      0xffffffffffffffffffffffffffffffffffffffff\n      and\n      dup2\n      mstore\n      0x20\n      add\n      swap1\n      dup2\n      mstore\n      0x20\n      add\n      0x00\n      keccak256\n      sload\n        /* \"contracts/SnakeGame.sol\":3358:3369  totalPoints */\n      0x10\n        /* \"contracts/SnakeGame.sol\":3358:3386  totalPoints[participants[i]] */\n      0x00\n        /* \"contracts/SnakeGame.sol\":3370:3382  participants */\n      0x0f\n        /* \"contracts/SnakeGame.sol\":3383:3384  i */\n      dup6\n        /* \"contracts/SnakeGame.sol\":3370:3385  participants[i] */\n      dup2\n      sload\n      dup2\n      lt\n      tag_159\n      jumpi\n      tag_160\n      tag_155\n      jump\t// in\n    tag_160:\n    tag_159:\n      swap1\n      0x00\n      mstore\n      keccak256(0x00, 0x20)\n      add\n      0x00\n      swap1\n      sload\n      swap1\n      0x0100\n      exp\n      swap1\n      div\n      0xffffffffffffffffffffffffffffffffffffffff\n      and\n        /* \"contracts/SnakeGame.sol\":3358:3386  totalPoints[participants[i]] */\n      0xffffffffffffffffffffffffffffffffffffffff\n      and\n      0xffffffffffffffffffffffffffffffffffffffff\n      and\n      dup2\n      mstore\n      0x20\n      add\n      swap1\n      dup2\n      mstore\n      0x20\n      add\n      0x00\n      keccak256\n      sload\n        /* \"contracts/SnakeGame.sol\":3358:3413  totalPoints[participants[i]] >= totalPoints[winners[j]] */\n      lt\n      iszero\n        /* \"contracts/SnakeGame.sol\":3358:3527  totalPoints[participants[i]] >= totalPoints[winners[j]] &&... */\n      dup1\n      iszero\n      tag_162\n      jumpi\n      pop\n        /* \"contracts/SnakeGame.sol\":3500:3515  lastPlayedTimes */\n      0x11\n        /* \"contracts/SnakeGame.sol\":3500:3527  lastPlayedTimes[winners[j]] */\n      0x00\n        /* \"contracts/SnakeGame.sol\":3516:3523  winners */\n      dup6\n        /* \"contracts/SnakeGame.sol\":3524:3525  j */\n      dup4\n        /* \"contracts/SnakeGame.sol\":3516:3526  winners[j] */\n      0x05\n      dup2\n      lt\n      tag_163\n      jumpi\n      tag_164\n      tag_155\n      jump\t// in\n    tag_164:\n    tag_163:\n      0x20\n      mul\n      add\n      mload\n        /* \"contracts/SnakeGame.sol\":3500:3527  lastPlayedTimes[winners[j]] */\n      0xffffffffffffffffffffffffffffffffffffffff\n      and\n      0xffffffffffffffffffffffffffffffffffffffff\n      and\n      dup2\n      mstore\n      0x20\n      add\n      swap1\n      dup2\n      mstore\n      0x20\n      add\n      0x00\n      keccak256\n      sload\n        /* \"contracts/SnakeGame.sol\":3441:3456  lastPlayedTimes */\n      0x11\n        /* \"contracts/SnakeGame.sol\":3441:3473  lastPlayedTimes[participants[i]] */\n      0x00\n        /* \"contracts/SnakeGame.sol\":3457:3469  participants */\n      0x0f\n        /* \"contracts/SnakeGame.sol\":3470:3471  i */\n      dup6\n        /* \"contracts/SnakeGame.sol\":3457:3472  participants[i] */\n      dup2\n      sload\n      dup2\n      lt\n      tag_165\n      jumpi\n      tag_166\n      tag_155\n      jump\t// in\n    tag_166:\n    tag_165:\n      swap1\n      0x00\n      mstore\n      keccak256(0x00, 0x20)\n      add\n      0x00\n      swap1\n      sload\n      swap1\n      0x0100\n      exp\n      swap1\n      div\n      0xffffffffffffffffffffffffffffffffffffffff\n      and\n        /* \"contracts/SnakeGame.sol\":3441:3473  lastPlayedTimes[participants[i]] */\n      0xffffffffffffffffffffffffffffffffffffffff\n      and\n      0xffffffffffffffffffffffffffffffffffffffff\n      and\n      dup2\n      mstore\n      0x20\n      add\n      swap1\n      dup2\n      mstore\n      0x20\n      add\n      0x00\n      keccak256\n      sload\n        /* \"contracts/SnakeGame.sol\":3441:3527  lastPlayedTimes[participants[i]] <... */\n      lt\n        /* \"contracts/SnakeGame.sol\":3358:3527  totalPoints[participants[i]] >= totalPoints[winners[j]] &&... */\n    tag_162:\n        /* \"contracts/SnakeGame.sol\":3309:3528  winners[j] == address(0) ||... */\n    tag_156:\n        /* \"contracts/SnakeGame.sol\":3284:3752  if (... */\n      iszero\n      tag_168\n      jumpi\n        /* \"contracts/SnakeGame.sol\":3574:3583  uint256 k */\n      0x00\n        /* \"contracts/SnakeGame.sol\":3590:3591  1 */\n      0x01\n        /* \"contracts/SnakeGame.sol\":3586:3587  j */\n      dup3\n        /* \"contracts/SnakeGame.sol\":3586:3591  j + 1 */\n      tag_172\n      swap2\n      swap1\n      tag_173\n      jump\t// in\n    tag_172:\n        /* \"contracts/SnakeGame.sol\":3574:3591  uint256 k = j + 1 */\n      swap1\n      pop\n        /* \"contracts/SnakeGame.sol\":3569:3656  for (uint256 k = j + 1; k < 5; k++)... */\n    tag_169:\n        /* \"contracts/SnakeGame.sol\":3597:3598  5 */\n      0x05\n        /* \"contracts/SnakeGame.sol\":3593:3594  k */\n      dup2\n        /* \"contracts/SnakeGame.sol\":3593:3598  k < 5 */\n      lt\n        /* \"contracts/SnakeGame.sol\":3569:3656  for (uint256 k = j + 1; k < 5; k++)... */\n      iszero\n      tag_170\n      jumpi\n        /* \"contracts/SnakeGame.sol\":3642:3649  winners */\n      dup5\n        /* \"contracts/SnakeGame.sol\":3654:3655  1 */\n      0x01\n        /* \"contracts/SnakeGame.sol\":3650:3651  k */\n      dup3\n        /* \"contracts/SnakeGame.sol\":3650:3655  k - 1 */\n      tag_174\n      swap2\n      swap1\n      tag_175\n      jump\t// in\n    tag_174:\n        /* \"contracts/SnakeGame.sol\":3642:3656  winners[k - 1] */\n      0x05\n      dup2\n      lt\n      tag_176\n      jumpi\n      tag_177\n      tag_155\n      jump\t// in\n    tag_177:\n    tag_176:\n      0x20\n      mul\n      add\n      mload\n        /* \"contracts/SnakeGame.sol\":3629:3636  winners */\n      dup6\n        /* \"contracts/SnakeGame.sol\":3637:3638  k */\n      dup3\n        /* \"contracts/SnakeGame.sol\":3629:3639  winners[k] */\n      0x05\n      dup2\n      lt\n      tag_178\n      jumpi\n      tag_179\n      tag_155\n      jump\t// in\n    tag_179:\n    tag_178:\n      0x20\n      mul\n      add\n        /* \"contracts/SnakeGame.sol\":3629:3656  winners[k] = winners[k - 1] */\n      swap1\n      0xffffffffffffffffffffffffffffffffffffffff\n      and\n      swap1\n      dup2\n      0xffffffffffffffffffffffffffffffffffffffff\n      and\n      dup2\n      mstore\n      pop\n      pop\n        /* \"contracts/SnakeGame.sol\":3600:3603  k++ */\n      dup1\n      dup1\n      tag_180\n      swap1\n      tag_181\n      jump\t// in\n    tag_180:\n      swap2\n      pop\n      pop\n        /* \"contracts/SnakeGame.sol\":3569:3656  for (uint256 k = j + 1; k < 5; k++)... */\n      jump(tag_169)\n    tag_170:\n      pop\n        /* \"contracts/SnakeGame.sol\":3691:3703  participants */\n      0x0f\n        /* \"contracts/SnakeGame.sol\":3704:3705  j */\n      dup2\n        /* \"contracts/SnakeGame.sol\":3691:3706  participants[j] */\n      dup2\n      sload\n      dup2\n      lt\n      tag_182\n      jumpi\n      tag_183\n      tag_155\n      jump\t// in\n    tag_183:\n    tag_182:\n      swap1\n      0x00\n      mstore\n      keccak256(0x00, 0x20)\n      add\n      0x00\n      swap1\n      sload\n      swap1\n      0x0100\n      exp\n      swap1\n      div\n      0xffffffffffffffffffffffffffffffffffffffff\n      and\n        /* \"contracts/SnakeGame.sol\":3678:3685  winners */\n      dup5\n        /* \"contracts/SnakeGame.sol\":3686:3687  j */\n      dup3\n        /* \"contracts/SnakeGame.sol\":3678:3688  winners[j] */\n      0x05\n      dup2\n      lt\n      tag_185\n      jumpi\n      tag_186\n      tag_155\n      jump\t// in\n    tag_186:\n    tag_185:\n      0x20\n      mul\n      add\n        /* \"contracts/SnakeGame.sol\":3678:3706  winners[j] = participants[j] */\n      swap1\n      0xffffffffffffffffffffffffffffffffffffffff\n      and\n      swap1\n      dup2\n      0xffffffffffffffffffffffffffffffffffffffff\n      and\n      dup2\n      mstore\n      pop\n      pop\n        /* \"contracts/SnakeGame.sol\":3728:3733  break */\n      jump(tag_151)\n        /* \"contracts/SnakeGame.sol\":3284:3752  if (... */\n    tag_168:\n        /* \"contracts/SnakeGame.sol\":3261:3264  j++ */\n      dup1\n      dup1\n      tag_187\n      swap1\n      tag_181\n      jump\t// in\n    tag_187:\n      swap2\n      pop\n      pop\n        /* \"contracts/SnakeGame.sol\":3234:3766  for (uint256 j = 0; j < 5; j++) {... */\n      jump(tag_150)\n    tag_151:\n      pop\n        /* \"contracts/SnakeGame.sol\":3215:3218  i++ */\n      dup1\n      dup1\n      tag_188\n      swap1\n      tag_181\n      jump\t// in\n    tag_188:\n      swap2\n      pop\n      pop\n        /* \"contracts/SnakeGame.sol\":3170:3776  for (uint256 i = 0; i < participants.length; i++) {... */\n      jump(tag_147)\n    tag_148:\n      pop\n        /* \"contracts/SnakeGame.sol\":3790:3799  uint256 j */\n      0x00\n        /* \"contracts/SnakeGame.sol\":3785:4344  for (uint256 j = 0; j < 5; j++) {... */\n    tag_189:\n        /* \"contracts/SnakeGame.sol\":3809:3810  5 */\n      0x05\n        /* \"contracts/SnakeGame.sol\":3805:3806  j */\n      dup2\n        /* \"contracts/SnakeGame.sol\":3805:3810  j < 5 */\n      lt\n        /* \"contracts/SnakeGame.sol\":3785:4344  for (uint256 j = 0; j < 5; j++) {... */\n      iszero\n      tag_190\n      jumpi\n        /* \"contracts/SnakeGame.sol\":3857:3858  0 */\n      0x00\n        /* \"contracts/SnakeGame.sol\":3835:3859  winners[j] == address(0) */\n      0xffffffffffffffffffffffffffffffffffffffff\n      and\n        /* \"contracts/SnakeGame.sol\":3835:3842  winners */\n      dup4\n        /* \"contracts/SnakeGame.sol\":3843:3844  j */\n      dup3\n        /* \"contracts/SnakeGame.sol\":3835:3845  winners[j] */\n      0x05\n      dup2\n      lt\n      tag_192\n      jumpi\n      tag_193\n      tag_155\n      jump\t// in\n    tag_193:\n    tag_192:\n      0x20\n      mul\n      add\n      mload\n        /* \"contracts/SnakeGame.sol\":3835:3859  winners[j] == address(0) */\n      0xffffffffffffffffffffffffffffffffffffffff\n      and\n      sub\n        /* \"contracts/SnakeGame.sol\":3831:3866  if (winners[j] == address(0)) break */\n      iszero\n        /* \"contracts/SnakeGame.sol\":3861:3866  break */\n      tag_190\n        /* \"contracts/SnakeGame.sol\":3831:3866  if (winners[j] == address(0)) break */\n      jumpi\n        /* \"contracts/SnakeGame.sol\":3901:3908  winners */\n      dup3\n        /* \"contracts/SnakeGame.sol\":3909:3910  j */\n      dup2\n        /* \"contracts/SnakeGame.sol\":3901:3911  winners[j] */\n      0x05\n      dup2\n      lt\n      tag_195\n      jumpi\n      tag_196\n      tag_155\n      jump\t// in\n    tag_196:\n    tag_195:\n      0x20\n      mul\n      add\n      mload\n        /* \"contracts/SnakeGame.sol\":3880:3886  record */\n      dup3\n        /* \"contracts/SnakeGame.sol\":3880:3895  record.awardees */\n      0x00\n      add\n      mload\n        /* \"contracts/SnakeGame.sol\":3896:3897  j */\n      dup3\n        /* \"contracts/SnakeGame.sol\":3880:3898  record.awardees[j] */\n      0x05\n      dup2\n      lt\n      tag_197\n      jumpi\n      tag_198\n      tag_155\n      jump\t// in\n    tag_198:\n    tag_197:\n      0x20\n      mul\n      add\n        /* \"contracts/SnakeGame.sol\":3880:3911  record.awardees[j] = winners[j] */\n      swap1\n      0xffffffffffffffffffffffffffffffffffffffff\n      and\n      swap1\n      dup2\n      0xffffffffffffffffffffffffffffffffffffffff\n      and\n      dup2\n      mstore\n      pop\n      pop\n        /* \"contracts/SnakeGame.sol\":3944:3955  totalPoints */\n      0x10\n        /* \"contracts/SnakeGame.sol\":3944:3967  totalPoints[winners[j]] */\n      0x00\n        /* \"contracts/SnakeGame.sol\":3956:3963  winners */\n      dup5\n        /* \"contracts/SnakeGame.sol\":3964:3965  j */\n      dup4\n        /* \"contracts/SnakeGame.sol\":3956:3966  winners[j] */\n      0x05\n      dup2\n      lt\n      tag_199\n      jumpi\n      tag_200\n      tag_155\n      jump\t// in\n    tag_200:\n    tag_199:\n      0x20\n      mul\n      add\n      mload\n        /* \"contracts/SnakeGame.sol\":3944:3967  totalPoints[winners[j]] */\n      0xffffffffffffffffffffffffffffffffffffffff\n      and\n      0xffffffffffffffffffffffffffffffffffffffff\n      and\n      dup2\n      mstore\n      0x20\n      add\n      swap1\n      dup2\n      mstore\n      0x20\n      add\n      0x00\n      keccak256\n      sload\n        /* \"contracts/SnakeGame.sol\":3925:3931  record */\n      dup3\n        /* \"contracts/SnakeGame.sol\":3925:3938  record.scores */\n      0x20\n      add\n      mload\n        /* \"contracts/SnakeGame.sol\":3939:3940  j */\n      dup3\n        /* \"contracts/SnakeGame.sol\":3925:3941  record.scores[j] */\n      0x05\n      dup2\n      lt\n      tag_201\n      jumpi\n      tag_202\n      tag_155\n      jump\t// in\n    tag_202:\n    tag_201:\n      0x20\n      mul\n      add\n        /* \"contracts/SnakeGame.sol\":3925:3967  record.scores[j] = totalPoints[winners[j]] */\n      dup2\n      dup2\n      mstore\n      pop\n      pop\n        /* \"contracts/SnakeGame.sol\":3981:3995  uint256 amount */\n      0x00\n        /* \"contracts/SnakeGame.sol\":4036:4039  100 */\n      0x64\n        /* \"contracts/SnakeGame.sol\":4027:4032  price */\n      sload(0x08)\n        /* \"contracts/SnakeGame.sol\":4015:4024  gameCount */\n      sload(0x0e)\n        /* \"contracts/SnakeGame.sol\":3999:4009  awardShare */\n      0x03\n        /* \"contracts/SnakeGame.sol\":4010:4011  j */\n      dup6\n        /* \"contracts/SnakeGame.sol\":3999:4012  awardShare[j] */\n      0x05\n      dup2\n      lt\n      tag_203\n      jumpi\n      tag_204\n      tag_155\n      jump\t// in\n    tag_204:\n    tag_203:\n      add\n      sload\n        /* \"contracts/SnakeGame.sol\":3999:4024  awardShare[j] * gameCount */\n      tag_206\n      swap2\n      swap1\n      tag_207\n      jump\t// in\n    tag_206:\n        /* \"contracts/SnakeGame.sol\":3999:4032  awardShare[j] * gameCount * price */\n      tag_208\n      swap2\n      swap1\n      tag_207\n      jump\t// in\n    tag_208:\n        /* \"contracts/SnakeGame.sol\":3998:4039  (awardShare[j] * gameCount * price) / 100 */\n      tag_209\n      swap2\n      swap1\n      tag_210\n      jump\t// in\n    tag_209:\n        /* \"contracts/SnakeGame.sol\":3981:4039  uint256 amount = (awardShare[j] * gameCount * price) / 100 */\n      swap1\n      pop\n        /* \"contracts/SnakeGame.sol\":4073:4079  amount */\n      dup1\n        /* \"contracts/SnakeGame.sol\":4053:4059  record */\n      dup4\n        /* \"contracts/SnakeGame.sol\":4053:4067  record.amounts */\n      0x40\n      add\n      mload\n        /* \"contracts/SnakeGame.sol\":4068:4069  j */\n      dup4\n        /* \"contracts/SnakeGame.sol\":4053:4070  record.amounts[j] */\n      0x05\n      dup2\n      lt\n      tag_211\n      jumpi\n      tag_212\n      tag_155\n      jump\t// in\n    tag_212:\n    tag_211:\n      0x20\n      mul\n      add\n        /* \"contracts/SnakeGame.sol\":4053:4079  record.amounts[j] = amount */\n      dup2\n      dup2\n      mstore\n      pop\n      pop\n        /* \"contracts/SnakeGame.sol\":4094:4111  bool awardSuccess */\n      0x00\n        /* \"contracts/SnakeGame.sol\":4125:4132  winners */\n      dup5\n        /* \"contracts/SnakeGame.sol\":4133:4134  j */\n      dup4\n        /* \"contracts/SnakeGame.sol\":4125:4135  winners[j] */\n      0x05\n      dup2\n      lt\n      tag_213\n      jumpi\n      tag_214\n      tag_155\n      jump\t// in\n    tag_214:\n    tag_213:\n      0x20\n      mul\n      add\n      mload\n        /* \"contracts/SnakeGame.sol\":4117:4141  payable(winners[j]).call */\n      0xffffffffffffffffffffffffffffffffffffffff\n      and\n        /* \"contracts/SnakeGame.sol\":4149:4155  amount */\n      dup3\n        /* \"contracts/SnakeGame.sol\":4117:4160  payable(winners[j]).call{value: amount}(\"\") */\n      mload(0x40)\n      tag_215\n      swap1\n      tag_216\n      jump\t// in\n    tag_215:\n      0x00\n      mload(0x40)\n      dup1\n      dup4\n      sub\n      dup2\n      dup6\n      dup8\n      gas\n      call\n      swap3\n      pop\n      pop\n      pop\n      returndatasize\n      dup1\n      0x00\n      dup2\n      eq\n      tag_219\n      jumpi\n      mload(0x40)\n      swap2\n      pop\n      and(add(returndatasize, 0x3f), not(0x1f))\n      dup3\n      add\n      0x40\n      mstore\n      returndatasize\n      dup3\n      mstore\n      returndatasize\n      0x00\n      0x20\n      dup5\n      add\n      returndatacopy\n      jump(tag_218)\n    tag_219:\n      0x60\n      swap2\n      pop\n    tag_218:\n      pop\n        /* \"contracts/SnakeGame.sol\":4093:4160  (bool awardSuccess, ) = payable(winners[j]).call{value: amount}(\"\") */\n      pop\n      swap1\n      pop\n        /* \"contracts/SnakeGame.sol\":4182:4194  awardSuccess */\n      dup1\n        /* \"contracts/SnakeGame.sol\":4174:4220  require(awardSuccess, \"Award transfer failed\") */\n      tag_220\n      jumpi\n      mload(0x40)\n      0x08c379a000000000000000000000000000000000000000000000000000000000\n      dup2\n      mstore\n      0x04\n      add\n      tag_221\n      swap1\n      tag_222\n      jump\t// in\n    tag_221:\n      mload(0x40)\n      dup1\n      swap2\n      sub\n      swap1\n      revert\n    tag_220:\n        /* \"contracts/SnakeGame.sol\":4259:4265  amount */\n      dup2\n        /* \"contracts/SnakeGame.sol\":4234:4243  accAwards */\n      0x0b\n        /* \"contracts/SnakeGame.sol\":4234:4255  accAwards[winners[j]] */\n      0x00\n        /* \"contracts/SnakeGame.sol\":4244:4251  winners */\n      dup8\n        /* \"contracts/SnakeGame.sol\":4252:4253  j */\n      dup7\n        /* \"contracts/SnakeGame.sol\":4244:4254  winners[j] */\n      0x05\n      dup2\n      lt\n      tag_223\n      jumpi\n      tag_224\n      tag_155\n      jump\t// in\n    tag_224:\n    tag_223:\n      0x20\n      mul\n      add\n      mload\n        /* \"contracts/SnakeGame.sol\":4234:4255  accAwards[winners[j]] */\n      0xffffffffffffffffffffffffffffffffffffffff\n      and\n      0xffffffffffffffffffffffffffffffffffffffff\n      and\n      dup2\n      mstore\n      0x20\n      add\n      swap1\n      dup2\n      mstore\n      0x20\n      add\n      0x00\n      keccak256\n      0x00\n        /* \"contracts/SnakeGame.sol\":4234:4265  accAwards[winners[j]] += amount */\n      dup3\n      dup3\n      sload\n      tag_225\n      swap2\n      swap1\n      tag_173\n      jump\t// in\n    tag_225:\n      swap3\n      pop\n      pop\n      dup2\n      swap1\n      sstore\n      pop\n        /* \"contracts/SnakeGame.sol\":4284:4333  Award(winners[j], j + 1, amount, block.timestamp) */\n      0xc5d0aba04b7cd5dd8a59ed0b989a6adaba9d0674b4783192e5904d65bc15d66f\n        /* \"contracts/SnakeGame.sol\":4290:4297  winners */\n      dup6\n        /* \"contracts/SnakeGame.sol\":4298:4299  j */\n      dup5\n        /* \"contracts/SnakeGame.sol\":4290:4300  winners[j] */\n      0x05\n      dup2\n      lt\n      tag_226\n      jumpi\n      tag_227\n      tag_155\n      jump\t// in\n    tag_227:\n    tag_226:\n      0x20\n      mul\n      add\n      mload\n        /* \"contracts/SnakeGame.sol\":4306:4307  1 */\n      0x01\n        /* \"contracts/SnakeGame.sol\":4302:4303  j */\n      dup6\n        /* \"contracts/SnakeGame.sol\":4302:4307  j + 1 */\n      tag_228\n      swap2\n      swap1\n      tag_173\n      jump\t// in\n    tag_228:\n        /* \"contracts/SnakeGame.sol\":4309:4315  amount */\n      dup5\n        /* \"contracts/SnakeGame.sol\":4317:4332  block.timestamp */\n      timestamp\n        /* \"contracts/SnakeGame.sol\":4284:4333  Award(winners[j], j + 1, amount, block.timestamp) */\n      mload(0x40)\n      tag_229\n      swap5\n      swap4\n      swap3\n      swap2\n      swap1\n      tag_230\n      jump\t// in\n    tag_229:\n      mload(0x40)\n      dup1\n      swap2\n      sub\n      swap1\n      log1\n        /* \"contracts/SnakeGame.sol\":3817:4344  {... */\n      pop\n      pop\n        /* \"contracts/SnakeGame.sol\":3812:3815  j++ */\n      dup1\n      dup1\n      tag_231\n      swap1\n      tag_181\n      jump\t// in\n    tag_231:\n      swap2\n      pop\n      pop\n        /* \"contracts/SnakeGame.sol\":3785:4344  for (uint256 j = 0; j < 5; j++) {... */\n      jump(tag_189)\n    tag_190:\n      pop\n        /* \"contracts/SnakeGame.sol\":4372:4387  block.timestamp */\n      timestamp\n        /* \"contracts/SnakeGame.sol\":4353:4359  record */\n      dup2\n        /* \"contracts/SnakeGame.sol\":4353:4369  record.timestamp */\n      0x60\n      add\n        /* \"contracts/SnakeGame.sol\":4353:4387  record.timestamp = block.timestamp */\n      dup2\n      dup2\n      mstore\n      pop\n      pop\n        /* \"contracts/SnakeGame.sol\":4398:4418  bool withdrawSuccess */\n      0x00\n        /* \"contracts/SnakeGame.sol\":4432:4447  withdrawAddress */\n      0x02\n      0x00\n      swap1\n      sload\n      swap1\n      0x0100\n      exp\n      swap1\n      div\n      0xffffffffffffffffffffffffffffffffffffffff\n      and\n        /* \"contracts/SnakeGame.sol\":4424:4453  payable(withdrawAddress).call */\n      0xffffffffffffffffffffffffffffffffffffffff\n      and\n        /* \"contracts/SnakeGame.sol\":4474:4495  address(this).balance */\n      selfbalance\n        /* \"contracts/SnakeGame.sol\":4424:4509  payable(withdrawAddress).call{... */\n      mload(0x40)\n      tag_232\n      swap1\n      tag_216\n      jump\t// in\n    tag_232:\n      0x00\n      mload(0x40)\n      dup1\n      dup4\n      sub\n      dup2\n      dup6\n      dup8\n      gas\n      call\n      swap3\n      pop\n      pop\n      pop\n      returndatasize\n      dup1\n      0x00\n      dup2\n      eq\n      tag_235\n      jumpi\n      mload(0x40)\n      swap2\n      pop\n      and(add(returndatasize, 0x3f), not(0x1f))\n      dup3\n      add\n      0x40\n      mstore\n      returndatasize\n      dup3\n      mstore\n      returndatasize\n      0x00\n      0x20\n      dup5\n      add\n      returndatacopy\n      jump(tag_234)\n    tag_235:\n      0x60\n      swap2\n      pop\n    tag_234:\n      pop\n        /* \"contracts/SnakeGame.sol\":4397:4509  (bool withdrawSuccess, ) = payable(withdrawAddress).call{... */\n      pop\n      swap1\n      pop\n        /* \"contracts/SnakeGame.sol\":4527:4542  withdrawSuccess */\n      dup1\n        /* \"contracts/SnakeGame.sol\":4519:4566  require(withdrawSuccess, \"Fee transfer failed\") */\n      tag_236\n      jumpi\n      mload(0x40)\n      0x08c379a000000000000000000000000000000000000000000000000000000000\n      dup2\n      mstore\n      0x04\n      add\n      tag_237\n      swap1\n      tag_238\n      jump\t// in\n    tag_237:\n      mload(0x40)\n      dup1\n      swap2\n      sub\n      swap1\n      revert\n    tag_236:\n        /* \"contracts/SnakeGame.sol\":4576:4791  while (participants.length > 0) {... */\n    tag_239:\n        /* \"contracts/SnakeGame.sol\":4605:4606  0 */\n      0x00\n        /* \"contracts/SnakeGame.sol\":4583:4595  participants */\n      0x0f\n        /* \"contracts/SnakeGame.sol\":4583:4602  participants.length */\n      dup1\n      sload\n      swap1\n      pop\n        /* \"contracts/SnakeGame.sol\":4583:4606  participants.length > 0 */\n      gt\n        /* \"contracts/SnakeGame.sol\":4576:4791  while (participants.length > 0) {... */\n      iszero\n      tag_240\n      jumpi\n        /* \"contracts/SnakeGame.sol\":4675:4676  0 */\n      0x00\n        /* \"contracts/SnakeGame.sol\":4622:4633  totalPoints */\n      0x10\n        /* \"contracts/SnakeGame.sol\":4622:4672  totalPoints[participants[participants.length - 1]] */\n      0x00\n        /* \"contracts/SnakeGame.sol\":4634:4646  participants */\n      0x0f\n        /* \"contracts/SnakeGame.sol\":4669:4670  1 */\n      0x01\n        /* \"contracts/SnakeGame.sol\":4647:4659  participants */\n      0x0f\n        /* \"contracts/SnakeGame.sol\":4647:4666  participants.length */\n      dup1\n      sload\n      swap1\n      pop\n        /* \"contracts/SnakeGame.sol\":4647:4670  participants.length - 1 */\n      tag_241\n      swap2\n      swap1\n      tag_175\n      jump\t// in\n    tag_241:\n        /* \"contracts/SnakeGame.sol\":4634:4671  participants[participants.length - 1] */\n      dup2\n      sload\n      dup2\n      lt\n      tag_242\n      jumpi\n      tag_243\n      tag_155\n      jump\t// in\n    tag_243:\n    tag_242:\n      swap1\n      0x00\n      mstore\n      keccak256(0x00, 0x20)\n      add\n      0x00\n      swap1\n      sload\n      swap1\n      0x0100\n      exp\n      swap1\n      div\n      0xffffffffffffffffffffffffffffffffffffffff\n      and\n        /* \"contracts/SnakeGame.sol\":4622:4672  totalPoints[participants[participants.length - 1]] */\n      0xffffffffffffffffffffffffffffffffffffffff\n      and\n      0xffffffffffffffffffffffffffffffffffffffff\n      and\n      dup2\n      mstore\n      0x20\n      add\n      swap1\n      dup2\n      mstore\n      0x20\n      add\n      0x00\n      keccak256\n        /* \"contracts/SnakeGame.sol\":4622:4676  totalPoints[participants[participants.length - 1]] = 0 */\n      dup2\n      swap1\n      sstore\n      pop\n        /* \"contracts/SnakeGame.sol\":4747:4748  0 */\n      0x00\n        /* \"contracts/SnakeGame.sol\":4690:4705  lastPlayedTimes */\n      0x11\n        /* \"contracts/SnakeGame.sol\":4690:4744  lastPlayedTimes[participants[participants.length - 1]] */\n      0x00\n        /* \"contracts/SnakeGame.sol\":4706:4718  participants */\n      0x0f\n        /* \"contracts/SnakeGame.sol\":4741:4742  1 */\n      0x01\n        /* \"contracts/SnakeGame.sol\":4719:4731  participants */\n      0x0f\n        /* \"contracts/SnakeGame.sol\":4719:4738  participants.length */\n      dup1\n      sload\n      swap1\n      pop\n        /* \"contracts/SnakeGame.sol\":4719:4742  participants.length - 1 */\n      tag_245\n      swap2\n      swap1\n      tag_175\n      jump\t// in\n    tag_245:\n        /* \"contracts/SnakeGame.sol\":4706:4743  participants[participants.length - 1] */\n      dup2\n      sload\n      dup2\n      lt\n      tag_246\n      jumpi\n      tag_247\n      tag_155\n      jump\t// in\n    tag_247:\n    tag_246:\n      swap1\n      0x00\n      mstore\n      keccak256(0x00, 0x20)\n      add\n      0x00\n      swap1\n      sload\n      swap1\n      0x0100\n      exp\n      swap1\n      div\n      0xffffffffffffffffffffffffffffffffffffffff\n      and\n        /* \"contracts/SnakeGame.sol\":4690:4744  lastPlayedTimes[participants[participants.length - 1]] */\n      0xffffffffffffffffffffffffffffffffffffffff\n      and\n      0xffffffffffffffffffffffffffffffffffffffff\n      and\n      dup2\n      mstore\n      0x20\n      add\n      swap1\n      dup2\n      mstore\n      0x20\n      add\n      0x00\n      keccak256\n        /* \"contracts/SnakeGame.sol\":4690:4748  lastPlayedTimes[participants[participants.length - 1]] = 0 */\n      dup2\n      swap1\n      sstore\n      pop\n        /* \"contracts/SnakeGame.sol\":4762:4774  participants */\n      0x0f\n        /* \"contracts/SnakeGame.sol\":4762:4780  participants.pop() */\n      dup1\n      sload\n      dup1\n      tag_249\n      jumpi\n      tag_250\n      tag_251\n      jump\t// in\n    tag_250:\n    tag_249:\n      0x01\n      swap1\n      sub\n      dup2\n      dup2\n      swap1\n      0x00\n      mstore\n      keccak256(0x00, 0x20)\n      add\n      exp(0x0100, 0x00)\n      dup2\n      sload\n      swap1\n      0xffffffffffffffffffffffffffffffffffffffff\n      mul\n      not\n      and\n      swap1\n      sstore\n      swap1\n      sstore\n        /* \"contracts/SnakeGame.sol\":4576:4791  while (participants.length > 0) {... */\n      jump(tag_239)\n    tag_240:\n        /* \"contracts/SnakeGame.sol\":4812:4813  0 */\n      0x00\n        /* \"contracts/SnakeGame.sol\":4800:4809  gameCount */\n      0x0e\n        /* \"contracts/SnakeGame.sol\":4800:4813  gameCount = 0 */\n      dup2\n      swap1\n      sstore\n      pop\n        /* \"contracts/SnakeGame.sol\":4823:4835  awardRecords */\n      0x0d\n        /* \"contracts/SnakeGame.sol\":4841:4847  record */\n      dup3\n        /* \"contracts/SnakeGame.sol\":4823:4848  awardRecords.push(record) */\n      swap1\n      dup1\n      0x01\n      dup2\n      sload\n      add\n      dup1\n      dup3\n      sstore\n      dup1\n      swap2\n      pop\n      pop\n      0x01\n      swap1\n      sub\n      swap1\n      0x00\n      mstore\n      keccak256(0x00, 0x20)\n      swap1\n      0x10\n      mul\n      add\n      0x00\n      swap1\n      swap2\n      swap1\n      swap2\n      swap1\n      swap2\n      pop\n      0x00\n      dup3\n      add\n      mload\n      dup2\n      0x00\n      add\n      swap1\n      0x05\n      tag_254\n      swap3\n      swap2\n      swap1\n      tag_255\n      jump\t// in\n    tag_254:\n      pop\n      0x20\n      dup3\n      add\n      mload\n      dup2\n      0x05\n      add\n      swap1\n      0x05\n      tag_256\n      swap3\n      swap2\n      swap1\n      tag_257\n      jump\t// in\n    tag_256:\n      pop\n      0x40\n      dup3\n      add\n      mload\n      dup2\n      0x0a\n      add\n      swap1\n      0x05\n      tag_258\n      swap3\n      swap2\n      swap1\n      tag_257\n      jump\t// in\n    tag_258:\n      pop\n      0x60\n      dup3\n      add\n      mload\n      dup2\n      0x0f\n      add\n      sstore\n      pop\n      pop\n        /* \"contracts/SnakeGame.sol\":3090:4855  {... */\n      pop\n      pop\n      pop\n        /* \"contracts/SnakeGame.sol\":3051:4855  function awardize() external onlyOwner {... */\n      jump\t// out\n        /* \"contracts/SnakeGame.sol\":1144:1188  mapping(address => uint256) public accAwards */\n    tag_36:\n      mstore(0x20, 0x0b)\n      dup1\n      0x00\n      mstore\n      keccak256(0x00, 0x40)\n      0x00\n      swap2\n      pop\n      swap1\n      pop\n      sload\n      dup2\n      jump\t// out\n        /* \"contracts/SnakeGame.sol\":1518:1564  mapping(address => uint256) public totalPoints */\n    tag_42:\n      mstore(0x20, 0x10)\n      dup1\n      0x00\n      mstore\n      keccak256(0x00, 0x40)\n      0x00\n      swap2\n      pop\n      swap1\n      pop\n      sload\n      dup2\n      jump\t// out\n        /* \"contracts/SnakeGame.sol\":718:810  address public withdrawAddress =... */\n    tag_46:\n      0x02\n      0x00\n      swap1\n      sload\n      swap1\n      0x0100\n      exp\n      swap1\n      div\n      0xffffffffffffffffffffffffffffffffffffffff\n      and\n      dup2\n      jump\t// out\n        /* \"contracts/SnakeGame.sol\":816:866  uint256[5] public awardShare = [29, 24, 19, 14, 9] */\n    tag_53:\n      0x03\n      dup2\n      0x05\n      dup2\n      lt\n      tag_259\n      jumpi\n      0x00\n      dup1\n      revert\n    tag_259:\n      add\n      0x00\n      swap2\n      pop\n      swap1\n      pop\n      sload\n      dup2\n      jump\t// out\n        /* \"contracts/SnakeGame.sol\":1451:1480  address[] public participants */\n    tag_58:\n      0x0f\n      dup2\n      dup2\n      sload\n      dup2\n      lt\n      tag_261\n      jumpi\n      0x00\n      dup1\n      revert\n    tag_261:\n      swap1\n      0x00\n      mstore\n      keccak256(0x00, 0x20)\n      add\n      0x00\n      swap2\n      pop\n      sload\n      swap1\n      0x0100\n      exp\n      swap1\n      div\n      0xffffffffffffffffffffffffffffffffffffffff\n      and\n      dup2\n      jump\t// out\n        /* \"contracts/SnakeGame.sol\":4936:5060  function setWithdrawAddress(address _withdrawAddress) external onlyOwner {... */\n    tag_63:\n        /* \"@openzeppelin/contracts/access/Ownable.sol\":1094:1107  _checkOwner() */\n      tag_264\n        /* \"@openzeppelin/contracts/access/Ownable.sol\":1094:1105  _checkOwner */\n      tag_141\n        /* \"@openzeppelin/contracts/access/Ownable.sol\":1094:1107  _checkOwner() */\n      jump\t// in\n    tag_264:\n        /* \"contracts/SnakeGame.sol\":5037:5053  _withdrawAddress */\n      dup1\n        /* \"contracts/SnakeGame.sol\":5019:5034  withdrawAddress */\n      0x02\n      0x00\n        /* \"contracts/SnakeGame.sol\":5019:5053  withdrawAddress = _withdrawAddress */\n      0x0100\n      exp\n      dup2\n      sload\n      dup2\n      0xffffffffffffffffffffffffffffffffffffffff\n      mul\n      not\n      and\n      swap1\n      dup4\n      0xffffffffffffffffffffffffffffffffffffffff\n      and\n      mul\n      or\n      swap1\n      sstore\n      pop\n        /* \"contracts/SnakeGame.sol\":4936:5060  function setWithdrawAddress(address _withdrawAddress) external onlyOwner {... */\n      pop\n      jump\t// out\n        /* \"contracts/SnakeGame.sol\":5967:6071  function getParticipants() external view returns (address[] memory) {... */\n    tag_66:\n        /* \"contracts/SnakeGame.sol\":6017:6033  address[] memory */\n      0x60\n        /* \"contracts/SnakeGame.sol\":6052:6064  participants */\n      0x0f\n        /* \"contracts/SnakeGame.sol\":6045:6064  return participants */\n      dup1\n      sload\n      dup1\n      0x20\n      mul\n      0x20\n      add\n      mload(0x40)\n      swap1\n      dup2\n      add\n      0x40\n      mstore\n      dup1\n      swap3\n      swap2\n      swap1\n      dup2\n      dup2\n      mstore\n      0x20\n      add\n      dup3\n      dup1\n      sload\n      dup1\n      iszero\n      tag_267\n      jumpi\n      0x20\n      mul\n      dup3\n      add\n      swap2\n      swap1\n      0x00\n      mstore\n      keccak256(0x00, 0x20)\n      swap1\n    tag_268:\n      dup2\n      0x00\n      swap1\n      sload\n      swap1\n      0x0100\n      exp\n      swap1\n      div\n      0xffffffffffffffffffffffffffffffffffffffff\n      and\n      0xffffffffffffffffffffffffffffffffffffffff\n      and\n      dup2\n      mstore\n      0x20\n      add\n      swap1\n      0x01\n      add\n      swap1\n      dup1\n      dup4\n      gt\n      tag_268\n      jumpi\n    tag_267:\n      pop\n      pop\n      pop\n      pop\n      pop\n      swap1\n      pop\n        /* \"contracts/SnakeGame.sol\":5967:6071  function getParticipants() external view returns (address[] memory) {... */\n      swap1\n      jump\t// out\n        /* \"@openzeppelin/contracts/access/Ownable.sol\":1831:1932  function renounceOwnership() public virtual onlyOwner {... */\n    tag_71:\n        /* \"@openzeppelin/contracts/access/Ownable.sol\":1094:1107  _checkOwner() */\n      tag_270\n        /* \"@openzeppelin/contracts/access/Ownable.sol\":1094:1105  _checkOwner */\n      tag_141\n        /* \"@openzeppelin/contracts/access/Ownable.sol\":1094:1107  _checkOwner() */\n      jump\t// in\n    tag_270:\n        /* \"@openzeppelin/contracts/access/Ownable.sol\":1895:1925  _transferOwnership(address(0)) */\n      tag_272\n        /* \"@openzeppelin/contracts/access/Ownable.sol\":1922:1923  0 */\n      0x00\n        /* \"@openzeppelin/contracts/access/Ownable.sol\":1895:1913  _transferOwnership */\n      tag_273\n        /* \"@openzeppelin/contracts/access/Ownable.sol\":1895:1925  _transferOwnership(address(0)) */\n      jump\t// in\n    tag_272:\n        /* \"@openzeppelin/contracts/access/Ownable.sol\":1831:1932  function renounceOwnership() public virtual onlyOwner {... */\n      jump\t// out\n        /* \"contracts/SnakeGame.sol\":5867:5961  function getPlayers() external view returns (address[] memory) {... */\n    tag_74:\n        /* \"contracts/SnakeGame.sol\":5912:5928  address[] memory */\n      0x60\n        /* \"contracts/SnakeGame.sol\":5947:5954  players */\n      0x09\n        /* \"contracts/SnakeGame.sol\":5940:5954  return players */\n      dup1\n      sload\n      dup1\n      0x20\n      mul\n      0x20\n      add\n      mload(0x40)\n      swap1\n      dup2\n      add\n      0x40\n      mstore\n      dup1\n      swap3\n      swap2\n      swap1\n      dup2\n      dup2\n      mstore\n      0x20\n      add\n      dup3\n      dup1\n      sload\n      dup1\n      iszero\n      tag_275\n      jumpi\n      0x20\n      mul\n      dup3\n      add\n      swap2\n      swap1\n      0x00\n      mstore\n      keccak256(0x00, 0x20)\n      swap1\n    tag_276:\n      dup2\n      0x00\n      swap1\n      sload\n      swap1\n      0x0100\n      exp\n      swap1\n      div\n      0xffffffffffffffffffffffffffffffffffffffff\n      and\n      0xffffffffffffffffffffffffffffffffffffffff\n      and\n      dup2\n      mstore\n      0x20\n      add\n      swap1\n      0x01\n      add\n      swap1\n      dup1\n      dup4\n      gt\n      tag_276\n      jumpi\n    tag_275:\n      pop\n      pop\n      pop\n      pop\n      pop\n      swap1\n      pop\n        /* \"contracts/SnakeGame.sol\":5867:5961  function getPlayers() external view returns (address[] memory) {... */\n      swap1\n      jump\t// out\n        /* \"@openzeppelin/contracts/access/Ownable.sol\":1201:1286  function owner() public view virtual returns (address) {... */\n    tag_78:\n        /* \"@openzeppelin/contracts/access/Ownable.sol\":1247:1254  address */\n      0x00\n        /* \"@openzeppelin/contracts/access/Ownable.sol\":1273:1279  _owner */\n      dup1\n      0x00\n      swap1\n      sload\n      swap1\n      0x0100\n      exp\n      swap1\n      div\n      0xffffffffffffffffffffffffffffffffffffffff\n      and\n        /* \"@openzeppelin/contracts/access/Ownable.sol\":1266:1279  return _owner */\n      swap1\n      pop\n        /* \"@openzeppelin/contracts/access/Ownable.sol\":1201:1286  function owner() public view virtual returns (address) {... */\n      swap1\n      jump\t// out\n        /* \"contracts/SnakeGame.sol\":5753:5861  function getAwardRecords() external view returns (AwardRecord[] memory) {... */\n    tag_82:\n        /* \"contracts/SnakeGame.sol\":5803:5823  AwardRecord[] memory */\n      0x60\n        /* \"contracts/SnakeGame.sol\":5842:5854  awardRecords */\n      0x0d\n        /* \"contracts/SnakeGame.sol\":5835:5854  return awardRecords */\n      dup1\n      sload\n      dup1\n      0x20\n      mul\n      0x20\n      add\n      mload(0x40)\n      swap1\n      dup2\n      add\n      0x40\n      mstore\n      dup1\n      swap3\n      swap2\n      swap1\n      dup2\n      dup2\n      mstore\n      0x20\n      add\n      0x00\n      swap1\n    tag_279:\n      dup3\n      dup3\n      lt\n      iszero\n      tag_280\n      jumpi\n      dup4\n      dup3\n      swap1\n      0x00\n      mstore\n      keccak256(0x00, 0x20)\n      swap1\n      0x10\n      mul\n      add\n      mload(0x40)\n      dup1\n      0x80\n      add\n      0x40\n      mstore\n      swap1\n      dup2\n      0x00\n      dup3\n      add\n      0x05\n      dup1\n      0x20\n      mul\n      mload(0x40)\n      swap1\n      dup2\n      add\n      0x40\n      mstore\n      dup1\n      swap3\n      swap2\n      swap1\n      dup3\n      0x05\n      dup1\n      iszero\n      tag_282\n      jumpi\n      0x20\n      mul\n      dup3\n      add\n      swap2\n    tag_283:\n      dup2\n      0x00\n      swap1\n      sload\n      swap1\n      0x0100\n      exp\n      swap1\n      div\n      0xffffffffffffffffffffffffffffffffffffffff\n      and\n      0xffffffffffffffffffffffffffffffffffffffff\n      and\n      dup2\n      mstore\n      0x20\n      add\n      swap1\n      0x01\n      add\n      swap1\n      dup1\n      dup4\n      gt\n      tag_283\n      jumpi\n    tag_282:\n      pop\n      pop\n      pop\n      pop\n      pop\n      dup2\n      mstore\n      0x20\n      add\n      0x05\n      dup3\n      add\n      0x05\n      dup1\n      0x20\n      mul\n      mload(0x40)\n      swap1\n      dup2\n      add\n      0x40\n      mstore\n      dup1\n      swap3\n      swap2\n      swap1\n      dup3\n      0x05\n      dup1\n      iszero\n      tag_284\n      jumpi\n      0x20\n      mul\n      dup3\n      add\n      swap2\n    tag_285:\n      dup2\n      sload\n      dup2\n      mstore\n      0x20\n      add\n      swap1\n      0x01\n      add\n      swap1\n      dup1\n      dup4\n      gt\n      tag_285\n      jumpi\n    tag_284:\n      pop\n      pop\n      pop\n      pop\n      pop\n      dup2\n      mstore\n      0x20\n      add\n      0x0a\n      dup3\n      add\n      0x05\n      dup1\n      0x20\n      mul\n      mload(0x40)\n      swap1\n      dup2\n      add\n      0x40\n      mstore\n      dup1\n      swap3\n      swap2\n      swap1\n      dup3\n      0x05\n      dup1\n      iszero\n      tag_286\n      jumpi\n      0x20\n      mul\n      dup3\n      add\n      swap2\n    tag_287:\n      dup2\n      sload\n      dup2\n      mstore\n      0x20\n      add\n      swap1\n      0x01\n      add\n      swap1\n      dup1\n      dup4\n      gt\n      tag_287\n      jumpi\n    tag_286:\n      pop\n      pop\n      pop\n      pop\n      pop\n      dup2\n      mstore\n      0x20\n      add\n      0x0f\n      dup3\n      add\n      sload\n      dup2\n      mstore\n      pop\n      pop\n      dup2\n      mstore\n      0x20\n      add\n      swap1\n      0x01\n      add\n      swap1\n      jump(tag_279)\n    tag_280:\n      pop\n      pop\n      pop\n      pop\n      swap1\n      pop\n        /* \"contracts/SnakeGame.sol\":5753:5861  function getAwardRecords() external view returns (AwardRecord[] memory) {... */\n      swap1\n      jump\t// out\n        /* \"contracts/SnakeGame.sol\":5130:5214  function setPrice(uint256 _price) external onlyOwner {... */\n    tag_88:\n        /* \"@openzeppelin/contracts/access/Ownable.sol\":1094:1107  _checkOwner() */\n      tag_289\n        /* \"@openzeppelin/contracts/access/Ownable.sol\":1094:1105  _checkOwner */\n      tag_141\n        /* \"@openzeppelin/contracts/access/Ownable.sol\":1094:1107  _checkOwner() */\n      jump\t// in\n    tag_289:\n        /* \"contracts/SnakeGame.sol\":5201:5207  _price */\n      dup1\n        /* \"contracts/SnakeGame.sol\":5193:5198  price */\n      0x08\n        /* \"contracts/SnakeGame.sol\":5193:5207  price = _price */\n      dup2\n      swap1\n      sstore\n      pop\n        /* \"contracts/SnakeGame.sol\":5130:5214  function setPrice(uint256 _price) external onlyOwner {... */\n      pop\n      jump\t// out\n        /* \"contracts/SnakeGame.sol\":920:940  uint256 public price */\n    tag_91:\n      sload(0x08)\n      dup2\n      jump\t// out\n        /* \"contracts/SnakeGame.sol\":1310:1343  AwardRecord[] public awardRecords */\n    tag_96:\n      0x0d\n      dup2\n      dup2\n      sload\n      dup2\n      lt\n      tag_291\n      jumpi\n      0x00\n      dup1\n      revert\n    tag_291:\n      swap1\n      0x00\n      mstore\n      keccak256(0x00, 0x20)\n      swap1\n      0x10\n      mul\n      add\n      0x00\n      swap2\n      pop\n      swap1\n      pop\n      dup1\n      0x0f\n      add\n      sload\n      swap1\n      pop\n      dup2\n      jump\t// out\n        /* \"contracts/SnakeGame.sol\":1614:1664  mapping(address => uint256) public lastPlayedTimes */\n    tag_101:\n      mstore(0x20, 0x11)\n      dup1\n      0x00\n      mstore\n      keccak256(0x00, 0x40)\n      0x00\n      swap2\n      pop\n      swap1\n      pop\n      sload\n      dup2\n      jump\t// out\n        /* \"contracts/SnakeGame.sol\":5295:5619  function setAward(... */\n    tag_107:\n        /* \"@openzeppelin/contracts/access/Ownable.sol\":1094:1107  _checkOwner() */\n      tag_294\n        /* \"@openzeppelin/contracts/access/Ownable.sol\":1094:1105  _checkOwner */\n      tag_141\n        /* \"@openzeppelin/contracts/access/Ownable.sol\":1094:1107  _checkOwner() */\n      jump\t// in\n    tag_294:\n        /* \"contracts/SnakeGame.sol\":5481:5486  first */\n      dup5\n        /* \"contracts/SnakeGame.sol\":5465:5475  awardShare */\n      0x03\n        /* \"contracts/SnakeGame.sol\":5476:5477  0 */\n      0x00\n        /* \"contracts/SnakeGame.sol\":5465:5478  awardShare[0] */\n      0x05\n      dup2\n      lt\n      tag_296\n      jumpi\n      tag_297\n      tag_155\n      jump\t// in\n    tag_297:\n    tag_296:\n      add\n        /* \"contracts/SnakeGame.sol\":5465:5486  awardShare[0] = first */\n      dup2\n      swap1\n      sstore\n      pop\n        /* \"contracts/SnakeGame.sol\":5512:5518  second */\n      dup4\n        /* \"contracts/SnakeGame.sol\":5496:5506  awardShare */\n      0x03\n        /* \"contracts/SnakeGame.sol\":5507:5508  1 */\n      0x01\n        /* \"contracts/SnakeGame.sol\":5496:5509  awardShare[1] */\n      0x05\n      dup2\n      lt\n      tag_299\n      jumpi\n      tag_300\n      tag_155\n      jump\t// in\n    tag_300:\n    tag_299:\n      add\n        /* \"contracts/SnakeGame.sol\":5496:5518  awardShare[1] = second */\n      dup2\n      swap1\n      sstore\n      pop\n        /* \"contracts/SnakeGame.sol\":5544:5549  third */\n      dup3\n        /* \"contracts/SnakeGame.sol\":5528:5538  awardShare */\n      0x03\n        /* \"contracts/SnakeGame.sol\":5539:5540  2 */\n      0x02\n        /* \"contracts/SnakeGame.sol\":5528:5541  awardShare[2] */\n      0x05\n      dup2\n      lt\n      tag_302\n      jumpi\n      tag_303\n      tag_155\n      jump\t// in\n    tag_303:\n    tag_302:\n      add\n        /* \"contracts/SnakeGame.sol\":5528:5549  awardShare[2] = third */\n      dup2\n      swap1\n      sstore\n      pop\n        /* \"contracts/SnakeGame.sol\":5575:5581  fourth */\n      dup2\n        /* \"contracts/SnakeGame.sol\":5559:5569  awardShare */\n      0x03\n        /* \"contracts/SnakeGame.sol\":5570:5571  3 */\n      dup1\n        /* \"contracts/SnakeGame.sol\":5559:5572  awardShare[3] */\n      0x05\n      dup2\n      lt\n      tag_305\n      jumpi\n      tag_306\n      tag_155\n      jump\t// in\n    tag_306:\n    tag_305:\n      add\n        /* \"contracts/SnakeGame.sol\":5559:5581  awardShare[3] = fourth */\n      dup2\n      swap1\n      sstore\n      pop\n        /* \"contracts/SnakeGame.sol\":5607:5612  fifth */\n      dup1\n        /* \"contracts/SnakeGame.sol\":5591:5601  awardShare */\n      0x03\n        /* \"contracts/SnakeGame.sol\":5602:5603  4 */\n      0x04\n        /* \"contracts/SnakeGame.sol\":5591:5604  awardShare[4] */\n      0x05\n      dup2\n      lt\n      tag_308\n      jumpi\n      tag_309\n      tag_155\n      jump\t// in\n    tag_309:\n    tag_308:\n      add\n        /* \"contracts/SnakeGame.sol\":5591:5612  awardShare[4] = fifth */\n      dup2\n      swap1\n      sstore\n      pop\n        /* \"contracts/SnakeGame.sol\":5295:5619  function setAward(... */\n      pop\n      pop\n      pop\n      pop\n      pop\n      jump\t// out\n        /* \"contracts/SnakeGame.sol\":1227:1267  mapping(address => bool) public playable */\n    tag_111:\n      mstore(0x20, 0x0c)\n      dup1\n      0x00\n      mstore\n      keccak256(0x00, 0x40)\n      0x00\n      swap2\n      pop\n      sload\n      swap1\n      0x0100\n      exp\n      swap1\n      div\n      0xff\n      and\n      dup2\n      jump\t// out\n        /* \"contracts/SnakeGame.sol\":2310:2976  function endGame(uint256 point) external nonReentrant {... */\n    tag_117:\n        /* \"@openzeppelin/contracts/security/ReentrancyGuard.sol\":2261:2282  _nonReentrantBefore() */\n      tag_312\n        /* \"@openzeppelin/contracts/security/ReentrancyGuard.sol\":2261:2280  _nonReentrantBefore */\n      tag_313\n        /* \"@openzeppelin/contracts/security/ReentrancyGuard.sol\":2261:2282  _nonReentrantBefore() */\n      jump\t// in\n    tag_312:\n        /* \"contracts/SnakeGame.sol\":2390:2391  0 */\n      0x00\n        /* \"contracts/SnakeGame.sol\":2382:2387  point */\n      dup2\n        /* \"contracts/SnakeGame.sol\":2382:2391  point > 0 */\n      gt\n        /* \"contracts/SnakeGame.sol\":2382:2417  point > 0 && playable[_msgSender()] */\n      dup1\n      iszero\n      tag_315\n      jumpi\n      pop\n        /* \"contracts/SnakeGame.sol\":2395:2403  playable */\n      0x0c\n        /* \"contracts/SnakeGame.sol\":2395:2417  playable[_msgSender()] */\n      0x00\n        /* \"contracts/SnakeGame.sol\":2404:2416  _msgSender() */\n      tag_316\n        /* \"contracts/SnakeGame.sol\":2404:2414  _msgSender */\n      tag_317\n        /* \"contracts/SnakeGame.sol\":2404:2416  _msgSender() */\n      jump\t// in\n    tag_316:\n        /* \"contracts/SnakeGame.sol\":2395:2417  playable[_msgSender()] */\n      0xffffffffffffffffffffffffffffffffffffffff\n      and\n      0xffffffffffffffffffffffffffffffffffffffff\n      and\n      dup2\n      mstore\n      0x20\n      add\n      swap1\n      dup2\n      mstore\n      0x20\n      add\n      0x00\n      keccak256\n      0x00\n      swap1\n      sload\n      swap1\n      0x0100\n      exp\n      swap1\n      div\n      0xff\n      and\n        /* \"contracts/SnakeGame.sol\":2382:2417  point > 0 && playable[_msgSender()] */\n    tag_315:\n        /* \"contracts/SnakeGame.sol\":2374:2435  require(point > 0 && playable[_msgSender()], \"bad operation\") */\n      tag_318\n      jumpi\n      mload(0x40)\n      0x08c379a000000000000000000000000000000000000000000000000000000000\n      dup2\n      mstore\n      0x04\n      add\n      tag_319\n      swap1\n      tag_320\n      jump\t// in\n    tag_319:\n      mload(0x40)\n      dup1\n      swap2\n      sub\n      swap1\n      revert\n    tag_318:\n        /* \"contracts/SnakeGame.sol\":2470:2475  false */\n      0x00\n        /* \"contracts/SnakeGame.sol\":2445:2453  playable */\n      0x0c\n        /* \"contracts/SnakeGame.sol\":2445:2467  playable[_msgSender()] */\n      0x00\n        /* \"contracts/SnakeGame.sol\":2454:2466  _msgSender() */\n      tag_321\n        /* \"contracts/SnakeGame.sol\":2454:2464  _msgSender */\n      tag_317\n        /* \"contracts/SnakeGame.sol\":2454:2466  _msgSender() */\n      jump\t// in\n    tag_321:\n        /* \"contracts/SnakeGame.sol\":2445:2467  playable[_msgSender()] */\n      0xffffffffffffffffffffffffffffffffffffffff\n      and\n      0xffffffffffffffffffffffffffffffffffffffff\n      and\n      dup2\n      mstore\n      0x20\n      add\n      swap1\n      dup2\n      mstore\n      0x20\n      add\n      0x00\n      keccak256\n      0x00\n        /* \"contracts/SnakeGame.sol\":2445:2475  playable[_msgSender()] = false */\n      0x0100\n      exp\n      dup2\n      sload\n      dup2\n      0xff\n      mul\n      not\n      and\n      swap1\n      dup4\n      iszero\n      iszero\n      mul\n      or\n      swap1\n      sstore\n      pop\n        /* \"contracts/SnakeGame.sol\":2553:2554  0 */\n      0x00\n        /* \"contracts/SnakeGame.sol\":2526:2535  accPoints */\n      0x0a\n        /* \"contracts/SnakeGame.sol\":2526:2549  accPoints[_msgSender()] */\n      0x00\n        /* \"contracts/SnakeGame.sol\":2536:2548  _msgSender() */\n      tag_322\n        /* \"contracts/SnakeGame.sol\":2536:2546  _msgSender */\n      tag_317\n        /* \"contracts/SnakeGame.sol\":2536:2548  _msgSender() */\n      jump\t// in\n    tag_322:\n        /* \"contracts/SnakeGame.sol\":2526:2549  accPoints[_msgSender()] */\n      0xffffffffffffffffffffffffffffffffffffffff\n      and\n      0xffffffffffffffffffffffffffffffffffffffff\n      and\n      dup2\n      mstore\n      0x20\n      add\n      swap1\n      dup2\n      mstore\n      0x20\n      add\n      0x00\n      keccak256\n      sload\n        /* \"contracts/SnakeGame.sol\":2526:2554  accPoints[_msgSender()] == 0 */\n      sub\n        /* \"contracts/SnakeGame.sol\":2522:2607  if (accPoints[_msgSender()] == 0) {... */\n      tag_323\n      jumpi\n        /* \"contracts/SnakeGame.sol\":2570:2577  players */\n      0x09\n        /* \"contracts/SnakeGame.sol\":2583:2595  _msgSender() */\n      tag_324\n        /* \"contracts/SnakeGame.sol\":2583:2593  _msgSender */\n      tag_317\n        /* \"contracts/SnakeGame.sol\":2583:2595  _msgSender() */\n      jump\t// in\n    tag_324:\n        /* \"contracts/SnakeGame.sol\":2570:2596  players.push(_msgSender()) */\n      swap1\n      dup1\n      0x01\n      dup2\n      sload\n      add\n      dup1\n      dup3\n      sstore\n      dup1\n      swap2\n      pop\n      pop\n      0x01\n      swap1\n      sub\n      swap1\n      0x00\n      mstore\n      keccak256(0x00, 0x20)\n      add\n      0x00\n      swap1\n      swap2\n      swap1\n      swap2\n      swap1\n      swap2\n      0x0100\n      exp\n      dup2\n      sload\n      dup2\n      0xffffffffffffffffffffffffffffffffffffffff\n      mul\n      not\n      and\n      swap1\n      dup4\n      0xffffffffffffffffffffffffffffffffffffffff\n      and\n      mul\n      or\n      swap1\n      sstore\n      pop\n        /* \"contracts/SnakeGame.sol\":2522:2607  if (accPoints[_msgSender()] == 0) {... */\n    tag_323:\n        /* \"contracts/SnakeGame.sol\":2643:2648  point */\n      dup1\n        /* \"contracts/SnakeGame.sol\":2616:2625  accPoints */\n      0x0a\n        /* \"contracts/SnakeGame.sol\":2616:2639  accPoints[_msgSender()] */\n      0x00\n        /* \"contracts/SnakeGame.sol\":2626:2638  _msgSender() */\n      tag_326\n        /* \"contracts/SnakeGame.sol\":2626:2636  _msgSender */\n      tag_317\n        /* \"contracts/SnakeGame.sol\":2626:2638  _msgSender() */\n      jump\t// in\n    tag_326:\n        /* \"contracts/SnakeGame.sol\":2616:2639  accPoints[_msgSender()] */\n      0xffffffffffffffffffffffffffffffffffffffff\n      and\n      0xffffffffffffffffffffffffffffffffffffffff\n      and\n      dup2\n      mstore\n      0x20\n      add\n      swap1\n      dup2\n      mstore\n      0x20\n      add\n      0x00\n      keccak256\n      0x00\n        /* \"contracts/SnakeGame.sol\":2616:2648  accPoints[_msgSender()] += point */\n      dup3\n      dup3\n      sload\n      tag_327\n      swap2\n      swap1\n      tag_173\n      jump\t// in\n    tag_327:\n      swap3\n      pop\n      pop\n      dup2\n      swap1\n      sstore\n      pop\n        /* \"contracts/SnakeGame.sol\":2729:2730  0 */\n      0x00\n        /* \"contracts/SnakeGame.sol\":2700:2711  totalPoints */\n      0x10\n        /* \"contracts/SnakeGame.sol\":2700:2725  totalPoints[_msgSender()] */\n      0x00\n        /* \"contracts/SnakeGame.sol\":2712:2724  _msgSender() */\n      tag_328\n        /* \"contracts/SnakeGame.sol\":2712:2722  _msgSender */\n      tag_317\n        /* \"contracts/SnakeGame.sol\":2712:2724  _msgSender() */\n      jump\t// in\n    tag_328:\n        /* \"contracts/SnakeGame.sol\":2700:2725  totalPoints[_msgSender()] */\n      0xffffffffffffffffffffffffffffffffffffffff\n      and\n      0xffffffffffffffffffffffffffffffffffffffff\n      and\n      dup2\n      mstore\n      0x20\n      add\n      swap1\n      dup2\n      mstore\n      0x20\n      add\n      0x00\n      keccak256\n      sload\n        /* \"contracts/SnakeGame.sol\":2700:2730  totalPoints[_msgSender()] == 0 */\n      sub\n        /* \"contracts/SnakeGame.sol\":2696:2788  if (totalPoints[_msgSender()] == 0) {... */\n      tag_329\n      jumpi\n        /* \"contracts/SnakeGame.sol\":2746:2758  participants */\n      0x0f\n        /* \"contracts/SnakeGame.sol\":2764:2776  _msgSender() */\n      tag_330\n        /* \"contracts/SnakeGame.sol\":2764:2774  _msgSender */\n      tag_317\n        /* \"contracts/SnakeGame.sol\":2764:2776  _msgSender() */\n      jump\t// in\n    tag_330:\n        /* \"contracts/SnakeGame.sol\":2746:2777  participants.push(_msgSender()) */\n      swap1\n      dup1\n      0x01\n      dup2\n      sload\n      add\n      dup1\n      dup3\n      sstore\n      dup1\n      swap2\n      pop\n      pop\n      0x01\n      swap1\n      sub\n      swap1\n      0x00\n      mstore\n      keccak256(0x00, 0x20)\n      add\n      0x00\n      swap1\n      swap2\n      swap1\n      swap2\n      swap1\n      swap2\n      0x0100\n      exp\n      dup2\n      sload\n      dup2\n      0xffffffffffffffffffffffffffffffffffffffff\n      mul\n      not\n      and\n      swap1\n      dup4\n      0xffffffffffffffffffffffffffffffffffffffff\n      and\n      mul\n      or\n      swap1\n      sstore\n      pop\n        /* \"contracts/SnakeGame.sol\":2696:2788  if (totalPoints[_msgSender()] == 0) {... */\n    tag_329:\n        /* \"contracts/SnakeGame.sol\":2826:2831  point */\n      dup1\n        /* \"contracts/SnakeGame.sol\":2797:2808  totalPoints */\n      0x10\n        /* \"contracts/SnakeGame.sol\":2797:2822  totalPoints[_msgSender()] */\n      0x00\n        /* \"contracts/SnakeGame.sol\":2809:2821  _msgSender() */\n      tag_332\n        /* \"contracts/SnakeGame.sol\":2809:2819  _msgSender */\n      tag_317\n        /* \"contracts/SnakeGame.sol\":2809:2821  _msgSender() */\n      jump\t// in\n    tag_332:\n        /* \"contracts/SnakeGame.sol\":2797:2822  totalPoints[_msgSender()] */\n      0xffffffffffffffffffffffffffffffffffffffff\n      and\n      0xffffffffffffffffffffffffffffffffffffffff\n      and\n      dup2\n      mstore\n      0x20\n      add\n      swap1\n      dup2\n      mstore\n      0x20\n      add\n      0x00\n      keccak256\n      0x00\n        /* \"contracts/SnakeGame.sol\":2797:2831  totalPoints[_msgSender()] += point */\n      dup3\n      dup3\n      sload\n      tag_333\n      swap2\n      swap1\n      tag_173\n      jump\t// in\n    tag_333:\n      swap3\n      pop\n      pop\n      dup2\n      swap1\n      sstore\n      pop\n        /* \"contracts/SnakeGame.sol\":2873:2888  block.timestamp */\n      timestamp\n        /* \"contracts/SnakeGame.sol\":2841:2856  lastPlayedTimes */\n      0x11\n        /* \"contracts/SnakeGame.sol\":2841:2870  lastPlayedTimes[_msgSender()] */\n      0x00\n        /* \"contracts/SnakeGame.sol\":2857:2869  _msgSender() */\n      tag_334\n        /* \"contracts/SnakeGame.sol\":2857:2867  _msgSender */\n      tag_317\n        /* \"contracts/SnakeGame.sol\":2857:2869  _msgSender() */\n      jump\t// in\n    tag_334:\n        /* \"contracts/SnakeGame.sol\":2841:2870  lastPlayedTimes[_msgSender()] */\n      0xffffffffffffffffffffffffffffffffffffffff\n      and\n      0xffffffffffffffffffffffffffffffffffffffff\n      and\n      dup2\n      mstore\n      0x20\n      add\n      swap1\n      dup2\n      mstore\n      0x20\n      add\n      0x00\n      keccak256\n        /* \"contracts/SnakeGame.sol\":2841:2888  lastPlayedTimes[_msgSender()] = block.timestamp */\n      dup2\n      swap1\n      sstore\n      pop\n        /* \"contracts/SnakeGame.sol\":2898:2907  gameCount */\n      0x0e\n      0x00\n        /* \"contracts/SnakeGame.sol\":2898:2909  gameCount++ */\n      dup2\n      sload\n      dup1\n      swap3\n      swap2\n      swap1\n      tag_335\n      swap1\n      tag_181\n      jump\t// in\n    tag_335:\n      swap2\n      swap1\n      pop\n      sstore\n      pop\n        /* \"contracts/SnakeGame.sol\":2924:2969  EndGame(_msgSender(), point, block.timestamp) */\n      0x1a0da0f323e639ddc4f72afdc6e15f3fc4d63e8db62bd38a5c6ad04bc5a37be2\n        /* \"contracts/SnakeGame.sol\":2932:2944  _msgSender() */\n      tag_336\n        /* \"contracts/SnakeGame.sol\":2932:2942  _msgSender */\n      tag_317\n        /* \"contracts/SnakeGame.sol\":2932:2944  _msgSender() */\n      jump\t// in\n    tag_336:\n        /* \"contracts/SnakeGame.sol\":2946:2951  point */\n      dup3\n        /* \"contracts/SnakeGame.sol\":2953:2968  block.timestamp */\n      timestamp\n        /* \"contracts/SnakeGame.sol\":2924:2969  EndGame(_msgSender(), point, block.timestamp) */\n      mload(0x40)\n      tag_337\n      swap4\n      swap3\n      swap2\n      swap1\n      tag_338\n      jump\t// in\n    tag_337:\n      mload(0x40)\n      dup1\n      swap2\n      sub\n      swap1\n      log1\n        /* \"@openzeppelin/contracts/security/ReentrancyGuard.sol\":2303:2323  _nonReentrantAfter() */\n      tag_339\n        /* \"@openzeppelin/contracts/security/ReentrancyGuard.sol\":2303:2321  _nonReentrantAfter */\n      tag_340\n        /* \"@openzeppelin/contracts/security/ReentrancyGuard.sol\":2303:2323  _nonReentrantAfter() */\n      jump\t// in\n    tag_339:\n        /* \"contracts/SnakeGame.sol\":2310:2976  function endGame(uint256 point) external nonReentrant {... */\n      pop\n      jump\t// out\n        /* \"contracts/SnakeGame.sol\":2134:2288  function startGame() external payable paymentCovered {... */\n    tag_119:\n        /* \"contracts/SnakeGame.sol\":2064:2069  price */\n      sload(0x08)\n        /* \"contracts/SnakeGame.sol\":2051:2060  msg.value */\n      callvalue\n        /* \"contracts/SnakeGame.sol\":2051:2069  msg.value >= price */\n      lt\n      iszero\n        /* \"contracts/SnakeGame.sol\":2043:2092  require(msg.value >= price, \"Not enough payment\") */\n      tag_342\n      jumpi\n      mload(0x40)\n      0x08c379a000000000000000000000000000000000000000000000000000000000\n      dup2\n      mstore\n      0x04\n      add\n      tag_343\n      swap1\n      tag_344\n      jump\t// in\n    tag_343:\n      mload(0x40)\n      dup1\n      swap2\n      sub\n      swap1\n      revert\n    tag_342:\n        /* \"contracts/SnakeGame.sol\":2222:2226  true */\n      0x01\n        /* \"contracts/SnakeGame.sol\":2197:2205  playable */\n      0x0c\n        /* \"contracts/SnakeGame.sol\":2197:2219  playable[_msgSender()] */\n      0x00\n        /* \"contracts/SnakeGame.sol\":2206:2218  _msgSender() */\n      tag_346\n        /* \"contracts/SnakeGame.sol\":2206:2216  _msgSender */\n      tag_317\n        /* \"contracts/SnakeGame.sol\":2206:2218  _msgSender() */\n      jump\t// in\n    tag_346:\n        /* \"contracts/SnakeGame.sol\":2197:2219  playable[_msgSender()] */\n      0xffffffffffffffffffffffffffffffffffffffff\n      and\n      0xffffffffffffffffffffffffffffffffffffffff\n      and\n      dup2\n      mstore\n      0x20\n      add\n      swap1\n      dup2\n      mstore\n      0x20\n      add\n      0x00\n      keccak256\n      0x00\n        /* \"contracts/SnakeGame.sol\":2197:2226  playable[_msgSender()] = true */\n      0x0100\n      exp\n      dup2\n      sload\n      dup2\n      0xff\n      mul\n      not\n      and\n      swap1\n      dup4\n      iszero\n      iszero\n      mul\n      or\n      swap1\n      sstore\n      pop\n        /* \"contracts/SnakeGame.sol\":2241:2281  StartGame(_msgSender(), block.timestamp) */\n      0x827a821cc7b9cae4c0baef42ee9cdeb791722ab1aa43532c255ea468ea6d5b1d\n        /* \"contracts/SnakeGame.sol\":2251:2263  _msgSender() */\n      tag_347\n        /* \"contracts/SnakeGame.sol\":2251:2261  _msgSender */\n      tag_317\n        /* \"contracts/SnakeGame.sol\":2251:2263  _msgSender() */\n      jump\t// in\n    tag_347:\n        /* \"contracts/SnakeGame.sol\":2265:2280  block.timestamp */\n      timestamp\n        /* \"contracts/SnakeGame.sol\":2241:2281  StartGame(_msgSender(), block.timestamp) */\n      mload(0x40)\n      tag_348\n      swap3\n      swap2\n      swap1\n      tag_349\n      jump\t// in\n    tag_348:\n      mload(0x40)\n      dup1\n      swap2\n      sub\n      swap1\n      log1\n        /* \"contracts/SnakeGame.sol\":2134:2288  function startGame() external payable paymentCovered {... */\n      jump\t// out\n        /* \"contracts/SnakeGame.sol\":5646:5747  function getAwardShare() external view returns (uint256[5] memory) {... */\n    tag_122:\n        /* \"contracts/SnakeGame.sol\":5694:5711  uint256[5] memory */\n      tag_350\n      tag_351\n      jump\t// in\n    tag_350:\n        /* \"contracts/SnakeGame.sol\":5730:5740  awardShare */\n      0x03\n        /* \"contracts/SnakeGame.sol\":5723:5740  return awardShare */\n      0x05\n      dup1\n      0x20\n      mul\n      mload(0x40)\n      swap1\n      dup2\n      add\n      0x40\n      mstore\n      dup1\n      swap3\n      swap2\n      swap1\n      dup3\n      0x05\n      dup1\n      iszero\n      tag_353\n      jumpi\n      0x20\n      mul\n      dup3\n      add\n      swap2\n    tag_354:\n      dup2\n      sload\n      dup2\n      mstore\n      0x20\n      add\n      swap1\n      0x01\n      add\n      swap1\n      dup1\n      dup4\n      gt\n      tag_354\n      jumpi\n    tag_353:\n      pop\n      pop\n      pop\n      pop\n      pop\n      swap1\n      pop\n        /* \"contracts/SnakeGame.sol\":5646:5747  function getAwardShare() external view returns (uint256[5] memory) {... */\n      swap1\n      jump\t// out\n        /* \"@openzeppelin/contracts/access/Ownable.sol\":2081:2279  function transferOwnership(address newOwner) public virtual onlyOwner {... */\n    tag_128:\n        /* \"@openzeppelin/contracts/access/Ownable.sol\":1094:1107  _checkOwner() */\n      tag_356\n        /* \"@openzeppelin/contracts/access/Ownable.sol\":1094:1105  _checkOwner */\n      tag_141\n        /* \"@openzeppelin/contracts/access/Ownable.sol\":1094:1107  _checkOwner() */\n      jump\t// in\n    tag_356:\n        /* \"@openzeppelin/contracts/access/Ownable.sol\":2189:2190  0 */\n      0x00\n        /* \"@openzeppelin/contracts/access/Ownable.sol\":2169:2191  newOwner != address(0) */\n      0xffffffffffffffffffffffffffffffffffffffff\n      and\n        /* \"@openzeppelin/contracts/access/Ownable.sol\":2169:2177  newOwner */\n      dup2\n        /* \"@openzeppelin/contracts/access/Ownable.sol\":2169:2191  newOwner != address(0) */\n      0xffffffffffffffffffffffffffffffffffffffff\n      and\n      sub\n        /* \"@openzeppelin/contracts/access/Ownable.sol\":2161:2234  require(newOwner != address(0), \"Ownable: new owner is the zero address\") */\n      tag_358\n      jumpi\n      mload(0x40)\n      0x08c379a000000000000000000000000000000000000000000000000000000000\n      dup2\n      mstore\n      0x04\n      add\n      tag_359\n      swap1\n      tag_360\n      jump\t// in\n    tag_359:\n      mload(0x40)\n      dup1\n      swap2\n      sub\n      swap1\n      revert\n    tag_358:\n        /* \"@openzeppelin/contracts/access/Ownable.sol\":2244:2272  _transferOwnership(newOwner) */\n      tag_361\n        /* \"@openzeppelin/contracts/access/Ownable.sol\":2263:2271  newOwner */\n      dup2\n        /* \"@openzeppelin/contracts/access/Ownable.sol\":2244:2262  _transferOwnership */\n      tag_273\n        /* \"@openzeppelin/contracts/access/Ownable.sol\":2244:2272  _transferOwnership(newOwner) */\n      jump\t// in\n    tag_361:\n        /* \"@openzeppelin/contracts/access/Ownable.sol\":2081:2279  function transferOwnership(address newOwner) public virtual onlyOwner {... */\n      pop\n      jump\t// out\n        /* \"contracts/SnakeGame.sol\":1009:1033  address[] public players */\n    tag_132:\n      0x09\n      dup2\n      dup2\n      sload\n      dup2\n      lt\n      tag_362\n      jumpi\n      0x00\n      dup1\n      revert\n    tag_362:\n      swap1\n      0x00\n      mstore\n      keccak256(0x00, 0x20)\n      add\n      0x00\n      swap2\n      pop\n      sload\n      swap1\n      0x0100\n      exp\n      swap1\n      div\n      0xffffffffffffffffffffffffffffffffffffffff\n      and\n      dup2\n      jump\t// out\n        /* \"contracts/SnakeGame.sol\":1061:1105  mapping(address => uint256) public accPoints */\n    tag_137:\n      mstore(0x20, 0x0a)\n      dup1\n      0x00\n      mstore\n      keccak256(0x00, 0x40)\n      0x00\n      swap2\n      pop\n      swap1\n      pop\n      sload\n      dup2\n      jump\t// out\n        /* \"@openzeppelin/contracts/access/Ownable.sol\":1359:1489  function _checkOwner() internal view virtual {... */\n    tag_141:\n        /* \"@openzeppelin/contracts/access/Ownable.sol\":1433:1445  _msgSender() */\n      tag_365\n        /* \"@openzeppelin/contracts/access/Ownable.sol\":1433:1443  _msgSender */\n      tag_317\n        /* \"@openzeppelin/contracts/access/Ownable.sol\":1433:1445  _msgSender() */\n      jump\t// in\n    tag_365:\n        /* \"@openzeppelin/contracts/access/Ownable.sol\":1422:1445  owner() == _msgSender() */\n      0xffffffffffffffffffffffffffffffffffffffff\n      and\n        /* \"@openzeppelin/contracts/access/Ownable.sol\":1422:1429  owner() */\n      tag_366\n        /* \"@openzeppelin/contracts/access/Ownable.sol\":1422:1427  owner */\n      tag_78\n        /* \"@openzeppelin/contracts/access/Ownable.sol\":1422:1429  owner() */\n      jump\t// in\n    tag_366:\n        /* \"@openzeppelin/contracts/access/Ownable.sol\":1422:1445  owner() == _msgSender() */\n      0xffffffffffffffffffffffffffffffffffffffff\n      and\n      eq\n        /* \"@openzeppelin/contracts/access/Ownable.sol\":1414:1482  require(owner() == _msgSender(), \"Ownable: caller is not the owner\") */\n      tag_367\n      jumpi\n      mload(0x40)\n      0x08c379a000000000000000000000000000000000000000000000000000000000\n      dup2\n      mstore\n      0x04\n      add\n      tag_368\n      swap1\n      tag_369\n      jump\t// in\n    tag_368:\n      mload(0x40)\n      dup1\n      swap2\n      sub\n      swap1\n      revert\n    tag_367:\n        /* \"@openzeppelin/contracts/access/Ownable.sol\":1359:1489  function _checkOwner() internal view virtual {... */\n      jump\t// out\n        /* \"@openzeppelin/contracts/access/Ownable.sol\":2433:2620  function _transferOwnership(address newOwner) internal virtual {... */\n    tag_273:\n        /* \"@openzeppelin/contracts/access/Ownable.sol\":2506:2522  address oldOwner */\n      0x00\n        /* \"@openzeppelin/contracts/access/Ownable.sol\":2525:2531  _owner */\n      dup1\n      0x00\n      swap1\n      sload\n      swap1\n      0x0100\n      exp\n      swap1\n      div\n      0xffffffffffffffffffffffffffffffffffffffff\n      and\n        /* \"@openzeppelin/contracts/access/Ownable.sol\":2506:2531  address oldOwner = _owner */\n      swap1\n      pop\n        /* \"@openzeppelin/contracts/access/Ownable.sol\":2550:2558  newOwner */\n      dup2\n        /* \"@openzeppelin/contracts/access/Ownable.sol\":2541:2547  _owner */\n      0x00\n      dup1\n        /* \"@openzeppelin/contracts/access/Ownable.sol\":2541:2558  _owner = newOwner */\n      0x0100\n      exp\n      dup2\n      sload\n      dup2\n      0xffffffffffffffffffffffffffffffffffffffff\n      mul\n      not\n      and\n      swap1\n      dup4\n      0xffffffffffffffffffffffffffffffffffffffff\n      and\n      mul\n      or\n      swap1\n      sstore\n      pop\n        /* \"@openzeppelin/contracts/access/Ownable.sol\":2604:2612  newOwner */\n      dup2\n        /* \"@openzeppelin/contracts/access/Ownable.sol\":2573:2613  OwnershipTransferred(oldOwner, newOwner) */\n      0xffffffffffffffffffffffffffffffffffffffff\n      and\n        /* \"@openzeppelin/contracts/access/Ownable.sol\":2594:2602  oldOwner */\n      dup2\n        /* \"@openzeppelin/contracts/access/Ownable.sol\":2573:2613  OwnershipTransferred(oldOwner, newOwner) */\n      0xffffffffffffffffffffffffffffffffffffffff\n      and\n      0x8be0079c531659141344cd1fd0a4f28419497f9722a3daafe3b4186f6b6457e0\n      mload(0x40)\n      mload(0x40)\n      dup1\n      swap2\n      sub\n      swap1\n      log3\n        /* \"@openzeppelin/contracts/access/Ownable.sol\":2496:2620  {... */\n      pop\n        /* \"@openzeppelin/contracts/access/Ownable.sol\":2433:2620  function _transferOwnership(address newOwner) internal virtual {... */\n      pop\n      jump\t// out\n        /* \"@openzeppelin/contracts/security/ReentrancyGuard.sol\":2336:2623  function _nonReentrantBefore() private {... */\n    tag_313:\n        /* \"@openzeppelin/contracts/security/ReentrancyGuard.sol\":1759:1760  2 */\n      0x02\n        /* \"@openzeppelin/contracts/security/ReentrancyGuard.sol\":2468:2475  _status */\n      sload(0x01)\n        /* \"@openzeppelin/contracts/security/ReentrancyGuard.sol\":2468:2487  _status != _ENTERED */\n      sub\n        /* \"@openzeppelin/contracts/security/ReentrancyGuard.sol\":2460:2523  require(_status != _ENTERED, \"ReentrancyGuard: reentrant call\") */\n      tag_372\n      jumpi\n      mload(0x40)\n      0x08c379a000000000000000000000000000000000000000000000000000000000\n      dup2\n      mstore\n      0x04\n      add\n      tag_373\n      swap1\n      tag_374\n      jump\t// in\n    tag_373:\n      mload(0x40)\n      dup1\n      swap2\n      sub\n      swap1\n      revert\n    tag_372:\n        /* \"@openzeppelin/contracts/security/ReentrancyGuard.sol\":1759:1760  2 */\n      0x02\n        /* \"@openzeppelin/contracts/security/ReentrancyGuard.sol\":2598:2605  _status */\n      0x01\n        /* \"@openzeppelin/contracts/security/ReentrancyGuard.sol\":2598:2616  _status = _ENTERED */\n      dup2\n      swap1\n      sstore\n      pop\n        /* \"@openzeppelin/contracts/security/ReentrancyGuard.sol\":2336:2623  function _nonReentrantBefore() private {... */\n      jump\t// out\n        /* \"@openzeppelin/contracts/utils/Context.sol\":640:736  function _msgSender() internal view virtual returns (address) {... */\n    tag_317:\n        /* \"@openzeppelin/contracts/utils/Context.sol\":693:700  address */\n      0x00\n        /* \"@openzeppelin/contracts/utils/Context.sol\":719:729  msg.sender */\n      caller\n        /* \"@openzeppelin/contracts/utils/Context.sol\":712:729  return msg.sender */\n      swap1\n      pop\n        /* \"@openzeppelin/contracts/utils/Context.sol\":640:736  function _msgSender() internal view virtual returns (address) {... */\n      swap1\n      jump\t// out\n        /* \"@openzeppelin/contracts/security/ReentrancyGuard.sol\":2629:2838  function _nonReentrantAfter() private {... */\n    tag_340:\n        /* \"@openzeppelin/contracts/security/ReentrancyGuard.sol\":1716:1717  1 */\n      0x01\n        /* \"@openzeppelin/contracts/security/ReentrancyGuard.sol\":2809:2816  _status */\n      dup1\n        /* \"@openzeppelin/contracts/security/ReentrancyGuard.sol\":2809:2831  _status = _NOT_ENTERED */\n      dup2\n      swap1\n      sstore\n      pop\n        /* \"@openzeppelin/contracts/security/ReentrancyGuard.sol\":2629:2838  function _nonReentrantAfter() private {... */\n      jump\t// out\n    tag_144:\n      mload(0x40)\n      dup1\n      0xa0\n      add\n      0x40\n      mstore\n      dup1\n      0x05\n      swap1\n      0x20\n      dup3\n      mul\n      dup1\n      calldatasize\n      dup4\n      calldatacopy\n      dup1\n      dup3\n      add\n      swap2\n      pop\n      pop\n      swap1\n      pop\n      pop\n      swap1\n      jump\t// out\n    tag_146:\n      mload(0x40)\n      dup1\n      0x80\n      add\n      0x40\n      mstore\n      dup1\n      tag_377\n      tag_144\n      jump\t// in\n    tag_377:\n      dup2\n      mstore\n      0x20\n      add\n      tag_378\n      tag_351\n      jump\t// in\n    tag_378:\n      dup2\n      mstore\n      0x20\n      add\n      tag_379\n      tag_351\n      jump\t// in\n    tag_379:\n      dup2\n      mstore\n      0x20\n      add\n      0x00\n      dup2\n      mstore\n      pop\n      swap1\n      jump\t// out\n    tag_255:\n      dup3\n      0x05\n      dup2\n      add\n      swap3\n      dup3\n      iszero\n      tag_380\n      jumpi\n      swap2\n      0x20\n      mul\n      dup3\n      add\n    tag_381:\n      dup3\n      dup2\n      gt\n      iszero\n      tag_382\n      jumpi\n      dup3\n      mload\n      dup3\n      exp(0x0100, 0x00)\n      dup2\n      sload\n      dup2\n      0xffffffffffffffffffffffffffffffffffffffff\n      mul\n      not\n      and\n      swap1\n      dup4\n      0xffffffffffffffffffffffffffffffffffffffff\n      and\n      mul\n      or\n      swap1\n      sstore\n      pop\n      swap2\n      0x20\n      add\n      swap2\n      swap1\n      0x01\n      add\n      swap1\n      jump(tag_381)\n    tag_382:\n    tag_380:\n      pop\n      swap1\n      pop\n      tag_383\n      swap2\n      swap1\n      tag_384\n      jump\t// in\n    tag_383:\n      pop\n      swap1\n      jump\t// out\n    tag_257:\n      dup3\n      0x05\n      dup2\n      add\n      swap3\n      dup3\n      iszero\n      tag_385\n      jumpi\n      swap2\n      0x20\n      mul\n      dup3\n      add\n    tag_386:\n      dup3\n      dup2\n      gt\n      iszero\n      tag_387\n      jumpi\n      dup3\n      mload\n      dup3\n      sstore\n      swap2\n      0x20\n      add\n      swap2\n      swap1\n      0x01\n      add\n      swap1\n      jump(tag_386)\n    tag_387:\n    tag_385:\n      pop\n      swap1\n      pop\n      tag_388\n      swap2\n      swap1\n      tag_384\n      jump\t// in\n    tag_388:\n      pop\n      swap1\n      jump\t// out\n    tag_351:\n      mload(0x40)\n      dup1\n      0xa0\n      add\n      0x40\n      mstore\n      dup1\n      0x05\n      swap1\n      0x20\n      dup3\n      mul\n      dup1\n      calldatasize\n      dup4\n      calldatacopy\n      dup1\n      dup3\n      add\n      swap2\n      pop\n      pop\n      swap1\n      pop\n      pop\n      swap1\n      jump\t// out\n    tag_384:\n    tag_389:\n      dup1\n      dup3\n      gt\n      iszero\n      tag_390\n      jumpi\n      0x00\n      dup2\n      0x00\n      swap1\n      sstore\n      pop\n      0x01\n      add\n      jump(tag_389)\n    tag_390:\n      pop\n      swap1\n      jump\t// out\n        /* \"#utility.yul\":88:205   */\n    tag_392:\n        /* \"#utility.yul\":197:198   */\n      0x00\n        /* \"#utility.yul\":194:195   */\n      dup1\n        /* \"#utility.yul\":187:199   */\n      revert\n        /* \"#utility.yul\":334:460   */\n    tag_394:\n        /* \"#utility.yul\":371:378   */\n      0x00\n        /* \"#utility.yul\":411:453   */\n      0xffffffffffffffffffffffffffffffffffffffff\n        /* \"#utility.yul\":404:409   */\n      dup3\n        /* \"#utility.yul\":400:454   */\n      and\n        /* \"#utility.yul\":389:454   */\n      swap1\n      pop\n        /* \"#utility.yul\":334:460   */\n      swap2\n      swap1\n      pop\n      jump\t// out\n        /* \"#utility.yul\":466:562   */\n    tag_395:\n        /* \"#utility.yul\":503:510   */\n      0x00\n        /* \"#utility.yul\":532:556   */\n      tag_459\n        /* \"#utility.yul\":550:555   */\n      dup3\n        /* \"#utility.yul\":532:556   */\n      tag_394\n      jump\t// in\n    tag_459:\n        /* \"#utility.yul\":521:556   */\n      swap1\n      pop\n        /* \"#utility.yul\":466:562   */\n      swap2\n      swap1\n      pop\n      jump\t// out\n        /* \"#utility.yul\":568:690   */\n    tag_396:\n        /* \"#utility.yul\":641:665   */\n      tag_461\n        /* \"#utility.yul\":659:664   */\n      dup2\n        /* \"#utility.yul\":641:665   */\n      tag_395\n      jump\t// in\n    tag_461:\n        /* \"#utility.yul\":634:639   */\n      dup2\n        /* \"#utility.yul\":631:666   */\n      eq\n        /* \"#utility.yul\":621:684   */\n      tag_462\n      jumpi\n        /* \"#utility.yul\":680:681   */\n      0x00\n        /* \"#utility.yul\":677:678   */\n      dup1\n        /* \"#utility.yul\":670:682   */\n      revert\n        /* \"#utility.yul\":621:684   */\n    tag_462:\n        /* \"#utility.yul\":568:690   */\n      pop\n      jump\t// out\n        /* \"#utility.yul\":696:835   */\n    tag_397:\n        /* \"#utility.yul\":742:747   */\n      0x00\n        /* \"#utility.yul\":780:786   */\n      dup2\n        /* \"#utility.yul\":767:787   */\n      calldataload\n        /* \"#utility.yul\":758:787   */\n      swap1\n      pop\n        /* \"#utility.yul\":796:829   */\n      tag_464\n        /* \"#utility.yul\":823:828   */\n      dup2\n        /* \"#utility.yul\":796:829   */\n      tag_396\n      jump\t// in\n    tag_464:\n        /* \"#utility.yul\":696:835   */\n      swap3\n      swap2\n      pop\n      pop\n      jump\t// out\n        /* \"#utility.yul\":841:1170   */\n    tag_35:\n        /* \"#utility.yul\":900:906   */\n      0x00\n        /* \"#utility.yul\":949:951   */\n      0x20\n        /* \"#utility.yul\":937:946   */\n      dup3\n        /* \"#utility.yul\":928:935   */\n      dup5\n        /* \"#utility.yul\":924:947   */\n      sub\n        /* \"#utility.yul\":920:952   */\n      slt\n        /* \"#utility.yul\":917:1036   */\n      iszero\n      tag_466\n      jumpi\n        /* \"#utility.yul\":955:1034   */\n      tag_467\n      tag_392\n      jump\t// in\n    tag_467:\n        /* \"#utility.yul\":917:1036   */\n    tag_466:\n        /* \"#utility.yul\":1075:1076   */\n      0x00\n        /* \"#utility.yul\":1100:1153   */\n      tag_468\n        /* \"#utility.yul\":1145:1152   */\n      dup5\n        /* \"#utility.yul\":1136:1142   */\n      dup3\n        /* \"#utility.yul\":1125:1134   */\n      dup6\n        /* \"#utility.yul\":1121:1143   */\n      add\n        /* \"#utility.yul\":1100:1153   */\n      tag_397\n      jump\t// in\n    tag_468:\n        /* \"#utility.yul\":1090:1153   */\n      swap2\n      pop\n        /* \"#utility.yul\":1046:1163   */\n      pop\n        /* \"#utility.yul\":841:1170   */\n      swap3\n      swap2\n      pop\n      pop\n      jump\t// out\n        /* \"#utility.yul\":1176:1253   */\n    tag_398:\n        /* \"#utility.yul\":1213:1220   */\n      0x00\n        /* \"#utility.yul\":1242:1247   */\n      dup2\n        /* \"#utility.yul\":1231:1247   */\n      swap1\n      pop\n        /* \"#utility.yul\":1176:1253   */\n      swap2\n      swap1\n      pop\n      jump\t// out\n        /* \"#utility.yul\":1259:1377   */\n    tag_399:\n        /* \"#utility.yul\":1346:1370   */\n      tag_471\n        /* \"#utility.yul\":1364:1369   */\n      dup2\n        /* \"#utility.yul\":1346:1370   */\n      tag_398\n      jump\t// in\n    tag_471:\n        /* \"#utility.yul\":1341:1344   */\n      dup3\n        /* \"#utility.yul\":1334:1371   */\n      mstore\n        /* \"#utility.yul\":1259:1377   */\n      pop\n      pop\n      jump\t// out\n        /* \"#utility.yul\":1383:1605   */\n    tag_38:\n        /* \"#utility.yul\":1476:1480   */\n      0x00\n        /* \"#utility.yul\":1514:1516   */\n      0x20\n        /* \"#utility.yul\":1503:1512   */\n      dup3\n        /* \"#utility.yul\":1499:1517   */\n      add\n        /* \"#utility.yul\":1491:1517   */\n      swap1\n      pop\n        /* \"#utility.yul\":1527:1598   */\n      tag_473\n        /* \"#utility.yul\":1595:1596   */\n      0x00\n        /* \"#utility.yul\":1584:1593   */\n      dup4\n        /* \"#utility.yul\":1580:1597   */\n      add\n        /* \"#utility.yul\":1571:1577   */\n      dup5\n        /* \"#utility.yul\":1527:1598   */\n      tag_399\n      jump\t// in\n    tag_473:\n        /* \"#utility.yul\":1383:1605   */\n      swap3\n      swap2\n      pop\n      pop\n      jump\t// out\n        /* \"#utility.yul\":1611:1729   */\n    tag_400:\n        /* \"#utility.yul\":1698:1722   */\n      tag_475\n        /* \"#utility.yul\":1716:1721   */\n      dup2\n        /* \"#utility.yul\":1698:1722   */\n      tag_395\n      jump\t// in\n    tag_475:\n        /* \"#utility.yul\":1693:1696   */\n      dup3\n        /* \"#utility.yul\":1686:1723   */\n      mstore\n        /* \"#utility.yul\":1611:1729   */\n      pop\n      pop\n      jump\t// out\n        /* \"#utility.yul\":1735:1957   */\n    tag_48:\n        /* \"#utility.yul\":1828:1832   */\n      0x00\n        /* \"#utility.yul\":1866:1868   */\n      0x20\n        /* \"#utility.yul\":1855:1864   */\n      dup3\n        /* \"#utility.yul\":1851:1869   */\n      add\n        /* \"#utility.yul\":1843:1869   */\n      swap1\n      pop\n        /* \"#utility.yul\":1879:1950   */\n      tag_477\n        /* \"#utility.yul\":1947:1948   */\n      0x00\n        /* \"#utility.yul\":1936:1945   */\n      dup4\n        /* \"#utility.yul\":1932:1949   */\n      add\n        /* \"#utility.yul\":1923:1929   */\n      dup5\n        /* \"#utility.yul\":1879:1950   */\n      tag_400\n      jump\t// in\n    tag_477:\n        /* \"#utility.yul\":1735:1957   */\n      swap3\n      swap2\n      pop\n      pop\n      jump\t// out\n        /* \"#utility.yul\":1963:2085   */\n    tag_401:\n        /* \"#utility.yul\":2036:2060   */\n      tag_479\n        /* \"#utility.yul\":2054:2059   */\n      dup2\n        /* \"#utility.yul\":2036:2060   */\n      tag_398\n      jump\t// in\n    tag_479:\n        /* \"#utility.yul\":2029:2034   */\n      dup2\n        /* \"#utility.yul\":2026:2061   */\n      eq\n        /* \"#utility.yul\":2016:2079   */\n      tag_480\n      jumpi\n        /* \"#utility.yul\":2075:2076   */\n      0x00\n        /* \"#utility.yul\":2072:2073   */\n      dup1\n        /* \"#utility.yul\":2065:2077   */\n      revert\n        /* \"#utility.yul\":2016:2079   */\n    tag_480:\n        /* \"#utility.yul\":1963:2085   */\n      pop\n      jump\t// out\n        /* \"#utility.yul\":2091:2230   */\n    tag_402:\n        /* \"#utility.yul\":2137:2142   */\n      0x00\n        /* \"#utility.yul\":2175:2181   */\n      dup2\n        /* \"#utility.yul\":2162:2182   */\n      calldataload\n        /* \"#utility.yul\":2153:2182   */\n      swap1\n      pop\n        /* \"#utility.yul\":2191:2224   */\n      tag_482\n        /* \"#utility.yul\":2218:2223   */\n      dup2\n        /* \"#utility.yul\":2191:2224   */\n      tag_401\n      jump\t// in\n    tag_482:\n        /* \"#utility.yul\":2091:2230   */\n      swap3\n      swap2\n      pop\n      pop\n      jump\t// out\n        /* \"#utility.yul\":2236:2565   */\n    tag_52:\n        /* \"#utility.yul\":2295:2301   */\n      0x00\n        /* \"#utility.yul\":2344:2346   */\n      0x20\n        /* \"#utility.yul\":2332:2341   */\n      dup3\n        /* \"#utility.yul\":2323:2330   */\n      dup5\n        /* \"#utility.yul\":2319:2342   */\n      sub\n        /* \"#utility.yul\":2315:2347   */\n      slt\n        /* \"#utility.yul\":2312:2431   */\n      iszero\n      tag_484\n      jumpi\n        /* \"#utility.yul\":2350:2429   */\n      tag_485\n      tag_392\n      jump\t// in\n    tag_485:\n        /* \"#utility.yul\":2312:2431   */\n    tag_484:\n        /* \"#utility.yul\":2470:2471   */\n      0x00\n        /* \"#utility.yul\":2495:2548   */\n      tag_486\n        /* \"#utility.yul\":2540:2547   */\n      dup5\n        /* \"#utility.yul\":2531:2537   */\n      dup3\n        /* \"#utility.yul\":2520:2529   */\n      dup6\n        /* \"#utility.yul\":2516:2538   */\n      add\n        /* \"#utility.yul\":2495:2548   */\n      tag_402\n      jump\t// in\n    tag_486:\n        /* \"#utility.yul\":2485:2548   */\n      swap2\n      pop\n        /* \"#utility.yul\":2441:2558   */\n      pop\n        /* \"#utility.yul\":2236:2565   */\n      swap3\n      swap2\n      pop\n      pop\n      jump\t// out\n        /* \"#utility.yul\":2571:2685   */\n    tag_403:\n        /* \"#utility.yul\":2638:2644   */\n      0x00\n        /* \"#utility.yul\":2672:2677   */\n      dup2\n        /* \"#utility.yul\":2666:2678   */\n      mload\n        /* \"#utility.yul\":2656:2678   */\n      swap1\n      pop\n        /* \"#utility.yul\":2571:2685   */\n      swap2\n      swap1\n      pop\n      jump\t// out\n        /* \"#utility.yul\":2691:2875   */\n    tag_404:\n        /* \"#utility.yul\":2790:2801   */\n      0x00\n        /* \"#utility.yul\":2824:2830   */\n      dup3\n        /* \"#utility.yul\":2819:2822   */\n      dup3\n        /* \"#utility.yul\":2812:2831   */\n      mstore\n        /* \"#utility.yul\":2864:2868   */\n      0x20\n        /* \"#utility.yul\":2859:2862   */\n      dup3\n        /* \"#utility.yul\":2855:2869   */\n      add\n        /* \"#utility.yul\":2840:2869   */\n      swap1\n      pop\n        /* \"#utility.yul\":2691:2875   */\n      swap3\n      swap2\n      pop\n      pop\n      jump\t// out\n        /* \"#utility.yul\":2881:3013   */\n    tag_405:\n        /* \"#utility.yul\":2948:2952   */\n      0x00\n        /* \"#utility.yul\":2971:2974   */\n      dup2\n        /* \"#utility.yul\":2963:2974   */\n      swap1\n      pop\n        /* \"#utility.yul\":3001:3005   */\n      0x20\n        /* \"#utility.yul\":2996:2999   */\n      dup3\n        /* \"#utility.yul\":2992:3006   */\n      add\n        /* \"#utility.yul\":2984:3006   */\n      swap1\n      pop\n        /* \"#utility.yul\":2881:3013   */\n      swap2\n      swap1\n      pop\n      jump\t// out\n        /* \"#utility.yul\":3019:3127   */\n    tag_406:\n        /* \"#utility.yul\":3096:3120   */\n      tag_491\n        /* \"#utility.yul\":3114:3119   */\n      dup2\n        /* \"#utility.yul\":3096:3120   */\n      tag_395\n      jump\t// in\n    tag_491:\n        /* \"#utility.yul\":3091:3094   */\n      dup3\n        /* \"#utility.yul\":3084:3121   */\n      mstore\n        /* \"#utility.yul\":3019:3127   */\n      pop\n      pop\n      jump\t// out\n        /* \"#utility.yul\":3133:3312   */\n    tag_407:\n        /* \"#utility.yul\":3202:3212   */\n      0x00\n        /* \"#utility.yul\":3223:3269   */\n      tag_493\n        /* \"#utility.yul\":3265:3268   */\n      dup4\n        /* \"#utility.yul\":3257:3263   */\n      dup4\n        /* \"#utility.yul\":3223:3269   */\n      tag_406\n      jump\t// in\n    tag_493:\n        /* \"#utility.yul\":3301:3305   */\n      0x20\n        /* \"#utility.yul\":3296:3299   */\n      dup4\n        /* \"#utility.yul\":3292:3306   */\n      add\n        /* \"#utility.yul\":3278:3306   */\n      swap1\n      pop\n        /* \"#utility.yul\":3133:3312   */\n      swap3\n      swap2\n      pop\n      pop\n      jump\t// out\n        /* \"#utility.yul\":3318:3431   */\n    tag_408:\n        /* \"#utility.yul\":3388:3392   */\n      0x00\n        /* \"#utility.yul\":3420:3424   */\n      0x20\n        /* \"#utility.yul\":3415:3418   */\n      dup3\n        /* \"#utility.yul\":3411:3425   */\n      add\n        /* \"#utility.yul\":3403:3425   */\n      swap1\n      pop\n        /* \"#utility.yul\":3318:3431   */\n      swap2\n      swap1\n      pop\n      jump\t// out\n        /* \"#utility.yul\":3467:4199   */\n    tag_409:\n        /* \"#utility.yul\":3586:3589   */\n      0x00\n        /* \"#utility.yul\":3615:3669   */\n      tag_496\n        /* \"#utility.yul\":3663:3668   */\n      dup3\n        /* \"#utility.yul\":3615:3669   */\n      tag_403\n      jump\t// in\n    tag_496:\n        /* \"#utility.yul\":3685:3771   */\n      tag_497\n        /* \"#utility.yul\":3764:3770   */\n      dup2\n        /* \"#utility.yul\":3759:3762   */\n      dup6\n        /* \"#utility.yul\":3685:3771   */\n      tag_404\n      jump\t// in\n    tag_497:\n        /* \"#utility.yul\":3678:3771   */\n      swap4\n      pop\n        /* \"#utility.yul\":3795:3851   */\n      tag_498\n        /* \"#utility.yul\":3845:3850   */\n      dup4\n        /* \"#utility.yul\":3795:3851   */\n      tag_405\n      jump\t// in\n    tag_498:\n        /* \"#utility.yul\":3874:3881   */\n      dup1\n        /* \"#utility.yul\":3905:3906   */\n      0x00\n        /* \"#utility.yul\":3890:4174   */\n    tag_499:\n        /* \"#utility.yul\":3915:3921   */\n      dup4\n        /* \"#utility.yul\":3912:3913   */\n      dup2\n        /* \"#utility.yul\":3909:3922   */\n      lt\n        /* \"#utility.yul\":3890:4174   */\n      iszero\n      tag_501\n      jumpi\n        /* \"#utility.yul\":3991:3997   */\n      dup2\n        /* \"#utility.yul\":3985:3998   */\n      mload\n        /* \"#utility.yul\":4018:4081   */\n      tag_502\n        /* \"#utility.yul\":4077:4080   */\n      dup9\n        /* \"#utility.yul\":4062:4075   */\n      dup3\n        /* \"#utility.yul\":4018:4081   */\n      tag_407\n      jump\t// in\n    tag_502:\n        /* \"#utility.yul\":4011:4081   */\n      swap8\n      pop\n        /* \"#utility.yul\":4104:4164   */\n      tag_503\n        /* \"#utility.yul\":4157:4163   */\n      dup4\n        /* \"#utility.yul\":4104:4164   */\n      tag_408\n      jump\t// in\n    tag_503:\n        /* \"#utility.yul\":4094:4164   */\n      swap3\n      pop\n        /* \"#utility.yul\":3950:4174   */\n      pop\n        /* \"#utility.yul\":3937:3938   */\n      0x01\n        /* \"#utility.yul\":3934:3935   */\n      dup2\n        /* \"#utility.yul\":3930:3939   */\n      add\n        /* \"#utility.yul\":3925:3939   */\n      swap1\n      pop\n        /* \"#utility.yul\":3890:4174   */\n      jump(tag_499)\n    tag_501:\n        /* \"#utility.yul\":3894:3908   */\n      pop\n        /* \"#utility.yul\":4190:4193   */\n      dup6\n        /* \"#utility.yul\":4183:4193   */\n      swap4\n      pop\n        /* \"#utility.yul\":3591:4199   */\n      pop\n      pop\n      pop\n        /* \"#utility.yul\":3467:4199   */\n      swap3\n      swap2\n      pop\n      pop\n      jump\t// out\n        /* \"#utility.yul\":4205:4578   */\n    tag_68:\n        /* \"#utility.yul\":4348:4352   */\n      0x00\n        /* \"#utility.yul\":4386:4388   */\n      0x20\n        /* \"#utility.yul\":4375:4384   */\n      dup3\n        /* \"#utility.yul\":4371:4389   */\n      add\n        /* \"#utility.yul\":4363:4389   */\n      swap1\n      pop\n        /* \"#utility.yul\":4435:4444   */\n      dup2\n        /* \"#utility.yul\":4429:4433   */\n      dup2\n        /* \"#utility.yul\":4425:4445   */\n      sub\n        /* \"#utility.yul\":4421:4422   */\n      0x00\n        /* \"#utility.yul\":4410:4419   */\n      dup4\n        /* \"#utility.yul\":4406:4423   */\n      add\n        /* \"#utility.yul\":4399:4446   */\n      mstore\n        /* \"#utility.yul\":4463:4571   */\n      tag_505\n        /* \"#utility.yul\":4566:4570   */\n      dup2\n        /* \"#utility.yul\":4557:4563   */\n      dup5\n        /* \"#utility.yul\":4463:4571   */\n      tag_409\n      jump\t// in\n    tag_505:\n        /* \"#utility.yul\":4455:4571   */\n      swap1\n      pop\n        /* \"#utility.yul\":4205:4578   */\n      swap3\n      swap2\n      pop\n      pop\n      jump\t// out\n        /* \"#utility.yul\":4584:4726   */\n    tag_410:\n        /* \"#utility.yul\":4679:4685   */\n      0x00\n        /* \"#utility.yul\":4713:4718   */\n      dup2\n        /* \"#utility.yul\":4707:4719   */\n      mload\n        /* \"#utility.yul\":4697:4719   */\n      swap1\n      pop\n        /* \"#utility.yul\":4584:4726   */\n      swap2\n      swap1\n      pop\n      jump\t// out\n        /* \"#utility.yul\":4732:4944   */\n    tag_411:\n        /* \"#utility.yul\":4859:4870   */\n      0x00\n        /* \"#utility.yul\":4893:4899   */\n      dup3\n        /* \"#utility.yul\":4888:4891   */\n      dup3\n        /* \"#utility.yul\":4881:4900   */\n      mstore\n        /* \"#utility.yul\":4933:4937   */\n      0x20\n        /* \"#utility.yul\":4928:4931   */\n      dup3\n        /* \"#utility.yul\":4924:4938   */\n      add\n        /* \"#utility.yul\":4909:4938   */\n      swap1\n      pop\n        /* \"#utility.yul\":4732:4944   */\n      swap3\n      swap2\n      pop\n      pop\n      jump\t// out\n        /* \"#utility.yul\":4950:5110   */\n    tag_412:\n        /* \"#utility.yul\":5045:5049   */\n      0x00\n        /* \"#utility.yul\":5068:5071   */\n      dup2\n        /* \"#utility.yul\":5060:5071   */\n      swap1\n      pop\n        /* \"#utility.yul\":5098:5102   */\n      0x20\n        /* \"#utility.yul\":5093:5096   */\n      dup3\n        /* \"#utility.yul\":5089:5103   */\n      add\n        /* \"#utility.yul\":5081:5103   */\n      swap1\n      pop\n        /* \"#utility.yul\":4950:5110   */\n      swap2\n      swap1\n      pop\n      jump\t// out\n        /* \"#utility.yul\":5116:5220   */\n    tag_413:\n        /* \"#utility.yul\":5181:5187   */\n      0x00\n        /* \"#utility.yul\":5209:5213   */\n      0x05\n        /* \"#utility.yul\":5199:5213   */\n      swap1\n      pop\n        /* \"#utility.yul\":5116:5220   */\n      swap2\n      swap1\n      pop\n      jump\t// out\n        /* \"#utility.yul\":5226:5359   */\n    tag_414:\n        /* \"#utility.yul\":5313:5324   */\n      0x00\n        /* \"#utility.yul\":5350:5353   */\n      dup2\n        /* \"#utility.yul\":5335:5353   */\n      swap1\n      pop\n        /* \"#utility.yul\":5226:5359   */\n      swap3\n      swap2\n      pop\n      pop\n      jump\t// out\n        /* \"#utility.yul\":5365:5463   */\n    tag_415:\n        /* \"#utility.yul\":5430:5434   */\n      0x00\n        /* \"#utility.yul\":5453:5456   */\n      dup2\n        /* \"#utility.yul\":5445:5456   */\n      swap1\n      pop\n        /* \"#utility.yul\":5365:5463   */\n      swap2\n      swap1\n      pop\n      jump\t// out\n        /* \"#utility.yul\":5469:5580   */\n    tag_416:\n        /* \"#utility.yul\":5537:5541   */\n      0x00\n        /* \"#utility.yul\":5569:5573   */\n      0x20\n        /* \"#utility.yul\":5564:5567   */\n      dup3\n        /* \"#utility.yul\":5560:5574   */\n      add\n        /* \"#utility.yul\":5552:5574   */\n      swap1\n      pop\n        /* \"#utility.yul\":5469:5580   */\n      swap2\n      swap1\n      pop\n      jump\t// out\n        /* \"#utility.yul\":5618:6292   */\n    tag_417:\n        /* \"#utility.yul\":5744:5796   */\n      tag_514\n        /* \"#utility.yul\":5790:5795   */\n      dup2\n        /* \"#utility.yul\":5744:5796   */\n      tag_413\n      jump\t// in\n    tag_514:\n        /* \"#utility.yul\":5812:5886   */\n      tag_515\n        /* \"#utility.yul\":5879:5885   */\n      dup2\n        /* \"#utility.yul\":5874:5877   */\n      dup5\n        /* \"#utility.yul\":5812:5886   */\n      tag_414\n      jump\t// in\n    tag_515:\n        /* \"#utility.yul\":5805:5886   */\n      swap3\n      pop\n        /* \"#utility.yul\":5910:5964   */\n      tag_516\n        /* \"#utility.yul\":5958:5963   */\n      dup3\n        /* \"#utility.yul\":5910:5964   */\n      tag_415\n      jump\t// in\n    tag_516:\n        /* \"#utility.yul\":5987:5994   */\n      dup1\n        /* \"#utility.yul\":6018:6019   */\n      0x00\n        /* \"#utility.yul\":6003:6285   */\n    tag_517:\n        /* \"#utility.yul\":6028:6034   */\n      dup4\n        /* \"#utility.yul\":6025:6026   */\n      dup2\n        /* \"#utility.yul\":6022:6035   */\n      lt\n        /* \"#utility.yul\":6003:6285   */\n      iszero\n      tag_519\n      jumpi\n        /* \"#utility.yul\":6104:6110   */\n      dup2\n        /* \"#utility.yul\":6098:6111   */\n      mload\n        /* \"#utility.yul\":6131:6194   */\n      tag_520\n        /* \"#utility.yul\":6190:6193   */\n      dup8\n        /* \"#utility.yul\":6175:6188   */\n      dup3\n        /* \"#utility.yul\":6131:6194   */\n      tag_407\n      jump\t// in\n    tag_520:\n        /* \"#utility.yul\":6124:6194   */\n      swap7\n      pop\n        /* \"#utility.yul\":6217:6275   */\n      tag_521\n        /* \"#utility.yul\":6268:6274   */\n      dup4\n        /* \"#utility.yul\":6217:6275   */\n      tag_416\n      jump\t// in\n    tag_521:\n        /* \"#utility.yul\":6207:6275   */\n      swap3\n      pop\n        /* \"#utility.yul\":6063:6285   */\n      pop\n        /* \"#utility.yul\":6050:6051   */\n      0x01\n        /* \"#utility.yul\":6047:6048   */\n      dup2\n        /* \"#utility.yul\":6043:6052   */\n      add\n        /* \"#utility.yul\":6038:6052   */\n      swap1\n      pop\n        /* \"#utility.yul\":6003:6285   */\n      jump(tag_517)\n    tag_519:\n        /* \"#utility.yul\":6007:6021   */\n      pop\n        /* \"#utility.yul\":5720:6292   */\n      pop\n      pop\n      pop\n        /* \"#utility.yul\":5618:6292   */\n      pop\n      pop\n      jump\t// out\n        /* \"#utility.yul\":6298:6402   */\n    tag_418:\n        /* \"#utility.yul\":6363:6369   */\n      0x00\n        /* \"#utility.yul\":6391:6395   */\n      0x05\n        /* \"#utility.yul\":6381:6395   */\n      swap1\n      pop\n        /* \"#utility.yul\":6298:6402   */\n      swap2\n      swap1\n      pop\n      jump\t// out\n        /* \"#utility.yul\":6408:6541   */\n    tag_419:\n        /* \"#utility.yul\":6495:6506   */\n      0x00\n        /* \"#utility.yul\":6532:6535   */\n      dup2\n        /* \"#utility.yul\":6517:6535   */\n      swap1\n      pop\n        /* \"#utility.yul\":6408:6541   */\n      swap3\n      swap2\n      pop\n      pop\n      jump\t// out\n        /* \"#utility.yul\":6547:6645   */\n    tag_420:\n        /* \"#utility.yul\":6612:6616   */\n      0x00\n        /* \"#utility.yul\":6635:6638   */\n      dup2\n        /* \"#utility.yul\":6627:6638   */\n      swap1\n      pop\n        /* \"#utility.yul\":6547:6645   */\n      swap2\n      swap1\n      pop\n      jump\t// out\n        /* \"#utility.yul\":6651:6759   */\n    tag_421:\n        /* \"#utility.yul\":6728:6752   */\n      tag_526\n        /* \"#utility.yul\":6746:6751   */\n      dup2\n        /* \"#utility.yul\":6728:6752   */\n      tag_398\n      jump\t// in\n    tag_526:\n        /* \"#utility.yul\":6723:6726   */\n      dup3\n        /* \"#utility.yul\":6716:6753   */\n      mstore\n        /* \"#utility.yul\":6651:6759   */\n      pop\n      pop\n      jump\t// out\n        /* \"#utility.yul\":6765:6944   */\n    tag_422:\n        /* \"#utility.yul\":6834:6844   */\n      0x00\n        /* \"#utility.yul\":6855:6901   */\n      tag_528\n        /* \"#utility.yul\":6897:6900   */\n      dup4\n        /* \"#utility.yul\":6889:6895   */\n      dup4\n        /* \"#utility.yul\":6855:6901   */\n      tag_421\n      jump\t// in\n    tag_528:\n        /* \"#utility.yul\":6933:6937   */\n      0x20\n        /* \"#utility.yul\":6928:6931   */\n      dup4\n        /* \"#utility.yul\":6924:6938   */\n      add\n        /* \"#utility.yul\":6910:6938   */\n      swap1\n      pop\n        /* \"#utility.yul\":6765:6944   */\n      swap3\n      swap2\n      pop\n      pop\n      jump\t// out\n        /* \"#utility.yul\":6950:7061   */\n    tag_423:\n        /* \"#utility.yul\":7018:7022   */\n      0x00\n        /* \"#utility.yul\":7050:7054   */\n      0x20\n        /* \"#utility.yul\":7045:7048   */\n      dup3\n        /* \"#utility.yul\":7041:7055   */\n      add\n        /* \"#utility.yul\":7033:7055   */\n      swap1\n      pop\n        /* \"#utility.yul\":6950:7061   */\n      swap2\n      swap1\n      pop\n      jump\t// out\n        /* \"#utility.yul\":7099:7773   */\n    tag_424:\n        /* \"#utility.yul\":7225:7277   */\n      tag_531\n        /* \"#utility.yul\":7271:7276   */\n      dup2\n        /* \"#utility.yul\":7225:7277   */\n      tag_418\n      jump\t// in\n    tag_531:\n        /* \"#utility.yul\":7293:7367   */\n      tag_532\n        /* \"#utility.yul\":7360:7366   */\n      dup2\n        /* \"#utility.yul\":7355:7358   */\n      dup5\n        /* \"#utility.yul\":7293:7367   */\n      tag_419\n      jump\t// in\n    tag_532:\n        /* \"#utility.yul\":7286:7367   */\n      swap3\n      pop\n        /* \"#utility.yul\":7391:7445   */\n      tag_533\n        /* \"#utility.yul\":7439:7444   */\n      dup3\n        /* \"#utility.yul\":7391:7445   */\n      tag_420\n      jump\t// in\n    tag_533:\n        /* \"#utility.yul\":7468:7475   */\n      dup1\n        /* \"#utility.yul\":7499:7500   */\n      0x00\n        /* \"#utility.yul\":7484:7766   */\n    tag_534:\n        /* \"#utility.yul\":7509:7515   */\n      dup4\n        /* \"#utility.yul\":7506:7507   */\n      dup2\n        /* \"#utility.yul\":7503:7516   */\n      lt\n        /* \"#utility.yul\":7484:7766   */\n      iszero\n      tag_536\n      jumpi\n        /* \"#utility.yul\":7585:7591   */\n      dup2\n        /* \"#utility.yul\":7579:7592   */\n      mload\n        /* \"#utility.yul\":7612:7675   */\n      tag_537\n        /* \"#utility.yul\":7671:7674   */\n      dup8\n        /* \"#utility.yul\":7656:7669   */\n      dup3\n        /* \"#utility.yul\":7612:7675   */\n      tag_422\n      jump\t// in\n    tag_537:\n        /* \"#utility.yul\":7605:7675   */\n      swap7\n      pop\n        /* \"#utility.yul\":7698:7756   */\n      tag_538\n        /* \"#utility.yul\":7749:7755   */\n      dup4\n        /* \"#utility.yul\":7698:7756   */\n      tag_423\n      jump\t// in\n    tag_538:\n        /* \"#utility.yul\":7688:7756   */\n      swap3\n      pop\n        /* \"#utility.yul\":7544:7766   */\n      pop\n        /* \"#utility.yul\":7531:7532   */\n      0x01\n        /* \"#utility.yul\":7528:7529   */\n      dup2\n        /* \"#utility.yul\":7524:7533   */\n      add\n        /* \"#utility.yul\":7519:7533   */\n      swap1\n      pop\n        /* \"#utility.yul\":7484:7766   */\n      jump(tag_534)\n    tag_536:\n        /* \"#utility.yul\":7488:7502   */\n      pop\n        /* \"#utility.yul\":7201:7773   */\n      pop\n      pop\n      pop\n        /* \"#utility.yul\":7099:7773   */\n      pop\n      pop\n      jump\t// out\n        /* \"#utility.yul\":7847:8856   */\n    tag_425:\n        /* \"#utility.yul\":7990:7996   */\n      0x0200\n        /* \"#utility.yul\":7985:7988   */\n      dup3\n        /* \"#utility.yul\":7981:7997   */\n      add\n        /* \"#utility.yul\":8083:8087   */\n      0x00\n        /* \"#utility.yul\":8076:8081   */\n      dup3\n        /* \"#utility.yul\":8072:8088   */\n      add\n        /* \"#utility.yul\":8066:8089   */\n      mload\n        /* \"#utility.yul\":8102:8211   */\n      tag_540\n        /* \"#utility.yul\":8205:8209   */\n      0x00\n        /* \"#utility.yul\":8200:8203   */\n      dup6\n        /* \"#utility.yul\":8196:8210   */\n      add\n        /* \"#utility.yul\":8182:8194   */\n      dup3\n        /* \"#utility.yul\":8102:8211   */\n      tag_417\n      jump\t// in\n    tag_540:\n        /* \"#utility.yul\":8007:8221   */\n      pop\n        /* \"#utility.yul\":8305:8309   */\n      0x20\n        /* \"#utility.yul\":8298:8303   */\n      dup3\n        /* \"#utility.yul\":8294:8310   */\n      add\n        /* \"#utility.yul\":8288:8311   */\n      mload\n        /* \"#utility.yul\":8324:8433   */\n      tag_541\n        /* \"#utility.yul\":8427:8431   */\n      0xa0\n        /* \"#utility.yul\":8422:8425   */\n      dup6\n        /* \"#utility.yul\":8418:8432   */\n      add\n        /* \"#utility.yul\":8404:8416   */\n      dup3\n        /* \"#utility.yul\":8324:8433   */\n      tag_424\n      jump\t// in\n    tag_541:\n        /* \"#utility.yul\":8231:8443   */\n      pop\n        /* \"#utility.yul\":8528:8532   */\n      0x40\n        /* \"#utility.yul\":8521:8526   */\n      dup3\n        /* \"#utility.yul\":8517:8533   */\n      add\n        /* \"#utility.yul\":8511:8534   */\n      mload\n        /* \"#utility.yul\":8547:8658   */\n      tag_542\n        /* \"#utility.yul\":8650:8656   */\n      0x0140\n        /* \"#utility.yul\":8645:8648   */\n      dup6\n        /* \"#utility.yul\":8641:8657   */\n      add\n        /* \"#utility.yul\":8627:8639   */\n      dup3\n        /* \"#utility.yul\":8547:8658   */\n      tag_424\n      jump\t// in\n    tag_542:\n        /* \"#utility.yul\":8453:8668   */\n      pop\n        /* \"#utility.yul\":8755:8759   */\n      0x60\n        /* \"#utility.yul\":8748:8753   */\n      dup3\n        /* \"#utility.yul\":8744:8760   */\n      add\n        /* \"#utility.yul\":8738:8761   */\n      mload\n        /* \"#utility.yul\":8774:8839   */\n      tag_543\n        /* \"#utility.yul\":8831:8837   */\n      0x01e0\n        /* \"#utility.yul\":8826:8829   */\n      dup6\n        /* \"#utility.yul\":8822:8838   */\n      add\n        /* \"#utility.yul\":8808:8820   */\n      dup3\n        /* \"#utility.yul\":8774:8839   */\n      tag_421\n      jump\t// in\n    tag_543:\n        /* \"#utility.yul\":8678:8849   */\n      pop\n        /* \"#utility.yul\":7959:8856   */\n      pop\n        /* \"#utility.yul\":7847:8856   */\n      pop\n      pop\n      jump\t// out\n        /* \"#utility.yul\":8862:9155   */\n    tag_426:\n        /* \"#utility.yul\":8987:8997   */\n      0x00\n        /* \"#utility.yul\":9008:9110   */\n      tag_545\n        /* \"#utility.yul\":9106:9109   */\n      dup4\n        /* \"#utility.yul\":9098:9104   */\n      dup4\n        /* \"#utility.yul\":9008:9110   */\n      tag_425\n      jump\t// in\n    tag_545:\n        /* \"#utility.yul\":9142:9148   */\n      0x0200\n        /* \"#utility.yul\":9137:9140   */\n      dup4\n        /* \"#utility.yul\":9133:9149   */\n      add\n        /* \"#utility.yul\":9119:9149   */\n      swap1\n      pop\n        /* \"#utility.yul\":8862:9155   */\n      swap3\n      swap2\n      pop\n      pop\n      jump\t// out\n        /* \"#utility.yul\":9161:9302   */\n    tag_427:\n        /* \"#utility.yul\":9259:9263   */\n      0x00\n        /* \"#utility.yul\":9291:9295   */\n      0x20\n        /* \"#utility.yul\":9286:9289   */\n      dup3\n        /* \"#utility.yul\":9282:9296   */\n      add\n        /* \"#utility.yul\":9274:9296   */\n      swap1\n      pop\n        /* \"#utility.yul\":9161:9302   */\n      swap2\n      swap1\n      pop\n      jump\t// out\n        /* \"#utility.yul\":9380:10336   */\n    tag_428:\n        /* \"#utility.yul\":9555:9558   */\n      0x00\n        /* \"#utility.yul\":9584:9666   */\n      tag_548\n        /* \"#utility.yul\":9660:9665   */\n      dup3\n        /* \"#utility.yul\":9584:9666   */\n      tag_410\n      jump\t// in\n    tag_548:\n        /* \"#utility.yul\":9682:9796   */\n      tag_549\n        /* \"#utility.yul\":9789:9795   */\n      dup2\n        /* \"#utility.yul\":9784:9787   */\n      dup6\n        /* \"#utility.yul\":9682:9796   */\n      tag_411\n      jump\t// in\n    tag_549:\n        /* \"#utility.yul\":9675:9796   */\n      swap4\n      pop\n        /* \"#utility.yul\":9820:9904   */\n      tag_550\n        /* \"#utility.yul\":9898:9903   */\n      dup4\n        /* \"#utility.yul\":9820:9904   */\n      tag_412\n      jump\t// in\n    tag_550:\n        /* \"#utility.yul\":9927:9934   */\n      dup1\n        /* \"#utility.yul\":9958:9959   */\n      0x00\n        /* \"#utility.yul\":9943:10311   */\n    tag_551:\n        /* \"#utility.yul\":9968:9974   */\n      dup4\n        /* \"#utility.yul\":9965:9966   */\n      dup2\n        /* \"#utility.yul\":9962:9975   */\n      lt\n        /* \"#utility.yul\":9943:10311   */\n      iszero\n      tag_553\n      jumpi\n        /* \"#utility.yul\":10044:10050   */\n      dup2\n        /* \"#utility.yul\":10038:10051   */\n      mload\n        /* \"#utility.yul\":10071:10190   */\n      tag_554\n        /* \"#utility.yul\":10186:10189   */\n      dup9\n        /* \"#utility.yul\":10171:10184   */\n      dup3\n        /* \"#utility.yul\":10071:10190   */\n      tag_426\n      jump\t// in\n    tag_554:\n        /* \"#utility.yul\":10064:10190   */\n      swap8\n      pop\n        /* \"#utility.yul\":10213:10301   */\n      tag_555\n        /* \"#utility.yul\":10294:10300   */\n      dup4\n        /* \"#utility.yul\":10213:10301   */\n      tag_427\n      jump\t// in\n    tag_555:\n        /* \"#utility.yul\":10203:10301   */\n      swap3\n      pop\n        /* \"#utility.yul\":10003:10311   */\n      pop\n        /* \"#utility.yul\":9990:9991   */\n      0x01\n        /* \"#utility.yul\":9987:9988   */\n      dup2\n        /* \"#utility.yul\":9983:9992   */\n      add\n        /* \"#utility.yul\":9978:9992   */\n      swap1\n      pop\n        /* \"#utility.yul\":9943:10311   */\n      jump(tag_551)\n    tag_553:\n        /* \"#utility.yul\":9947:9961   */\n      pop\n        /* \"#utility.yul\":10327:10330   */\n      dup6\n        /* \"#utility.yul\":10320:10330   */\n      swap4\n      pop\n        /* \"#utility.yul\":9560:10336   */\n      pop\n      pop\n      pop\n        /* \"#utility.yul\":9380:10336   */\n      swap3\n      swap2\n      pop\n      pop\n      jump\t// out\n        /* \"#utility.yul\":10342:10827   */\n    tag_84:\n        /* \"#utility.yul\":10541:10545   */\n      0x00\n        /* \"#utility.yul\":10579:10581   */\n      0x20\n        /* \"#utility.yul\":10568:10577   */\n      dup3\n        /* \"#utility.yul\":10564:10582   */\n      add\n        /* \"#utility.yul\":10556:10582   */\n      swap1\n      pop\n        /* \"#utility.yul\":10628:10637   */\n      dup2\n        /* \"#utility.yul\":10622:10626   */\n      dup2\n        /* \"#utility.yul\":10618:10638   */\n      sub\n        /* \"#utility.yul\":10614:10615   */\n      0x00\n        /* \"#utility.yul\":10603:10612   */\n      dup4\n        /* \"#utility.yul\":10599:10616   */\n      add\n        /* \"#utility.yul\":10592:10639   */\n      mstore\n        /* \"#utility.yul\":10656:10820   */\n      tag_557\n        /* \"#utility.yul\":10815:10819   */\n      dup2\n        /* \"#utility.yul\":10806:10812   */\n      dup5\n        /* \"#utility.yul\":10656:10820   */\n      tag_428\n      jump\t// in\n    tag_557:\n        /* \"#utility.yul\":10648:10820   */\n      swap1\n      pop\n        /* \"#utility.yul\":10342:10827   */\n      swap3\n      swap2\n      pop\n      pop\n      jump\t// out\n        /* \"#utility.yul\":10833:11744   */\n    tag_106:\n        /* \"#utility.yul\":10928:10934   */\n      0x00\n        /* \"#utility.yul\":10936:10942   */\n      dup1\n        /* \"#utility.yul\":10944:10950   */\n      0x00\n        /* \"#utility.yul\":10952:10958   */\n      dup1\n        /* \"#utility.yul\":10960:10966   */\n      0x00\n        /* \"#utility.yul\":11009:11012   */\n      0xa0\n        /* \"#utility.yul\":10997:11006   */\n      dup7\n        /* \"#utility.yul\":10988:10995   */\n      dup9\n        /* \"#utility.yul\":10984:11007   */\n      sub\n        /* \"#utility.yul\":10980:11013   */\n      slt\n        /* \"#utility.yul\":10977:11097   */\n      iszero\n      tag_559\n      jumpi\n        /* \"#utility.yul\":11016:11095   */\n      tag_560\n      tag_392\n      jump\t// in\n    tag_560:\n        /* \"#utility.yul\":10977:11097   */\n    tag_559:\n        /* \"#utility.yul\":11136:11137   */\n      0x00\n        /* \"#utility.yul\":11161:11214   */\n      tag_561\n        /* \"#utility.yul\":11206:11213   */\n      dup9\n        /* \"#utility.yul\":11197:11203   */\n      dup3\n        /* \"#utility.yul\":11186:11195   */\n      dup10\n        /* \"#utility.yul\":11182:11204   */\n      add\n        /* \"#utility.yul\":11161:11214   */\n      tag_402\n      jump\t// in\n    tag_561:\n        /* \"#utility.yul\":11151:11214   */\n      swap6\n      pop\n        /* \"#utility.yul\":11107:11224   */\n      pop\n        /* \"#utility.yul\":11263:11265   */\n      0x20\n        /* \"#utility.yul\":11289:11342   */\n      tag_562\n        /* \"#utility.yul\":11334:11341   */\n      dup9\n        /* \"#utility.yul\":11325:11331   */\n      dup3\n        /* \"#utility.yul\":11314:11323   */\n      dup10\n        /* \"#utility.yul\":11310:11332   */\n      add\n        /* \"#utility.yul\":11289:11342   */\n      tag_402\n      jump\t// in\n    tag_562:\n        /* \"#utility.yul\":11279:11342   */\n      swap5\n      pop\n        /* \"#utility.yul\":11234:11352   */\n      pop\n        /* \"#utility.yul\":11391:11393   */\n      0x40\n        /* \"#utility.yul\":11417:11470   */\n      tag_563\n        /* \"#utility.yul\":11462:11469   */\n      dup9\n        /* \"#utility.yul\":11453:11459   */\n      dup3\n        /* \"#utility.yul\":11442:11451   */\n      dup10\n        /* \"#utility.yul\":11438:11460   */\n      add\n        /* \"#utility.yul\":11417:11470   */\n      tag_402\n      jump\t// in\n    tag_563:\n        /* \"#utility.yul\":11407:11470   */\n      swap4\n      pop\n        /* \"#utility.yul\":11362:11480   */\n      pop\n        /* \"#utility.yul\":11519:11521   */\n      0x60\n        /* \"#utility.yul\":11545:11598   */\n      tag_564\n        /* \"#utility.yul\":11590:11597   */\n      dup9\n        /* \"#utility.yul\":11581:11587   */\n      dup3\n        /* \"#utility.yul\":11570:11579   */\n      dup10\n        /* \"#utility.yul\":11566:11588   */\n      add\n        /* \"#utility.yul\":11545:11598   */\n      tag_402\n      jump\t// in\n    tag_564:\n        /* \"#utility.yul\":11535:11598   */\n      swap3\n      pop\n        /* \"#utility.yul\":11490:11608   */\n      pop\n        /* \"#utility.yul\":11647:11650   */\n      0x80\n        /* \"#utility.yul\":11674:11727   */\n      tag_565\n        /* \"#utility.yul\":11719:11726   */\n      dup9\n        /* \"#utility.yul\":11710:11716   */\n      dup3\n        /* \"#utility.yul\":11699:11708   */\n      dup10\n        /* \"#utility.yul\":11695:11717   */\n      add\n        /* \"#utility.yul\":11674:11727   */\n      tag_402\n      jump\t// in\n    tag_565:\n        /* \"#utility.yul\":11664:11727   */\n      swap2\n      pop\n        /* \"#utility.yul\":11618:11737   */\n      pop\n        /* \"#utility.yul\":10833:11744   */\n      swap3\n      swap6\n      pop\n      swap3\n      swap6\n      swap1\n      swap4\n      pop\n      jump\t// out\n        /* \"#utility.yul\":11750:11840   */\n    tag_429:\n        /* \"#utility.yul\":11784:11791   */\n      0x00\n        /* \"#utility.yul\":11827:11832   */\n      dup2\n        /* \"#utility.yul\":11820:11833   */\n      iszero\n        /* \"#utility.yul\":11813:11834   */\n      iszero\n        /* \"#utility.yul\":11802:11834   */\n      swap1\n      pop\n        /* \"#utility.yul\":11750:11840   */\n      swap2\n      swap1\n      pop\n      jump\t// out\n        /* \"#utility.yul\":11846:11955   */\n    tag_430:\n        /* \"#utility.yul\":11927:11948   */\n      tag_568\n        /* \"#utility.yul\":11942:11947   */\n      dup2\n        /* \"#utility.yul\":11927:11948   */\n      tag_429\n      jump\t// in\n    tag_568:\n        /* \"#utility.yul\":11922:11925   */\n      dup3\n        /* \"#utility.yul\":11915:11949   */\n      mstore\n        /* \"#utility.yul\":11846:11955   */\n      pop\n      pop\n      jump\t// out\n        /* \"#utility.yul\":11961:12171   */\n    tag_113:\n        /* \"#utility.yul\":12048:12052   */\n      0x00\n        /* \"#utility.yul\":12086:12088   */\n      0x20\n        /* \"#utility.yul\":12075:12084   */\n      dup3\n        /* \"#utility.yul\":12071:12089   */\n      add\n        /* \"#utility.yul\":12063:12089   */\n      swap1\n      pop\n        /* \"#utility.yul\":12099:12164   */\n      tag_570\n        /* \"#utility.yul\":12161:12162   */\n      0x00\n        /* \"#utility.yul\":12150:12159   */\n      dup4\n        /* \"#utility.yul\":12146:12163   */\n      add\n        /* \"#utility.yul\":12137:12143   */\n      dup5\n        /* \"#utility.yul\":12099:12164   */\n      tag_430\n      jump\t// in\n    tag_570:\n        /* \"#utility.yul\":11961:12171   */\n      swap3\n      swap2\n      pop\n      pop\n      jump\t// out\n        /* \"#utility.yul\":12177:12320   */\n    tag_431:\n        /* \"#utility.yul\":12274:12285   */\n      0x00\n        /* \"#utility.yul\":12311:12314   */\n      dup2\n        /* \"#utility.yul\":12296:12314   */\n      swap1\n      pop\n        /* \"#utility.yul\":12177:12320   */\n      swap3\n      swap2\n      pop\n      pop\n      jump\t// out\n        /* \"#utility.yul\":12358:13052   */\n    tag_432:\n        /* \"#utility.yul\":12494:12546   */\n      tag_573\n        /* \"#utility.yul\":12540:12545   */\n      dup2\n        /* \"#utility.yul\":12494:12546   */\n      tag_418\n      jump\t// in\n    tag_573:\n        /* \"#utility.yul\":12562:12646   */\n      tag_574\n        /* \"#utility.yul\":12639:12645   */\n      dup2\n        /* \"#utility.yul\":12634:12637   */\n      dup5\n        /* \"#utility.yul\":12562:12646   */\n      tag_431\n      jump\t// in\n    tag_574:\n        /* \"#utility.yul\":12555:12646   */\n      swap3\n      pop\n        /* \"#utility.yul\":12670:12724   */\n      tag_575\n        /* \"#utility.yul\":12718:12723   */\n      dup3\n        /* \"#utility.yul\":12670:12724   */\n      tag_420\n      jump\t// in\n    tag_575:\n        /* \"#utility.yul\":12747:12754   */\n      dup1\n        /* \"#utility.yul\":12778:12779   */\n      0x00\n        /* \"#utility.yul\":12763:13045   */\n    tag_576:\n        /* \"#utility.yul\":12788:12794   */\n      dup4\n        /* \"#utility.yul\":12785:12786   */\n      dup2\n        /* \"#utility.yul\":12782:12795   */\n      lt\n        /* \"#utility.yul\":12763:13045   */\n      iszero\n      tag_578\n      jumpi\n        /* \"#utility.yul\":12864:12870   */\n      dup2\n        /* \"#utility.yul\":12858:12871   */\n      mload\n        /* \"#utility.yul\":12891:12954   */\n      tag_579\n        /* \"#utility.yul\":12950:12953   */\n      dup8\n        /* \"#utility.yul\":12935:12948   */\n      dup3\n        /* \"#utility.yul\":12891:12954   */\n      tag_422\n      jump\t// in\n    tag_579:\n        /* \"#utility.yul\":12884:12954   */\n      swap7\n      pop\n        /* \"#utility.yul\":12977:13035   */\n      tag_580\n        /* \"#utility.yul\":13028:13034   */\n      dup4\n        /* \"#utility.yul\":12977:13035   */\n      tag_423\n      jump\t// in\n    tag_580:\n        /* \"#utility.yul\":12967:13035   */\n      swap3\n      pop\n        /* \"#utility.yul\":12823:13045   */\n      pop\n        /* \"#utility.yul\":12810:12811   */\n      0x01\n        /* \"#utility.yul\":12807:12808   */\n      dup2\n        /* \"#utility.yul\":12803:12812   */\n      add\n        /* \"#utility.yul\":12798:12812   */\n      swap1\n      pop\n        /* \"#utility.yul\":12763:13045   */\n      jump(tag_576)\n    tag_578:\n        /* \"#utility.yul\":12767:12781   */\n      pop\n        /* \"#utility.yul\":12470:13052   */\n      pop\n      pop\n      pop\n        /* \"#utility.yul\":12358:13052   */\n      pop\n      pop\n      jump\t// out\n        /* \"#utility.yul\":13058:13373   */\n    tag_124:\n        /* \"#utility.yul\":13197:13201   */\n      0x00\n        /* \"#utility.yul\":13235:13238   */\n      0xa0\n        /* \"#utility.yul\":13224:13233   */\n      dup3\n        /* \"#utility.yul\":13220:13239   */\n      add\n        /* \"#utility.yul\":13212:13239   */\n      swap1\n      pop\n        /* \"#utility.yul\":13249:13366   */\n      tag_582\n        /* \"#utility.yul\":13363:13364   */\n      0x00\n        /* \"#utility.yul\":13352:13361   */\n      dup4\n        /* \"#utility.yul\":13348:13365   */\n      add\n        /* \"#utility.yul\":13339:13345   */\n      dup5\n        /* \"#utility.yul\":13249:13366   */\n      tag_432\n      jump\t// in\n    tag_582:\n        /* \"#utility.yul\":13058:13373   */\n      swap3\n      swap2\n      pop\n      pop\n      jump\t// out\n        /* \"#utility.yul\":13379:13559   */\n    tag_155:\n        /* \"#utility.yul\":13427:13504   */\n      0x4e487b7100000000000000000000000000000000000000000000000000000000\n        /* \"#utility.yul\":13424:13425   */\n      0x00\n        /* \"#utility.yul\":13417:13505   */\n      mstore\n        /* \"#utility.yul\":13524:13528   */\n      0x32\n        /* \"#utility.yul\":13521:13522   */\n      0x04\n        /* \"#utility.yul\":13514:13529   */\n      mstore\n        /* \"#utility.yul\":13548:13552   */\n      0x24\n        /* \"#utility.yul\":13545:13546   */\n      0x00\n        /* \"#utility.yul\":13538:13553   */\n      revert\n        /* \"#utility.yul\":13565:13745   */\n    tag_433:\n        /* \"#utility.yul\":13613:13690   */\n      0x4e487b7100000000000000000000000000000000000000000000000000000000\n        /* \"#utility.yul\":13610:13611   */\n      0x00\n        /* \"#utility.yul\":13603:13691   */\n      mstore\n        /* \"#utility.yul\":13710:13714   */\n      0x11\n        /* \"#utility.yul\":13707:13708   */\n      0x04\n        /* \"#utility.yul\":13700:13715   */\n      mstore\n        /* \"#utility.yul\":13734:13738   */\n      0x24\n        /* \"#utility.yul\":13731:13732   */\n      0x00\n        /* \"#utility.yul\":13724:13739   */\n      revert\n        /* \"#utility.yul\":13751:13942   */\n    tag_173:\n        /* \"#utility.yul\":13791:13794   */\n      0x00\n        /* \"#utility.yul\":13810:13830   */\n      tag_586\n        /* \"#utility.yul\":13828:13829   */\n      dup3\n        /* \"#utility.yul\":13810:13830   */\n      tag_398\n      jump\t// in\n    tag_586:\n        /* \"#utility.yul\":13805:13830   */\n      swap2\n      pop\n        /* \"#utility.yul\":13844:13864   */\n      tag_587\n        /* \"#utility.yul\":13862:13863   */\n      dup4\n        /* \"#utility.yul\":13844:13864   */\n      tag_398\n      jump\t// in\n    tag_587:\n        /* \"#utility.yul\":13839:13864   */\n      swap3\n      pop\n        /* \"#utility.yul\":13887:13888   */\n      dup3\n        /* \"#utility.yul\":13884:13885   */\n      dup3\n        /* \"#utility.yul\":13880:13889   */\n      add\n        /* \"#utility.yul\":13873:13889   */\n      swap1\n      pop\n        /* \"#utility.yul\":13908:13911   */\n      dup1\n        /* \"#utility.yul\":13905:13906   */\n      dup3\n        /* \"#utility.yul\":13902:13912   */\n      gt\n        /* \"#utility.yul\":13899:13935   */\n      iszero\n      tag_588\n      jumpi\n        /* \"#utility.yul\":13915:13933   */\n      tag_589\n      tag_433\n      jump\t// in\n    tag_589:\n        /* \"#utility.yul\":13899:13935   */\n    tag_588:\n        /* \"#utility.yul\":13751:13942   */\n      swap3\n      swap2\n      pop\n      pop\n      jump\t// out\n        /* \"#utility.yul\":13948:14142   */\n    tag_175:\n        /* \"#utility.yul\":13988:13992   */\n      0x00\n        /* \"#utility.yul\":14008:14028   */\n      tag_591\n        /* \"#utility.yul\":14026:14027   */\n      dup3\n        /* \"#utility.yul\":14008:14028   */\n      tag_398\n      jump\t// in\n    tag_591:\n        /* \"#utility.yul\":14003:14028   */\n      swap2\n      pop\n        /* \"#utility.yul\":14042:14062   */\n      tag_592\n        /* \"#utility.yul\":14060:14061   */\n      dup4\n        /* \"#utility.yul\":14042:14062   */\n      tag_398\n      jump\t// in\n    tag_592:\n        /* \"#utility.yul\":14037:14062   */\n      swap3\n      pop\n        /* \"#utility.yul\":14086:14087   */\n      dup3\n        /* \"#utility.yul\":14083:14084   */\n      dup3\n        /* \"#utility.yul\":14079:14088   */\n      sub\n        /* \"#utility.yul\":14071:14088   */\n      swap1\n      pop\n        /* \"#utility.yul\":14110:14111   */\n      dup2\n        /* \"#utility.yul\":14104:14108   */\n      dup2\n        /* \"#utility.yul\":14101:14112   */\n      gt\n        /* \"#utility.yul\":14098:14135   */\n      iszero\n      tag_593\n      jumpi\n        /* \"#utility.yul\":14115:14133   */\n      tag_594\n      tag_433\n      jump\t// in\n    tag_594:\n        /* \"#utility.yul\":14098:14135   */\n    tag_593:\n        /* \"#utility.yul\":13948:14142   */\n      swap3\n      swap2\n      pop\n      pop\n      jump\t// out\n        /* \"#utility.yul\":14148:14381   */\n    tag_181:\n        /* \"#utility.yul\":14187:14190   */\n      0x00\n        /* \"#utility.yul\":14210:14234   */\n      tag_596\n        /* \"#utility.yul\":14228:14233   */\n      dup3\n        /* \"#utility.yul\":14210:14234   */\n      tag_398\n      jump\t// in\n    tag_596:\n        /* \"#utility.yul\":14201:14234   */\n      swap2\n      pop\n        /* \"#utility.yul\":14256:14322   */\n      0xffffffffffffffffffffffffffffffffffffffffffffffffffffffffffffffff\n        /* \"#utility.yul\":14249:14254   */\n      dup3\n        /* \"#utility.yul\":14246:14323   */\n      sub\n        /* \"#utility.yul\":14243:14346   */\n      tag_597\n      jumpi\n        /* \"#utility.yul\":14326:14344   */\n      tag_598\n      tag_433\n      jump\t// in\n    tag_598:\n        /* \"#utility.yul\":14243:14346   */\n    tag_597:\n        /* \"#utility.yul\":14373:14374   */\n      0x01\n        /* \"#utility.yul\":14366:14371   */\n      dup3\n        /* \"#utility.yul\":14362:14375   */\n      add\n        /* \"#utility.yul\":14355:14375   */\n      swap1\n      pop\n        /* \"#utility.yul\":14148:14381   */\n      swap2\n      swap1\n      pop\n      jump\t// out\n        /* \"#utility.yul\":14387:14797   */\n    tag_207:\n        /* \"#utility.yul\":14427:14434   */\n      0x00\n        /* \"#utility.yul\":14450:14470   */\n      tag_600\n        /* \"#utility.yul\":14468:14469   */\n      dup3\n        /* \"#utility.yul\":14450:14470   */\n      tag_398\n      jump\t// in\n    tag_600:\n        /* \"#utility.yul\":14445:14470   */\n      swap2\n      pop\n        /* \"#utility.yul\":14484:14504   */\n      tag_601\n        /* \"#utility.yul\":14502:14503   */\n      dup4\n        /* \"#utility.yul\":14484:14504   */\n      tag_398\n      jump\t// in\n    tag_601:\n        /* \"#utility.yul\":14479:14504   */\n      swap3\n      pop\n        /* \"#utility.yul\":14539:14540   */\n      dup3\n        /* \"#utility.yul\":14536:14537   */\n      dup3\n        /* \"#utility.yul\":14532:14541   */\n      mul\n        /* \"#utility.yul\":14561:14591   */\n      tag_602\n        /* \"#utility.yul\":14579:14590   */\n      dup2\n        /* \"#utility.yul\":14561:14591   */\n      tag_398\n      jump\t// in\n    tag_602:\n        /* \"#utility.yul\":14550:14591   */\n      swap2\n      pop\n        /* \"#utility.yul\":14740:14741   */\n      dup3\n        /* \"#utility.yul\":14731:14738   */\n      dup3\n        /* \"#utility.yul\":14727:14742   */\n      div\n        /* \"#utility.yul\":14724:14725   */\n      dup5\n        /* \"#utility.yul\":14721:14743   */\n      eq\n        /* \"#utility.yul\":14701:14702   */\n      dup4\n        /* \"#utility.yul\":14694:14703   */\n      iszero\n        /* \"#utility.yul\":14674:14757   */\n      or\n        /* \"#utility.yul\":14651:14790   */\n      tag_603\n      jumpi\n        /* \"#utility.yul\":14770:14788   */\n      tag_604\n      tag_433\n      jump\t// in\n    tag_604:\n        /* \"#utility.yul\":14651:14790   */\n    tag_603:\n        /* \"#utility.yul\":14435:14797   */\n      pop\n        /* \"#utility.yul\":14387:14797   */\n      swap3\n      swap2\n      pop\n      pop\n      jump\t// out\n        /* \"#utility.yul\":14803:14983   */\n    tag_434:\n        /* \"#utility.yul\":14851:14928   */\n      0x4e487b7100000000000000000000000000000000000000000000000000000000\n        /* \"#utility.yul\":14848:14849   */\n      0x00\n        /* \"#utility.yul\":14841:14929   */\n      mstore\n        /* \"#utility.yul\":14948:14952   */\n      0x12\n        /* \"#utility.yul\":14945:14946   */\n      0x04\n        /* \"#utility.yul\":14938:14953   */\n      mstore\n        /* \"#utility.yul\":14972:14976   */\n      0x24\n        /* \"#utility.yul\":14969:14970   */\n      0x00\n        /* \"#utility.yul\":14962:14977   */\n      revert\n        /* \"#utility.yul\":14989:15174   */\n    tag_210:\n        /* \"#utility.yul\":15029:15030   */\n      0x00\n        /* \"#utility.yul\":15046:15066   */\n      tag_607\n        /* \"#utility.yul\":15064:15065   */\n      dup3\n        /* \"#utility.yul\":15046:15066   */\n      tag_398\n      jump\t// in\n    tag_607:\n        /* \"#utility.yul\":15041:15066   */\n      swap2\n      pop\n        /* \"#utility.yul\":15080:15100   */\n      tag_608\n        /* \"#utility.yul\":15098:15099   */\n      dup4\n        /* \"#utility.yul\":15080:15100   */\n      tag_398\n      jump\t// in\n    tag_608:\n        /* \"#utility.yul\":15075:15100   */\n      swap3\n      pop\n        /* \"#utility.yul\":15119:15120   */\n      dup3\n        /* \"#utility.yul\":15109:15144   */\n      tag_609\n      jumpi\n        /* \"#utility.yul\":15124:15142   */\n      tag_610\n      tag_434\n      jump\t// in\n    tag_610:\n        /* \"#utility.yul\":15109:15144   */\n    tag_609:\n        /* \"#utility.yul\":15166:15167   */\n      dup3\n        /* \"#utility.yul\":15163:15164   */\n      dup3\n        /* \"#utility.yul\":15159:15168   */\n      div\n        /* \"#utility.yul\":15154:15168   */\n      swap1\n      pop\n        /* \"#utility.yul\":14989:15174   */\n      swap3\n      swap2\n      pop\n      pop\n      jump\t// out\n        /* \"#utility.yul\":15180:15327   */\n    tag_435:\n        /* \"#utility.yul\":15281:15292   */\n      0x00\n        /* \"#utility.yul\":15318:15321   */\n      dup2\n        /* \"#utility.yul\":15303:15321   */\n      swap1\n      pop\n        /* \"#utility.yul\":15180:15327   */\n      swap3\n      swap2\n      pop\n      pop\n      jump\t// out\n        /* \"#utility.yul\":15333:15447   */\n    tag_436:\n      pop\n      jump\t// out\n        /* \"#utility.yul\":15453:15851   */\n    tag_437:\n        /* \"#utility.yul\":15612:15615   */\n      0x00\n        /* \"#utility.yul\":15633:15716   */\n      tag_614\n        /* \"#utility.yul\":15714:15715   */\n      0x00\n        /* \"#utility.yul\":15709:15712   */\n      dup4\n        /* \"#utility.yul\":15633:15716   */\n      tag_435\n      jump\t// in\n    tag_614:\n        /* \"#utility.yul\":15626:15716   */\n      swap2\n      pop\n        /* \"#utility.yul\":15725:15818   */\n      tag_615\n        /* \"#utility.yul\":15814:15817   */\n      dup3\n        /* \"#utility.yul\":15725:15818   */\n      tag_436\n      jump\t// in\n    tag_615:\n        /* \"#utility.yul\":15843:15844   */\n      0x00\n        /* \"#utility.yul\":15838:15841   */\n      dup3\n        /* \"#utility.yul\":15834:15845   */\n      add\n        /* \"#utility.yul\":15827:15845   */\n      swap1\n      pop\n        /* \"#utility.yul\":15453:15851   */\n      swap2\n      swap1\n      pop\n      jump\t// out\n        /* \"#utility.yul\":15857:16236   */\n    tag_216:\n        /* \"#utility.yul\":16041:16044   */\n      0x00\n        /* \"#utility.yul\":16063:16210   */\n      tag_617\n        /* \"#utility.yul\":16206:16209   */\n      dup3\n        /* \"#utility.yul\":16063:16210   */\n      tag_437\n      jump\t// in\n    tag_617:\n        /* \"#utility.yul\":16056:16210   */\n      swap2\n      pop\n        /* \"#utility.yul\":16227:16230   */\n      dup2\n        /* \"#utility.yul\":16220:16230   */\n      swap1\n      pop\n        /* \"#utility.yul\":15857:16236   */\n      swap2\n      swap1\n      pop\n      jump\t// out\n        /* \"#utility.yul\":16242:16411   */\n    tag_438:\n        /* \"#utility.yul\":16326:16337   */\n      0x00\n        /* \"#utility.yul\":16360:16366   */\n      dup3\n        /* \"#utility.yul\":16355:16358   */\n      dup3\n        /* \"#utility.yul\":16348:16367   */\n      mstore\n        /* \"#utility.yul\":16400:16404   */\n      0x20\n        /* \"#utility.yul\":16395:16398   */\n      dup3\n        /* \"#utility.yul\":16391:16405   */\n      add\n        /* \"#utility.yul\":16376:16405   */\n      swap1\n      pop\n        /* \"#utility.yul\":16242:16411   */\n      swap3\n      swap2\n      pop\n      pop\n      jump\t// out\n        /* \"#utility.yul\":16417:16588   */\n    tag_439:\n        /* \"#utility.yul\":16557:16580   */\n      0x4177617264207472616e73666572206661696c65640000000000000000000000\n        /* \"#utility.yul\":16553:16554   */\n      0x00\n        /* \"#utility.yul\":16545:16551   */\n      dup3\n        /* \"#utility.yul\":16541:16555   */\n      add\n        /* \"#utility.yul\":16534:16581   */\n      mstore\n        /* \"#utility.yul\":16417:16588   */\n      pop\n      jump\t// out\n        /* \"#utility.yul\":16594:16960   */\n    tag_440:\n        /* \"#utility.yul\":16736:16739   */\n      0x00\n        /* \"#utility.yul\":16757:16824   */\n      tag_621\n        /* \"#utility.yul\":16821:16823   */\n      0x15\n        /* \"#utility.yul\":16816:16819   */\n      dup4\n        /* \"#utility.yul\":16757:16824   */\n      tag_438\n      jump\t// in\n    tag_621:\n        /* \"#utility.yul\":16750:16824   */\n      swap2\n      pop\n        /* \"#utility.yul\":16833:16926   */\n      tag_622\n        /* \"#utility.yul\":16922:16925   */\n      dup3\n        /* \"#utility.yul\":16833:16926   */\n      tag_439\n      jump\t// in\n    tag_622:\n        /* \"#utility.yul\":16951:16953   */\n      0x20\n        /* \"#utility.yul\":16946:16949   */\n      dup3\n        /* \"#utility.yul\":16942:16954   */\n      add\n        /* \"#utility.yul\":16935:16954   */\n      swap1\n      pop\n        /* \"#utility.yul\":16594:16960   */\n      swap2\n      swap1\n      pop\n      jump\t// out\n        /* \"#utility.yul\":16966:17385   */\n    tag_222:\n        /* \"#utility.yul\":17132:17136   */\n      0x00\n        /* \"#utility.yul\":17170:17172   */\n      0x20\n        /* \"#utility.yul\":17159:17168   */\n      dup3\n        /* \"#utility.yul\":17155:17173   */\n      add\n        /* \"#utility.yul\":17147:17173   */\n      swap1\n      pop\n        /* \"#utility.yul\":17219:17228   */\n      dup2\n        /* \"#utility.yul\":17213:17217   */\n      dup2\n        /* \"#utility.yul\":17209:17229   */\n      sub\n        /* \"#utility.yul\":17205:17206   */\n      0x00\n        /* \"#utility.yul\":17194:17203   */\n      dup4\n        /* \"#utility.yul\":17190:17207   */\n      add\n        /* \"#utility.yul\":17183:17230   */\n      mstore\n        /* \"#utility.yul\":17247:17378   */\n      tag_624\n        /* \"#utility.yul\":17373:17377   */\n      dup2\n        /* \"#utility.yul\":17247:17378   */\n      tag_440\n      jump\t// in\n    tag_624:\n        /* \"#utility.yul\":17239:17378   */\n      swap1\n      pop\n        /* \"#utility.yul\":16966:17385   */\n      swap2\n      swap1\n      pop\n      jump\t// out\n        /* \"#utility.yul\":17391:17944   */\n    tag_230:\n        /* \"#utility.yul\":17568:17572   */\n      0x00\n        /* \"#utility.yul\":17606:17609   */\n      0x80\n        /* \"#utility.yul\":17595:17604   */\n      dup3\n        /* \"#utility.yul\":17591:17610   */\n      add\n        /* \"#utility.yul\":17583:17610   */\n      swap1\n      pop\n        /* \"#utility.yul\":17620:17691   */\n      tag_626\n        /* \"#utility.yul\":17688:17689   */\n      0x00\n        /* \"#utility.yul\":17677:17686   */\n      dup4\n        /* \"#utility.yul\":17673:17690   */\n      add\n        /* \"#utility.yul\":17664:17670   */\n      dup8\n        /* \"#utility.yul\":17620:17691   */\n      tag_400\n      jump\t// in\n    tag_626:\n        /* \"#utility.yul\":17701:17773   */\n      tag_627\n        /* \"#utility.yul\":17769:17771   */\n      0x20\n        /* \"#utility.yul\":17758:17767   */\n      dup4\n        /* \"#utility.yul\":17754:17772   */\n      add\n        /* \"#utility.yul\":17745:17751   */\n      dup7\n        /* \"#utility.yul\":17701:17773   */\n      tag_399\n      jump\t// in\n    tag_627:\n        /* \"#utility.yul\":17783:17855   */\n      tag_628\n        /* \"#utility.yul\":17851:17853   */\n      0x40\n        /* \"#utility.yul\":17840:17849   */\n      dup4\n        /* \"#utility.yul\":17836:17854   */\n      add\n        /* \"#utility.yul\":17827:17833   */\n      dup6\n        /* \"#utility.yul\":17783:17855   */\n      tag_399\n      jump\t// in\n    tag_628:\n        /* \"#utility.yul\":17865:17937   */\n      tag_629\n        /* \"#utility.yul\":17933:17935   */\n      0x60\n        /* \"#utility.yul\":17922:17931   */\n      dup4\n        /* \"#utility.yul\":17918:17936   */\n      add\n        /* \"#utility.yul\":17909:17915   */\n      dup5\n        /* \"#utility.yul\":17865:17937   */\n      tag_399\n      jump\t// in\n    tag_629:\n        /* \"#utility.yul\":17391:17944   */\n      swap6\n      swap5\n      pop\n      pop\n      pop\n      pop\n      pop\n      jump\t// out\n        /* \"#utility.yul\":17950:18119   */\n    tag_441:\n        /* \"#utility.yul\":18090:18111   */\n      0x466565207472616e73666572206661696c656400000000000000000000000000\n        /* \"#utility.yul\":18086:18087   */\n      0x00\n        /* \"#utility.yul\":18078:18084   */\n      dup3\n        /* \"#utility.yul\":18074:18088   */\n      add\n        /* \"#utility.yul\":18067:18112   */\n      mstore\n        /* \"#utility.yul\":17950:18119   */\n      pop\n      jump\t// out\n        /* \"#utility.yul\":18125:18491   */\n    tag_442:\n        /* \"#utility.yul\":18267:18270   */\n      0x00\n        /* \"#utility.yul\":18288:18355   */\n      tag_632\n        /* \"#utility.yul\":18352:18354   */\n      0x13\n        /* \"#utility.yul\":18347:18350   */\n      dup4\n        /* \"#utility.yul\":18288:18355   */\n      tag_438\n      jump\t// in\n    tag_632:\n        /* \"#utility.yul\":18281:18355   */\n      swap2\n      pop\n        /* \"#utility.yul\":18364:18457   */\n      tag_633\n        /* \"#utility.yul\":18453:18456   */\n      dup3\n        /* \"#utility.yul\":18364:18457   */\n      tag_441\n      jump\t// in\n    tag_633:\n        /* \"#utility.yul\":18482:18484   */\n      0x20\n        /* \"#utility.yul\":18477:18480   */\n      dup3\n        /* \"#utility.yul\":18473:18485   */\n      add\n        /* \"#utility.yul\":18466:18485   */\n      swap1\n      pop\n        /* \"#utility.yul\":18125:18491   */\n      swap2\n      swap1\n      pop\n      jump\t// out\n        /* \"#utility.yul\":18497:18916   */\n    tag_238:\n        /* \"#utility.yul\":18663:18667   */\n      0x00\n        /* \"#utility.yul\":18701:18703   */\n      0x20\n        /* \"#utility.yul\":18690:18699   */\n      dup3\n        /* \"#utility.yul\":18686:18704   */\n      add\n        /* \"#utility.yul\":18678:18704   */\n      swap1\n      pop\n        /* \"#utility.yul\":18750:18759   */\n      dup2\n        /* \"#utility.yul\":18744:18748   */\n      dup2\n        /* \"#utility.yul\":18740:18760   */\n      sub\n        /* \"#utility.yul\":18736:18737   */\n      0x00\n        /* \"#utility.yul\":18725:18734   */\n      dup4\n        /* \"#utility.yul\":18721:18738   */\n      add\n        /* \"#utility.yul\":18714:18761   */\n      mstore\n        /* \"#utility.yul\":18778:18909   */\n      tag_635\n        /* \"#utility.yul\":18904:18908   */\n      dup2\n        /* \"#utility.yul\":18778:18909   */\n      tag_442\n      jump\t// in\n    tag_635:\n        /* \"#utility.yul\":18770:18909   */\n      swap1\n      pop\n        /* \"#utility.yul\":18497:18916   */\n      swap2\n      swap1\n      pop\n      jump\t// out\n        /* \"#utility.yul\":18922:19102   */\n    tag_251:\n        /* \"#utility.yul\":18970:19047   */\n      0x4e487b7100000000000000000000000000000000000000000000000000000000\n        /* \"#utility.yul\":18967:18968   */\n      0x00\n        /* \"#utility.yul\":18960:19048   */\n      mstore\n        /* \"#utility.yul\":19067:19071   */\n      0x31\n        /* \"#utility.yul\":19064:19065   */\n      0x04\n        /* \"#utility.yul\":19057:19072   */\n      mstore\n        /* \"#utility.yul\":19091:19095   */\n      0x24\n        /* \"#utility.yul\":19088:19089   */\n      0x00\n        /* \"#utility.yul\":19081:19096   */\n      revert\n        /* \"#utility.yul\":19108:19271   */\n    tag_443:\n        /* \"#utility.yul\":19248:19263   */\n      0x626164206f7065726174696f6e00000000000000000000000000000000000000\n        /* \"#utility.yul\":19244:19245   */\n      0x00\n        /* \"#utility.yul\":19236:19242   */\n      dup3\n        /* \"#utility.yul\":19232:19246   */\n      add\n        /* \"#utility.yul\":19225:19264   */\n      mstore\n        /* \"#utility.yul\":19108:19271   */\n      pop\n      jump\t// out\n        /* \"#utility.yul\":19277:19643   */\n    tag_444:\n        /* \"#utility.yul\":19419:19422   */\n      0x00\n        /* \"#utility.yul\":19440:19507   */\n      tag_639\n        /* \"#utility.yul\":19504:19506   */\n      0x0d\n        /* \"#utility.yul\":19499:19502   */\n      dup4\n        /* \"#utility.yul\":19440:19507   */\n      tag_438\n      jump\t// in\n    tag_639:\n        /* \"#utility.yul\":19433:19507   */\n      swap2\n      pop\n        /* \"#utility.yul\":19516:19609   */\n      tag_640\n        /* \"#utility.yul\":19605:19608   */\n      dup3\n        /* \"#utility.yul\":19516:19609   */\n      tag_443\n      jump\t// in\n    tag_640:\n        /* \"#utility.yul\":19634:19636   */\n      0x20\n        /* \"#utility.yul\":19629:19632   */\n      dup3\n        /* \"#utility.yul\":19625:19637   */\n      add\n        /* \"#utility.yul\":19618:19637   */\n      swap1\n      pop\n        /* \"#utility.yul\":19277:19643   */\n      swap2\n      swap1\n      pop\n      jump\t// out\n        /* \"#utility.yul\":19649:20068   */\n    tag_320:\n        /* \"#utility.yul\":19815:19819   */\n      0x00\n        /* \"#utility.yul\":19853:19855   */\n      0x20\n        /* \"#utility.yul\":19842:19851   */\n      dup3\n        /* \"#utility.yul\":19838:19856   */\n      add\n        /* \"#utility.yul\":19830:19856   */\n      swap1\n      pop\n        /* \"#utility.yul\":19902:19911   */\n      dup2\n        /* \"#utility.yul\":19896:19900   */\n      dup2\n        /* \"#utility.yul\":19892:19912   */\n      sub\n        /* \"#utility.yul\":19888:19889   */\n      0x00\n        /* \"#utility.yul\":19877:19886   */\n      dup4\n        /* \"#utility.yul\":19873:19890   */\n      add\n        /* \"#utility.yul\":19866:19913   */\n      mstore\n        /* \"#utility.yul\":19930:20061   */\n      tag_642\n        /* \"#utility.yul\":20056:20060   */\n      dup2\n        /* \"#utility.yul\":19930:20061   */\n      tag_444\n      jump\t// in\n    tag_642:\n        /* \"#utility.yul\":19922:20061   */\n      swap1\n      pop\n        /* \"#utility.yul\":19649:20068   */\n      swap2\n      swap1\n      pop\n      jump\t// out\n        /* \"#utility.yul\":20074:20516   */\n    tag_338:\n        /* \"#utility.yul\":20223:20227   */\n      0x00\n        /* \"#utility.yul\":20261:20263   */\n      0x60\n        /* \"#utility.yul\":20250:20259   */\n      dup3\n        /* \"#utility.yul\":20246:20264   */\n      add\n        /* \"#utility.yul\":20238:20264   */\n      swap1\n      pop\n        /* \"#utility.yul\":20274:20345   */\n      tag_644\n        /* \"#utility.yul\":20342:20343   */\n      0x00\n        /* \"#utility.yul\":20331:20340   */\n      dup4\n        /* \"#utility.yul\":20327:20344   */\n      add\n        /* \"#utility.yul\":20318:20324   */\n      dup7\n        /* \"#utility.yul\":20274:20345   */\n      tag_400\n      jump\t// in\n    tag_644:\n        /* \"#utility.yul\":20355:20427   */\n      tag_645\n        /* \"#utility.yul\":20423:20425   */\n      0x20\n        /* \"#utility.yul\":20412:20421   */\n      dup4\n        /* \"#utility.yul\":20408:20426   */\n      add\n        /* \"#utility.yul\":20399:20405   */\n      dup6\n        /* \"#utility.yul\":20355:20427   */\n      tag_399\n      jump\t// in\n    tag_645:\n        /* \"#utility.yul\":20437:20509   */\n      tag_646\n        /* \"#utility.yul\":20505:20507   */\n      0x40\n        /* \"#utility.yul\":20494:20503   */\n      dup4\n        /* \"#utility.yul\":20490:20508   */\n      add\n        /* \"#utility.yul\":20481:20487   */\n      dup5\n        /* \"#utility.yul\":20437:20509   */\n      tag_399\n      jump\t// in\n    tag_646:\n        /* \"#utility.yul\":20074:20516   */\n      swap5\n      swap4\n      pop\n      pop\n      pop\n      pop\n      jump\t// out\n        /* \"#utility.yul\":20522:20690   */\n    tag_445:\n        /* \"#utility.yul\":20662:20682   */\n      0x4e6f7420656e6f756768207061796d656e740000000000000000000000000000\n        /* \"#utility.yul\":20658:20659   */\n      0x00\n        /* \"#utility.yul\":20650:20656   */\n      dup3\n        /* \"#utility.yul\":20646:20660   */\n      add\n        /* \"#utility.yul\":20639:20683   */\n      mstore\n        /* \"#utility.yul\":20522:20690   */\n      pop\n      jump\t// out\n        /* \"#utility.yul\":20696:21062   */\n    tag_446:\n        /* \"#utility.yul\":20838:20841   */\n      0x00\n        /* \"#utility.yul\":20859:20926   */\n      tag_649\n        /* \"#utility.yul\":20923:20925   */\n      0x12\n        /* \"#utility.yul\":20918:20921   */\n      dup4\n        /* \"#utility.yul\":20859:20926   */\n      tag_438\n      jump\t// in\n    tag_649:\n        /* \"#utility.yul\":20852:20926   */\n      swap2\n      pop\n        /* \"#utility.yul\":20935:21028   */\n      tag_650\n        /* \"#utility.yul\":21024:21027   */\n      dup3\n        /* \"#utility.yul\":20935:21028   */\n      tag_445\n      jump\t// in\n    tag_650:\n        /* \"#utility.yul\":21053:21055   */\n      0x20\n        /* \"#utility.yul\":21048:21051   */\n      dup3\n        /* \"#utility.yul\":21044:21056   */\n      add\n        /* \"#utility.yul\":21037:21056   */\n      swap1\n      pop\n        /* \"#utility.yul\":20696:21062   */\n      swap2\n      swap1\n      pop\n      jump\t// out\n        /* \"#utility.yul\":21068:21487   */\n    tag_344:\n        /* \"#utility.yul\":21234:21238   */\n      0x00\n        /* \"#utility.yul\":21272:21274   */\n      0x20\n        /* \"#utility.yul\":21261:21270   */\n      dup3\n        /* \"#utility.yul\":21257:21275   */\n      add\n        /* \"#utility.yul\":21249:21275   */\n      swap1\n      pop\n        /* \"#utility.yul\":21321:21330   */\n      dup2\n        /* \"#utility.yul\":21315:21319   */\n      dup2\n        /* \"#utility.yul\":21311:21331   */\n      sub\n        /* \"#utility.yul\":21307:21308   */\n      0x00\n        /* \"#utility.yul\":21296:21305   */\n      dup4\n        /* \"#utility.yul\":21292:21309   */\n      add\n        /* \"#utility.yul\":21285:21332   */\n      mstore\n        /* \"#utility.yul\":21349:21480   */\n      tag_652\n        /* \"#utility.yul\":21475:21479   */\n      dup2\n        /* \"#utility.yul\":21349:21480   */\n      tag_446\n      jump\t// in\n    tag_652:\n        /* \"#utility.yul\":21341:21480   */\n      swap1\n      pop\n        /* \"#utility.yul\":21068:21487   */\n      swap2\n      swap1\n      pop\n      jump\t// out\n        /* \"#utility.yul\":21493:21825   */\n    tag_349:\n        /* \"#utility.yul\":21614:21618   */\n      0x00\n        /* \"#utility.yul\":21652:21654   */\n      0x40\n        /* \"#utility.yul\":21641:21650   */\n      dup3\n        /* \"#utility.yul\":21637:21655   */\n      add\n        /* \"#utility.yul\":21629:21655   */\n      swap1\n      pop\n        /* \"#utility.yul\":21665:21736   */\n      tag_654\n        /* \"#utility.yul\":21733:21734   */\n      0x00\n        /* \"#utility.yul\":21722:21731   */\n      dup4\n        /* \"#utility.yul\":21718:21735   */\n      add\n        /* \"#utility.yul\":21709:21715   */\n      dup6\n        /* \"#utility.yul\":21665:21736   */\n      tag_400\n      jump\t// in\n    tag_654:\n        /* \"#utility.yul\":21746:21818   */\n      tag_655\n        /* \"#utility.yul\":21814:21816   */\n      0x20\n        /* \"#utility.yul\":21803:21812   */\n      dup4\n        /* \"#utility.yul\":21799:21817   */\n      add\n        /* \"#utility.yul\":21790:21796   */\n      dup5\n        /* \"#utility.yul\":21746:21818   */\n      tag_399\n      jump\t// in\n    tag_655:\n        /* \"#utility.yul\":21493:21825   */\n      swap4\n      swap3\n      pop\n      pop\n      pop\n      jump\t// out\n        /* \"#utility.yul\":21831:22056   */\n    tag_447:\n        /* \"#utility.yul\":21971:22005   */\n      0x4f776e61626c653a206e6577206f776e657220697320746865207a65726f2061\n        /* \"#utility.yul\":21967:21968   */\n      0x00\n        /* \"#utility.yul\":21959:21965   */\n      dup3\n        /* \"#utility.yul\":21955:21969   */\n      add\n        /* \"#utility.yul\":21948:22006   */\n      mstore\n        /* \"#utility.yul\":22040:22048   */\n      0x6464726573730000000000000000000000000000000000000000000000000000\n        /* \"#utility.yul\":22035:22037   */\n      0x20\n        /* \"#utility.yul\":22027:22033   */\n      dup3\n        /* \"#utility.yul\":22023:22038   */\n      add\n        /* \"#utility.yul\":22016:22049   */\n      mstore\n        /* \"#utility.yul\":21831:22056   */\n      pop\n      jump\t// out\n        /* \"#utility.yul\":22062:22428   */\n    tag_448:\n        /* \"#utility.yul\":22204:22207   */\n      0x00\n        /* \"#utility.yul\":22225:22292   */\n      tag_658\n        /* \"#utility.yul\":22289:22291   */\n      0x26\n        /* \"#utility.yul\":22284:22287   */\n      dup4\n        /* \"#utility.yul\":22225:22292   */\n      tag_438\n      jump\t// in\n    tag_658:\n        /* \"#utility.yul\":22218:22292   */\n      swap2\n      pop\n        /* \"#utility.yul\":22301:22394   */\n      tag_659\n        /* \"#utility.yul\":22390:22393   */\n      dup3\n        /* \"#utility.yul\":22301:22394   */\n      tag_447\n      jump\t// in\n    tag_659:\n        /* \"#utility.yul\":22419:22421   */\n      0x40\n        /* \"#utility.yul\":22414:22417   */\n      dup3\n        /* \"#utility.yul\":22410:22422   */\n      add\n        /* \"#utility.yul\":22403:22422   */\n      swap1\n      pop\n        /* \"#utility.yul\":22062:22428   */\n      swap2\n      swap1\n      pop\n      jump\t// out\n        /* \"#utility.yul\":22434:22853   */\n    tag_360:\n        /* \"#utility.yul\":22600:22604   */\n      0x00\n        /* \"#utility.yul\":22638:22640   */\n      0x20\n        /* \"#utility.yul\":22627:22636   */\n      dup3\n        /* \"#utility.yul\":22623:22641   */\n      add\n        /* \"#utility.yul\":22615:22641   */\n      swap1\n      pop\n        /* \"#utility.yul\":22687:22696   */\n      dup2\n        /* \"#utility.yul\":22681:22685   */\n      dup2\n        /* \"#utility.yul\":22677:22697   */\n      sub\n        /* \"#utility.yul\":22673:22674   */\n      0x00\n        /* \"#utility.yul\":22662:22671   */\n      dup4\n        /* \"#utility.yul\":22658:22675   */\n      add\n        /* \"#utility.yul\":22651:22698   */\n      mstore\n        /* \"#utility.yul\":22715:22846   */\n      tag_661\n        /* \"#utility.yul\":22841:22845   */\n      dup2\n        /* \"#utility.yul\":22715:22846   */\n      tag_448\n      jump\t// in\n    tag_661:\n        /* \"#utility.yul\":22707:22846   */\n      swap1\n      pop\n        /* \"#utility.yul\":22434:22853   */\n      swap2\n      swap1\n      pop\n      jump\t// out\n        /* \"#utility.yul\":22859:23041   */\n    tag_449:\n        /* \"#utility.yul\":22999:23033   */\n      0x4f776e61626c653a2063616c6c6572206973206e6f7420746865206f776e6572\n        /* \"#utility.yul\":22995:22996   */\n      0x00\n        /* \"#utility.yul\":22987:22993   */\n      dup3\n        /* \"#utility.yul\":22983:22997   */\n      add\n        /* \"#utility.yul\":22976:23034   */\n      mstore\n        /* \"#utility.yul\":22859:23041   */\n      pop\n      jump\t// out\n        /* \"#utility.yul\":23047:23413   */\n    tag_450:\n        /* \"#utility.yul\":23189:23192   */\n      0x00\n        /* \"#utility.yul\":23210:23277   */\n      tag_664\n        /* \"#utility.yul\":23274:23276   */\n      0x20\n        /* \"#utility.yul\":23269:23272   */\n      dup4\n        /* \"#utility.yul\":23210:23277   */\n      tag_438\n      jump\t// in\n    tag_664:\n        /* \"#utility.yul\":23203:23277   */\n      swap2\n      pop\n        /* \"#utility.yul\":23286:23379   */\n      tag_665\n        /* \"#utility.yul\":23375:23378   */\n      dup3\n        /* \"#utility.yul\":23286:23379   */\n      tag_449\n      jump\t// in\n    tag_665:\n        /* \"#utility.yul\":23404:23406   */\n      0x20\n        /* \"#utility.yul\":23399:23402   */\n      dup3\n        /* \"#utility.yul\":23395:23407   */\n      add\n        /* \"#utility.yul\":23388:23407   */\n      swap1\n      pop\n        /* \"#utility.yul\":23047:23413   */\n      swap2\n      swap1\n      pop\n      jump\t// out\n        /* \"#utility.yul\":23419:23838   */\n    tag_369:\n        /* \"#utility.yul\":23585:23589   */\n      0x00\n        /* \"#utility.yul\":23623:23625   */\n      0x20\n        /* \"#utility.yul\":23612:23621   */\n      dup3\n        /* \"#utility.yul\":23608:23626   */\n      add\n        /* \"#utility.yul\":23600:23626   */\n      swap1\n      pop\n        /* \"#utility.yul\":23672:23681   */\n      dup2\n        /* \"#utility.yul\":23666:23670   */\n      dup2\n        /* \"#utility.yul\":23662:23682   */\n      sub\n        /* \"#utility.yul\":23658:23659   */\n      0x00\n        /* \"#utility.yul\":23647:23656   */\n      dup4\n        /* \"#utility.yul\":23643:23660   */\n      add\n        /* \"#utility.yul\":23636:23683   */\n      mstore\n        /* \"#utility.yul\":23700:23831   */\n      tag_667\n        /* \"#utility.yul\":23826:23830   */\n      dup2\n        /* \"#utility.yul\":23700:23831   */\n      tag_450\n      jump\t// in\n    tag_667:\n        /* \"#utility.yul\":23692:23831   */\n      swap1\n      pop\n        /* \"#utility.yul\":23419:23838   */\n      swap2\n      swap1\n      pop\n      jump\t// out\n        /* \"#utility.yul\":23844:24025   */\n    tag_451:\n        /* \"#utility.yul\":23984:24017   */\n      0x5265656e7472616e637947756172643a207265656e7472616e742063616c6c00\n        /* \"#utility.yul\":23980:23981   */\n      0x00\n        /* \"#utility.yul\":23972:23978   */\n      dup3\n        /* \"#utility.yul\":23968:23982   */\n      add\n        /* \"#utility.yul\":23961:24018   */\n      mstore\n        /* \"#utility.yul\":23844:24025   */\n      pop\n      jump\t// out\n        /* \"#utility.yul\":24031:24397   */\n    tag_452:\n        /* \"#utility.yul\":24173:24176   */\n      0x00\n        /* \"#utility.yul\":24194:24261   */\n      tag_670\n        /* \"#utility.yul\":24258:24260   */\n      0x1f\n        /* \"#utility.yul\":24253:24256   */\n      dup4\n        /* \"#utility.yul\":24194:24261   */\n      tag_438\n      jump\t// in\n    tag_670:\n        /* \"#utility.yul\":24187:24261   */\n      swap2\n      pop\n        /* \"#utility.yul\":24270:24363   */\n      tag_671\n        /* \"#utility.yul\":24359:24362   */\n      dup3\n        /* \"#utility.yul\":24270:24363   */\n      tag_451\n      jump\t// in\n    tag_671:\n        /* \"#utility.yul\":24388:24390   */\n      0x20\n        /* \"#utility.yul\":24383:24386   */\n      dup3\n        /* \"#utility.yul\":24379:24391   */\n      add\n        /* \"#utility.yul\":24372:24391   */\n      swap1\n      pop\n        /* \"#utility.yul\":24031:24397   */\n      swap2\n      swap1\n      pop\n      jump\t// out\n        /* \"#utility.yul\":24403:24822   */\n    tag_374:\n        /* \"#utility.yul\":24569:24573   */\n      0x00\n        /* \"#utility.yul\":24607:24609   */\n      0x20\n        /* \"#utility.yul\":24596:24605   */\n      dup3\n        /* \"#utility.yul\":24592:24610   */\n      add\n        /* \"#utility.yul\":24584:24610   */\n      swap1\n      pop\n        /* \"#utility.yul\":24656:24665   */\n      dup2\n        /* \"#utility.yul\":24650:24654   */\n      dup2\n        /* \"#utility.yul\":24646:24666   */\n      sub\n        /* \"#utility.yul\":24642:24643   */\n      0x00\n        /* \"#utility.yul\":24631:24640   */\n      dup4\n        /* \"#utility.yul\":24627:24644   */\n      add\n        /* \"#utility.yul\":24620:24667   */\n      mstore\n        /* \"#utility.yul\":24684:24815   */\n      tag_673\n        /* \"#utility.yul\":24810:24814   */\n      dup2\n        /* \"#utility.yul\":24684:24815   */\n      tag_452\n      jump\t// in\n    tag_673:\n        /* \"#utility.yul\":24676:24815   */\n      swap1\n      pop\n        /* \"#utility.yul\":24403:24822   */\n      swap2\n      swap1\n      pop\n      jump\t// out\n\n    auxdata: 0xa2646970667358221220c735f669b9e2ecf9fec4e943ea798d0033909b95164a0e8a844405e6f66c332764736f6c63430008110033\n}\n",
				"bytecode": {
					"linkReferences": {},
					"object": "608060405273f753c11e5167247f156d22b0dd6c6333b934835c600260006101000a81548173ffffffffffffffffffffffffffffffffffffffff021916908373ffffffffffffffffffffffffffffffffffffffff1602179055506040518060a00160405280601d60ff168152602001601860ff168152602001601360ff168152602001600e60ff168152602001600960ff168152506003906005620000a6929190620001ae565b50348015620000b457600080fd5b50620000d5620000c9620000e260201b60201c565b620000ea60201b60201c565b6001808190555062000217565b600033905090565b60008060009054906101000a900473ffffffffffffffffffffffffffffffffffffffff169050816000806101000a81548173ffffffffffffffffffffffffffffffffffffffff021916908373ffffffffffffffffffffffffffffffffffffffff1602179055508173ffffffffffffffffffffffffffffffffffffffff168173ffffffffffffffffffffffffffffffffffffffff167f8be0079c531659141344cd1fd0a4f28419497f9722a3daafe3b4186f6b6457e060405160405180910390a35050565b8260058101928215620001e5579160200282015b82811115620001e4578251829060ff16905591602001919060010190620001c2565b5b509050620001f49190620001f8565b5090565b5b8082111562000213576000816000905550600101620001f9565b5090565b6128f080620002276000396000f3fe60806040526004361061014b5760003560e01c806391b7f5ed116100b6578063d0399bb81161006f578063d0399bb8146104a6578063d65ab5f2146104cf578063e4312377146104d9578063f2fde38b14610504578063f71d96cb1461052d578063fa3059491461056a5761014b565b806391b7f5ed14610372578063a035b1fe1461039b578063afc865dd146103c6578063b2eeed8614610403578063bbe192ba14610440578063bdc78c95146104695761014b565b80633ab1a494116101085780633ab1a494146102865780635aa68ac0146102af578063715018a6146102da5780638b5b9ccc146102f15780638da5cb5b1461031c5780638fefec47146103475761014b565b8063073cd85f14610150578063094bb204146101675780630fac9100146101a45780631581b600146101e1578063247bdda31461020c57806335c1d34914610249575b600080fd5b34801561015c57600080fd5b506101656105a7565b005b34801561017357600080fd5b5061018e60048036038101906101899190611d7a565b610f5a565b60405161019b9190611dc0565b60405180910390f35b3480156101b057600080fd5b506101cb60048036038101906101c69190611d7a565b610f72565b6040516101d89190611dc0565b60405180910390f35b3480156101ed57600080fd5b506101f6610f8a565b6040516102039190611dea565b60405180910390f35b34801561021857600080fd5b50610233600480360381019061022e9190611e31565b610fb0565b6040516102409190611dc0565b60405180910390f35b34801561025557600080fd5b50610270600480360381019061026b9190611e31565b610fcb565b60405161027d9190611dea565b60405180910390f35b34801561029257600080fd5b506102ad60048036038101906102a89190611d7a565b61100a565b005b3480156102bb57600080fd5b506102c4611056565b6040516102d19190611f1c565b60405180910390f35b3480156102e657600080fd5b506102ef6110e4565b005b3480156102fd57600080fd5b506103066110f8565b6040516103139190611f1c565b60405180910390f35b34801561032857600080fd5b50610331611186565b60405161033e9190611dea565b60405180910390f35b34801561035357600080fd5b5061035c6111af565b6040516103699190612175565b60405180910390f35b34801561037e57600080fd5b5061039960048036038101906103949190611e31565b61131d565b005b3480156103a757600080fd5b506103b061132f565b6040516103bd9190611dc0565b60405180910390f35b3480156103d257600080fd5b506103ed60048036038101906103e89190611e31565b611335565b6040516103fa9190611dc0565b60405180910390f35b34801561040f57600080fd5b5061042a60048036038101906104259190611d7a565b611363565b6040516104379190611dc0565b60405180910390f35b34801561044c57600080fd5b5061046760048036038101906104629190612197565b61137b565b005b34801561047557600080fd5b50610490600480360381019061048b9190611d7a565b611410565b60405161049d919061222d565b60405180910390f35b3480156104b257600080fd5b506104cd60048036038101906104c89190611e31565b611430565b005b6104d7611812565b005b3480156104e557600080fd5b506104ee6118f8565b6040516104fb91906122aa565b60405180910390f35b34801561051057600080fd5b5061052b60048036038101906105269190611d7a565b611943565b005b34801561053957600080fd5b50610554600480360381019061054f9190611e31565b6119c6565b6040516105619190611dea565b60405180910390f35b34801561057657600080fd5b50610591600480360381019061058c9190611d7a565b611a05565b60405161059e9190611dc0565b60405180910390f35b6105af611a1d565b6105b7611bbf565b6105bf611be1565b60005b600f805490508110156109355760005b600581101561092157600073ffffffffffffffffffffffffffffffffffffffff16848260058110610606576106056122c5565b5b602002015173ffffffffffffffffffffffffffffffffffffffff1614806107de57506010600085836005811061063f5761063e6122c5565b5b602002015173ffffffffffffffffffffffffffffffffffffffff1673ffffffffffffffffffffffffffffffffffffffff1681526020019081526020016000205460106000600f8581548110610697576106966122c5565b5b9060005260206000200160009054906101000a900473ffffffffffffffffffffffffffffffffffffffff1673ffffffffffffffffffffffffffffffffffffffff1673ffffffffffffffffffffffffffffffffffffffff16815260200190815260200160002054101580156107dd57506011600085836005811061071d5761071c6122c5565b5b602002015173ffffffffffffffffffffffffffffffffffffffff1673ffffffffffffffffffffffffffffffffffffffff1681526020019081526020016000205460116000600f8581548110610775576107746122c5565b5b9060005260206000200160009054906101000a900473ffffffffffffffffffffffffffffffffffffffff1673ffffffffffffffffffffffffffffffffffffffff1673ffffffffffffffffffffffffffffffffffffffff16815260200190815260200160002054105b5b1561090e5760006001826107f29190612323565b90505b600581101561087f578460018261080c9190612357565b6005811061081d5761081c6122c5565b5b6020020151858260058110610835576108346122c5565b5b602002019073ffffffffffffffffffffffffffffffffffffffff16908173ffffffffffffffffffffffffffffffffffffffff168152505080806108779061238b565b9150506107f5565b50600f8181548110610894576108936122c5565b5b9060005260206000200160009054906101000a900473ffffffffffffffffffffffffffffffffffffffff168482600581106108d2576108d16122c5565b5b602002019073ffffffffffffffffffffffffffffffffffffffff16908173ffffffffffffffffffffffffffffffffffffffff1681525050610921565b80806109199061238b565b9150506105d2565b50808061092d9061238b565b9150506105c2565b5060005b6005811015610c7157600073ffffffffffffffffffffffffffffffffffffffff1683826005811061096d5761096c6122c5565b5b602002015173ffffffffffffffffffffffffffffffffffffffff160315610c71578281600581106109a1576109a06122c5565b5b6020020151826000015182600581106109bd576109bc6122c5565b5b602002019073ffffffffffffffffffffffffffffffffffffffff16908173ffffffffffffffffffffffffffffffffffffffff168152505060106000848360058110610a0b57610a0a6122c5565b5b602002015173ffffffffffffffffffffffffffffffffffffffff1673ffffffffffffffffffffffffffffffffffffffff1681526020019081526020016000205482602001518260058110610a6257610a616122c5565b5b60200201818152505060006064600854600e5460038560058110610a8957610a886122c5565b5b0154610a9591906123d3565b610a9f91906123d3565b610aa99190612444565b90508083604001518360058110610ac357610ac26122c5565b5b6020020181815250506000848360058110610ae157610ae06122c5565b5b602002015173ffffffffffffffffffffffffffffffffffffffff1682604051610b09906124a6565b60006040518083038185875af1925050503d8060008114610b46576040519150601f19603f3d011682016040523d82523d6000602084013e610b4b565b606091505b5050905080610b8f576040517f08c379a0000000000000000000000000000000000000000000000000000000008152600401610b8690612518565b60405180910390fd5b81600b6000878660058110610ba757610ba66122c5565b5b602002015173ffffffffffffffffffffffffffffffffffffffff1673ffffffffffffffffffffffffffffffffffffffff1681526020019081526020016000206000828254610bf59190612323565b925050819055507fc5d0aba04b7cd5dd8a59ed0b989a6adaba9d0674b4783192e5904d65bc15d66f858460058110610c3057610c2f6122c5565b5b6020020151600185610c429190612323565b8442604051610c549493929190612538565b60405180910390a150508080610c699061238b565b915050610939565b50428160600181815250506000600260009054906101000a900473ffffffffffffffffffffffffffffffffffffffff1673ffffffffffffffffffffffffffffffffffffffff1647604051610cc4906124a6565b60006040518083038185875af1925050503d8060008114610d01576040519150601f19603f3d011682016040523d82523d6000602084013e610d06565b606091505b5050905080610d4a576040517f08c379a0000000000000000000000000000000000000000000000000000000008152600401610d41906125c9565b60405180910390fd5b5b6000600f805490501115610ecd57600060106000600f6001600f80549050610d739190612357565b81548110610d8457610d836122c5565b5b9060005260206000200160009054906101000a900473ffffffffffffffffffffffffffffffffffffffff1673ffffffffffffffffffffffffffffffffffffffff1673ffffffffffffffffffffffffffffffffffffffff16815260200190815260200160002081905550600060116000600f6001600f80549050610e079190612357565b81548110610e1857610e176122c5565b5b9060005260206000200160009054906101000a900473ffffffffffffffffffffffffffffffffffffffff1673ffffffffffffffffffffffffffffffffffffffff1673ffffffffffffffffffffffffffffffffffffffff16815260200190815260200160002081905550600f805480610e9357610e926125e9565b5b6001900381819060005260206000200160006101000a81549073ffffffffffffffffffffffffffffffffffffffff02191690559055610d4b565b6000600e81905550600d829080600181540180825580915050600190039060005260206000209060100201600090919091909150600082015181600001906005610f18929190611c1b565b50602082015181600501906005610f30929190611c98565b50604082015181600a01906005610f48929190611c98565b50606082015181600f01555050505050565b600b6020528060005260406000206000915090505481565b60106020528060005260406000206000915090505481565b600260009054906101000a900473ffffffffffffffffffffffffffffffffffffffff1681565b60038160058110610fc057600080fd5b016000915090505481565b600f8181548110610fdb57600080fd5b906000526020600020016000915054906101000a900473ffffffffffffffffffffffffffffffffffffffff1681565b611012611a1d565b80600260006101000a81548173ffffffffffffffffffffffffffffffffffffffff021916908373ffffffffffffffffffffffffffffffffffffffff16021790555050565b6060600f8054806020026020016040519081016040528092919081815260200182805480156110da57602002820191906000526020600020905b8160009054906101000a900473ffffffffffffffffffffffffffffffffffffffff1673ffffffffffffffffffffffffffffffffffffffff1681526020019060010190808311611090575b5050505050905090565b6110ec611a1d565b6110f66000611a9b565b565b6060600980548060200260200160405190810160405280929190818152602001828054801561117c57602002820191906000526020600020905b8160009054906101000a900473ffffffffffffffffffffffffffffffffffffffff1673ffffffffffffffffffffffffffffffffffffffff1681526020019060010190808311611132575b5050505050905090565b60008060009054906101000a900473ffffffffffffffffffffffffffffffffffffffff16905090565b6060600d805480602002602001604051908101604052809291908181526020016000905b82821015611314578382906000526020600020906010020160405180608001604052908160008201600580602002604051908101604052809291908260058015611268576020028201915b8160009054906101000a900473ffffffffffffffffffffffffffffffffffffffff1673ffffffffffffffffffffffffffffffffffffffff168152602001906001019080831161121e575b50505050508152602001600582016005806020026040519081016040528092919082600580156112ad576020028201915b815481526020019060010190808311611299575b50505050508152602001600a82016005806020026040519081016040528092919082600580156112f2576020028201915b8154815260200190600101908083116112de575b50505050508152602001600f82015481525050815260200190600101906111d3565b50505050905090565b611325611a1d565b8060088190555050565b60085481565b600d818154811061134557600080fd5b906000526020600020906010020160009150905080600f0154905081565b60116020528060005260406000206000915090505481565b611383611a1d565b846003600060058110611399576113986122c5565b5b01819055508360036001600581106113b4576113b36122c5565b5b01819055508260036002600581106113cf576113ce6122c5565b5b018190555081600380600581106113e9576113e86122c5565b5b0181905550806003600460058110611404576114036122c5565b5b01819055505050505050565b600c6020528060005260406000206000915054906101000a900460ff1681565b611438611b5f565b6000811180156114985750600c600061144f611bae565b73ffffffffffffffffffffffffffffffffffffffff1673ffffffffffffffffffffffffffffffffffffffff16815260200190815260200160002060009054906101000a900460ff165b6114d7576040517f08c379a00000000000000000000000000000000000000000000000000000000081526004016114ce90612664565b60405180910390fd5b6000600c60006114e5611bae565b73ffffffffffffffffffffffffffffffffffffffff1673ffffffffffffffffffffffffffffffffffffffff16815260200190815260200160002060006101000a81548160ff0219169083151502179055506000600a6000611544611bae565b73ffffffffffffffffffffffffffffffffffffffff1673ffffffffffffffffffffffffffffffffffffffff16815260200190815260200160002054036115ef57600961158e611bae565b9080600181540180825580915050600190039060005260206000200160009091909190916101000a81548173ffffffffffffffffffffffffffffffffffffffff021916908373ffffffffffffffffffffffffffffffffffffffff1602179055505b80600a60006115fc611bae565b73ffffffffffffffffffffffffffffffffffffffff1673ffffffffffffffffffffffffffffffffffffffff16815260200190815260200160002060008282546116459190612323565b9250508190555060006010600061165a611bae565b73ffffffffffffffffffffffffffffffffffffffff1673ffffffffffffffffffffffffffffffffffffffff168152602001908152602001600020540361170557600f6116a4611bae565b9080600181540180825580915050600190039060005260206000200160009091909190916101000a81548173ffffffffffffffffffffffffffffffffffffffff021916908373ffffffffffffffffffffffffffffffffffffffff1602179055505b8060106000611712611bae565b73ffffffffffffffffffffffffffffffffffffffff1673ffffffffffffffffffffffffffffffffffffffff168152602001908152602001600020600082825461175b9190612323565b92505081905550426011600061176f611bae565b73ffffffffffffffffffffffffffffffffffffffff1673ffffffffffffffffffffffffffffffffffffffff16815260200190815260200160002081905550600e60008154809291906117c09061238b565b91905055507f1a0da0f323e639ddc4f72afdc6e15f3fc4d63e8db62bd38a5c6ad04bc5a37be26117ee611bae565b82426040516117ff93929190612684565b60405180910390a161180f611bb6565b50565b600854341015611857576040517f08c379a000000000000000000000000000000000000000000000000000000000815260040161184e90612707565b60405180910390fd5b6001600c6000611865611bae565b73ffffffffffffffffffffffffffffffffffffffff1673ffffffffffffffffffffffffffffffffffffffff16815260200190815260200160002060006101000a81548160ff0219169083151502179055507f827a821cc7b9cae4c0baef42ee9cdeb791722ab1aa43532c255ea468ea6d5b1d6118df611bae565b426040516118ee929190612727565b60405180910390a1565b611900611cd8565b6003600580602002604051908101604052809291908260058015611939576020028201915b815481526020019060010190808311611925575b5050505050905090565b61194b611a1d565b600073ffffffffffffffffffffffffffffffffffffffff168173ffffffffffffffffffffffffffffffffffffffff16036119ba576040517f08c379a00000000000000000000000000000000000000000000000000000000081526004016119b1906127c2565b60405180910390fd5b6119c381611a9b565b50565b600981815481106119d657600080fd5b906000526020600020016000915054906101000a900473ffffffffffffffffffffffffffffffffffffffff1681565b600a6020528060005260406000206000915090505481565b611a25611bae565b73ffffffffffffffffffffffffffffffffffffffff16611a43611186565b73ffffffffffffffffffffffffffffffffffffffff1614611a99576040517f08c379a0000000000000000000000000000000000000000000000000000000008152600401611a909061282e565b60405180910390fd5b565b60008060009054906101000a900473ffffffffffffffffffffffffffffffffffffffff169050816000806101000a81548173ffffffffffffffffffffffffffffffffffffffff021916908373ffffffffffffffffffffffffffffffffffffffff1602179055508173ffffffffffffffffffffffffffffffffffffffff168173ffffffffffffffffffffffffffffffffffffffff167f8be0079c531659141344cd1fd0a4f28419497f9722a3daafe3b4186f6b6457e060405160405180910390a35050565b600260015403611ba4576040517f08c379a0000000000000000000000000000000000000000000000000000000008152600401611b9b9061289a565b60405180910390fd5b6002600181905550565b600033905090565b60018081905550565b6040518060a00160405280600590602082028036833780820191505090505090565b6040518060800160405280611bf4611bbf565b8152602001611c01611cd8565b8152602001611c0e611cd8565b8152602001600081525090565b8260058101928215611c87579160200282015b82811115611c865782518260006101000a81548173ffffffffffffffffffffffffffffffffffffffff021916908373ffffffffffffffffffffffffffffffffffffffff16021790555091602001919060010190611c2e565b5b509050611c949190611cfa565b5090565b8260058101928215611cc7579160200282015b82811115611cc6578251825591602001919060010190611cab565b5b509050611cd49190611cfa565b5090565b6040518060a00160405280600590602082028036833780820191505090505090565b5b80821115611d13576000816000905550600101611cfb565b5090565b600080fd5b600073ffffffffffffffffffffffffffffffffffffffff82169050919050565b6000611d4782611d1c565b9050919050565b611d5781611d3c565b8114611d6257600080fd5b50565b600081359050611d7481611d4e565b92915050565b600060208284031215611d9057611d8f611d17565b5b6000611d9e84828501611d65565b91505092915050565b6000819050919050565b611dba81611da7565b82525050565b6000602082019050611dd56000830184611db1565b92915050565b611de481611d3c565b82525050565b6000602082019050611dff6000830184611ddb565b92915050565b611e0e81611da7565b8114611e1957600080fd5b50565b600081359050611e2b81611e05565b92915050565b600060208284031215611e4757611e46611d17565b5b6000611e5584828501611e1c565b91505092915050565b600081519050919050565b600082825260208201905092915050565b6000819050602082019050919050565b611e9381611d3c565b82525050565b6000611ea58383611e8a565b60208301905092915050565b6000602082019050919050565b6000611ec982611e5e565b611ed38185611e69565b9350611ede83611e7a565b8060005b83811015611f0f578151611ef68882611e99565b9750611f0183611eb1565b925050600181019050611ee2565b5085935050505092915050565b60006020820190508181036000830152611f368184611ebe565b905092915050565b600081519050919050565b600082825260208201905092915050565b6000819050602082019050919050565b600060059050919050565b600081905092915050565b6000819050919050565b6000602082019050919050565b611fa081611f6a565b611faa8184611f75565b9250611fb582611f80565b8060005b83811015611fe6578151611fcd8782611e99565b9650611fd883611f8a565b925050600181019050611fb9565b505050505050565b600060059050919050565b600081905092915050565b6000819050919050565b61201781611da7565b82525050565b6000612029838361200e565b60208301905092915050565b6000602082019050919050565b61204b81611fee565b6120558184611ff9565b925061206082612004565b8060005b83811015612091578151612078878261201d565b965061208383612035565b925050600181019050612064565b505050505050565b610200820160008201516120b06000850182611f97565b5060208201516120c360a0850182612042565b5060408201516120d7610140850182612042565b5060608201516120eb6101e085018261200e565b50505050565b60006120fd8383612099565b6102008301905092915050565b6000602082019050919050565b600061212282611f3e565b61212c8185611f49565b935061213783611f5a565b8060005b8381101561216857815161214f88826120f1565b975061215a8361210a565b92505060018101905061213b565b5085935050505092915050565b6000602082019050818103600083015261218f8184612117565b905092915050565b600080600080600060a086880312156121b3576121b2611d17565b5b60006121c188828901611e1c565b95505060206121d288828901611e1c565b94505060406121e388828901611e1c565b93505060606121f488828901611e1c565b925050608061220588828901611e1c565b9150509295509295909350565b60008115159050919050565b61222781612212565b82525050565b6000602082019050612242600083018461221e565b92915050565b600081905092915050565b61225c81611fee565b6122668184612248565b925061227182612004565b8060005b838110156122a2578151612289878261201d565b965061229483612035565b925050600181019050612275565b505050505050565b600060a0820190506122bf6000830184612253565b92915050565b7f4e487b7100000000000000000000000000000000000000000000000000000000600052603260045260246000fd5b7f4e487b7100000000000000000000000000000000000000000000000000000000600052601160045260246000fd5b600061232e82611da7565b915061233983611da7565b9250828201905080821115612351576123506122f4565b5b92915050565b600061236282611da7565b915061236d83611da7565b9250828203905081811115612385576123846122f4565b5b92915050565b600061239682611da7565b91507fffffffffffffffffffffffffffffffffffffffffffffffffffffffffffffffff82036123c8576123c76122f4565b5b600182019050919050565b60006123de82611da7565b91506123e983611da7565b92508282026123f781611da7565b9150828204841483151761240e5761240d6122f4565b5b5092915050565b7f4e487b7100000000000000000000000000000000000000000000000000000000600052601260045260246000fd5b600061244f82611da7565b915061245a83611da7565b92508261246a57612469612415565b5b828204905092915050565b600081905092915050565b50565b6000612490600083612475565b915061249b82612480565b600082019050919050565b60006124b182612483565b9150819050919050565b600082825260208201905092915050565b7f4177617264207472616e73666572206661696c65640000000000000000000000600082015250565b60006125026015836124bb565b915061250d826124cc565b602082019050919050565b60006020820190508181036000830152612531816124f5565b9050919050565b600060808201905061254d6000830187611ddb565b61255a6020830186611db1565b6125676040830185611db1565b6125746060830184611db1565b95945050505050565b7f466565207472616e73666572206661696c656400000000000000000000000000600082015250565b60006125b36013836124bb565b91506125be8261257d565b602082019050919050565b600060208201905081810360008301526125e2816125a6565b9050919050565b7f4e487b7100000000000000000000000000000000000000000000000000000000600052603160045260246000fd5b7f626164206f7065726174696f6e00000000000000000000000000000000000000600082015250565b600061264e600d836124bb565b915061265982612618565b602082019050919050565b6000602082019050818103600083015261267d81612641565b9050919050565b60006060820190506126996000830186611ddb565b6126a66020830185611db1565b6126b36040830184611db1565b949350505050565b7f4e6f7420656e6f756768207061796d656e740000000000000000000000000000600082015250565b60006126f16012836124bb565b91506126fc826126bb565b602082019050919050565b60006020820190508181036000830152612720816126e4565b9050919050565b600060408201905061273c6000830185611ddb565b6127496020830184611db1565b9392505050565b7f4f776e61626c653a206e6577206f776e657220697320746865207a65726f206160008201527f6464726573730000000000000000000000000000000000000000000000000000602082015250565b60006127ac6026836124bb565b91506127b782612750565b604082019050919050565b600060208201905081810360008301526127db8161279f565b9050919050565b7f4f776e61626c653a2063616c6c6572206973206e6f7420746865206f776e6572600082015250565b60006128186020836124bb565b9150612823826127e2565b602082019050919050565b600060208201905081810360008301526128478161280b565b9050919050565b7f5265656e7472616e637947756172643a207265656e7472616e742063616c6c00600082015250565b6000612884601f836124bb565b915061288f8261284e565b602082019050919050565b600060208201905081810360008301526128b381612877565b905091905056fea2646970667358221220c735f669b9e2ecf9fec4e943ea798d0033909b95164a0e8a844405e6f66c332764736f6c63430008110033",
					"opcodes": "PUSH1 0x80 PUSH1 0x40 MSTORE PUSH20 0xF753C11E5167247F156D22B0DD6C6333B934835C PUSH1 0x2 PUSH1 0x0 PUSH2 0x100 EXP DUP2 SLOAD DUP2 PUSH20 0xFFFFFFFFFFFFFFFFFFFFFFFFFFFFFFFFFFFFFFFF MUL NOT AND SWAP1 DUP4 PUSH20 0xFFFFFFFFFFFFFFFFFFFFFFFFFFFFFFFFFFFFFFFF AND MUL OR SWAP1 SSTORE POP PUSH1 0x40 MLOAD DUP1 PUSH1 0xA0 ADD PUSH1 0x40 MSTORE DUP1 PUSH1 0x1D PUSH1 0xFF AND DUP2 MSTORE PUSH1 0x20 ADD PUSH1 0x18 PUSH1 0xFF AND DUP2 MSTORE PUSH1 0x20 ADD PUSH1 0x13 PUSH1 0xFF AND DUP2 MSTORE PUSH1 0x20 ADD PUSH1 0xE PUSH1 0xFF AND DUP2 MSTORE PUSH1 0x20 ADD PUSH1 0x9 PUSH1 0xFF AND DUP2 MSTORE POP PUSH1 0x3 SWAP1 PUSH1 0x5 PUSH3 0xA6 SWAP3 SWAP2 SWAP1 PUSH3 0x1AE JUMP JUMPDEST POP CALLVALUE DUP1 ISZERO PUSH3 0xB4 JUMPI PUSH1 0x0 DUP1 REVERT JUMPDEST POP PUSH3 0xD5 PUSH3 0xC9 PUSH3 0xE2 PUSH1 0x20 SHL PUSH1 0x20 SHR JUMP JUMPDEST PUSH3 0xEA PUSH1 0x20 SHL PUSH1 0x20 SHR JUMP JUMPDEST PUSH1 0x1 DUP1 DUP2 SWAP1 SSTORE POP PUSH3 0x217 JUMP JUMPDEST PUSH1 0x0 CALLER SWAP1 POP SWAP1 JUMP JUMPDEST PUSH1 0x0 DUP1 PUSH1 0x0 SWAP1 SLOAD SWAP1 PUSH2 0x100 EXP SWAP1 DIV PUSH20 0xFFFFFFFFFFFFFFFFFFFFFFFFFFFFFFFFFFFFFFFF AND SWAP1 POP DUP2 PUSH1 0x0 DUP1 PUSH2 0x100 EXP DUP2 SLOAD DUP2 PUSH20 0xFFFFFFFFFFFFFFFFFFFFFFFFFFFFFFFFFFFFFFFF MUL NOT AND SWAP1 DUP4 PUSH20 0xFFFFFFFFFFFFFFFFFFFFFFFFFFFFFFFFFFFFFFFF AND MUL OR SWAP1 SSTORE POP DUP2 PUSH20 0xFFFFFFFFFFFFFFFFFFFFFFFFFFFFFFFFFFFFFFFF AND DUP2 PUSH20 0xFFFFFFFFFFFFFFFFFFFFFFFFFFFFFFFFFFFFFFFF AND PUSH32 0x8BE0079C531659141344CD1FD0A4F28419497F9722A3DAAFE3B4186F6B6457E0 PUSH1 0x40 MLOAD PUSH1 0x40 MLOAD DUP1 SWAP2 SUB SWAP1 LOG3 POP POP JUMP JUMPDEST DUP3 PUSH1 0x5 DUP2 ADD SWAP3 DUP3 ISZERO PUSH3 0x1E5 JUMPI SWAP2 PUSH1 0x20 MUL DUP3 ADD JUMPDEST DUP3 DUP2 GT ISZERO PUSH3 0x1E4 JUMPI DUP3 MLOAD DUP3 SWAP1 PUSH1 0xFF AND SWAP1 SSTORE SWAP2 PUSH1 0x20 ADD SWAP2 SWAP1 PUSH1 0x1 ADD SWAP1 PUSH3 0x1C2 JUMP JUMPDEST JUMPDEST POP SWAP1 POP PUSH3 0x1F4 SWAP2 SWAP1 PUSH3 0x1F8 JUMP JUMPDEST POP SWAP1 JUMP JUMPDEST JUMPDEST DUP1 DUP3 GT ISZERO PUSH3 0x213 JUMPI PUSH1 0x0 DUP2 PUSH1 0x0 SWAP1 SSTORE POP PUSH1 0x1 ADD PUSH3 0x1F9 JUMP JUMPDEST POP SWAP1 JUMP JUMPDEST PUSH2 0x28F0 DUP1 PUSH3 0x227 PUSH1 0x0 CODECOPY PUSH1 0x0 RETURN INVALID PUSH1 0x80 PUSH1 0x40 MSTORE PUSH1 0x4 CALLDATASIZE LT PUSH2 0x14B JUMPI PUSH1 0x0 CALLDATALOAD PUSH1 0xE0 SHR DUP1 PUSH4 0x91B7F5ED GT PUSH2 0xB6 JUMPI DUP1 PUSH4 0xD0399BB8 GT PUSH2 0x6F JUMPI DUP1 PUSH4 0xD0399BB8 EQ PUSH2 0x4A6 JUMPI DUP1 PUSH4 0xD65AB5F2 EQ PUSH2 0x4CF JUMPI DUP1 PUSH4 0xE4312377 EQ PUSH2 0x4D9 JUMPI DUP1 PUSH4 0xF2FDE38B EQ PUSH2 0x504 JUMPI DUP1 PUSH4 0xF71D96CB EQ PUSH2 0x52D JUMPI DUP1 PUSH4 0xFA305949 EQ PUSH2 0x56A JUMPI PUSH2 0x14B JUMP JUMPDEST DUP1 PUSH4 0x91B7F5ED EQ PUSH2 0x372 JUMPI DUP1 PUSH4 0xA035B1FE EQ PUSH2 0x39B JUMPI DUP1 PUSH4 0xAFC865DD EQ PUSH2 0x3C6 JUMPI DUP1 PUSH4 0xB2EEED86 EQ PUSH2 0x403 JUMPI DUP1 PUSH4 0xBBE192BA EQ PUSH2 0x440 JUMPI DUP1 PUSH4 0xBDC78C95 EQ PUSH2 0x469 JUMPI PUSH2 0x14B JUMP JUMPDEST DUP1 PUSH4 0x3AB1A494 GT PUSH2 0x108 JUMPI DUP1 PUSH4 0x3AB1A494 EQ PUSH2 0x286 JUMPI DUP1 PUSH4 0x5AA68AC0 EQ PUSH2 0x2AF JUMPI DUP1 PUSH4 0x715018A6 EQ PUSH2 0x2DA JUMPI DUP1 PUSH4 0x8B5B9CCC EQ PUSH2 0x2F1 JUMPI DUP1 PUSH4 0x8DA5CB5B EQ PUSH2 0x31C JUMPI DUP1 PUSH4 0x8FEFEC47 EQ PUSH2 0x347 JUMPI PUSH2 0x14B JUMP JUMPDEST DUP1 PUSH4 0x73CD85F EQ PUSH2 0x150 JUMPI DUP1 PUSH4 0x94BB204 EQ PUSH2 0x167 JUMPI DUP1 PUSH4 0xFAC9100 EQ PUSH2 0x1A4 JUMPI DUP1 PUSH4 0x1581B600 EQ PUSH2 0x1E1 JUMPI DUP1 PUSH4 0x247BDDA3 EQ PUSH2 0x20C JUMPI DUP1 PUSH4 0x35C1D349 EQ PUSH2 0x249 JUMPI JUMPDEST PUSH1 0x0 DUP1 REVERT JUMPDEST CALLVALUE DUP1 ISZERO PUSH2 0x15C JUMPI PUSH1 0x0 DUP1 REVERT JUMPDEST POP PUSH2 0x165 PUSH2 0x5A7 JUMP JUMPDEST STOP JUMPDEST CALLVALUE DUP1 ISZERO PUSH2 0x173 JUMPI PUSH1 0x0 DUP1 REVERT JUMPDEST POP PUSH2 0x18E PUSH1 0x4 DUP1 CALLDATASIZE SUB DUP2 ADD SWAP1 PUSH2 0x189 SWAP2 SWAP1 PUSH2 0x1D7A JUMP JUMPDEST PUSH2 0xF5A JUMP JUMPDEST PUSH1 0x40 MLOAD PUSH2 0x19B SWAP2 SWAP1 PUSH2 0x1DC0 JUMP JUMPDEST PUSH1 0x40 MLOAD DUP1 SWAP2 SUB SWAP1 RETURN JUMPDEST CALLVALUE DUP1 ISZERO PUSH2 0x1B0 JUMPI PUSH1 0x0 DUP1 REVERT JUMPDEST POP PUSH2 0x1CB PUSH1 0x4 DUP1 CALLDATASIZE SUB DUP2 ADD SWAP1 PUSH2 0x1C6 SWAP2 SWAP1 PUSH2 0x1D7A JUMP JUMPDEST PUSH2 0xF72 JUMP JUMPDEST PUSH1 0x40 MLOAD PUSH2 0x1D8 SWAP2 SWAP1 PUSH2 0x1DC0 JUMP JUMPDEST PUSH1 0x40 MLOAD DUP1 SWAP2 SUB SWAP1 RETURN JUMPDEST CALLVALUE DUP1 ISZERO PUSH2 0x1ED JUMPI PUSH1 0x0 DUP1 REVERT JUMPDEST POP PUSH2 0x1F6 PUSH2 0xF8A JUMP JUMPDEST PUSH1 0x40 MLOAD PUSH2 0x203 SWAP2 SWAP1 PUSH2 0x1DEA JUMP JUMPDEST PUSH1 0x40 MLOAD DUP1 SWAP2 SUB SWAP1 RETURN JUMPDEST CALLVALUE DUP1 ISZERO PUSH2 0x218 JUMPI PUSH1 0x0 DUP1 REVERT JUMPDEST POP PUSH2 0x233 PUSH1 0x4 DUP1 CALLDATASIZE SUB DUP2 ADD SWAP1 PUSH2 0x22E SWAP2 SWAP1 PUSH2 0x1E31 JUMP JUMPDEST PUSH2 0xFB0 JUMP JUMPDEST PUSH1 0x40 MLOAD PUSH2 0x240 SWAP2 SWAP1 PUSH2 0x1DC0 JUMP JUMPDEST PUSH1 0x40 MLOAD DUP1 SWAP2 SUB SWAP1 RETURN JUMPDEST CALLVALUE DUP1 ISZERO PUSH2 0x255 JUMPI PUSH1 0x0 DUP1 REVERT JUMPDEST POP PUSH2 0x270 PUSH1 0x4 DUP1 CALLDATASIZE SUB DUP2 ADD SWAP1 PUSH2 0x26B SWAP2 SWAP1 PUSH2 0x1E31 JUMP JUMPDEST PUSH2 0xFCB JUMP JUMPDEST PUSH1 0x40 MLOAD PUSH2 0x27D SWAP2 SWAP1 PUSH2 0x1DEA JUMP JUMPDEST PUSH1 0x40 MLOAD DUP1 SWAP2 SUB SWAP1 RETURN JUMPDEST CALLVALUE DUP1 ISZERO PUSH2 0x292 JUMPI PUSH1 0x0 DUP1 REVERT JUMPDEST POP PUSH2 0x2AD PUSH1 0x4 DUP1 CALLDATASIZE SUB DUP2 ADD SWAP1 PUSH2 0x2A8 SWAP2 SWAP1 PUSH2 0x1D7A JUMP JUMPDEST PUSH2 0x100A JUMP JUMPDEST STOP JUMPDEST CALLVALUE DUP1 ISZERO PUSH2 0x2BB JUMPI PUSH1 0x0 DUP1 REVERT JUMPDEST POP PUSH2 0x2C4 PUSH2 0x1056 JUMP JUMPDEST PUSH1 0x40 MLOAD PUSH2 0x2D1 SWAP2 SWAP1 PUSH2 0x1F1C JUMP JUMPDEST PUSH1 0x40 MLOAD DUP1 SWAP2 SUB SWAP1 RETURN JUMPDEST CALLVALUE DUP1 ISZERO PUSH2 0x2E6 JUMPI PUSH1 0x0 DUP1 REVERT JUMPDEST POP PUSH2 0x2EF PUSH2 0x10E4 JUMP JUMPDEST STOP JUMPDEST CALLVALUE DUP1 ISZERO PUSH2 0x2FD JUMPI PUSH1 0x0 DUP1 REVERT JUMPDEST POP PUSH2 0x306 PUSH2 0x10F8 JUMP JUMPDEST PUSH1 0x40 MLOAD PUSH2 0x313 SWAP2 SWAP1 PUSH2 0x1F1C JUMP JUMPDEST PUSH1 0x40 MLOAD DUP1 SWAP2 SUB SWAP1 RETURN JUMPDEST CALLVALUE DUP1 ISZERO PUSH2 0x328 JUMPI PUSH1 0x0 DUP1 REVERT JUMPDEST POP PUSH2 0x331 PUSH2 0x1186 JUMP JUMPDEST PUSH1 0x40 MLOAD PUSH2 0x33E SWAP2 SWAP1 PUSH2 0x1DEA JUMP JUMPDEST PUSH1 0x40 MLOAD DUP1 SWAP2 SUB SWAP1 RETURN JUMPDEST CALLVALUE DUP1 ISZERO PUSH2 0x353 JUMPI PUSH1 0x0 DUP1 REVERT JUMPDEST POP PUSH2 0x35C PUSH2 0x11AF JUMP JUMPDEST PUSH1 0x40 MLOAD PUSH2 0x369 SWAP2 SWAP1 PUSH2 0x2175 JUMP JUMPDEST PUSH1 0x40 MLOAD DUP1 SWAP2 SUB SWAP1 RETURN JUMPDEST CALLVALUE DUP1 ISZERO PUSH2 0x37E JUMPI PUSH1 0x0 DUP1 REVERT JUMPDEST POP PUSH2 0x399 PUSH1 0x4 DUP1 CALLDATASIZE SUB DUP2 ADD SWAP1 PUSH2 0x394 SWAP2 SWAP1 PUSH2 0x1E31 JUMP JUMPDEST PUSH2 0x131D JUMP JUMPDEST STOP JUMPDEST CALLVALUE DUP1 ISZERO PUSH2 0x3A7 JUMPI PUSH1 0x0 DUP1 REVERT JUMPDEST POP PUSH2 0x3B0 PUSH2 0x132F JUMP JUMPDEST PUSH1 0x40 MLOAD PUSH2 0x3BD SWAP2 SWAP1 PUSH2 0x1DC0 JUMP JUMPDEST PUSH1 0x40 MLOAD DUP1 SWAP2 SUB SWAP1 RETURN JUMPDEST CALLVALUE DUP1 ISZERO PUSH2 0x3D2 JUMPI PUSH1 0x0 DUP1 REVERT JUMPDEST POP PUSH2 0x3ED PUSH1 0x4 DUP1 CALLDATASIZE SUB DUP2 ADD SWAP1 PUSH2 0x3E8 SWAP2 SWAP1 PUSH2 0x1E31 JUMP JUMPDEST PUSH2 0x1335 JUMP JUMPDEST PUSH1 0x40 MLOAD PUSH2 0x3FA SWAP2 SWAP1 PUSH2 0x1DC0 JUMP JUMPDEST PUSH1 0x40 MLOAD DUP1 SWAP2 SUB SWAP1 RETURN JUMPDEST CALLVALUE DUP1 ISZERO PUSH2 0x40F JUMPI PUSH1 0x0 DUP1 REVERT JUMPDEST POP PUSH2 0x42A PUSH1 0x4 DUP1 CALLDATASIZE SUB DUP2 ADD SWAP1 PUSH2 0x425 SWAP2 SWAP1 PUSH2 0x1D7A JUMP JUMPDEST PUSH2 0x1363 JUMP JUMPDEST PUSH1 0x40 MLOAD PUSH2 0x437 SWAP2 SWAP1 PUSH2 0x1DC0 JUMP JUMPDEST PUSH1 0x40 MLOAD DUP1 SWAP2 SUB SWAP1 RETURN JUMPDEST CALLVALUE DUP1 ISZERO PUSH2 0x44C JUMPI PUSH1 0x0 DUP1 REVERT JUMPDEST POP PUSH2 0x467 PUSH1 0x4 DUP1 CALLDATASIZE SUB DUP2 ADD SWAP1 PUSH2 0x462 SWAP2 SWAP1 PUSH2 0x2197 JUMP JUMPDEST PUSH2 0x137B JUMP JUMPDEST STOP JUMPDEST CALLVALUE DUP1 ISZERO PUSH2 0x475 JUMPI PUSH1 0x0 DUP1 REVERT JUMPDEST POP PUSH2 0x490 PUSH1 0x4 DUP1 CALLDATASIZE SUB DUP2 ADD SWAP1 PUSH2 0x48B SWAP2 SWAP1 PUSH2 0x1D7A JUMP JUMPDEST PUSH2 0x1410 JUMP JUMPDEST PUSH1 0x40 MLOAD PUSH2 0x49D SWAP2 SWAP1 PUSH2 0x222D JUMP JUMPDEST PUSH1 0x40 MLOAD DUP1 SWAP2 SUB SWAP1 RETURN JUMPDEST CALLVALUE DUP1 ISZERO PUSH2 0x4B2 JUMPI PUSH1 0x0 DUP1 REVERT JUMPDEST POP PUSH2 0x4CD PUSH1 0x4 DUP1 CALLDATASIZE SUB DUP2 ADD SWAP1 PUSH2 0x4C8 SWAP2 SWAP1 PUSH2 0x1E31 JUMP JUMPDEST PUSH2 0x1430 JUMP JUMPDEST STOP JUMPDEST PUSH2 0x4D7 PUSH2 0x1812 JUMP JUMPDEST STOP JUMPDEST CALLVALUE DUP1 ISZERO PUSH2 0x4E5 JUMPI PUSH1 0x0 DUP1 REVERT JUMPDEST POP PUSH2 0x4EE PUSH2 0x18F8 JUMP JUMPDEST PUSH1 0x40 MLOAD PUSH2 0x4FB SWAP2 SWAP1 PUSH2 0x22AA JUMP JUMPDEST PUSH1 0x40 MLOAD DUP1 SWAP2 SUB SWAP1 RETURN JUMPDEST CALLVALUE DUP1 ISZERO PUSH2 0x510 JUMPI PUSH1 0x0 DUP1 REVERT JUMPDEST POP PUSH2 0x52B PUSH1 0x4 DUP1 CALLDATASIZE SUB DUP2 ADD SWAP1 PUSH2 0x526 SWAP2 SWAP1 PUSH2 0x1D7A JUMP JUMPDEST PUSH2 0x1943 JUMP JUMPDEST STOP JUMPDEST CALLVALUE DUP1 ISZERO PUSH2 0x539 JUMPI PUSH1 0x0 DUP1 REVERT JUMPDEST POP PUSH2 0x554 PUSH1 0x4 DUP1 CALLDATASIZE SUB DUP2 ADD SWAP1 PUSH2 0x54F SWAP2 SWAP1 PUSH2 0x1E31 JUMP JUMPDEST PUSH2 0x19C6 JUMP JUMPDEST PUSH1 0x40 MLOAD PUSH2 0x561 SWAP2 SWAP1 PUSH2 0x1DEA JUMP JUMPDEST PUSH1 0x40 MLOAD DUP1 SWAP2 SUB SWAP1 RETURN JUMPDEST CALLVALUE DUP1 ISZERO PUSH2 0x576 JUMPI PUSH1 0x0 DUP1 REVERT JUMPDEST POP PUSH2 0x591 PUSH1 0x4 DUP1 CALLDATASIZE SUB DUP2 ADD SWAP1 PUSH2 0x58C SWAP2 SWAP1 PUSH2 0x1D7A JUMP JUMPDEST PUSH2 0x1A05 JUMP JUMPDEST PUSH1 0x40 MLOAD PUSH2 0x59E SWAP2 SWAP1 PUSH2 0x1DC0 JUMP JUMPDEST PUSH1 0x40 MLOAD DUP1 SWAP2 SUB SWAP1 RETURN JUMPDEST PUSH2 0x5AF PUSH2 0x1A1D JUMP JUMPDEST PUSH2 0x5B7 PUSH2 0x1BBF JUMP JUMPDEST PUSH2 0x5BF PUSH2 0x1BE1 JUMP JUMPDEST PUSH1 0x0 JUMPDEST PUSH1 0xF DUP1 SLOAD SWAP1 POP DUP2 LT ISZERO PUSH2 0x935 JUMPI PUSH1 0x0 JUMPDEST PUSH1 0x5 DUP2 LT ISZERO PUSH2 0x921 JUMPI PUSH1 0x0 PUSH20 0xFFFFFFFFFFFFFFFFFFFFFFFFFFFFFFFFFFFFFFFF AND DUP5 DUP3 PUSH1 0x5 DUP2 LT PUSH2 0x606 JUMPI PUSH2 0x605 PUSH2 0x22C5 JUMP JUMPDEST JUMPDEST PUSH1 0x20 MUL ADD MLOAD PUSH20 0xFFFFFFFFFFFFFFFFFFFFFFFFFFFFFFFFFFFFFFFF AND EQ DUP1 PUSH2 0x7DE JUMPI POP PUSH1 0x10 PUSH1 0x0 DUP6 DUP4 PUSH1 0x5 DUP2 LT PUSH2 0x63F JUMPI PUSH2 0x63E PUSH2 0x22C5 JUMP JUMPDEST JUMPDEST PUSH1 0x20 MUL ADD MLOAD PUSH20 0xFFFFFFFFFFFFFFFFFFFFFFFFFFFFFFFFFFFFFFFF AND PUSH20 0xFFFFFFFFFFFFFFFFFFFFFFFFFFFFFFFFFFFFFFFF AND DUP2 MSTORE PUSH1 0x20 ADD SWAP1 DUP2 MSTORE PUSH1 0x20 ADD PUSH1 0x0 KECCAK256 SLOAD PUSH1 0x10 PUSH1 0x0 PUSH1 0xF DUP6 DUP2 SLOAD DUP2 LT PUSH2 0x697 JUMPI PUSH2 0x696 PUSH2 0x22C5 JUMP JUMPDEST JUMPDEST SWAP1 PUSH1 0x0 MSTORE PUSH1 0x20 PUSH1 0x0 KECCAK256 ADD PUSH1 0x0 SWAP1 SLOAD SWAP1 PUSH2 0x100 EXP SWAP1 DIV PUSH20 0xFFFFFFFFFFFFFFFFFFFFFFFFFFFFFFFFFFFFFFFF AND PUSH20 0xFFFFFFFFFFFFFFFFFFFFFFFFFFFFFFFFFFFFFFFF AND PUSH20 0xFFFFFFFFFFFFFFFFFFFFFFFFFFFFFFFFFFFFFFFF AND DUP2 MSTORE PUSH1 0x20 ADD SWAP1 DUP2 MSTORE PUSH1 0x20 ADD PUSH1 0x0 KECCAK256 SLOAD LT ISZERO DUP1 ISZERO PUSH2 0x7DD JUMPI POP PUSH1 0x11 PUSH1 0x0 DUP6 DUP4 PUSH1 0x5 DUP2 LT PUSH2 0x71D JUMPI PUSH2 0x71C PUSH2 0x22C5 JUMP JUMPDEST JUMPDEST PUSH1 0x20 MUL ADD MLOAD PUSH20 0xFFFFFFFFFFFFFFFFFFFFFFFFFFFFFFFFFFFFFFFF AND PUSH20 0xFFFFFFFFFFFFFFFFFFFFFFFFFFFFFFFFFFFFFFFF AND DUP2 MSTORE PUSH1 0x20 ADD SWAP1 DUP2 MSTORE PUSH1 0x20 ADD PUSH1 0x0 KECCAK256 SLOAD PUSH1 0x11 PUSH1 0x0 PUSH1 0xF DUP6 DUP2 SLOAD DUP2 LT PUSH2 0x775 JUMPI PUSH2 0x774 PUSH2 0x22C5 JUMP JUMPDEST JUMPDEST SWAP1 PUSH1 0x0 MSTORE PUSH1 0x20 PUSH1 0x0 KECCAK256 ADD PUSH1 0x0 SWAP1 SLOAD SWAP1 PUSH2 0x100 EXP SWAP1 DIV PUSH20 0xFFFFFFFFFFFFFFFFFFFFFFFFFFFFFFFFFFFFFFFF AND PUSH20 0xFFFFFFFFFFFFFFFFFFFFFFFFFFFFFFFFFFFFFFFF AND PUSH20 0xFFFFFFFFFFFFFFFFFFFFFFFFFFFFFFFFFFFFFFFF AND DUP2 MSTORE PUSH1 0x20 ADD SWAP1 DUP2 MSTORE PUSH1 0x20 ADD PUSH1 0x0 KECCAK256 SLOAD LT JUMPDEST JUMPDEST ISZERO PUSH2 0x90E JUMPI PUSH1 0x0 PUSH1 0x1 DUP3 PUSH2 0x7F2 SWAP2 SWAP1 PUSH2 0x2323 JUMP JUMPDEST SWAP1 POP JUMPDEST PUSH1 0x5 DUP2 LT ISZERO PUSH2 0x87F JUMPI DUP5 PUSH1 0x1 DUP3 PUSH2 0x80C SWAP2 SWAP1 PUSH2 0x2357 JUMP JUMPDEST PUSH1 0x5 DUP2 LT PUSH2 0x81D JUMPI PUSH2 0x81C PUSH2 0x22C5 JUMP JUMPDEST JUMPDEST PUSH1 0x20 MUL ADD MLOAD DUP6 DUP3 PUSH1 0x5 DUP2 LT PUSH2 0x835 JUMPI PUSH2 0x834 PUSH2 0x22C5 JUMP JUMPDEST JUMPDEST PUSH1 0x20 MUL ADD SWAP1 PUSH20 0xFFFFFFFFFFFFFFFFFFFFFFFFFFFFFFFFFFFFFFFF AND SWAP1 DUP2 PUSH20 0xFFFFFFFFFFFFFFFFFFFFFFFFFFFFFFFFFFFFFFFF AND DUP2 MSTORE POP POP DUP1 DUP1 PUSH2 0x877 SWAP1 PUSH2 0x238B JUMP JUMPDEST SWAP2 POP POP PUSH2 0x7F5 JUMP JUMPDEST POP PUSH1 0xF DUP2 DUP2 SLOAD DUP2 LT PUSH2 0x894 JUMPI PUSH2 0x893 PUSH2 0x22C5 JUMP JUMPDEST JUMPDEST SWAP1 PUSH1 0x0 MSTORE PUSH1 0x20 PUSH1 0x0 KECCAK256 ADD PUSH1 0x0 SWAP1 SLOAD SWAP1 PUSH2 0x100 EXP SWAP1 DIV PUSH20 0xFFFFFFFFFFFFFFFFFFFFFFFFFFFFFFFFFFFFFFFF AND DUP5 DUP3 PUSH1 0x5 DUP2 LT PUSH2 0x8D2 JUMPI PUSH2 0x8D1 PUSH2 0x22C5 JUMP JUMPDEST JUMPDEST PUSH1 0x20 MUL ADD SWAP1 PUSH20 0xFFFFFFFFFFFFFFFFFFFFFFFFFFFFFFFFFFFFFFFF AND SWAP1 DUP2 PUSH20 0xFFFFFFFFFFFFFFFFFFFFFFFFFFFFFFFFFFFFFFFF AND DUP2 MSTORE POP POP PUSH2 0x921 JUMP JUMPDEST DUP1 DUP1 PUSH2 0x919 SWAP1 PUSH2 0x238B JUMP JUMPDEST SWAP2 POP POP PUSH2 0x5D2 JUMP JUMPDEST POP DUP1 DUP1 PUSH2 0x92D SWAP1 PUSH2 0x238B JUMP JUMPDEST SWAP2 POP POP PUSH2 0x5C2 JUMP JUMPDEST POP PUSH1 0x0 JUMPDEST PUSH1 0x5 DUP2 LT ISZERO PUSH2 0xC71 JUMPI PUSH1 0x0 PUSH20 0xFFFFFFFFFFFFFFFFFFFFFFFFFFFFFFFFFFFFFFFF AND DUP4 DUP3 PUSH1 0x5 DUP2 LT PUSH2 0x96D JUMPI PUSH2 0x96C PUSH2 0x22C5 JUMP JUMPDEST JUMPDEST PUSH1 0x20 MUL ADD MLOAD PUSH20 0xFFFFFFFFFFFFFFFFFFFFFFFFFFFFFFFFFFFFFFFF AND SUB ISZERO PUSH2 0xC71 JUMPI DUP3 DUP2 PUSH1 0x5 DUP2 LT PUSH2 0x9A1 JUMPI PUSH2 0x9A0 PUSH2 0x22C5 JUMP JUMPDEST JUMPDEST PUSH1 0x20 MUL ADD MLOAD DUP3 PUSH1 0x0 ADD MLOAD DUP3 PUSH1 0x5 DUP2 LT PUSH2 0x9BD JUMPI PUSH2 0x9BC PUSH2 0x22C5 JUMP JUMPDEST JUMPDEST PUSH1 0x20 MUL ADD SWAP1 PUSH20 0xFFFFFFFFFFFFFFFFFFFFFFFFFFFFFFFFFFFFFFFF AND SWAP1 DUP2 PUSH20 0xFFFFFFFFFFFFFFFFFFFFFFFFFFFFFFFFFFFFFFFF AND DUP2 MSTORE POP POP PUSH1 0x10 PUSH1 0x0 DUP5 DUP4 PUSH1 0x5 DUP2 LT PUSH2 0xA0B JUMPI PUSH2 0xA0A PUSH2 0x22C5 JUMP JUMPDEST JUMPDEST PUSH1 0x20 MUL ADD MLOAD PUSH20 0xFFFFFFFFFFFFFFFFFFFFFFFFFFFFFFFFFFFFFFFF AND PUSH20 0xFFFFFFFFFFFFFFFFFFFFFFFFFFFFFFFFFFFFFFFF AND DUP2 MSTORE PUSH1 0x20 ADD SWAP1 DUP2 MSTORE PUSH1 0x20 ADD PUSH1 0x0 KECCAK256 SLOAD DUP3 PUSH1 0x20 ADD MLOAD DUP3 PUSH1 0x5 DUP2 LT PUSH2 0xA62 JUMPI PUSH2 0xA61 PUSH2 0x22C5 JUMP JUMPDEST JUMPDEST PUSH1 0x20 MUL ADD DUP2 DUP2 MSTORE POP POP PUSH1 0x0 PUSH1 0x64 PUSH1 0x8 SLOAD PUSH1 0xE SLOAD PUSH1 0x3 DUP6 PUSH1 0x5 DUP2 LT PUSH2 0xA89 JUMPI PUSH2 0xA88 PUSH2 0x22C5 JUMP JUMPDEST JUMPDEST ADD SLOAD PUSH2 0xA95 SWAP2 SWAP1 PUSH2 0x23D3 JUMP JUMPDEST PUSH2 0xA9F SWAP2 SWAP1 PUSH2 0x23D3 JUMP JUMPDEST PUSH2 0xAA9 SWAP2 SWAP1 PUSH2 0x2444 JUMP JUMPDEST SWAP1 POP DUP1 DUP4 PUSH1 0x40 ADD MLOAD DUP4 PUSH1 0x5 DUP2 LT PUSH2 0xAC3 JUMPI PUSH2 0xAC2 PUSH2 0x22C5 JUMP JUMPDEST JUMPDEST PUSH1 0x20 MUL ADD DUP2 DUP2 MSTORE POP POP PUSH1 0x0 DUP5 DUP4 PUSH1 0x5 DUP2 LT PUSH2 0xAE1 JUMPI PUSH2 0xAE0 PUSH2 0x22C5 JUMP JUMPDEST JUMPDEST PUSH1 0x20 MUL ADD MLOAD PUSH20 0xFFFFFFFFFFFFFFFFFFFFFFFFFFFFFFFFFFFFFFFF AND DUP3 PUSH1 0x40 MLOAD PUSH2 0xB09 SWAP1 PUSH2 0x24A6 JUMP JUMPDEST PUSH1 0x0 PUSH1 0x40 MLOAD DUP1 DUP4 SUB DUP2 DUP6 DUP8 GAS CALL SWAP3 POP POP POP RETURNDATASIZE DUP1 PUSH1 0x0 DUP2 EQ PUSH2 0xB46 JUMPI PUSH1 0x40 MLOAD SWAP2 POP PUSH1 0x1F NOT PUSH1 0x3F RETURNDATASIZE ADD AND DUP3 ADD PUSH1 0x40 MSTORE RETURNDATASIZE DUP3 MSTORE RETURNDATASIZE PUSH1 0x0 PUSH1 0x20 DUP5 ADD RETURNDATACOPY PUSH2 0xB4B JUMP JUMPDEST PUSH1 0x60 SWAP2 POP JUMPDEST POP POP SWAP1 POP DUP1 PUSH2 0xB8F JUMPI PUSH1 0x40 MLOAD PUSH32 0x8C379A000000000000000000000000000000000000000000000000000000000 DUP2 MSTORE PUSH1 0x4 ADD PUSH2 0xB86 SWAP1 PUSH2 0x2518 JUMP JUMPDEST PUSH1 0x40 MLOAD DUP1 SWAP2 SUB SWAP1 REVERT JUMPDEST DUP2 PUSH1 0xB PUSH1 0x0 DUP8 DUP7 PUSH1 0x5 DUP2 LT PUSH2 0xBA7 JUMPI PUSH2 0xBA6 PUSH2 0x22C5 JUMP JUMPDEST JUMPDEST PUSH1 0x20 MUL ADD MLOAD PUSH20 0xFFFFFFFFFFFFFFFFFFFFFFFFFFFFFFFFFFFFFFFF AND PUSH20 0xFFFFFFFFFFFFFFFFFFFFFFFFFFFFFFFFFFFFFFFF AND DUP2 MSTORE PUSH1 0x20 ADD SWAP1 DUP2 MSTORE PUSH1 0x20 ADD PUSH1 0x0 KECCAK256 PUSH1 0x0 DUP3 DUP3 SLOAD PUSH2 0xBF5 SWAP2 SWAP1 PUSH2 0x2323 JUMP JUMPDEST SWAP3 POP POP DUP2 SWAP1 SSTORE POP PUSH32 0xC5D0ABA04B7CD5DD8A59ED0B989A6ADABA9D0674B4783192E5904D65BC15D66F DUP6 DUP5 PUSH1 0x5 DUP2 LT PUSH2 0xC30 JUMPI PUSH2 0xC2F PUSH2 0x22C5 JUMP JUMPDEST JUMPDEST PUSH1 0x20 MUL ADD MLOAD PUSH1 0x1 DUP6 PUSH2 0xC42 SWAP2 SWAP1 PUSH2 0x2323 JUMP JUMPDEST DUP5 TIMESTAMP PUSH1 0x40 MLOAD PUSH2 0xC54 SWAP5 SWAP4 SWAP3 SWAP2 SWAP1 PUSH2 0x2538 JUMP JUMPDEST PUSH1 0x40 MLOAD DUP1 SWAP2 SUB SWAP1 LOG1 POP POP DUP1 DUP1 PUSH2 0xC69 SWAP1 PUSH2 0x238B JUMP JUMPDEST SWAP2 POP POP PUSH2 0x939 JUMP JUMPDEST POP TIMESTAMP DUP2 PUSH1 0x60 ADD DUP2 DUP2 MSTORE POP POP PUSH1 0x0 PUSH1 0x2 PUSH1 0x0 SWAP1 SLOAD SWAP1 PUSH2 0x100 EXP SWAP1 DIV PUSH20 0xFFFFFFFFFFFFFFFFFFFFFFFFFFFFFFFFFFFFFFFF AND PUSH20 0xFFFFFFFFFFFFFFFFFFFFFFFFFFFFFFFFFFFFFFFF AND SELFBALANCE PUSH1 0x40 MLOAD PUSH2 0xCC4 SWAP1 PUSH2 0x24A6 JUMP JUMPDEST PUSH1 0x0 PUSH1 0x40 MLOAD DUP1 DUP4 SUB DUP2 DUP6 DUP8 GAS CALL SWAP3 POP POP POP RETURNDATASIZE DUP1 PUSH1 0x0 DUP2 EQ PUSH2 0xD01 JUMPI PUSH1 0x40 MLOAD SWAP2 POP PUSH1 0x1F NOT PUSH1 0x3F RETURNDATASIZE ADD AND DUP3 ADD PUSH1 0x40 MSTORE RETURNDATASIZE DUP3 MSTORE RETURNDATASIZE PUSH1 0x0 PUSH1 0x20 DUP5 ADD RETURNDATACOPY PUSH2 0xD06 JUMP JUMPDEST PUSH1 0x60 SWAP2 POP JUMPDEST POP POP SWAP1 POP DUP1 PUSH2 0xD4A JUMPI PUSH1 0x40 MLOAD PUSH32 0x8C379A000000000000000000000000000000000000000000000000000000000 DUP2 MSTORE PUSH1 0x4 ADD PUSH2 0xD41 SWAP1 PUSH2 0x25C9 JUMP JUMPDEST PUSH1 0x40 MLOAD DUP1 SWAP2 SUB SWAP1 REVERT JUMPDEST JUMPDEST PUSH1 0x0 PUSH1 0xF DUP1 SLOAD SWAP1 POP GT ISZERO PUSH2 0xECD JUMPI PUSH1 0x0 PUSH1 0x10 PUSH1 0x0 PUSH1 0xF PUSH1 0x1 PUSH1 0xF DUP1 SLOAD SWAP1 POP PUSH2 0xD73 SWAP2 SWAP1 PUSH2 0x2357 JUMP JUMPDEST DUP2 SLOAD DUP2 LT PUSH2 0xD84 JUMPI PUSH2 0xD83 PUSH2 0x22C5 JUMP JUMPDEST JUMPDEST SWAP1 PUSH1 0x0 MSTORE PUSH1 0x20 PUSH1 0x0 KECCAK256 ADD PUSH1 0x0 SWAP1 SLOAD SWAP1 PUSH2 0x100 EXP SWAP1 DIV PUSH20 0xFFFFFFFFFFFFFFFFFFFFFFFFFFFFFFFFFFFFFFFF AND PUSH20 0xFFFFFFFFFFFFFFFFFFFFFFFFFFFFFFFFFFFFFFFF AND PUSH20 0xFFFFFFFFFFFFFFFFFFFFFFFFFFFFFFFFFFFFFFFF AND DUP2 MSTORE PUSH1 0x20 ADD SWAP1 DUP2 MSTORE PUSH1 0x20 ADD PUSH1 0x0 KECCAK256 DUP2 SWAP1 SSTORE POP PUSH1 0x0 PUSH1 0x11 PUSH1 0x0 PUSH1 0xF PUSH1 0x1 PUSH1 0xF DUP1 SLOAD SWAP1 POP PUSH2 0xE07 SWAP2 SWAP1 PUSH2 0x2357 JUMP JUMPDEST DUP2 SLOAD DUP2 LT PUSH2 0xE18 JUMPI PUSH2 0xE17 PUSH2 0x22C5 JUMP JUMPDEST JUMPDEST SWAP1 PUSH1 0x0 MSTORE PUSH1 0x20 PUSH1 0x0 KECCAK256 ADD PUSH1 0x0 SWAP1 SLOAD SWAP1 PUSH2 0x100 EXP SWAP1 DIV PUSH20 0xFFFFFFFFFFFFFFFFFFFFFFFFFFFFFFFFFFFFFFFF AND PUSH20 0xFFFFFFFFFFFFFFFFFFFFFFFFFFFFFFFFFFFFFFFF AND PUSH20 0xFFFFFFFFFFFFFFFFFFFFFFFFFFFFFFFFFFFFFFFF AND DUP2 MSTORE PUSH1 0x20 ADD SWAP1 DUP2 MSTORE PUSH1 0x20 ADD PUSH1 0x0 KECCAK256 DUP2 SWAP1 SSTORE POP PUSH1 0xF DUP1 SLOAD DUP1 PUSH2 0xE93 JUMPI PUSH2 0xE92 PUSH2 0x25E9 JUMP JUMPDEST JUMPDEST PUSH1 0x1 SWAP1 SUB DUP2 DUP2 SWAP1 PUSH1 0x0 MSTORE PUSH1 0x20 PUSH1 0x0 KECCAK256 ADD PUSH1 0x0 PUSH2 0x100 EXP DUP2 SLOAD SWAP1 PUSH20 0xFFFFFFFFFFFFFFFFFFFFFFFFFFFFFFFFFFFFFFFF MUL NOT AND SWAP1 SSTORE SWAP1 SSTORE PUSH2 0xD4B JUMP JUMPDEST PUSH1 0x0 PUSH1 0xE DUP2 SWAP1 SSTORE POP PUSH1 0xD DUP3 SWAP1 DUP1 PUSH1 0x1 DUP2 SLOAD ADD DUP1 DUP3 SSTORE DUP1 SWAP2 POP POP PUSH1 0x1 SWAP1 SUB SWAP1 PUSH1 0x0 MSTORE PUSH1 0x20 PUSH1 0x0 KECCAK256 SWAP1 PUSH1 0x10 MUL ADD PUSH1 0x0 SWAP1 SWAP2 SWAP1 SWAP2 SWAP1 SWAP2 POP PUSH1 0x0 DUP3 ADD MLOAD DUP2 PUSH1 0x0 ADD SWAP1 PUSH1 0x5 PUSH2 0xF18 SWAP3 SWAP2 SWAP1 PUSH2 0x1C1B JUMP JUMPDEST POP PUSH1 0x20 DUP3 ADD MLOAD DUP2 PUSH1 0x5 ADD SWAP1 PUSH1 0x5 PUSH2 0xF30 SWAP3 SWAP2 SWAP1 PUSH2 0x1C98 JUMP JUMPDEST POP PUSH1 0x40 DUP3 ADD MLOAD DUP2 PUSH1 0xA ADD SWAP1 PUSH1 0x5 PUSH2 0xF48 SWAP3 SWAP2 SWAP1 PUSH2 0x1C98 JUMP JUMPDEST POP PUSH1 0x60 DUP3 ADD MLOAD DUP2 PUSH1 0xF ADD SSTORE POP POP POP POP POP JUMP JUMPDEST PUSH1 0xB PUSH1 0x20 MSTORE DUP1 PUSH1 0x0 MSTORE PUSH1 0x40 PUSH1 0x0 KECCAK256 PUSH1 0x0 SWAP2 POP SWAP1 POP SLOAD DUP2 JUMP JUMPDEST PUSH1 0x10 PUSH1 0x20 MSTORE DUP1 PUSH1 0x0 MSTORE PUSH1 0x40 PUSH1 0x0 KECCAK256 PUSH1 0x0 SWAP2 POP SWAP1 POP SLOAD DUP2 JUMP JUMPDEST PUSH1 0x2 PUSH1 0x0 SWAP1 SLOAD SWAP1 PUSH2 0x100 EXP SWAP1 DIV PUSH20 0xFFFFFFFFFFFFFFFFFFFFFFFFFFFFFFFFFFFFFFFF AND DUP2 JUMP JUMPDEST PUSH1 0x3 DUP2 PUSH1 0x5 DUP2 LT PUSH2 0xFC0 JUMPI PUSH1 0x0 DUP1 REVERT JUMPDEST ADD PUSH1 0x0 SWAP2 POP SWAP1 POP SLOAD DUP2 JUMP JUMPDEST PUSH1 0xF DUP2 DUP2 SLOAD DUP2 LT PUSH2 0xFDB JUMPI PUSH1 0x0 DUP1 REVERT JUMPDEST SWAP1 PUSH1 0x0 MSTORE PUSH1 0x20 PUSH1 0x0 KECCAK256 ADD PUSH1 0x0 SWAP2 POP SLOAD SWAP1 PUSH2 0x100 EXP SWAP1 DIV PUSH20 0xFFFFFFFFFFFFFFFFFFFFFFFFFFFFFFFFFFFFFFFF AND DUP2 JUMP JUMPDEST PUSH2 0x1012 PUSH2 0x1A1D JUMP JUMPDEST DUP1 PUSH1 0x2 PUSH1 0x0 PUSH2 0x100 EXP DUP2 SLOAD DUP2 PUSH20 0xFFFFFFFFFFFFFFFFFFFFFFFFFFFFFFFFFFFFFFFF MUL NOT AND SWAP1 DUP4 PUSH20 0xFFFFFFFFFFFFFFFFFFFFFFFFFFFFFFFFFFFFFFFF AND MUL OR SWAP1 SSTORE POP POP JUMP JUMPDEST PUSH1 0x60 PUSH1 0xF DUP1 SLOAD DUP1 PUSH1 0x20 MUL PUSH1 0x20 ADD PUSH1 0x40 MLOAD SWAP1 DUP2 ADD PUSH1 0x40 MSTORE DUP1 SWAP3 SWAP2 SWAP1 DUP2 DUP2 MSTORE PUSH1 0x20 ADD DUP3 DUP1 SLOAD DUP1 ISZERO PUSH2 0x10DA JUMPI PUSH1 0x20 MUL DUP3 ADD SWAP2 SWAP1 PUSH1 0x0 MSTORE PUSH1 0x20 PUSH1 0x0 KECCAK256 SWAP1 JUMPDEST DUP2 PUSH1 0x0 SWAP1 SLOAD SWAP1 PUSH2 0x100 EXP SWAP1 DIV PUSH20 0xFFFFFFFFFFFFFFFFFFFFFFFFFFFFFFFFFFFFFFFF AND PUSH20 0xFFFFFFFFFFFFFFFFFFFFFFFFFFFFFFFFFFFFFFFF AND DUP2 MSTORE PUSH1 0x20 ADD SWAP1 PUSH1 0x1 ADD SWAP1 DUP1 DUP4 GT PUSH2 0x1090 JUMPI JUMPDEST POP POP POP POP POP SWAP1 POP SWAP1 JUMP JUMPDEST PUSH2 0x10EC PUSH2 0x1A1D JUMP JUMPDEST PUSH2 0x10F6 PUSH1 0x0 PUSH2 0x1A9B JUMP JUMPDEST JUMP JUMPDEST PUSH1 0x60 PUSH1 0x9 DUP1 SLOAD DUP1 PUSH1 0x20 MUL PUSH1 0x20 ADD PUSH1 0x40 MLOAD SWAP1 DUP2 ADD PUSH1 0x40 MSTORE DUP1 SWAP3 SWAP2 SWAP1 DUP2 DUP2 MSTORE PUSH1 0x20 ADD DUP3 DUP1 SLOAD DUP1 ISZERO PUSH2 0x117C JUMPI PUSH1 0x20 MUL DUP3 ADD SWAP2 SWAP1 PUSH1 0x0 MSTORE PUSH1 0x20 PUSH1 0x0 KECCAK256 SWAP1 JUMPDEST DUP2 PUSH1 0x0 SWAP1 SLOAD SWAP1 PUSH2 0x100 EXP SWAP1 DIV PUSH20 0xFFFFFFFFFFFFFFFFFFFFFFFFFFFFFFFFFFFFFFFF AND PUSH20 0xFFFFFFFFFFFFFFFFFFFFFFFFFFFFFFFFFFFFFFFF AND DUP2 MSTORE PUSH1 0x20 ADD SWAP1 PUSH1 0x1 ADD SWAP1 DUP1 DUP4 GT PUSH2 0x1132 JUMPI JUMPDEST POP POP POP POP POP SWAP1 POP SWAP1 JUMP JUMPDEST PUSH1 0x0 DUP1 PUSH1 0x0 SWAP1 SLOAD SWAP1 PUSH2 0x100 EXP SWAP1 DIV PUSH20 0xFFFFFFFFFFFFFFFFFFFFFFFFFFFFFFFFFFFFFFFF AND SWAP1 POP SWAP1 JUMP JUMPDEST PUSH1 0x60 PUSH1 0xD DUP1 SLOAD DUP1 PUSH1 0x20 MUL PUSH1 0x20 ADD PUSH1 0x40 MLOAD SWAP1 DUP2 ADD PUSH1 0x40 MSTORE DUP1 SWAP3 SWAP2 SWAP1 DUP2 DUP2 MSTORE PUSH1 0x20 ADD PUSH1 0x0 SWAP1 JUMPDEST DUP3 DUP3 LT ISZERO PUSH2 0x1314 JUMPI DUP4 DUP3 SWAP1 PUSH1 0x0 MSTORE PUSH1 0x20 PUSH1 0x0 KECCAK256 SWAP1 PUSH1 0x10 MUL ADD PUSH1 0x40 MLOAD DUP1 PUSH1 0x80 ADD PUSH1 0x40 MSTORE SWAP1 DUP2 PUSH1 0x0 DUP3 ADD PUSH1 0x5 DUP1 PUSH1 0x20 MUL PUSH1 0x40 MLOAD SWAP1 DUP2 ADD PUSH1 0x40 MSTORE DUP1 SWAP3 SWAP2 SWAP1 DUP3 PUSH1 0x5 DUP1 ISZERO PUSH2 0x1268 JUMPI PUSH1 0x20 MUL DUP3 ADD SWAP2 JUMPDEST DUP2 PUSH1 0x0 SWAP1 SLOAD SWAP1 PUSH2 0x100 EXP SWAP1 DIV PUSH20 0xFFFFFFFFFFFFFFFFFFFFFFFFFFFFFFFFFFFFFFFF AND PUSH20 0xFFFFFFFFFFFFFFFFFFFFFFFFFFFFFFFFFFFFFFFF AND DUP2 MSTORE PUSH1 0x20 ADD SWAP1 PUSH1 0x1 ADD SWAP1 DUP1 DUP4 GT PUSH2 0x121E JUMPI JUMPDEST POP POP POP POP POP DUP2 MSTORE PUSH1 0x20 ADD PUSH1 0x5 DUP3 ADD PUSH1 0x5 DUP1 PUSH1 0x20 MUL PUSH1 0x40 MLOAD SWAP1 DUP2 ADD PUSH1 0x40 MSTORE DUP1 SWAP3 SWAP2 SWAP1 DUP3 PUSH1 0x5 DUP1 ISZERO PUSH2 0x12AD JUMPI PUSH1 0x20 MUL DUP3 ADD SWAP2 JUMPDEST DUP2 SLOAD DUP2 MSTORE PUSH1 0x20 ADD SWAP1 PUSH1 0x1 ADD SWAP1 DUP1 DUP4 GT PUSH2 0x1299 JUMPI JUMPDEST POP POP POP POP POP DUP2 MSTORE PUSH1 0x20 ADD PUSH1 0xA DUP3 ADD PUSH1 0x5 DUP1 PUSH1 0x20 MUL PUSH1 0x40 MLOAD SWAP1 DUP2 ADD PUSH1 0x40 MSTORE DUP1 SWAP3 SWAP2 SWAP1 DUP3 PUSH1 0x5 DUP1 ISZERO PUSH2 0x12F2 JUMPI PUSH1 0x20 MUL DUP3 ADD SWAP2 JUMPDEST DUP2 SLOAD DUP2 MSTORE PUSH1 0x20 ADD SWAP1 PUSH1 0x1 ADD SWAP1 DUP1 DUP4 GT PUSH2 0x12DE JUMPI JUMPDEST POP POP POP POP POP DUP2 MSTORE PUSH1 0x20 ADD PUSH1 0xF DUP3 ADD SLOAD DUP2 MSTORE POP POP DUP2 MSTORE PUSH1 0x20 ADD SWAP1 PUSH1 0x1 ADD SWAP1 PUSH2 0x11D3 JUMP JUMPDEST POP POP POP POP SWAP1 POP SWAP1 JUMP JUMPDEST PUSH2 0x1325 PUSH2 0x1A1D JUMP JUMPDEST DUP1 PUSH1 0x8 DUP2 SWAP1 SSTORE POP POP JUMP JUMPDEST PUSH1 0x8 SLOAD DUP2 JUMP JUMPDEST PUSH1 0xD DUP2 DUP2 SLOAD DUP2 LT PUSH2 0x1345 JUMPI PUSH1 0x0 DUP1 REVERT JUMPDEST SWAP1 PUSH1 0x0 MSTORE PUSH1 0x20 PUSH1 0x0 KECCAK256 SWAP1 PUSH1 0x10 MUL ADD PUSH1 0x0 SWAP2 POP SWAP1 POP DUP1 PUSH1 0xF ADD SLOAD SWAP1 POP DUP2 JUMP JUMPDEST PUSH1 0x11 PUSH1 0x20 MSTORE DUP1 PUSH1 0x0 MSTORE PUSH1 0x40 PUSH1 0x0 KECCAK256 PUSH1 0x0 SWAP2 POP SWAP1 POP SLOAD DUP2 JUMP JUMPDEST PUSH2 0x1383 PUSH2 0x1A1D JUMP JUMPDEST DUP5 PUSH1 0x3 PUSH1 0x0 PUSH1 0x5 DUP2 LT PUSH2 0x1399 JUMPI PUSH2 0x1398 PUSH2 0x22C5 JUMP JUMPDEST JUMPDEST ADD DUP2 SWAP1 SSTORE POP DUP4 PUSH1 0x3 PUSH1 0x1 PUSH1 0x5 DUP2 LT PUSH2 0x13B4 JUMPI PUSH2 0x13B3 PUSH2 0x22C5 JUMP JUMPDEST JUMPDEST ADD DUP2 SWAP1 SSTORE POP DUP3 PUSH1 0x3 PUSH1 0x2 PUSH1 0x5 DUP2 LT PUSH2 0x13CF JUMPI PUSH2 0x13CE PUSH2 0x22C5 JUMP JUMPDEST JUMPDEST ADD DUP2 SWAP1 SSTORE POP DUP2 PUSH1 0x3 DUP1 PUSH1 0x5 DUP2 LT PUSH2 0x13E9 JUMPI PUSH2 0x13E8 PUSH2 0x22C5 JUMP JUMPDEST JUMPDEST ADD DUP2 SWAP1 SSTORE POP DUP1 PUSH1 0x3 PUSH1 0x4 PUSH1 0x5 DUP2 LT PUSH2 0x1404 JUMPI PUSH2 0x1403 PUSH2 0x22C5 JUMP JUMPDEST JUMPDEST ADD DUP2 SWAP1 SSTORE POP POP POP POP POP POP JUMP JUMPDEST PUSH1 0xC PUSH1 0x20 MSTORE DUP1 PUSH1 0x0 MSTORE PUSH1 0x40 PUSH1 0x0 KECCAK256 PUSH1 0x0 SWAP2 POP SLOAD SWAP1 PUSH2 0x100 EXP SWAP1 DIV PUSH1 0xFF AND DUP2 JUMP JUMPDEST PUSH2 0x1438 PUSH2 0x1B5F JUMP JUMPDEST PUSH1 0x0 DUP2 GT DUP1 ISZERO PUSH2 0x1498 JUMPI POP PUSH1 0xC PUSH1 0x0 PUSH2 0x144F PUSH2 0x1BAE JUMP JUMPDEST PUSH20 0xFFFFFFFFFFFFFFFFFFFFFFFFFFFFFFFFFFFFFFFF AND PUSH20 0xFFFFFFFFFFFFFFFFFFFFFFFFFFFFFFFFFFFFFFFF AND DUP2 MSTORE PUSH1 0x20 ADD SWAP1 DUP2 MSTORE PUSH1 0x20 ADD PUSH1 0x0 KECCAK256 PUSH1 0x0 SWAP1 SLOAD SWAP1 PUSH2 0x100 EXP SWAP1 DIV PUSH1 0xFF AND JUMPDEST PUSH2 0x14D7 JUMPI PUSH1 0x40 MLOAD PUSH32 0x8C379A000000000000000000000000000000000000000000000000000000000 DUP2 MSTORE PUSH1 0x4 ADD PUSH2 0x14CE SWAP1 PUSH2 0x2664 JUMP JUMPDEST PUSH1 0x40 MLOAD DUP1 SWAP2 SUB SWAP1 REVERT JUMPDEST PUSH1 0x0 PUSH1 0xC PUSH1 0x0 PUSH2 0x14E5 PUSH2 0x1BAE JUMP JUMPDEST PUSH20 0xFFFFFFFFFFFFFFFFFFFFFFFFFFFFFFFFFFFFFFFF AND PUSH20 0xFFFFFFFFFFFFFFFFFFFFFFFFFFFFFFFFFFFFFFFF AND DUP2 MSTORE PUSH1 0x20 ADD SWAP1 DUP2 MSTORE PUSH1 0x20 ADD PUSH1 0x0 KECCAK256 PUSH1 0x0 PUSH2 0x100 EXP DUP2 SLOAD DUP2 PUSH1 0xFF MUL NOT AND SWAP1 DUP4 ISZERO ISZERO MUL OR SWAP1 SSTORE POP PUSH1 0x0 PUSH1 0xA PUSH1 0x0 PUSH2 0x1544 PUSH2 0x1BAE JUMP JUMPDEST PUSH20 0xFFFFFFFFFFFFFFFFFFFFFFFFFFFFFFFFFFFFFFFF AND PUSH20 0xFFFFFFFFFFFFFFFFFFFFFFFFFFFFFFFFFFFFFFFF AND DUP2 MSTORE PUSH1 0x20 ADD SWAP1 DUP2 MSTORE PUSH1 0x20 ADD PUSH1 0x0 KECCAK256 SLOAD SUB PUSH2 0x15EF JUMPI PUSH1 0x9 PUSH2 0x158E PUSH2 0x1BAE JUMP JUMPDEST SWAP1 DUP1 PUSH1 0x1 DUP2 SLOAD ADD DUP1 DUP3 SSTORE DUP1 SWAP2 POP POP PUSH1 0x1 SWAP1 SUB SWAP1 PUSH1 0x0 MSTORE PUSH1 0x20 PUSH1 0x0 KECCAK256 ADD PUSH1 0x0 SWAP1 SWAP2 SWAP1 SWAP2 SWAP1 SWAP2 PUSH2 0x100 EXP DUP2 SLOAD DUP2 PUSH20 0xFFFFFFFFFFFFFFFFFFFFFFFFFFFFFFFFFFFFFFFF MUL NOT AND SWAP1 DUP4 PUSH20 0xFFFFFFFFFFFFFFFFFFFFFFFFFFFFFFFFFFFFFFFF AND MUL OR SWAP1 SSTORE POP JUMPDEST DUP1 PUSH1 0xA PUSH1 0x0 PUSH2 0x15FC PUSH2 0x1BAE JUMP JUMPDEST PUSH20 0xFFFFFFFFFFFFFFFFFFFFFFFFFFFFFFFFFFFFFFFF AND PUSH20 0xFFFFFFFFFFFFFFFFFFFFFFFFFFFFFFFFFFFFFFFF AND DUP2 MSTORE PUSH1 0x20 ADD SWAP1 DUP2 MSTORE PUSH1 0x20 ADD PUSH1 0x0 KECCAK256 PUSH1 0x0 DUP3 DUP3 SLOAD PUSH2 0x1645 SWAP2 SWAP1 PUSH2 0x2323 JUMP JUMPDEST SWAP3 POP POP DUP2 SWAP1 SSTORE POP PUSH1 0x0 PUSH1 0x10 PUSH1 0x0 PUSH2 0x165A PUSH2 0x1BAE JUMP JUMPDEST PUSH20 0xFFFFFFFFFFFFFFFFFFFFFFFFFFFFFFFFFFFFFFFF AND PUSH20 0xFFFFFFFFFFFFFFFFFFFFFFFFFFFFFFFFFFFFFFFF AND DUP2 MSTORE PUSH1 0x20 ADD SWAP1 DUP2 MSTORE PUSH1 0x20 ADD PUSH1 0x0 KECCAK256 SLOAD SUB PUSH2 0x1705 JUMPI PUSH1 0xF PUSH2 0x16A4 PUSH2 0x1BAE JUMP JUMPDEST SWAP1 DUP1 PUSH1 0x1 DUP2 SLOAD ADD DUP1 DUP3 SSTORE DUP1 SWAP2 POP POP PUSH1 0x1 SWAP1 SUB SWAP1 PUSH1 0x0 MSTORE PUSH1 0x20 PUSH1 0x0 KECCAK256 ADD PUSH1 0x0 SWAP1 SWAP2 SWAP1 SWAP2 SWAP1 SWAP2 PUSH2 0x100 EXP DUP2 SLOAD DUP2 PUSH20 0xFFFFFFFFFFFFFFFFFFFFFFFFFFFFFFFFFFFFFFFF MUL NOT AND SWAP1 DUP4 PUSH20 0xFFFFFFFFFFFFFFFFFFFFFFFFFFFFFFFFFFFFFFFF AND MUL OR SWAP1 SSTORE POP JUMPDEST DUP1 PUSH1 0x10 PUSH1 0x0 PUSH2 0x1712 PUSH2 0x1BAE JUMP JUMPDEST PUSH20 0xFFFFFFFFFFFFFFFFFFFFFFFFFFFFFFFFFFFFFFFF AND PUSH20 0xFFFFFFFFFFFFFFFFFFFFFFFFFFFFFFFFFFFFFFFF AND DUP2 MSTORE PUSH1 0x20 ADD SWAP1 DUP2 MSTORE PUSH1 0x20 ADD PUSH1 0x0 KECCAK256 PUSH1 0x0 DUP3 DUP3 SLOAD PUSH2 0x175B SWAP2 SWAP1 PUSH2 0x2323 JUMP JUMPDEST SWAP3 POP POP DUP2 SWAP1 SSTORE POP TIMESTAMP PUSH1 0x11 PUSH1 0x0 PUSH2 0x176F PUSH2 0x1BAE JUMP JUMPDEST PUSH20 0xFFFFFFFFFFFFFFFFFFFFFFFFFFFFFFFFFFFFFFFF AND PUSH20 0xFFFFFFFFFFFFFFFFFFFFFFFFFFFFFFFFFFFFFFFF AND DUP2 MSTORE PUSH1 0x20 ADD SWAP1 DUP2 MSTORE PUSH1 0x20 ADD PUSH1 0x0 KECCAK256 DUP2 SWAP1 SSTORE POP PUSH1 0xE PUSH1 0x0 DUP2 SLOAD DUP1 SWAP3 SWAP2 SWAP1 PUSH2 0x17C0 SWAP1 PUSH2 0x238B JUMP JUMPDEST SWAP2 SWAP1 POP SSTORE POP PUSH32 0x1A0DA0F323E639DDC4F72AFDC6E15F3FC4D63E8DB62BD38A5C6AD04BC5A37BE2 PUSH2 0x17EE PUSH2 0x1BAE JUMP JUMPDEST DUP3 TIMESTAMP PUSH1 0x40 MLOAD PUSH2 0x17FF SWAP4 SWAP3 SWAP2 SWAP1 PUSH2 0x2684 JUMP JUMPDEST PUSH1 0x40 MLOAD DUP1 SWAP2 SUB SWAP1 LOG1 PUSH2 0x180F PUSH2 0x1BB6 JUMP JUMPDEST POP JUMP JUMPDEST PUSH1 0x8 SLOAD CALLVALUE LT ISZERO PUSH2 0x1857 JUMPI PUSH1 0x40 MLOAD PUSH32 0x8C379A000000000000000000000000000000000000000000000000000000000 DUP2 MSTORE PUSH1 0x4 ADD PUSH2 0x184E SWAP1 PUSH2 0x2707 JUMP JUMPDEST PUSH1 0x40 MLOAD DUP1 SWAP2 SUB SWAP1 REVERT JUMPDEST PUSH1 0x1 PUSH1 0xC PUSH1 0x0 PUSH2 0x1865 PUSH2 0x1BAE JUMP JUMPDEST PUSH20 0xFFFFFFFFFFFFFFFFFFFFFFFFFFFFFFFFFFFFFFFF AND PUSH20 0xFFFFFFFFFFFFFFFFFFFFFFFFFFFFFFFFFFFFFFFF AND DUP2 MSTORE PUSH1 0x20 ADD SWAP1 DUP2 MSTORE PUSH1 0x20 ADD PUSH1 0x0 KECCAK256 PUSH1 0x0 PUSH2 0x100 EXP DUP2 SLOAD DUP2 PUSH1 0xFF MUL NOT AND SWAP1 DUP4 ISZERO ISZERO MUL OR SWAP1 SSTORE POP PUSH32 0x827A821CC7B9CAE4C0BAEF42EE9CDEB791722AB1AA43532C255EA468EA6D5B1D PUSH2 0x18DF PUSH2 0x1BAE JUMP JUMPDEST TIMESTAMP PUSH1 0x40 MLOAD PUSH2 0x18EE SWAP3 SWAP2 SWAP1 PUSH2 0x2727 JUMP JUMPDEST PUSH1 0x40 MLOAD DUP1 SWAP2 SUB SWAP1 LOG1 JUMP JUMPDEST PUSH2 0x1900 PUSH2 0x1CD8 JUMP JUMPDEST PUSH1 0x3 PUSH1 0x5 DUP1 PUSH1 0x20 MUL PUSH1 0x40 MLOAD SWAP1 DUP2 ADD PUSH1 0x40 MSTORE DUP1 SWAP3 SWAP2 SWAP1 DUP3 PUSH1 0x5 DUP1 ISZERO PUSH2 0x1939 JUMPI PUSH1 0x20 MUL DUP3 ADD SWAP2 JUMPDEST DUP2 SLOAD DUP2 MSTORE PUSH1 0x20 ADD SWAP1 PUSH1 0x1 ADD SWAP1 DUP1 DUP4 GT PUSH2 0x1925 JUMPI JUMPDEST POP POP POP POP POP SWAP1 POP SWAP1 JUMP JUMPDEST PUSH2 0x194B PUSH2 0x1A1D JUMP JUMPDEST PUSH1 0x0 PUSH20 0xFFFFFFFFFFFFFFFFFFFFFFFFFFFFFFFFFFFFFFFF AND DUP2 PUSH20 0xFFFFFFFFFFFFFFFFFFFFFFFFFFFFFFFFFFFFFFFF AND SUB PUSH2 0x19BA JUMPI PUSH1 0x40 MLOAD PUSH32 0x8C379A000000000000000000000000000000000000000000000000000000000 DUP2 MSTORE PUSH1 0x4 ADD PUSH2 0x19B1 SWAP1 PUSH2 0x27C2 JUMP JUMPDEST PUSH1 0x40 MLOAD DUP1 SWAP2 SUB SWAP1 REVERT JUMPDEST PUSH2 0x19C3 DUP2 PUSH2 0x1A9B JUMP JUMPDEST POP JUMP JUMPDEST PUSH1 0x9 DUP2 DUP2 SLOAD DUP2 LT PUSH2 0x19D6 JUMPI PUSH1 0x0 DUP1 REVERT JUMPDEST SWAP1 PUSH1 0x0 MSTORE PUSH1 0x20 PUSH1 0x0 KECCAK256 ADD PUSH1 0x0 SWAP2 POP SLOAD SWAP1 PUSH2 0x100 EXP SWAP1 DIV PUSH20 0xFFFFFFFFFFFFFFFFFFFFFFFFFFFFFFFFFFFFFFFF AND DUP2 JUMP JUMPDEST PUSH1 0xA PUSH1 0x20 MSTORE DUP1 PUSH1 0x0 MSTORE PUSH1 0x40 PUSH1 0x0 KECCAK256 PUSH1 0x0 SWAP2 POP SWAP1 POP SLOAD DUP2 JUMP JUMPDEST PUSH2 0x1A25 PUSH2 0x1BAE JUMP JUMPDEST PUSH20 0xFFFFFFFFFFFFFFFFFFFFFFFFFFFFFFFFFFFFFFFF AND PUSH2 0x1A43 PUSH2 0x1186 JUMP JUMPDEST PUSH20 0xFFFFFFFFFFFFFFFFFFFFFFFFFFFFFFFFFFFFFFFF AND EQ PUSH2 0x1A99 JUMPI PUSH1 0x40 MLOAD PUSH32 0x8C379A000000000000000000000000000000000000000000000000000000000 DUP2 MSTORE PUSH1 0x4 ADD PUSH2 0x1A90 SWAP1 PUSH2 0x282E JUMP JUMPDEST PUSH1 0x40 MLOAD DUP1 SWAP2 SUB SWAP1 REVERT JUMPDEST JUMP JUMPDEST PUSH1 0x0 DUP1 PUSH1 0x0 SWAP1 SLOAD SWAP1 PUSH2 0x100 EXP SWAP1 DIV PUSH20 0xFFFFFFFFFFFFFFFFFFFFFFFFFFFFFFFFFFFFFFFF AND SWAP1 POP DUP2 PUSH1 0x0 DUP1 PUSH2 0x100 EXP DUP2 SLOAD DUP2 PUSH20 0xFFFFFFFFFFFFFFFFFFFFFFFFFFFFFFFFFFFFFFFF MUL NOT AND SWAP1 DUP4 PUSH20 0xFFFFFFFFFFFFFFFFFFFFFFFFFFFFFFFFFFFFFFFF AND MUL OR SWAP1 SSTORE POP DUP2 PUSH20 0xFFFFFFFFFFFFFFFFFFFFFFFFFFFFFFFFFFFFFFFF AND DUP2 PUSH20 0xFFFFFFFFFFFFFFFFFFFFFFFFFFFFFFFFFFFFFFFF AND PUSH32 0x8BE0079C531659141344CD1FD0A4F28419497F9722A3DAAFE3B4186F6B6457E0 PUSH1 0x40 MLOAD PUSH1 0x40 MLOAD DUP1 SWAP2 SUB SWAP1 LOG3 POP POP JUMP JUMPDEST PUSH1 0x2 PUSH1 0x1 SLOAD SUB PUSH2 0x1BA4 JUMPI PUSH1 0x40 MLOAD PUSH32 0x8C379A000000000000000000000000000000000000000000000000000000000 DUP2 MSTORE PUSH1 0x4 ADD PUSH2 0x1B9B SWAP1 PUSH2 0x289A JUMP JUMPDEST PUSH1 0x40 MLOAD DUP1 SWAP2 SUB SWAP1 REVERT JUMPDEST PUSH1 0x2 PUSH1 0x1 DUP2 SWAP1 SSTORE POP JUMP JUMPDEST PUSH1 0x0 CALLER SWAP1 POP SWAP1 JUMP JUMPDEST PUSH1 0x1 DUP1 DUP2 SWAP1 SSTORE POP JUMP JUMPDEST PUSH1 0x40 MLOAD DUP1 PUSH1 0xA0 ADD PUSH1 0x40 MSTORE DUP1 PUSH1 0x5 SWAP1 PUSH1 0x20 DUP3 MUL DUP1 CALLDATASIZE DUP4 CALLDATACOPY DUP1 DUP3 ADD SWAP2 POP POP SWAP1 POP POP SWAP1 JUMP JUMPDEST PUSH1 0x40 MLOAD DUP1 PUSH1 0x80 ADD PUSH1 0x40 MSTORE DUP1 PUSH2 0x1BF4 PUSH2 0x1BBF JUMP JUMPDEST DUP2 MSTORE PUSH1 0x20 ADD PUSH2 0x1C01 PUSH2 0x1CD8 JUMP JUMPDEST DUP2 MSTORE PUSH1 0x20 ADD PUSH2 0x1C0E PUSH2 0x1CD8 JUMP JUMPDEST DUP2 MSTORE PUSH1 0x20 ADD PUSH1 0x0 DUP2 MSTORE POP SWAP1 JUMP JUMPDEST DUP3 PUSH1 0x5 DUP2 ADD SWAP3 DUP3 ISZERO PUSH2 0x1C87 JUMPI SWAP2 PUSH1 0x20 MUL DUP3 ADD JUMPDEST DUP3 DUP2 GT ISZERO PUSH2 0x1C86 JUMPI DUP3 MLOAD DUP3 PUSH1 0x0 PUSH2 0x100 EXP DUP2 SLOAD DUP2 PUSH20 0xFFFFFFFFFFFFFFFFFFFFFFFFFFFFFFFFFFFFFFFF MUL NOT AND SWAP1 DUP4 PUSH20 0xFFFFFFFFFFFFFFFFFFFFFFFFFFFFFFFFFFFFFFFF AND MUL OR SWAP1 SSTORE POP SWAP2 PUSH1 0x20 ADD SWAP2 SWAP1 PUSH1 0x1 ADD SWAP1 PUSH2 0x1C2E JUMP JUMPDEST JUMPDEST POP SWAP1 POP PUSH2 0x1C94 SWAP2 SWAP1 PUSH2 0x1CFA JUMP JUMPDEST POP SWAP1 JUMP JUMPDEST DUP3 PUSH1 0x5 DUP2 ADD SWAP3 DUP3 ISZERO PUSH2 0x1CC7 JUMPI SWAP2 PUSH1 0x20 MUL DUP3 ADD JUMPDEST DUP3 DUP2 GT ISZERO PUSH2 0x1CC6 JUMPI DUP3 MLOAD DUP3 SSTORE SWAP2 PUSH1 0x20 ADD SWAP2 SWAP1 PUSH1 0x1 ADD SWAP1 PUSH2 0x1CAB JUMP JUMPDEST JUMPDEST POP SWAP1 POP PUSH2 0x1CD4 SWAP2 SWAP1 PUSH2 0x1CFA JUMP JUMPDEST POP SWAP1 JUMP JUMPDEST PUSH1 0x40 MLOAD DUP1 PUSH1 0xA0 ADD PUSH1 0x40 MSTORE DUP1 PUSH1 0x5 SWAP1 PUSH1 0x20 DUP3 MUL DUP1 CALLDATASIZE DUP4 CALLDATACOPY DUP1 DUP3 ADD SWAP2 POP POP SWAP1 POP POP SWAP1 JUMP JUMPDEST JUMPDEST DUP1 DUP3 GT ISZERO PUSH2 0x1D13 JUMPI PUSH1 0x0 DUP2 PUSH1 0x0 SWAP1 SSTORE POP PUSH1 0x1 ADD PUSH2 0x1CFB JUMP JUMPDEST POP SWAP1 JUMP JUMPDEST PUSH1 0x0 DUP1 REVERT JUMPDEST PUSH1 0x0 PUSH20 0xFFFFFFFFFFFFFFFFFFFFFFFFFFFFFFFFFFFFFFFF DUP3 AND SWAP1 POP SWAP2 SWAP1 POP JUMP JUMPDEST PUSH1 0x0 PUSH2 0x1D47 DUP3 PUSH2 0x1D1C JUMP JUMPDEST SWAP1 POP SWAP2 SWAP1 POP JUMP JUMPDEST PUSH2 0x1D57 DUP2 PUSH2 0x1D3C JUMP JUMPDEST DUP2 EQ PUSH2 0x1D62 JUMPI PUSH1 0x0 DUP1 REVERT JUMPDEST POP JUMP JUMPDEST PUSH1 0x0 DUP2 CALLDATALOAD SWAP1 POP PUSH2 0x1D74 DUP2 PUSH2 0x1D4E JUMP JUMPDEST SWAP3 SWAP2 POP POP JUMP JUMPDEST PUSH1 0x0 PUSH1 0x20 DUP3 DUP5 SUB SLT ISZERO PUSH2 0x1D90 JUMPI PUSH2 0x1D8F PUSH2 0x1D17 JUMP JUMPDEST JUMPDEST PUSH1 0x0 PUSH2 0x1D9E DUP5 DUP3 DUP6 ADD PUSH2 0x1D65 JUMP JUMPDEST SWAP2 POP POP SWAP3 SWAP2 POP POP JUMP JUMPDEST PUSH1 0x0 DUP2 SWAP1 POP SWAP2 SWAP1 POP JUMP JUMPDEST PUSH2 0x1DBA DUP2 PUSH2 0x1DA7 JUMP JUMPDEST DUP3 MSTORE POP POP JUMP JUMPDEST PUSH1 0x0 PUSH1 0x20 DUP3 ADD SWAP1 POP PUSH2 0x1DD5 PUSH1 0x0 DUP4 ADD DUP5 PUSH2 0x1DB1 JUMP JUMPDEST SWAP3 SWAP2 POP POP JUMP JUMPDEST PUSH2 0x1DE4 DUP2 PUSH2 0x1D3C JUMP JUMPDEST DUP3 MSTORE POP POP JUMP JUMPDEST PUSH1 0x0 PUSH1 0x20 DUP3 ADD SWAP1 POP PUSH2 0x1DFF PUSH1 0x0 DUP4 ADD DUP5 PUSH2 0x1DDB JUMP JUMPDEST SWAP3 SWAP2 POP POP JUMP JUMPDEST PUSH2 0x1E0E DUP2 PUSH2 0x1DA7 JUMP JUMPDEST DUP2 EQ PUSH2 0x1E19 JUMPI PUSH1 0x0 DUP1 REVERT JUMPDEST POP JUMP JUMPDEST PUSH1 0x0 DUP2 CALLDATALOAD SWAP1 POP PUSH2 0x1E2B DUP2 PUSH2 0x1E05 JUMP JUMPDEST SWAP3 SWAP2 POP POP JUMP JUMPDEST PUSH1 0x0 PUSH1 0x20 DUP3 DUP5 SUB SLT ISZERO PUSH2 0x1E47 JUMPI PUSH2 0x1E46 PUSH2 0x1D17 JUMP JUMPDEST JUMPDEST PUSH1 0x0 PUSH2 0x1E55 DUP5 DUP3 DUP6 ADD PUSH2 0x1E1C JUMP JUMPDEST SWAP2 POP POP SWAP3 SWAP2 POP POP JUMP JUMPDEST PUSH1 0x0 DUP2 MLOAD SWAP1 POP SWAP2 SWAP1 POP JUMP JUMPDEST PUSH1 0x0 DUP3 DUP3 MSTORE PUSH1 0x20 DUP3 ADD SWAP1 POP SWAP3 SWAP2 POP POP JUMP JUMPDEST PUSH1 0x0 DUP2 SWAP1 POP PUSH1 0x20 DUP3 ADD SWAP1 POP SWAP2 SWAP1 POP JUMP JUMPDEST PUSH2 0x1E93 DUP2 PUSH2 0x1D3C JUMP JUMPDEST DUP3 MSTORE POP POP JUMP JUMPDEST PUSH1 0x0 PUSH2 0x1EA5 DUP4 DUP4 PUSH2 0x1E8A JUMP JUMPDEST PUSH1 0x20 DUP4 ADD SWAP1 POP SWAP3 SWAP2 POP POP JUMP JUMPDEST PUSH1 0x0 PUSH1 0x20 DUP3 ADD SWAP1 POP SWAP2 SWAP1 POP JUMP JUMPDEST PUSH1 0x0 PUSH2 0x1EC9 DUP3 PUSH2 0x1E5E JUMP JUMPDEST PUSH2 0x1ED3 DUP2 DUP6 PUSH2 0x1E69 JUMP JUMPDEST SWAP4 POP PUSH2 0x1EDE DUP4 PUSH2 0x1E7A JUMP JUMPDEST DUP1 PUSH1 0x0 JUMPDEST DUP4 DUP2 LT ISZERO PUSH2 0x1F0F JUMPI DUP2 MLOAD PUSH2 0x1EF6 DUP9 DUP3 PUSH2 0x1E99 JUMP JUMPDEST SWAP8 POP PUSH2 0x1F01 DUP4 PUSH2 0x1EB1 JUMP JUMPDEST SWAP3 POP POP PUSH1 0x1 DUP2 ADD SWAP1 POP PUSH2 0x1EE2 JUMP JUMPDEST POP DUP6 SWAP4 POP POP POP POP SWAP3 SWAP2 POP POP JUMP JUMPDEST PUSH1 0x0 PUSH1 0x20 DUP3 ADD SWAP1 POP DUP2 DUP2 SUB PUSH1 0x0 DUP4 ADD MSTORE PUSH2 0x1F36 DUP2 DUP5 PUSH2 0x1EBE JUMP JUMPDEST SWAP1 POP SWAP3 SWAP2 POP POP JUMP JUMPDEST PUSH1 0x0 DUP2 MLOAD SWAP1 POP SWAP2 SWAP1 POP JUMP JUMPDEST PUSH1 0x0 DUP3 DUP3 MSTORE PUSH1 0x20 DUP3 ADD SWAP1 POP SWAP3 SWAP2 POP POP JUMP JUMPDEST PUSH1 0x0 DUP2 SWAP1 POP PUSH1 0x20 DUP3 ADD SWAP1 POP SWAP2 SWAP1 POP JUMP JUMPDEST PUSH1 0x0 PUSH1 0x5 SWAP1 POP SWAP2 SWAP1 POP JUMP JUMPDEST PUSH1 0x0 DUP2 SWAP1 POP SWAP3 SWAP2 POP POP JUMP JUMPDEST PUSH1 0x0 DUP2 SWAP1 POP SWAP2 SWAP1 POP JUMP JUMPDEST PUSH1 0x0 PUSH1 0x20 DUP3 ADD SWAP1 POP SWAP2 SWAP1 POP JUMP JUMPDEST PUSH2 0x1FA0 DUP2 PUSH2 0x1F6A JUMP JUMPDEST PUSH2 0x1FAA DUP2 DUP5 PUSH2 0x1F75 JUMP JUMPDEST SWAP3 POP PUSH2 0x1FB5 DUP3 PUSH2 0x1F80 JUMP JUMPDEST DUP1 PUSH1 0x0 JUMPDEST DUP4 DUP2 LT ISZERO PUSH2 0x1FE6 JUMPI DUP2 MLOAD PUSH2 0x1FCD DUP8 DUP3 PUSH2 0x1E99 JUMP JUMPDEST SWAP7 POP PUSH2 0x1FD8 DUP4 PUSH2 0x1F8A JUMP JUMPDEST SWAP3 POP POP PUSH1 0x1 DUP2 ADD SWAP1 POP PUSH2 0x1FB9 JUMP JUMPDEST POP POP POP POP POP POP JUMP JUMPDEST PUSH1 0x0 PUSH1 0x5 SWAP1 POP SWAP2 SWAP1 POP JUMP JUMPDEST PUSH1 0x0 DUP2 SWAP1 POP SWAP3 SWAP2 POP POP JUMP JUMPDEST PUSH1 0x0 DUP2 SWAP1 POP SWAP2 SWAP1 POP JUMP JUMPDEST PUSH2 0x2017 DUP2 PUSH2 0x1DA7 JUMP JUMPDEST DUP3 MSTORE POP POP JUMP JUMPDEST PUSH1 0x0 PUSH2 0x2029 DUP4 DUP4 PUSH2 0x200E JUMP JUMPDEST PUSH1 0x20 DUP4 ADD SWAP1 POP SWAP3 SWAP2 POP POP JUMP JUMPDEST PUSH1 0x0 PUSH1 0x20 DUP3 ADD SWAP1 POP SWAP2 SWAP1 POP JUMP JUMPDEST PUSH2 0x204B DUP2 PUSH2 0x1FEE JUMP JUMPDEST PUSH2 0x2055 DUP2 DUP5 PUSH2 0x1FF9 JUMP JUMPDEST SWAP3 POP PUSH2 0x2060 DUP3 PUSH2 0x2004 JUMP JUMPDEST DUP1 PUSH1 0x0 JUMPDEST DUP4 DUP2 LT ISZERO PUSH2 0x2091 JUMPI DUP2 MLOAD PUSH2 0x2078 DUP8 DUP3 PUSH2 0x201D JUMP JUMPDEST SWAP7 POP PUSH2 0x2083 DUP4 PUSH2 0x2035 JUMP JUMPDEST SWAP3 POP POP PUSH1 0x1 DUP2 ADD SWAP1 POP PUSH2 0x2064 JUMP JUMPDEST POP POP POP POP POP POP JUMP JUMPDEST PUSH2 0x200 DUP3 ADD PUSH1 0x0 DUP3 ADD MLOAD PUSH2 0x20B0 PUSH1 0x0 DUP6 ADD DUP3 PUSH2 0x1F97 JUMP JUMPDEST POP PUSH1 0x20 DUP3 ADD MLOAD PUSH2 0x20C3 PUSH1 0xA0 DUP6 ADD DUP3 PUSH2 0x2042 JUMP JUMPDEST POP PUSH1 0x40 DUP3 ADD MLOAD PUSH2 0x20D7 PUSH2 0x140 DUP6 ADD DUP3 PUSH2 0x2042 JUMP JUMPDEST POP PUSH1 0x60 DUP3 ADD MLOAD PUSH2 0x20EB PUSH2 0x1E0 DUP6 ADD DUP3 PUSH2 0x200E JUMP JUMPDEST POP POP POP POP JUMP JUMPDEST PUSH1 0x0 PUSH2 0x20FD DUP4 DUP4 PUSH2 0x2099 JUMP JUMPDEST PUSH2 0x200 DUP4 ADD SWAP1 POP SWAP3 SWAP2 POP POP JUMP JUMPDEST PUSH1 0x0 PUSH1 0x20 DUP3 ADD SWAP1 POP SWAP2 SWAP1 POP JUMP JUMPDEST PUSH1 0x0 PUSH2 0x2122 DUP3 PUSH2 0x1F3E JUMP JUMPDEST PUSH2 0x212C DUP2 DUP6 PUSH2 0x1F49 JUMP JUMPDEST SWAP4 POP PUSH2 0x2137 DUP4 PUSH2 0x1F5A JUMP JUMPDEST DUP1 PUSH1 0x0 JUMPDEST DUP4 DUP2 LT ISZERO PUSH2 0x2168 JUMPI DUP2 MLOAD PUSH2 0x214F DUP9 DUP3 PUSH2 0x20F1 JUMP JUMPDEST SWAP8 POP PUSH2 0x215A DUP4 PUSH2 0x210A JUMP JUMPDEST SWAP3 POP POP PUSH1 0x1 DUP2 ADD SWAP1 POP PUSH2 0x213B JUMP JUMPDEST POP DUP6 SWAP4 POP POP POP POP SWAP3 SWAP2 POP POP JUMP JUMPDEST PUSH1 0x0 PUSH1 0x20 DUP3 ADD SWAP1 POP DUP2 DUP2 SUB PUSH1 0x0 DUP4 ADD MSTORE PUSH2 0x218F DUP2 DUP5 PUSH2 0x2117 JUMP JUMPDEST SWAP1 POP SWAP3 SWAP2 POP POP JUMP JUMPDEST PUSH1 0x0 DUP1 PUSH1 0x0 DUP1 PUSH1 0x0 PUSH1 0xA0 DUP7 DUP9 SUB SLT ISZERO PUSH2 0x21B3 JUMPI PUSH2 0x21B2 PUSH2 0x1D17 JUMP JUMPDEST JUMPDEST PUSH1 0x0 PUSH2 0x21C1 DUP9 DUP3 DUP10 ADD PUSH2 0x1E1C JUMP JUMPDEST SWAP6 POP POP PUSH1 0x20 PUSH2 0x21D2 DUP9 DUP3 DUP10 ADD PUSH2 0x1E1C JUMP JUMPDEST SWAP5 POP POP PUSH1 0x40 PUSH2 0x21E3 DUP9 DUP3 DUP10 ADD PUSH2 0x1E1C JUMP JUMPDEST SWAP4 POP POP PUSH1 0x60 PUSH2 0x21F4 DUP9 DUP3 DUP10 ADD PUSH2 0x1E1C JUMP JUMPDEST SWAP3 POP POP PUSH1 0x80 PUSH2 0x2205 DUP9 DUP3 DUP10 ADD PUSH2 0x1E1C JUMP JUMPDEST SWAP2 POP POP SWAP3 SWAP6 POP SWAP3 SWAP6 SWAP1 SWAP4 POP JUMP JUMPDEST PUSH1 0x0 DUP2 ISZERO ISZERO SWAP1 POP SWAP2 SWAP1 POP JUMP JUMPDEST PUSH2 0x2227 DUP2 PUSH2 0x2212 JUMP JUMPDEST DUP3 MSTORE POP POP JUMP JUMPDEST PUSH1 0x0 PUSH1 0x20 DUP3 ADD SWAP1 POP PUSH2 0x2242 PUSH1 0x0 DUP4 ADD DUP5 PUSH2 0x221E JUMP JUMPDEST SWAP3 SWAP2 POP POP JUMP JUMPDEST PUSH1 0x0 DUP2 SWAP1 POP SWAP3 SWAP2 POP POP JUMP JUMPDEST PUSH2 0x225C DUP2 PUSH2 0x1FEE JUMP JUMPDEST PUSH2 0x2266 DUP2 DUP5 PUSH2 0x2248 JUMP JUMPDEST SWAP3 POP PUSH2 0x2271 DUP3 PUSH2 0x2004 JUMP JUMPDEST DUP1 PUSH1 0x0 JUMPDEST DUP4 DUP2 LT ISZERO PUSH2 0x22A2 JUMPI DUP2 MLOAD PUSH2 0x2289 DUP8 DUP3 PUSH2 0x201D JUMP JUMPDEST SWAP7 POP PUSH2 0x2294 DUP4 PUSH2 0x2035 JUMP JUMPDEST SWAP3 POP POP PUSH1 0x1 DUP2 ADD SWAP1 POP PUSH2 0x2275 JUMP JUMPDEST POP POP POP POP POP POP JUMP JUMPDEST PUSH1 0x0 PUSH1 0xA0 DUP3 ADD SWAP1 POP PUSH2 0x22BF PUSH1 0x0 DUP4 ADD DUP5 PUSH2 0x2253 JUMP JUMPDEST SWAP3 SWAP2 POP POP JUMP JUMPDEST PUSH32 0x4E487B7100000000000000000000000000000000000000000000000000000000 PUSH1 0x0 MSTORE PUSH1 0x32 PUSH1 0x4 MSTORE PUSH1 0x24 PUSH1 0x0 REVERT JUMPDEST PUSH32 0x4E487B7100000000000000000000000000000000000000000000000000000000 PUSH1 0x0 MSTORE PUSH1 0x11 PUSH1 0x4 MSTORE PUSH1 0x24 PUSH1 0x0 REVERT JUMPDEST PUSH1 0x0 PUSH2 0x232E DUP3 PUSH2 0x1DA7 JUMP JUMPDEST SWAP2 POP PUSH2 0x2339 DUP4 PUSH2 0x1DA7 JUMP JUMPDEST SWAP3 POP DUP3 DUP3 ADD SWAP1 POP DUP1 DUP3 GT ISZERO PUSH2 0x2351 JUMPI PUSH2 0x2350 PUSH2 0x22F4 JUMP JUMPDEST JUMPDEST SWAP3 SWAP2 POP POP JUMP JUMPDEST PUSH1 0x0 PUSH2 0x2362 DUP3 PUSH2 0x1DA7 JUMP JUMPDEST SWAP2 POP PUSH2 0x236D DUP4 PUSH2 0x1DA7 JUMP JUMPDEST SWAP3 POP DUP3 DUP3 SUB SWAP1 POP DUP2 DUP2 GT ISZERO PUSH2 0x2385 JUMPI PUSH2 0x2384 PUSH2 0x22F4 JUMP JUMPDEST JUMPDEST SWAP3 SWAP2 POP POP JUMP JUMPDEST PUSH1 0x0 PUSH2 0x2396 DUP3 PUSH2 0x1DA7 JUMP JUMPDEST SWAP2 POP PUSH32 0xFFFFFFFFFFFFFFFFFFFFFFFFFFFFFFFFFFFFFFFFFFFFFFFFFFFFFFFFFFFFFFFF DUP3 SUB PUSH2 0x23C8 JUMPI PUSH2 0x23C7 PUSH2 0x22F4 JUMP JUMPDEST JUMPDEST PUSH1 0x1 DUP3 ADD SWAP1 POP SWAP2 SWAP1 POP JUMP JUMPDEST PUSH1 0x0 PUSH2 0x23DE DUP3 PUSH2 0x1DA7 JUMP JUMPDEST SWAP2 POP PUSH2 0x23E9 DUP4 PUSH2 0x1DA7 JUMP JUMPDEST SWAP3 POP DUP3 DUP3 MUL PUSH2 0x23F7 DUP2 PUSH2 0x1DA7 JUMP JUMPDEST SWAP2 POP DUP3 DUP3 DIV DUP5 EQ DUP4 ISZERO OR PUSH2 0x240E JUMPI PUSH2 0x240D PUSH2 0x22F4 JUMP JUMPDEST JUMPDEST POP SWAP3 SWAP2 POP POP JUMP JUMPDEST PUSH32 0x4E487B7100000000000000000000000000000000000000000000000000000000 PUSH1 0x0 MSTORE PUSH1 0x12 PUSH1 0x4 MSTORE PUSH1 0x24 PUSH1 0x0 REVERT JUMPDEST PUSH1 0x0 PUSH2 0x244F DUP3 PUSH2 0x1DA7 JUMP JUMPDEST SWAP2 POP PUSH2 0x245A DUP4 PUSH2 0x1DA7 JUMP JUMPDEST SWAP3 POP DUP3 PUSH2 0x246A JUMPI PUSH2 0x2469 PUSH2 0x2415 JUMP JUMPDEST JUMPDEST DUP3 DUP3 DIV SWAP1 POP SWAP3 SWAP2 POP POP JUMP JUMPDEST PUSH1 0x0 DUP2 SWAP1 POP SWAP3 SWAP2 POP POP JUMP JUMPDEST POP JUMP JUMPDEST PUSH1 0x0 PUSH2 0x2490 PUSH1 0x0 DUP4 PUSH2 0x2475 JUMP JUMPDEST SWAP2 POP PUSH2 0x249B DUP3 PUSH2 0x2480 JUMP JUMPDEST PUSH1 0x0 DUP3 ADD SWAP1 POP SWAP2 SWAP1 POP JUMP JUMPDEST PUSH1 0x0 PUSH2 0x24B1 DUP3 PUSH2 0x2483 JUMP JUMPDEST SWAP2 POP DUP2 SWAP1 POP SWAP2 SWAP1 POP JUMP JUMPDEST PUSH1 0x0 DUP3 DUP3 MSTORE PUSH1 0x20 DUP3 ADD SWAP1 POP SWAP3 SWAP2 POP POP JUMP JUMPDEST PUSH32 0x4177617264207472616E73666572206661696C65640000000000000000000000 PUSH1 0x0 DUP3 ADD MSTORE POP JUMP JUMPDEST PUSH1 0x0 PUSH2 0x2502 PUSH1 0x15 DUP4 PUSH2 0x24BB JUMP JUMPDEST SWAP2 POP PUSH2 0x250D DUP3 PUSH2 0x24CC JUMP JUMPDEST PUSH1 0x20 DUP3 ADD SWAP1 POP SWAP2 SWAP1 POP JUMP JUMPDEST PUSH1 0x0 PUSH1 0x20 DUP3 ADD SWAP1 POP DUP2 DUP2 SUB PUSH1 0x0 DUP4 ADD MSTORE PUSH2 0x2531 DUP2 PUSH2 0x24F5 JUMP JUMPDEST SWAP1 POP SWAP2 SWAP1 POP JUMP JUMPDEST PUSH1 0x0 PUSH1 0x80 DUP3 ADD SWAP1 POP PUSH2 0x254D PUSH1 0x0 DUP4 ADD DUP8 PUSH2 0x1DDB JUMP JUMPDEST PUSH2 0x255A PUSH1 0x20 DUP4 ADD DUP7 PUSH2 0x1DB1 JUMP JUMPDEST PUSH2 0x2567 PUSH1 0x40 DUP4 ADD DUP6 PUSH2 0x1DB1 JUMP JUMPDEST PUSH2 0x2574 PUSH1 0x60 DUP4 ADD DUP5 PUSH2 0x1DB1 JUMP JUMPDEST SWAP6 SWAP5 POP POP POP POP POP JUMP JUMPDEST PUSH32 0x466565207472616E73666572206661696C656400000000000000000000000000 PUSH1 0x0 DUP3 ADD MSTORE POP JUMP JUMPDEST PUSH1 0x0 PUSH2 0x25B3 PUSH1 0x13 DUP4 PUSH2 0x24BB JUMP JUMPDEST SWAP2 POP PUSH2 0x25BE DUP3 PUSH2 0x257D JUMP JUMPDEST PUSH1 0x20 DUP3 ADD SWAP1 POP SWAP2 SWAP1 POP JUMP JUMPDEST PUSH1 0x0 PUSH1 0x20 DUP3 ADD SWAP1 POP DUP2 DUP2 SUB PUSH1 0x0 DUP4 ADD MSTORE PUSH2 0x25E2 DUP2 PUSH2 0x25A6 JUMP JUMPDEST SWAP1 POP SWAP2 SWAP1 POP JUMP JUMPDEST PUSH32 0x4E487B7100000000000000000000000000000000000000000000000000000000 PUSH1 0x0 MSTORE PUSH1 0x31 PUSH1 0x4 MSTORE PUSH1 0x24 PUSH1 0x0 REVERT JUMPDEST PUSH32 0x626164206F7065726174696F6E00000000000000000000000000000000000000 PUSH1 0x0 DUP3 ADD MSTORE POP JUMP JUMPDEST PUSH1 0x0 PUSH2 0x264E PUSH1 0xD DUP4 PUSH2 0x24BB JUMP JUMPDEST SWAP2 POP PUSH2 0x2659 DUP3 PUSH2 0x2618 JUMP JUMPDEST PUSH1 0x20 DUP3 ADD SWAP1 POP SWAP2 SWAP1 POP JUMP JUMPDEST PUSH1 0x0 PUSH1 0x20 DUP3 ADD SWAP1 POP DUP2 DUP2 SUB PUSH1 0x0 DUP4 ADD MSTORE PUSH2 0x267D DUP2 PUSH2 0x2641 JUMP JUMPDEST SWAP1 POP SWAP2 SWAP1 POP JUMP JUMPDEST PUSH1 0x0 PUSH1 0x60 DUP3 ADD SWAP1 POP PUSH2 0x2699 PUSH1 0x0 DUP4 ADD DUP7 PUSH2 0x1DDB JUMP JUMPDEST PUSH2 0x26A6 PUSH1 0x20 DUP4 ADD DUP6 PUSH2 0x1DB1 JUMP JUMPDEST PUSH2 0x26B3 PUSH1 0x40 DUP4 ADD DUP5 PUSH2 0x1DB1 JUMP JUMPDEST SWAP5 SWAP4 POP POP POP POP JUMP JUMPDEST PUSH32 0x4E6F7420656E6F756768207061796D656E740000000000000000000000000000 PUSH1 0x0 DUP3 ADD MSTORE POP JUMP JUMPDEST PUSH1 0x0 PUSH2 0x26F1 PUSH1 0x12 DUP4 PUSH2 0x24BB JUMP JUMPDEST SWAP2 POP PUSH2 0x26FC DUP3 PUSH2 0x26BB JUMP JUMPDEST PUSH1 0x20 DUP3 ADD SWAP1 POP SWAP2 SWAP1 POP JUMP JUMPDEST PUSH1 0x0 PUSH1 0x20 DUP3 ADD SWAP1 POP DUP2 DUP2 SUB PUSH1 0x0 DUP4 ADD MSTORE PUSH2 0x2720 DUP2 PUSH2 0x26E4 JUMP JUMPDEST SWAP1 POP SWAP2 SWAP1 POP JUMP JUMPDEST PUSH1 0x0 PUSH1 0x40 DUP3 ADD SWAP1 POP PUSH2 0x273C PUSH1 0x0 DUP4 ADD DUP6 PUSH2 0x1DDB JUMP JUMPDEST PUSH2 0x2749 PUSH1 0x20 DUP4 ADD DUP5 PUSH2 0x1DB1 JUMP JUMPDEST SWAP4 SWAP3 POP POP POP JUMP JUMPDEST PUSH32 0x4F776E61626C653A206E6577206F776E657220697320746865207A65726F2061 PUSH1 0x0 DUP3 ADD MSTORE PUSH32 0x6464726573730000000000000000000000000000000000000000000000000000 PUSH1 0x20 DUP3 ADD MSTORE POP JUMP JUMPDEST PUSH1 0x0 PUSH2 0x27AC PUSH1 0x26 DUP4 PUSH2 0x24BB JUMP JUMPDEST SWAP2 POP PUSH2 0x27B7 DUP3 PUSH2 0x2750 JUMP JUMPDEST PUSH1 0x40 DUP3 ADD SWAP1 POP SWAP2 SWAP1 POP JUMP JUMPDEST PUSH1 0x0 PUSH1 0x20 DUP3 ADD SWAP1 POP DUP2 DUP2 SUB PUSH1 0x0 DUP4 ADD MSTORE PUSH2 0x27DB DUP2 PUSH2 0x279F JUMP JUMPDEST SWAP1 POP SWAP2 SWAP1 POP JUMP JUMPDEST PUSH32 0x4F776E61626C653A2063616C6C6572206973206E6F7420746865206F776E6572 PUSH1 0x0 DUP3 ADD MSTORE POP JUMP JUMPDEST PUSH1 0x0 PUSH2 0x2818 PUSH1 0x20 DUP4 PUSH2 0x24BB JUMP JUMPDEST SWAP2 POP PUSH2 0x2823 DUP3 PUSH2 0x27E2 JUMP JUMPDEST PUSH1 0x20 DUP3 ADD SWAP1 POP SWAP2 SWAP1 POP JUMP JUMPDEST PUSH1 0x0 PUSH1 0x20 DUP3 ADD SWAP1 POP DUP2 DUP2 SUB PUSH1 0x0 DUP4 ADD MSTORE PUSH2 0x2847 DUP2 PUSH2 0x280B JUMP JUMPDEST SWAP1 POP SWAP2 SWAP1 POP JUMP JUMPDEST PUSH32 0x5265656E7472616E637947756172643A207265656E7472616E742063616C6C00 PUSH1 0x0 DUP3 ADD MSTORE POP JUMP JUMPDEST PUSH1 0x0 PUSH2 0x2884 PUSH1 0x1F DUP4 PUSH2 0x24BB JUMP JUMPDEST SWAP2 POP PUSH2 0x288F DUP3 PUSH2 0x284E JUMP JUMPDEST PUSH1 0x20 DUP3 ADD SWAP1 POP SWAP2 SWAP1 POP JUMP JUMPDEST PUSH1 0x0 PUSH1 0x20 DUP3 ADD SWAP1 POP DUP2 DUP2 SUB PUSH1 0x0 DUP4 ADD MSTORE PUSH2 0x28B3 DUP2 PUSH2 0x2877 JUMP JUMPDEST SWAP1 POP SWAP2 SWAP1 POP JUMP INVALID LOG2 PUSH5 0x6970667358 0x22 SLT KECCAK256 0xC7 CALLDATALOAD 0xF6 PUSH10 0xB9E2ECF9FEC4E943EA79 DUP14 STOP CALLER SWAP1 SWAP12 SWAP6 AND 0x4A 0xE DUP11 DUP5 DIFFICULTY SDIV 0xE6 0xF6 PUSH13 0x332764736F6C63430008110033 "
				},
				"gasEstimates": {
					"creation": {
						"codeDepositCost": "2096000",
						"executionCost": "infinite",
						"totalCost": "infinite"
					},
					"external": {
						"accAwards(address)": "2860",
						"accPoints(address)": "2946",
						"awardRecords(uint256)": "infinite",
						"awardShare(uint256)": "infinite",
						"awardize()": "infinite",
						"endGame(uint256)": "infinite",
						"getAwardRecords()": "infinite",
						"getAwardShare()": "infinite",
						"getParticipants()": "infinite",
						"getPlayers()": "infinite",
						"lastPlayedTimes(address)": "2903",
						"owner()": "2633",
						"participants(uint256)": "5090",
						"playable(address)": "2978",
						"players(uint256)": "5066",
						"price()": "2474",
						"renounceOwnership()": "30465",
						"setAward(uint256,uint256,uint256,uint256,uint256)": "infinite",
						"setPrice(uint256)": "24807",
						"setWithdrawAddress(address)": "27009",
						"startGame()": "infinite",
						"totalPoints(address)": "2882",
						"transferOwnership(address)": "30832",
						"withdrawAddress()": "2604"
					}
				},
				"methodIdentifiers": {
					"accAwards(address)": "094bb204",
					"accPoints(address)": "fa305949",
					"awardRecords(uint256)": "afc865dd",
					"awardShare(uint256)": "247bdda3",
					"awardize()": "073cd85f",
					"endGame(uint256)": "d0399bb8",
					"getAwardRecords()": "8fefec47",
					"getAwardShare()": "e4312377",
					"getParticipants()": "5aa68ac0",
					"getPlayers()": "8b5b9ccc",
					"lastPlayedTimes(address)": "b2eeed86",
					"owner()": "8da5cb5b",
					"participants(uint256)": "35c1d349",
					"playable(address)": "bdc78c95",
					"players(uint256)": "f71d96cb",
					"price()": "a035b1fe",
					"renounceOwnership()": "715018a6",
					"setAward(uint256,uint256,uint256,uint256,uint256)": "bbe192ba",
					"setPrice(uint256)": "91b7f5ed",
					"setWithdrawAddress(address)": "3ab1a494",
					"startGame()": "d65ab5f2",
					"totalPoints(address)": "0fac9100",
					"transferOwnership(address)": "f2fde38b",
					"withdrawAddress()": "1581b600"
				}
			},
			"storageLayout": {
				"storage": [
					{
						"astId": 7,
						"contract": "contracts/SnakeGame.sol:SnakeGame",
						"label": "_owner",
						"offset": 0,
						"slot": "0",
						"type": "t_address"
					},
					{
						"astId": 123,
						"contract": "contracts/SnakeGame.sol:SnakeGame",
						"label": "_status",
						"offset": 0,
						"slot": "1",
						"type": "t_uint256"
					},
					{
						"astId": 536,
						"contract": "contracts/SnakeGame.sol:SnakeGame",
						"label": "withdrawAddress",
						"offset": 0,
						"slot": "2",
						"type": "t_address"
					},
					{
						"astId": 546,
						"contract": "contracts/SnakeGame.sol:SnakeGame",
						"label": "awardShare",
						"offset": 0,
						"slot": "3",
						"type": "t_array(t_uint256)5_storage"
					},
					{
						"astId": 548,
						"contract": "contracts/SnakeGame.sol:SnakeGame",
						"label": "price",
						"offset": 0,
						"slot": "8",
						"type": "t_uint256"
					},
					{
						"astId": 551,
						"contract": "contracts/SnakeGame.sol:SnakeGame",
						"label": "players",
						"offset": 0,
						"slot": "9",
						"type": "t_array(t_address)dyn_storage"
					},
					{
						"astId": 555,
						"contract": "contracts/SnakeGame.sol:SnakeGame",
						"label": "accPoints",
						"offset": 0,
						"slot": "10",
						"type": "t_mapping(t_address,t_uint256)"
					},
					{
						"astId": 559,
						"contract": "contracts/SnakeGame.sol:SnakeGame",
						"label": "accAwards",
						"offset": 0,
						"slot": "11",
						"type": "t_mapping(t_address,t_uint256)"
					},
					{
						"astId": 563,
						"contract": "contracts/SnakeGame.sol:SnakeGame",
						"label": "playable",
						"offset": 0,
						"slot": "12",
						"type": "t_mapping(t_address,t_bool)"
					},
					{
						"astId": 567,
						"contract": "contracts/SnakeGame.sol:SnakeGame",
						"label": "awardRecords",
						"offset": 0,
						"slot": "13",
						"type": "t_array(t_struct(AwardRecord)530_storage)dyn_storage"
					},
					{
						"astId": 569,
						"contract": "contracts/SnakeGame.sol:SnakeGame",
						"label": "gameCount",
						"offset": 0,
						"slot": "14",
						"type": "t_uint256"
					},
					{
						"astId": 572,
						"contract": "contracts/SnakeGame.sol:SnakeGame",
						"label": "participants",
						"offset": 0,
						"slot": "15",
						"type": "t_array(t_address)dyn_storage"
					},
					{
						"astId": 576,
						"contract": "contracts/SnakeGame.sol:SnakeGame",
						"label": "totalPoints",
						"offset": 0,
						"slot": "16",
						"type": "t_mapping(t_address,t_uint256)"
					},
					{
						"astId": 580,
						"contract": "contracts/SnakeGame.sol:SnakeGame",
						"label": "lastPlayedTimes",
						"offset": 0,
						"slot": "17",
						"type": "t_mapping(t_address,t_uint256)"
					}
				],
				"types": {
					"t_address": {
						"encoding": "inplace",
						"label": "address",
						"numberOfBytes": "20"
					},
					"t_array(t_address)5_storage": {
						"base": "t_address",
						"encoding": "inplace",
						"label": "address[5]",
						"numberOfBytes": "160"
					},
					"t_array(t_address)dyn_storage": {
						"base": "t_address",
						"encoding": "dynamic_array",
						"label": "address[]",
						"numberOfBytes": "32"
					},
					"t_array(t_struct(AwardRecord)530_storage)dyn_storage": {
						"base": "t_struct(AwardRecord)530_storage",
						"encoding": "dynamic_array",
						"label": "struct SnakeGame.AwardRecord[]",
						"numberOfBytes": "32"
					},
					"t_array(t_uint256)5_storage": {
						"base": "t_uint256",
						"encoding": "inplace",
						"label": "uint256[5]",
						"numberOfBytes": "160"
					},
					"t_bool": {
						"encoding": "inplace",
						"label": "bool",
						"numberOfBytes": "1"
					},
					"t_mapping(t_address,t_bool)": {
						"encoding": "mapping",
						"key": "t_address",
						"label": "mapping(address => bool)",
						"numberOfBytes": "32",
						"value": "t_bool"
					},
					"t_mapping(t_address,t_uint256)": {
						"encoding": "mapping",
						"key": "t_address",
						"label": "mapping(address => uint256)",
						"numberOfBytes": "32",
						"value": "t_uint256"
					},
					"t_struct(AwardRecord)530_storage": {
						"encoding": "inplace",
						"label": "struct SnakeGame.AwardRecord",
						"members": [
							{
								"astId": 519,
								"contract": "contracts/SnakeGame.sol:SnakeGame",
								"label": "awardees",
								"offset": 0,
								"slot": "0",
								"type": "t_array(t_address)5_storage"
							},
							{
								"astId": 523,
								"contract": "contracts/SnakeGame.sol:SnakeGame",
								"label": "scores",
								"offset": 0,
								"slot": "5",
								"type": "t_array(t_uint256)5_storage"
							},
							{
								"astId": 527,
								"contract": "contracts/SnakeGame.sol:SnakeGame",
								"label": "amounts",
								"offset": 0,
								"slot": "10",
								"type": "t_array(t_uint256)5_storage"
							},
							{
								"astId": 529,
								"contract": "contracts/SnakeGame.sol:SnakeGame",
								"label": "timestamp",
								"offset": 0,
								"slot": "15",
								"type": "t_uint256"
							}
						],
						"numberOfBytes": "512"
					},
					"t_uint256": {
						"encoding": "inplace",
						"label": "uint256",
						"numberOfBytes": "32"
					}
				}
			},
			"userdoc": {
				"kind": "user",
				"methods": {},
				"version": 1
			}
		}
	}
}