{
	"contracts/MetisCasino.sol": {
		"MetisCasino": {
			"abi": [
				{
					"anonymous": false,
					"inputs": [
						{
							"indexed": false,
							"internalType": "address",
							"name": "player",
							"type": "address"
						},
						{
							"indexed": false,
							"internalType": "uint256",
							"name": "bet",
							"type": "uint256"
						},
						{
							"indexed": false,
							"internalType": "bool",
							"name": "win",
							"type": "bool"
						},
						{
							"indexed": false,
							"internalType": "uint256",
							"name": "timestamp",
							"type": "uint256"
						}
					],
					"name": "CoinFlip",
					"type": "event"
				},
				{
					"anonymous": false,
					"inputs": [
						{
							"indexed": true,
							"internalType": "address",
							"name": "previousOwner",
							"type": "address"
						},
						{
							"indexed": true,
							"internalType": "address",
							"name": "newOwner",
							"type": "address"
						}
					],
					"name": "OwnershipTransferred",
					"type": "event"
				},
				{
					"inputs": [
						{
							"internalType": "uint256",
							"name": "number",
							"type": "uint256"
						}
					],
					"name": "RNG",
					"outputs": [
						{
							"internalType": "uint256",
							"name": "",
							"type": "uint256"
						}
					],
					"stateMutability": "view",
					"type": "function"
				},
				{
					"inputs": [
						{
							"internalType": "address",
							"name": "",
							"type": "address"
						}
					],
					"name": "betAmounts",
					"outputs": [
						{
							"internalType": "uint256",
							"name": "",
							"type": "uint256"
						}
					],
					"stateMutability": "view",
					"type": "function"
				},
				{
					"inputs": [],
					"name": "donate",
					"outputs": [],
					"stateMutability": "payable",
					"type": "function"
				},
				{
					"inputs": [],
					"name": "flipCoin",
					"outputs": [
						{
							"internalType": "bool",
							"name": "",
							"type": "bool"
						}
					],
					"stateMutability": "payable",
					"type": "function"
				},
				{
					"inputs": [],
					"name": "owner",
					"outputs": [
						{
							"internalType": "address",
							"name": "",
							"type": "address"
						}
					],
					"stateMutability": "view",
					"type": "function"
				},
				{
					"inputs": [
						{
							"internalType": "uint256",
							"name": "",
							"type": "uint256"
						}
					],
					"name": "players",
					"outputs": [
						{
							"internalType": "address",
							"name": "",
							"type": "address"
						}
					],
					"stateMutability": "view",
					"type": "function"
				},
				{
					"inputs": [],
					"name": "renounceOwnership",
					"outputs": [],
					"stateMutability": "nonpayable",
					"type": "function"
				},
				{
					"inputs": [
						{
							"internalType": "address",
							"name": "newOwner",
							"type": "address"
						}
					],
					"name": "transferOwnership",
					"outputs": [],
					"stateMutability": "nonpayable",
					"type": "function"
				},
				{
					"inputs": [
						{
							"internalType": "address",
							"name": "",
							"type": "address"
						}
					],
					"name": "winAmounts",
					"outputs": [
						{
							"internalType": "uint256",
							"name": "",
							"type": "uint256"
						}
					],
					"stateMutability": "view",
					"type": "function"
				},
				{
					"inputs": [
						{
							"internalType": "address",
							"name": "withdrawAddress",
							"type": "address"
						},
						{
							"internalType": "uint256",
							"name": "amount",
							"type": "uint256"
						}
					],
					"name": "withdraw",
					"outputs": [],
					"stateMutability": "nonpayable",
					"type": "function"
				},
				{
					"stateMutability": "payable",
					"type": "receive"
				}
			],
			"devdoc": {
				"kind": "dev",
				"methods": {
					"owner()": {
						"details": "Returns the address of the current owner."
					},
					"renounceOwnership()": {
						"details": "Leaves the contract without owner. It will not be possible to call `onlyOwner` functions anymore. Can only be called by the current owner. NOTE: Renouncing ownership will leave the contract without an owner, thereby removing any functionality that is only available to the owner."
					},
					"transferOwnership(address)": {
						"details": "Transfers ownership of the contract to a new account (`newOwner`). Can only be called by the current owner."
					}
				},
				"version": 1
			},
			"evm": {
				"assembly": "    /* \"contracts/MetisCasino.sol\":318:1961  contract MetisCasino is Context, Ownable, ReentrancyGuard {... */\n  mstore(0x40, 0x80)\n  callvalue\n  dup1\n  iszero\n  tag_1\n  jumpi\n  0x00\n  dup1\n  revert\ntag_1:\n  pop\n    /* \"@openzeppelin/contracts/access/Ownable.sol\":936:968  _transferOwnership(_msgSender()) */\n  tag_5\n    /* \"@openzeppelin/contracts/access/Ownable.sol\":955:967  _msgSender() */\n  tag_6\n    /* \"@openzeppelin/contracts/access/Ownable.sol\":955:965  _msgSender */\n  shl(0x20, tag_7)\n    /* \"@openzeppelin/contracts/access/Ownable.sol\":955:967  _msgSender() */\n  0x20\n  shr\n  jump\t// in\ntag_6:\n    /* \"@openzeppelin/contracts/access/Ownable.sol\":936:954  _transferOwnership */\n  shl(0x20, tag_8)\n    /* \"@openzeppelin/contracts/access/Ownable.sol\":936:968  _transferOwnership(_msgSender()) */\n  0x20\n  shr\n  jump\t// in\ntag_5:\n    /* \"@openzeppelin/contracts/security/ReentrancyGuard.sol\":1716:1717  1 */\n  0x01\n    /* \"@openzeppelin/contracts/security/ReentrancyGuard.sol\":1821:1828  _status */\n  dup1\n    /* \"@openzeppelin/contracts/security/ReentrancyGuard.sol\":1821:1843  _status = _NOT_ENTERED */\n  dup2\n  swap1\n  sstore\n  pop\n    /* \"contracts/MetisCasino.sol\":318:1961  contract MetisCasino is Context, Ownable, ReentrancyGuard {... */\n  jump(tag_10)\n    /* \"@openzeppelin/contracts/utils/Context.sol\":640:736  function _msgSender() internal view virtual returns (address) {... */\ntag_7:\n    /* \"@openzeppelin/contracts/utils/Context.sol\":693:700  address */\n  0x00\n    /* \"@openzeppelin/contracts/utils/Context.sol\":719:729  msg.sender */\n  caller\n    /* \"@openzeppelin/contracts/utils/Context.sol\":712:729  return msg.sender */\n  swap1\n  pop\n    /* \"@openzeppelin/contracts/utils/Context.sol\":640:736  function _msgSender() internal view virtual returns (address) {... */\n  swap1\n  jump\t// out\n    /* \"@openzeppelin/contracts/access/Ownable.sol\":2433:2620  function _transferOwnership(address newOwner) internal virtual {... */\ntag_8:\n    /* \"@openzeppelin/contracts/access/Ownable.sol\":2506:2522  address oldOwner */\n  0x00\n    /* \"@openzeppelin/contracts/access/Ownable.sol\":2525:2531  _owner */\n  dup1\n  0x00\n  swap1\n  sload\n  swap1\n  0x0100\n  exp\n  swap1\n  div\n  0xffffffffffffffffffffffffffffffffffffffff\n  and\n    /* \"@openzeppelin/contracts/access/Ownable.sol\":2506:2531  address oldOwner = _owner */\n  swap1\n  pop\n    /* \"@openzeppelin/contracts/access/Ownable.sol\":2550:2558  newOwner */\n  dup2\n    /* \"@openzeppelin/contracts/access/Ownable.sol\":2541:2547  _owner */\n  0x00\n  dup1\n    /* \"@openzeppelin/contracts/access/Ownable.sol\":2541:2558  _owner = newOwner */\n  0x0100\n  exp\n  dup2\n  sload\n  dup2\n  0xffffffffffffffffffffffffffffffffffffffff\n  mul\n  not\n  and\n  swap1\n  dup4\n  0xffffffffffffffffffffffffffffffffffffffff\n  and\n  mul\n  or\n  swap1\n  sstore\n  pop\n    /* \"@openzeppelin/contracts/access/Ownable.sol\":2604:2612  newOwner */\n  dup2\n    /* \"@openzeppelin/contracts/access/Ownable.sol\":2573:2613  OwnershipTransferred(oldOwner, newOwner) */\n  0xffffffffffffffffffffffffffffffffffffffff\n  and\n    /* \"@openzeppelin/contracts/access/Ownable.sol\":2594:2602  oldOwner */\n  dup2\n    /* \"@openzeppelin/contracts/access/Ownable.sol\":2573:2613  OwnershipTransferred(oldOwner, newOwner) */\n  0xffffffffffffffffffffffffffffffffffffffff\n  and\n  0x8be0079c531659141344cd1fd0a4f28419497f9722a3daafe3b4186f6b6457e0\n  mload(0x40)\n  mload(0x40)\n  dup1\n  swap2\n  sub\n  swap1\n  log3\n    /* \"@openzeppelin/contracts/access/Ownable.sol\":2496:2620  {... */\n  pop\n    /* \"@openzeppelin/contracts/access/Ownable.sol\":2433:2620  function _transferOwnership(address newOwner) internal virtual {... */\n  pop\n  jump\t// out\n    /* \"contracts/MetisCasino.sol\":318:1961  contract MetisCasino is Context, Ownable, ReentrancyGuard {... */\ntag_10:\n  dataSize(sub_0)\n  dup1\n  dataOffset(sub_0)\n  0x00\n  codecopy\n  0x00\n  return\nstop\n\nsub_0: assembly {\n        /* \"contracts/MetisCasino.sol\":318:1961  contract MetisCasino is Context, Ownable, ReentrancyGuard {... */\n      mstore(0x40, 0x80)\n      jumpi(tag_1, lt(calldatasize, 0x04))\n      shr(0xe0, calldataload(0x00))\n      dup1\n      0xebcfcf6b\n      gt\n      tag_13\n      jumpi\n      dup1\n      0xebcfcf6b\n      eq\n      tag_8\n      jumpi\n      dup1\n      0xed88c68e\n      eq\n      tag_9\n      jumpi\n      dup1\n      0xf2fde38b\n      eq\n      tag_10\n      jumpi\n      dup1\n      0xf3fef3a3\n      eq\n      tag_11\n      jumpi\n      dup1\n      0xf71d96cb\n      eq\n      tag_12\n      jumpi\n      jump(tag_2)\n    tag_13:\n      dup1\n      0x715018a6\n      eq\n      tag_3\n      jumpi\n      dup1\n      0x799ae223\n      eq\n      tag_4\n      jumpi\n      dup1\n      0x8da5cb5b\n      eq\n      tag_5\n      jumpi\n      dup1\n      0xd4c6e781\n      eq\n      tag_6\n      jumpi\n      dup1\n      0xd5ea664f\n      eq\n      tag_7\n      jumpi\n      jump(tag_2)\n    tag_1:\n      jumpi(tag_2, calldatasize)\n      stop\n    tag_2:\n      0x00\n      dup1\n      revert\n        /* \"@openzeppelin/contracts/access/Ownable.sol\":1831:1932  function renounceOwnership() public virtual onlyOwner {... */\n    tag_3:\n      callvalue\n      dup1\n      iszero\n      tag_16\n      jumpi\n      0x00\n      dup1\n      revert\n    tag_16:\n      pop\n      tag_17\n      tag_18\n      jump\t// in\n    tag_17:\n      stop\n        /* \"contracts/MetisCasino.sol\":791:1514  function flipCoin()... */\n    tag_4:\n      tag_19\n      tag_20\n      jump\t// in\n    tag_19:\n      mload(0x40)\n      tag_21\n      swap2\n      swap1\n      tag_22\n      jump\t// in\n    tag_21:\n      mload(0x40)\n      dup1\n      swap2\n      sub\n      swap1\n      return\n        /* \"@openzeppelin/contracts/access/Ownable.sol\":1201:1286  function owner() public view virtual returns (address) {... */\n    tag_5:\n      callvalue\n      dup1\n      iszero\n      tag_23\n      jumpi\n      0x00\n      dup1\n      revert\n    tag_23:\n      pop\n      tag_24\n      tag_25\n      jump\t// in\n    tag_24:\n      mload(0x40)\n      tag_26\n      swap2\n      swap1\n      tag_27\n      jump\t// in\n    tag_26:\n      mload(0x40)\n      dup1\n      swap2\n      sub\n      swap1\n      return\n        /* \"contracts/MetisCasino.sol\":1598:1726  function RNG(uint256 number) public view returns (uint256) {... */\n    tag_6:\n      callvalue\n      dup1\n      iszero\n      tag_28\n      jumpi\n      0x00\n      dup1\n      revert\n    tag_28:\n      pop\n      tag_29\n      0x04\n      dup1\n      calldatasize\n      sub\n      dup2\n      add\n      swap1\n      tag_30\n      swap2\n      swap1\n      tag_31\n      jump\t// in\n    tag_30:\n      tag_32\n      jump\t// in\n    tag_29:\n      mload(0x40)\n      tag_33\n      swap2\n      swap1\n      tag_34\n      jump\t// in\n    tag_33:\n      mload(0x40)\n      dup1\n      swap2\n      sub\n      swap1\n      return\n        /* \"contracts/MetisCasino.sol\":496:541  mapping(address => uint256) public winAmounts */\n    tag_7:\n      callvalue\n      dup1\n      iszero\n      tag_35\n      jumpi\n      0x00\n      dup1\n      revert\n    tag_35:\n      pop\n      tag_36\n      0x04\n      dup1\n      calldatasize\n      sub\n      dup2\n      add\n      swap1\n      tag_37\n      swap2\n      swap1\n      tag_38\n      jump\t// in\n    tag_37:\n      tag_39\n      jump\t// in\n    tag_36:\n      mload(0x40)\n      tag_40\n      swap2\n      swap1\n      tag_34\n      jump\t// in\n    tag_40:\n      mload(0x40)\n      dup1\n      swap2\n      sub\n      swap1\n      return\n        /* \"contracts/MetisCasino.sol\":445:490  mapping(address => uint256) public betAmounts */\n    tag_8:\n      callvalue\n      dup1\n      iszero\n      tag_41\n      jumpi\n      0x00\n      dup1\n      revert\n    tag_41:\n      pop\n      tag_42\n      0x04\n      dup1\n      calldatasize\n      sub\n      dup2\n      add\n      swap1\n      tag_43\n      swap2\n      swap1\n      tag_38\n      jump\t// in\n    tag_43:\n      tag_44\n      jump\t// in\n    tag_42:\n      mload(0x40)\n      tag_45\n      swap2\n      swap1\n      tag_34\n      jump\t// in\n    tag_45:\n      mload(0x40)\n      dup1\n      swap2\n      sub\n      swap1\n      return\n        /* \"contracts/MetisCasino.sol\":1555:1592  function donate() external payable {} */\n    tag_9:\n      tag_46\n      tag_47\n      jump\t// in\n    tag_46:\n      stop\n        /* \"@openzeppelin/contracts/access/Ownable.sol\":2081:2279  function transferOwnership(address newOwner) public virtual onlyOwner {... */\n    tag_10:\n      callvalue\n      dup1\n      iszero\n      tag_48\n      jumpi\n      0x00\n      dup1\n      revert\n    tag_48:\n      pop\n      tag_49\n      0x04\n      dup1\n      calldatasize\n      sub\n      dup2\n      add\n      swap1\n      tag_50\n      swap2\n      swap1\n      tag_38\n      jump\t// in\n    tag_50:\n      tag_51\n      jump\t// in\n    tag_49:\n      stop\n        /* \"contracts/MetisCasino.sol\":1732:1959  function withdraw(address withdrawAddress, uint256 amount)... */\n    tag_11:\n      callvalue\n      dup1\n      iszero\n      tag_52\n      jumpi\n      0x00\n      dup1\n      revert\n    tag_52:\n      pop\n      tag_53\n      0x04\n      dup1\n      calldatasize\n      sub\n      dup2\n      add\n      swap1\n      tag_54\n      swap2\n      swap1\n      tag_55\n      jump\t// in\n    tag_54:\n      tag_56\n      jump\t// in\n    tag_53:\n      stop\n        /* \"contracts/MetisCasino.sol\":415:439  address[] public players */\n    tag_12:\n      callvalue\n      dup1\n      iszero\n      tag_57\n      jumpi\n      0x00\n      dup1\n      revert\n    tag_57:\n      pop\n      tag_58\n      0x04\n      dup1\n      calldatasize\n      sub\n      dup2\n      add\n      swap1\n      tag_59\n      swap2\n      swap1\n      tag_31\n      jump\t// in\n    tag_59:\n      tag_60\n      jump\t// in\n    tag_58:\n      mload(0x40)\n      tag_61\n      swap2\n      swap1\n      tag_27\n      jump\t// in\n    tag_61:\n      mload(0x40)\n      dup1\n      swap2\n      sub\n      swap1\n      return\n        /* \"@openzeppelin/contracts/access/Ownable.sol\":1831:1932  function renounceOwnership() public virtual onlyOwner {... */\n    tag_18:\n        /* \"@openzeppelin/contracts/access/Ownable.sol\":1094:1107  _checkOwner() */\n      tag_63\n        /* \"@openzeppelin/contracts/access/Ownable.sol\":1094:1105  _checkOwner */\n      tag_64\n        /* \"@openzeppelin/contracts/access/Ownable.sol\":1094:1107  _checkOwner() */\n      jump\t// in\n    tag_63:\n        /* \"@openzeppelin/contracts/access/Ownable.sol\":1895:1925  _transferOwnership(address(0)) */\n      tag_66\n        /* \"@openzeppelin/contracts/access/Ownable.sol\":1922:1923  0 */\n      0x00\n        /* \"@openzeppelin/contracts/access/Ownable.sol\":1895:1913  _transferOwnership */\n      tag_67\n        /* \"@openzeppelin/contracts/access/Ownable.sol\":1895:1925  _transferOwnership(address(0)) */\n      jump\t// in\n    tag_66:\n        /* \"@openzeppelin/contracts/access/Ownable.sol\":1831:1932  function renounceOwnership() public virtual onlyOwner {... */\n      jump\t// out\n        /* \"contracts/MetisCasino.sol\":791:1514  function flipCoin()... */\n    tag_20:\n        /* \"contracts/MetisCasino.sol\":905:909  bool */\n      0x00\n        /* \"contracts/MetisCasino.sol\":646:647  0 */\n      dup1\n        /* \"contracts/MetisCasino.sol\":634:643  msg.value */\n      callvalue\n        /* \"contracts/MetisCasino.sol\":634:647  msg.value > 0 */\n      gt\n        /* \"contracts/MetisCasino.sol\":626:670  require(msg.value > 0, \"Not enough payment\") */\n      tag_69\n      jumpi\n      mload(0x40)\n      0x08c379a000000000000000000000000000000000000000000000000000000000\n      dup2\n      mstore\n      0x04\n      add\n      tag_70\n      swap1\n      tag_71\n      jump\t// in\n    tag_70:\n      mload(0x40)\n      dup1\n      swap2\n      sub\n      swap1\n      revert\n    tag_69:\n        /* \"@openzeppelin/contracts/security/ReentrancyGuard.sol\":2261:2282  _nonReentrantBefore() */\n      tag_73\n        /* \"@openzeppelin/contracts/security/ReentrancyGuard.sol\":2261:2280  _nonReentrantBefore */\n      tag_74\n        /* \"@openzeppelin/contracts/security/ReentrancyGuard.sol\":2261:2282  _nonReentrantBefore() */\n      jump\t// in\n    tag_73:\n        /* \"contracts/MetisCasino.sol\":957:958  0 */\n      0x00\n        /* \"contracts/MetisCasino.sol\":929:939  betAmounts */\n      0x03\n        /* \"contracts/MetisCasino.sol\":929:953  betAmounts[_msgSender()] */\n      0x00\n        /* \"contracts/MetisCasino.sol\":940:952  _msgSender() */\n      tag_76\n        /* \"contracts/MetisCasino.sol\":940:950  _msgSender */\n      tag_77\n        /* \"contracts/MetisCasino.sol\":940:952  _msgSender() */\n      jump\t// in\n    tag_76:\n        /* \"contracts/MetisCasino.sol\":929:953  betAmounts[_msgSender()] */\n      0xffffffffffffffffffffffffffffffffffffffff\n      and\n      0xffffffffffffffffffffffffffffffffffffffff\n      and\n      dup2\n      mstore\n      0x20\n      add\n      swap1\n      dup2\n      mstore\n      0x20\n      add\n      0x00\n      keccak256\n      sload\n        /* \"contracts/MetisCasino.sol\":929:958  betAmounts[_msgSender()] == 0 */\n      sub\n        /* \"contracts/MetisCasino.sol\":925:1011  if (betAmounts[_msgSender()] == 0) {... */\n      tag_78\n      jumpi\n        /* \"contracts/MetisCasino.sol\":974:981  players */\n      0x02\n        /* \"contracts/MetisCasino.sol\":987:999  _msgSender() */\n      tag_79\n        /* \"contracts/MetisCasino.sol\":987:997  _msgSender */\n      tag_77\n        /* \"contracts/MetisCasino.sol\":987:999  _msgSender() */\n      jump\t// in\n    tag_79:\n        /* \"contracts/MetisCasino.sol\":974:1000  players.push(_msgSender()) */\n      swap1\n      dup1\n      0x01\n      dup2\n      sload\n      add\n      dup1\n      dup3\n      sstore\n      dup1\n      swap2\n      pop\n      pop\n      0x01\n      swap1\n      sub\n      swap1\n      0x00\n      mstore\n      keccak256(0x00, 0x20)\n      add\n      0x00\n      swap1\n      swap2\n      swap1\n      swap2\n      swap1\n      swap2\n      0x0100\n      exp\n      dup2\n      sload\n      dup2\n      0xffffffffffffffffffffffffffffffffffffffff\n      mul\n      not\n      and\n      swap1\n      dup4\n      0xffffffffffffffffffffffffffffffffffffffff\n      and\n      mul\n      or\n      swap1\n      sstore\n      pop\n        /* \"contracts/MetisCasino.sol\":925:1011  if (betAmounts[_msgSender()] == 0) {... */\n    tag_78:\n        /* \"contracts/MetisCasino.sol\":1048:1057  msg.value */\n      callvalue\n        /* \"contracts/MetisCasino.sol\":1020:1030  betAmounts */\n      0x03\n        /* \"contracts/MetisCasino.sol\":1020:1044  betAmounts[_msgSender()] */\n      0x00\n        /* \"contracts/MetisCasino.sol\":1031:1043  _msgSender() */\n      tag_81\n        /* \"contracts/MetisCasino.sol\":1031:1041  _msgSender */\n      tag_77\n        /* \"contracts/MetisCasino.sol\":1031:1043  _msgSender() */\n      jump\t// in\n    tag_81:\n        /* \"contracts/MetisCasino.sol\":1020:1044  betAmounts[_msgSender()] */\n      0xffffffffffffffffffffffffffffffffffffffff\n      and\n      0xffffffffffffffffffffffffffffffffffffffff\n      and\n      dup2\n      mstore\n      0x20\n      add\n      swap1\n      dup2\n      mstore\n      0x20\n      add\n      0x00\n      keccak256\n      0x00\n        /* \"contracts/MetisCasino.sol\":1020:1057  betAmounts[_msgSender()] += msg.value */\n      dup3\n      dup3\n      sload\n      tag_82\n      swap2\n      swap1\n      tag_83\n      jump\t// in\n    tag_82:\n      swap3\n      pop\n      pop\n      dup2\n      swap1\n      sstore\n      pop\n        /* \"contracts/MetisCasino.sol\":1081:1082  1 */\n      0x01\n        /* \"contracts/MetisCasino.sol\":1071:1077  RNG(2) */\n      tag_84\n        /* \"contracts/MetisCasino.sol\":1075:1076  2 */\n      0x02\n        /* \"contracts/MetisCasino.sol\":1071:1074  RNG */\n      tag_32\n        /* \"contracts/MetisCasino.sol\":1071:1077  RNG(2) */\n      jump\t// in\n    tag_84:\n        /* \"contracts/MetisCasino.sol\":1071:1082  RNG(2) == 1 */\n      sub\n        /* \"contracts/MetisCasino.sol\":1067:1414  if (RNG(2) == 1) {... */\n      tag_85\n      jumpi\n        /* \"contracts/MetisCasino.sol\":1099:1111  bool success */\n      0x00\n        /* \"contracts/MetisCasino.sol\":1125:1137  _msgSender() */\n      tag_86\n        /* \"contracts/MetisCasino.sol\":1125:1135  _msgSender */\n      tag_77\n        /* \"contracts/MetisCasino.sol\":1125:1137  _msgSender() */\n      jump\t// in\n    tag_86:\n        /* \"contracts/MetisCasino.sol\":1117:1143  payable(_msgSender()).call */\n      0xffffffffffffffffffffffffffffffffffffffff\n      and\n        /* \"contracts/MetisCasino.sol\":1163:1164  2 */\n      0x02\n        /* \"contracts/MetisCasino.sol\":1151:1160  msg.value */\n      callvalue\n        /* \"contracts/MetisCasino.sol\":1151:1164  msg.value * 2 */\n      tag_87\n      swap2\n      swap1\n      tag_88\n      jump\t// in\n    tag_87:\n        /* \"contracts/MetisCasino.sol\":1117:1199  payable(_msgSender()).call{value: msg.value * 2}(... */\n      mload(0x40)\n      tag_89\n      swap1\n      tag_90\n      jump\t// in\n    tag_89:\n      0x00\n      mload(0x40)\n      dup1\n      dup4\n      sub\n      dup2\n      dup6\n      dup8\n      gas\n      call\n      swap3\n      pop\n      pop\n      pop\n      returndatasize\n      dup1\n      0x00\n      dup2\n      eq\n      tag_93\n      jumpi\n      mload(0x40)\n      swap2\n      pop\n      and(add(returndatasize, 0x3f), not(0x1f))\n      dup3\n      add\n      0x40\n      mstore\n      returndatasize\n      dup3\n      mstore\n      returndatasize\n      0x00\n      0x20\n      dup5\n      add\n      returndatacopy\n      jump(tag_92)\n    tag_93:\n      0x60\n      swap2\n      pop\n    tag_92:\n      pop\n        /* \"contracts/MetisCasino.sol\":1098:1199  (bool success, ) = payable(_msgSender()).call{value: msg.value * 2}(... */\n      pop\n      swap1\n      pop\n        /* \"contracts/MetisCasino.sol\":1221:1228  success */\n      dup1\n        /* \"contracts/MetisCasino.sol\":1213:1248  require(success, \"Transfer failed\") */\n      tag_94\n      jumpi\n      mload(0x40)\n      0x08c379a000000000000000000000000000000000000000000000000000000000\n      dup2\n      mstore\n      0x04\n      add\n      tag_95\n      swap1\n      tag_96\n      jump\t// in\n    tag_95:\n      mload(0x40)\n      dup1\n      swap2\n      sub\n      swap1\n      revert\n    tag_94:\n        /* \"contracts/MetisCasino.sol\":1302:1303  2 */\n      0x02\n        /* \"contracts/MetisCasino.sol\":1290:1299  msg.value */\n      callvalue\n        /* \"contracts/MetisCasino.sol\":1290:1303  msg.value * 2 */\n      tag_97\n      swap2\n      swap1\n      tag_88\n      jump\t// in\n    tag_97:\n        /* \"contracts/MetisCasino.sol\":1262:1272  winAmounts */\n      0x04\n        /* \"contracts/MetisCasino.sol\":1262:1286  winAmounts[_msgSender()] */\n      0x00\n        /* \"contracts/MetisCasino.sol\":1273:1285  _msgSender() */\n      tag_98\n        /* \"contracts/MetisCasino.sol\":1273:1283  _msgSender */\n      tag_77\n        /* \"contracts/MetisCasino.sol\":1273:1285  _msgSender() */\n      jump\t// in\n    tag_98:\n        /* \"contracts/MetisCasino.sol\":1262:1286  winAmounts[_msgSender()] */\n      0xffffffffffffffffffffffffffffffffffffffff\n      and\n      0xffffffffffffffffffffffffffffffffffffffff\n      and\n      dup2\n      mstore\n      0x20\n      add\n      swap1\n      dup2\n      mstore\n      0x20\n      add\n      0x00\n      keccak256\n      0x00\n        /* \"contracts/MetisCasino.sol\":1262:1303  winAmounts[_msgSender()] += msg.value * 2 */\n      dup3\n      dup3\n      sload\n      tag_99\n      swap2\n      swap1\n      tag_83\n      jump\t// in\n    tag_99:\n      swap3\n      pop\n      pop\n      dup2\n      swap1\n      sstore\n      pop\n        /* \"contracts/MetisCasino.sol\":1322:1378  CoinFlip(_msgSender(), msg.value, true, block.timestamp) */\n      0xa879484791d530a16ed14b173b1ea9e94875683fe3c3761d7ba6a1a23d7bb805\n        /* \"contracts/MetisCasino.sol\":1331:1343  _msgSender() */\n      tag_100\n        /* \"contracts/MetisCasino.sol\":1331:1341  _msgSender */\n      tag_77\n        /* \"contracts/MetisCasino.sol\":1331:1343  _msgSender() */\n      jump\t// in\n    tag_100:\n        /* \"contracts/MetisCasino.sol\":1345:1354  msg.value */\n      callvalue\n        /* \"contracts/MetisCasino.sol\":1356:1360  true */\n      0x01\n        /* \"contracts/MetisCasino.sol\":1362:1377  block.timestamp */\n      timestamp\n        /* \"contracts/MetisCasino.sol\":1322:1378  CoinFlip(_msgSender(), msg.value, true, block.timestamp) */\n      mload(0x40)\n      tag_101\n      swap5\n      swap4\n      swap3\n      swap2\n      swap1\n      tag_102\n      jump\t// in\n    tag_101:\n      mload(0x40)\n      dup1\n      swap2\n      sub\n      swap1\n      log1\n        /* \"contracts/MetisCasino.sol\":1399:1403  true */\n      0x01\n        /* \"contracts/MetisCasino.sol\":1392:1403  return true */\n      swap2\n      pop\n      pop\n      jump(tag_75)\n        /* \"contracts/MetisCasino.sol\":1067:1414  if (RNG(2) == 1) {... */\n    tag_85:\n        /* \"contracts/MetisCasino.sol\":1428:1485  CoinFlip(_msgSender(), msg.value, false, block.timestamp) */\n      0xa879484791d530a16ed14b173b1ea9e94875683fe3c3761d7ba6a1a23d7bb805\n        /* \"contracts/MetisCasino.sol\":1437:1449  _msgSender() */\n      tag_103\n        /* \"contracts/MetisCasino.sol\":1437:1447  _msgSender */\n      tag_77\n        /* \"contracts/MetisCasino.sol\":1437:1449  _msgSender() */\n      jump\t// in\n    tag_103:\n        /* \"contracts/MetisCasino.sol\":1451:1460  msg.value */\n      callvalue\n        /* \"contracts/MetisCasino.sol\":1462:1467  false */\n      0x00\n        /* \"contracts/MetisCasino.sol\":1469:1484  block.timestamp */\n      timestamp\n        /* \"contracts/MetisCasino.sol\":1428:1485  CoinFlip(_msgSender(), msg.value, false, block.timestamp) */\n      mload(0x40)\n      tag_104\n      swap5\n      swap4\n      swap3\n      swap2\n      swap1\n      tag_102\n      jump\t// in\n    tag_104:\n      mload(0x40)\n      dup1\n      swap2\n      sub\n      swap1\n      log1\n        /* \"contracts/MetisCasino.sol\":1502:1507  false */\n      0x00\n        /* \"contracts/MetisCasino.sol\":1495:1507  return false */\n      swap1\n      pop\n        /* \"@openzeppelin/contracts/security/ReentrancyGuard.sol\":2292:2293  _ */\n    tag_75:\n        /* \"@openzeppelin/contracts/security/ReentrancyGuard.sol\":2303:2323  _nonReentrantAfter() */\n      tag_105\n        /* \"@openzeppelin/contracts/security/ReentrancyGuard.sol\":2303:2321  _nonReentrantAfter */\n      tag_106\n        /* \"@openzeppelin/contracts/security/ReentrancyGuard.sol\":2303:2323  _nonReentrantAfter() */\n      jump\t// in\n    tag_105:\n        /* \"contracts/MetisCasino.sol\":791:1514  function flipCoin()... */\n      swap1\n      jump\t// out\n        /* \"@openzeppelin/contracts/access/Ownable.sol\":1201:1286  function owner() public view virtual returns (address) {... */\n    tag_25:\n        /* \"@openzeppelin/contracts/access/Ownable.sol\":1247:1254  address */\n      0x00\n        /* \"@openzeppelin/contracts/access/Ownable.sol\":1273:1279  _owner */\n      dup1\n      0x00\n      swap1\n      sload\n      swap1\n      0x0100\n      exp\n      swap1\n      div\n      0xffffffffffffffffffffffffffffffffffffffff\n      and\n        /* \"@openzeppelin/contracts/access/Ownable.sol\":1266:1279  return _owner */\n      swap1\n      pop\n        /* \"@openzeppelin/contracts/access/Ownable.sol\":1201:1286  function owner() public view virtual returns (address) {... */\n      swap1\n      jump\t// out\n        /* \"contracts/MetisCasino.sol\":1598:1726  function RNG(uint256 number) public view returns (uint256) {... */\n    tag_32:\n        /* \"contracts/MetisCasino.sol\":1648:1655  uint256 */\n      0x00\n        /* \"contracts/MetisCasino.sol\":1713:1719  number */\n      dup2\n        /* \"contracts/MetisCasino.sol\":1707:1708  1 */\n      0x01\n        /* \"contracts/MetisCasino.sol\":1692:1704  block.number */\n      number\n        /* \"contracts/MetisCasino.sol\":1692:1708  block.number - 1 */\n      tag_109\n      swap2\n      swap1\n      tag_110\n      jump\t// in\n    tag_109:\n        /* \"contracts/MetisCasino.sol\":1682:1709  blockhash(block.number - 1) */\n      blockhash\n        /* \"contracts/MetisCasino.sol\":1674:1710  uint256(blockhash(block.number - 1)) */\n      0x00\n      shr\n        /* \"contracts/MetisCasino.sol\":1674:1719  uint256(blockhash(block.number - 1)) % number */\n      tag_111\n      swap2\n      swap1\n      tag_112\n      jump\t// in\n    tag_111:\n        /* \"contracts/MetisCasino.sol\":1667:1719  return uint256(blockhash(block.number - 1)) % number */\n      swap1\n      pop\n        /* \"contracts/MetisCasino.sol\":1598:1726  function RNG(uint256 number) public view returns (uint256) {... */\n      swap2\n      swap1\n      pop\n      jump\t// out\n        /* \"contracts/MetisCasino.sol\":496:541  mapping(address => uint256) public winAmounts */\n    tag_39:\n      mstore(0x20, 0x04)\n      dup1\n      0x00\n      mstore\n      keccak256(0x00, 0x40)\n      0x00\n      swap2\n      pop\n      swap1\n      pop\n      sload\n      dup2\n      jump\t// out\n        /* \"contracts/MetisCasino.sol\":445:490  mapping(address => uint256) public betAmounts */\n    tag_44:\n      mstore(0x20, 0x03)\n      dup1\n      0x00\n      mstore\n      keccak256(0x00, 0x40)\n      0x00\n      swap2\n      pop\n      swap1\n      pop\n      sload\n      dup2\n      jump\t// out\n        /* \"contracts/MetisCasino.sol\":1555:1592  function donate() external payable {} */\n    tag_47:\n      jump\t// out\n        /* \"@openzeppelin/contracts/access/Ownable.sol\":2081:2279  function transferOwnership(address newOwner) public virtual onlyOwner {... */\n    tag_51:\n        /* \"@openzeppelin/contracts/access/Ownable.sol\":1094:1107  _checkOwner() */\n      tag_115\n        /* \"@openzeppelin/contracts/access/Ownable.sol\":1094:1105  _checkOwner */\n      tag_64\n        /* \"@openzeppelin/contracts/access/Ownable.sol\":1094:1107  _checkOwner() */\n      jump\t// in\n    tag_115:\n        /* \"@openzeppelin/contracts/access/Ownable.sol\":2189:2190  0 */\n      0x00\n        /* \"@openzeppelin/contracts/access/Ownable.sol\":2169:2191  newOwner != address(0) */\n      0xffffffffffffffffffffffffffffffffffffffff\n      and\n        /* \"@openzeppelin/contracts/access/Ownable.sol\":2169:2177  newOwner */\n      dup2\n        /* \"@openzeppelin/contracts/access/Ownable.sol\":2169:2191  newOwner != address(0) */\n      0xffffffffffffffffffffffffffffffffffffffff\n      and\n      sub\n        /* \"@openzeppelin/contracts/access/Ownable.sol\":2161:2234  require(newOwner != address(0), \"Ownable: new owner is the zero address\") */\n      tag_117\n      jumpi\n      mload(0x40)\n      0x08c379a000000000000000000000000000000000000000000000000000000000\n      dup2\n      mstore\n      0x04\n      add\n      tag_118\n      swap1\n      tag_119\n      jump\t// in\n    tag_118:\n      mload(0x40)\n      dup1\n      swap2\n      sub\n      swap1\n      revert\n    tag_117:\n        /* \"@openzeppelin/contracts/access/Ownable.sol\":2244:2272  _transferOwnership(newOwner) */\n      tag_120\n        /* \"@openzeppelin/contracts/access/Ownable.sol\":2263:2271  newOwner */\n      dup2\n        /* \"@openzeppelin/contracts/access/Ownable.sol\":2244:2262  _transferOwnership */\n      tag_67\n        /* \"@openzeppelin/contracts/access/Ownable.sol\":2244:2272  _transferOwnership(newOwner) */\n      jump\t// in\n    tag_120:\n        /* \"@openzeppelin/contracts/access/Ownable.sol\":2081:2279  function transferOwnership(address newOwner) public virtual onlyOwner {... */\n      pop\n      jump\t// out\n        /* \"contracts/MetisCasino.sol\":1732:1959  function withdraw(address withdrawAddress, uint256 amount)... */\n    tag_56:\n        /* \"@openzeppelin/contracts/access/Ownable.sol\":1094:1107  _checkOwner() */\n      tag_122\n        /* \"@openzeppelin/contracts/access/Ownable.sol\":1094:1105  _checkOwner */\n      tag_64\n        /* \"@openzeppelin/contracts/access/Ownable.sol\":1094:1107  _checkOwner() */\n      jump\t// in\n    tag_122:\n        /* \"contracts/MetisCasino.sol\":1841:1853  bool success */\n      0x00\n        /* \"contracts/MetisCasino.sol\":1867:1882  withdrawAddress */\n      dup3\n        /* \"contracts/MetisCasino.sol\":1859:1888  payable(withdrawAddress).call */\n      0xffffffffffffffffffffffffffffffffffffffff\n      and\n        /* \"contracts/MetisCasino.sol\":1896:1902  amount */\n      dup3\n        /* \"contracts/MetisCasino.sol\":1859:1907  payable(withdrawAddress).call{value: amount}(\"\") */\n      mload(0x40)\n      tag_124\n      swap1\n      tag_90\n      jump\t// in\n    tag_124:\n      0x00\n      mload(0x40)\n      dup1\n      dup4\n      sub\n      dup2\n      dup6\n      dup8\n      gas\n      call\n      swap3\n      pop\n      pop\n      pop\n      returndatasize\n      dup1\n      0x00\n      dup2\n      eq\n      tag_127\n      jumpi\n      mload(0x40)\n      swap2\n      pop\n      and(add(returndatasize, 0x3f), not(0x1f))\n      dup3\n      add\n      0x40\n      mstore\n      returndatasize\n      dup3\n      mstore\n      returndatasize\n      0x00\n      0x20\n      dup5\n      add\n      returndatacopy\n      jump(tag_126)\n    tag_127:\n      0x60\n      swap2\n      pop\n    tag_126:\n      pop\n        /* \"contracts/MetisCasino.sol\":1840:1907  (bool success, ) = payable(withdrawAddress).call{value: amount}(\"\") */\n      pop\n      swap1\n      pop\n        /* \"contracts/MetisCasino.sol\":1925:1932  success */\n      dup1\n        /* \"contracts/MetisCasino.sol\":1917:1952  require(success, \"Withdraw failed\") */\n      tag_128\n      jumpi\n      mload(0x40)\n      0x08c379a000000000000000000000000000000000000000000000000000000000\n      dup2\n      mstore\n      0x04\n      add\n      tag_129\n      swap1\n      tag_130\n      jump\t// in\n    tag_129:\n      mload(0x40)\n      dup1\n      swap2\n      sub\n      swap1\n      revert\n    tag_128:\n        /* \"contracts/MetisCasino.sol\":1830:1959  {... */\n      pop\n        /* \"contracts/MetisCasino.sol\":1732:1959  function withdraw(address withdrawAddress, uint256 amount)... */\n      pop\n      pop\n      jump\t// out\n        /* \"contracts/MetisCasino.sol\":415:439  address[] public players */\n    tag_60:\n      0x02\n      dup2\n      dup2\n      sload\n      dup2\n      lt\n      tag_131\n      jumpi\n      0x00\n      dup1\n      revert\n    tag_131:\n      swap1\n      0x00\n      mstore\n      keccak256(0x00, 0x20)\n      add\n      0x00\n      swap2\n      pop\n      sload\n      swap1\n      0x0100\n      exp\n      swap1\n      div\n      0xffffffffffffffffffffffffffffffffffffffff\n      and\n      dup2\n      jump\t// out\n        /* \"@openzeppelin/contracts/access/Ownable.sol\":1359:1489  function _checkOwner() internal view virtual {... */\n    tag_64:\n        /* \"@openzeppelin/contracts/access/Ownable.sol\":1433:1445  _msgSender() */\n      tag_134\n        /* \"@openzeppelin/contracts/access/Ownable.sol\":1433:1443  _msgSender */\n      tag_77\n        /* \"@openzeppelin/contracts/access/Ownable.sol\":1433:1445  _msgSender() */\n      jump\t// in\n    tag_134:\n        /* \"@openzeppelin/contracts/access/Ownable.sol\":1422:1445  owner() == _msgSender() */\n      0xffffffffffffffffffffffffffffffffffffffff\n      and\n        /* \"@openzeppelin/contracts/access/Ownable.sol\":1422:1429  owner() */\n      tag_135\n        /* \"@openzeppelin/contracts/access/Ownable.sol\":1422:1427  owner */\n      tag_25\n        /* \"@openzeppelin/contracts/access/Ownable.sol\":1422:1429  owner() */\n      jump\t// in\n    tag_135:\n        /* \"@openzeppelin/contracts/access/Ownable.sol\":1422:1445  owner() == _msgSender() */\n      0xffffffffffffffffffffffffffffffffffffffff\n      and\n      eq\n        /* \"@openzeppelin/contracts/access/Ownable.sol\":1414:1482  require(owner() == _msgSender(), \"Ownable: caller is not the owner\") */\n      tag_136\n      jumpi\n      mload(0x40)\n      0x08c379a000000000000000000000000000000000000000000000000000000000\n      dup2\n      mstore\n      0x04\n      add\n      tag_137\n      swap1\n      tag_138\n      jump\t// in\n    tag_137:\n      mload(0x40)\n      dup1\n      swap2\n      sub\n      swap1\n      revert\n    tag_136:\n        /* \"@openzeppelin/contracts/access/Ownable.sol\":1359:1489  function _checkOwner() internal view virtual {... */\n      jump\t// out\n        /* \"@openzeppelin/contracts/access/Ownable.sol\":2433:2620  function _transferOwnership(address newOwner) internal virtual {... */\n    tag_67:\n        /* \"@openzeppelin/contracts/access/Ownable.sol\":2506:2522  address oldOwner */\n      0x00\n        /* \"@openzeppelin/contracts/access/Ownable.sol\":2525:2531  _owner */\n      dup1\n      0x00\n      swap1\n      sload\n      swap1\n      0x0100\n      exp\n      swap1\n      div\n      0xffffffffffffffffffffffffffffffffffffffff\n      and\n        /* \"@openzeppelin/contracts/access/Ownable.sol\":2506:2531  address oldOwner = _owner */\n      swap1\n      pop\n        /* \"@openzeppelin/contracts/access/Ownable.sol\":2550:2558  newOwner */\n      dup2\n        /* \"@openzeppelin/contracts/access/Ownable.sol\":2541:2547  _owner */\n      0x00\n      dup1\n        /* \"@openzeppelin/contracts/access/Ownable.sol\":2541:2558  _owner = newOwner */\n      0x0100\n      exp\n      dup2\n      sload\n      dup2\n      0xffffffffffffffffffffffffffffffffffffffff\n      mul\n      not\n      and\n      swap1\n      dup4\n      0xffffffffffffffffffffffffffffffffffffffff\n      and\n      mul\n      or\n      swap1\n      sstore\n      pop\n        /* \"@openzeppelin/contracts/access/Ownable.sol\":2604:2612  newOwner */\n      dup2\n        /* \"@openzeppelin/contracts/access/Ownable.sol\":2573:2613  OwnershipTransferred(oldOwner, newOwner) */\n      0xffffffffffffffffffffffffffffffffffffffff\n      and\n        /* \"@openzeppelin/contracts/access/Ownable.sol\":2594:2602  oldOwner */\n      dup2\n        /* \"@openzeppelin/contracts/access/Ownable.sol\":2573:2613  OwnershipTransferred(oldOwner, newOwner) */\n      0xffffffffffffffffffffffffffffffffffffffff\n      and\n      0x8be0079c531659141344cd1fd0a4f28419497f9722a3daafe3b4186f6b6457e0\n      mload(0x40)\n      mload(0x40)\n      dup1\n      swap2\n      sub\n      swap1\n      log3\n        /* \"@openzeppelin/contracts/access/Ownable.sol\":2496:2620  {... */\n      pop\n        /* \"@openzeppelin/contracts/access/Ownable.sol\":2433:2620  function _transferOwnership(address newOwner) internal virtual {... */\n      pop\n      jump\t// out\n        /* \"@openzeppelin/contracts/security/ReentrancyGuard.sol\":2336:2623  function _nonReentrantBefore() private {... */\n    tag_74:\n        /* \"@openzeppelin/contracts/security/ReentrancyGuard.sol\":1759:1760  2 */\n      0x02\n        /* \"@openzeppelin/contracts/security/ReentrancyGuard.sol\":2468:2475  _status */\n      sload(0x01)\n        /* \"@openzeppelin/contracts/security/ReentrancyGuard.sol\":2468:2487  _status != _ENTERED */\n      sub\n        /* \"@openzeppelin/contracts/security/ReentrancyGuard.sol\":2460:2523  require(_status != _ENTERED, \"ReentrancyGuard: reentrant call\") */\n      tag_141\n      jumpi\n      mload(0x40)\n      0x08c379a000000000000000000000000000000000000000000000000000000000\n      dup2\n      mstore\n      0x04\n      add\n      tag_142\n      swap1\n      tag_143\n      jump\t// in\n    tag_142:\n      mload(0x40)\n      dup1\n      swap2\n      sub\n      swap1\n      revert\n    tag_141:\n        /* \"@openzeppelin/contracts/security/ReentrancyGuard.sol\":1759:1760  2 */\n      0x02\n        /* \"@openzeppelin/contracts/security/ReentrancyGuard.sol\":2598:2605  _status */\n      0x01\n        /* \"@openzeppelin/contracts/security/ReentrancyGuard.sol\":2598:2616  _status = _ENTERED */\n      dup2\n      swap1\n      sstore\n      pop\n        /* \"@openzeppelin/contracts/security/ReentrancyGuard.sol\":2336:2623  function _nonReentrantBefore() private {... */\n      jump\t// out\n        /* \"@openzeppelin/contracts/utils/Context.sol\":640:736  function _msgSender() internal view virtual returns (address) {... */\n    tag_77:\n        /* \"@openzeppelin/contracts/utils/Context.sol\":693:700  address */\n      0x00\n        /* \"@openzeppelin/contracts/utils/Context.sol\":719:729  msg.sender */\n      caller\n        /* \"@openzeppelin/contracts/utils/Context.sol\":712:729  return msg.sender */\n      swap1\n      pop\n        /* \"@openzeppelin/contracts/utils/Context.sol\":640:736  function _msgSender() internal view virtual returns (address) {... */\n      swap1\n      jump\t// out\n        /* \"@openzeppelin/contracts/security/ReentrancyGuard.sol\":2629:2838  function _nonReentrantAfter() private {... */\n    tag_106:\n        /* \"@openzeppelin/contracts/security/ReentrancyGuard.sol\":1716:1717  1 */\n      0x01\n        /* \"@openzeppelin/contracts/security/ReentrancyGuard.sol\":2809:2816  _status */\n      dup1\n        /* \"@openzeppelin/contracts/security/ReentrancyGuard.sol\":2809:2831  _status = _NOT_ENTERED */\n      dup2\n      swap1\n      sstore\n      pop\n        /* \"@openzeppelin/contracts/security/ReentrancyGuard.sol\":2629:2838  function _nonReentrantAfter() private {... */\n      jump\t// out\n        /* \"#utility.yul\":7:97   */\n    tag_146:\n        /* \"#utility.yul\":41:48   */\n      0x00\n        /* \"#utility.yul\":84:89   */\n      dup2\n        /* \"#utility.yul\":77:90   */\n      iszero\n        /* \"#utility.yul\":70:91   */\n      iszero\n        /* \"#utility.yul\":59:91   */\n      swap1\n      pop\n        /* \"#utility.yul\":7:97   */\n      swap2\n      swap1\n      pop\n      jump\t// out\n        /* \"#utility.yul\":103:212   */\n    tag_147:\n        /* \"#utility.yul\":184:205   */\n      tag_181\n        /* \"#utility.yul\":199:204   */\n      dup2\n        /* \"#utility.yul\":184:205   */\n      tag_146\n      jump\t// in\n    tag_181:\n        /* \"#utility.yul\":179:182   */\n      dup3\n        /* \"#utility.yul\":172:206   */\n      mstore\n        /* \"#utility.yul\":103:212   */\n      pop\n      pop\n      jump\t// out\n        /* \"#utility.yul\":218:428   */\n    tag_22:\n        /* \"#utility.yul\":305:309   */\n      0x00\n        /* \"#utility.yul\":343:345   */\n      0x20\n        /* \"#utility.yul\":332:341   */\n      dup3\n        /* \"#utility.yul\":328:346   */\n      add\n        /* \"#utility.yul\":320:346   */\n      swap1\n      pop\n        /* \"#utility.yul\":356:421   */\n      tag_183\n        /* \"#utility.yul\":418:419   */\n      0x00\n        /* \"#utility.yul\":407:416   */\n      dup4\n        /* \"#utility.yul\":403:420   */\n      add\n        /* \"#utility.yul\":394:400   */\n      dup5\n        /* \"#utility.yul\":356:421   */\n      tag_147\n      jump\t// in\n    tag_183:\n        /* \"#utility.yul\":218:428   */\n      swap3\n      swap2\n      pop\n      pop\n      jump\t// out\n        /* \"#utility.yul\":434:560   */\n    tag_148:\n        /* \"#utility.yul\":471:478   */\n      0x00\n        /* \"#utility.yul\":511:553   */\n      0xffffffffffffffffffffffffffffffffffffffff\n        /* \"#utility.yul\":504:509   */\n      dup3\n        /* \"#utility.yul\":500:554   */\n      and\n        /* \"#utility.yul\":489:554   */\n      swap1\n      pop\n        /* \"#utility.yul\":434:560   */\n      swap2\n      swap1\n      pop\n      jump\t// out\n        /* \"#utility.yul\":566:662   */\n    tag_149:\n        /* \"#utility.yul\":603:610   */\n      0x00\n        /* \"#utility.yul\":632:656   */\n      tag_186\n        /* \"#utility.yul\":650:655   */\n      dup3\n        /* \"#utility.yul\":632:656   */\n      tag_148\n      jump\t// in\n    tag_186:\n        /* \"#utility.yul\":621:656   */\n      swap1\n      pop\n        /* \"#utility.yul\":566:662   */\n      swap2\n      swap1\n      pop\n      jump\t// out\n        /* \"#utility.yul\":668:786   */\n    tag_150:\n        /* \"#utility.yul\":755:779   */\n      tag_188\n        /* \"#utility.yul\":773:778   */\n      dup2\n        /* \"#utility.yul\":755:779   */\n      tag_149\n      jump\t// in\n    tag_188:\n        /* \"#utility.yul\":750:753   */\n      dup3\n        /* \"#utility.yul\":743:780   */\n      mstore\n        /* \"#utility.yul\":668:786   */\n      pop\n      pop\n      jump\t// out\n        /* \"#utility.yul\":792:1014   */\n    tag_27:\n        /* \"#utility.yul\":885:889   */\n      0x00\n        /* \"#utility.yul\":923:925   */\n      0x20\n        /* \"#utility.yul\":912:921   */\n      dup3\n        /* \"#utility.yul\":908:926   */\n      add\n        /* \"#utility.yul\":900:926   */\n      swap1\n      pop\n        /* \"#utility.yul\":936:1007   */\n      tag_190\n        /* \"#utility.yul\":1004:1005   */\n      0x00\n        /* \"#utility.yul\":993:1002   */\n      dup4\n        /* \"#utility.yul\":989:1006   */\n      add\n        /* \"#utility.yul\":980:986   */\n      dup5\n        /* \"#utility.yul\":936:1007   */\n      tag_150\n      jump\t// in\n    tag_190:\n        /* \"#utility.yul\":792:1014   */\n      swap3\n      swap2\n      pop\n      pop\n      jump\t// out\n        /* \"#utility.yul\":1101:1218   */\n    tag_152:\n        /* \"#utility.yul\":1210:1211   */\n      0x00\n        /* \"#utility.yul\":1207:1208   */\n      dup1\n        /* \"#utility.yul\":1200:1212   */\n      revert\n        /* \"#utility.yul\":1347:1424   */\n    tag_154:\n        /* \"#utility.yul\":1384:1391   */\n      0x00\n        /* \"#utility.yul\":1413:1418   */\n      dup2\n        /* \"#utility.yul\":1402:1418   */\n      swap1\n      pop\n        /* \"#utility.yul\":1347:1424   */\n      swap2\n      swap1\n      pop\n      jump\t// out\n        /* \"#utility.yul\":1430:1552   */\n    tag_155:\n        /* \"#utility.yul\":1503:1527   */\n      tag_196\n        /* \"#utility.yul\":1521:1526   */\n      dup2\n        /* \"#utility.yul\":1503:1527   */\n      tag_154\n      jump\t// in\n    tag_196:\n        /* \"#utility.yul\":1496:1501   */\n      dup2\n        /* \"#utility.yul\":1493:1528   */\n      eq\n        /* \"#utility.yul\":1483:1546   */\n      tag_197\n      jumpi\n        /* \"#utility.yul\":1542:1543   */\n      0x00\n        /* \"#utility.yul\":1539:1540   */\n      dup1\n        /* \"#utility.yul\":1532:1544   */\n      revert\n        /* \"#utility.yul\":1483:1546   */\n    tag_197:\n        /* \"#utility.yul\":1430:1552   */\n      pop\n      jump\t// out\n        /* \"#utility.yul\":1558:1697   */\n    tag_156:\n        /* \"#utility.yul\":1604:1609   */\n      0x00\n        /* \"#utility.yul\":1642:1648   */\n      dup2\n        /* \"#utility.yul\":1629:1649   */\n      calldataload\n        /* \"#utility.yul\":1620:1649   */\n      swap1\n      pop\n        /* \"#utility.yul\":1658:1691   */\n      tag_199\n        /* \"#utility.yul\":1685:1690   */\n      dup2\n        /* \"#utility.yul\":1658:1691   */\n      tag_155\n      jump\t// in\n    tag_199:\n        /* \"#utility.yul\":1558:1697   */\n      swap3\n      swap2\n      pop\n      pop\n      jump\t// out\n        /* \"#utility.yul\":1703:2032   */\n    tag_31:\n        /* \"#utility.yul\":1762:1768   */\n      0x00\n        /* \"#utility.yul\":1811:1813   */\n      0x20\n        /* \"#utility.yul\":1799:1808   */\n      dup3\n        /* \"#utility.yul\":1790:1797   */\n      dup5\n        /* \"#utility.yul\":1786:1809   */\n      sub\n        /* \"#utility.yul\":1782:1814   */\n      slt\n        /* \"#utility.yul\":1779:1898   */\n      iszero\n      tag_201\n      jumpi\n        /* \"#utility.yul\":1817:1896   */\n      tag_202\n      tag_152\n      jump\t// in\n    tag_202:\n        /* \"#utility.yul\":1779:1898   */\n    tag_201:\n        /* \"#utility.yul\":1937:1938   */\n      0x00\n        /* \"#utility.yul\":1962:2015   */\n      tag_203\n        /* \"#utility.yul\":2007:2014   */\n      dup5\n        /* \"#utility.yul\":1998:2004   */\n      dup3\n        /* \"#utility.yul\":1987:1996   */\n      dup6\n        /* \"#utility.yul\":1983:2005   */\n      add\n        /* \"#utility.yul\":1962:2015   */\n      tag_156\n      jump\t// in\n    tag_203:\n        /* \"#utility.yul\":1952:2015   */\n      swap2\n      pop\n        /* \"#utility.yul\":1908:2025   */\n      pop\n        /* \"#utility.yul\":1703:2032   */\n      swap3\n      swap2\n      pop\n      pop\n      jump\t// out\n        /* \"#utility.yul\":2038:2156   */\n    tag_157:\n        /* \"#utility.yul\":2125:2149   */\n      tag_205\n        /* \"#utility.yul\":2143:2148   */\n      dup2\n        /* \"#utility.yul\":2125:2149   */\n      tag_154\n      jump\t// in\n    tag_205:\n        /* \"#utility.yul\":2120:2123   */\n      dup3\n        /* \"#utility.yul\":2113:2150   */\n      mstore\n        /* \"#utility.yul\":2038:2156   */\n      pop\n      pop\n      jump\t// out\n        /* \"#utility.yul\":2162:2384   */\n    tag_34:\n        /* \"#utility.yul\":2255:2259   */\n      0x00\n        /* \"#utility.yul\":2293:2295   */\n      0x20\n        /* \"#utility.yul\":2282:2291   */\n      dup3\n        /* \"#utility.yul\":2278:2296   */\n      add\n        /* \"#utility.yul\":2270:2296   */\n      swap1\n      pop\n        /* \"#utility.yul\":2306:2377   */\n      tag_207\n        /* \"#utility.yul\":2374:2375   */\n      0x00\n        /* \"#utility.yul\":2363:2372   */\n      dup4\n        /* \"#utility.yul\":2359:2376   */\n      add\n        /* \"#utility.yul\":2350:2356   */\n      dup5\n        /* \"#utility.yul\":2306:2377   */\n      tag_157\n      jump\t// in\n    tag_207:\n        /* \"#utility.yul\":2162:2384   */\n      swap3\n      swap2\n      pop\n      pop\n      jump\t// out\n        /* \"#utility.yul\":2390:2512   */\n    tag_158:\n        /* \"#utility.yul\":2463:2487   */\n      tag_209\n        /* \"#utility.yul\":2481:2486   */\n      dup2\n        /* \"#utility.yul\":2463:2487   */\n      tag_149\n      jump\t// in\n    tag_209:\n        /* \"#utility.yul\":2456:2461   */\n      dup2\n        /* \"#utility.yul\":2453:2488   */\n      eq\n        /* \"#utility.yul\":2443:2506   */\n      tag_210\n      jumpi\n        /* \"#utility.yul\":2502:2503   */\n      0x00\n        /* \"#utility.yul\":2499:2500   */\n      dup1\n        /* \"#utility.yul\":2492:2504   */\n      revert\n        /* \"#utility.yul\":2443:2506   */\n    tag_210:\n        /* \"#utility.yul\":2390:2512   */\n      pop\n      jump\t// out\n        /* \"#utility.yul\":2518:2657   */\n    tag_159:\n        /* \"#utility.yul\":2564:2569   */\n      0x00\n        /* \"#utility.yul\":2602:2608   */\n      dup2\n        /* \"#utility.yul\":2589:2609   */\n      calldataload\n        /* \"#utility.yul\":2580:2609   */\n      swap1\n      pop\n        /* \"#utility.yul\":2618:2651   */\n      tag_212\n        /* \"#utility.yul\":2645:2650   */\n      dup2\n        /* \"#utility.yul\":2618:2651   */\n      tag_158\n      jump\t// in\n    tag_212:\n        /* \"#utility.yul\":2518:2657   */\n      swap3\n      swap2\n      pop\n      pop\n      jump\t// out\n        /* \"#utility.yul\":2663:2992   */\n    tag_38:\n        /* \"#utility.yul\":2722:2728   */\n      0x00\n        /* \"#utility.yul\":2771:2773   */\n      0x20\n        /* \"#utility.yul\":2759:2768   */\n      dup3\n        /* \"#utility.yul\":2750:2757   */\n      dup5\n        /* \"#utility.yul\":2746:2769   */\n      sub\n        /* \"#utility.yul\":2742:2774   */\n      slt\n        /* \"#utility.yul\":2739:2858   */\n      iszero\n      tag_214\n      jumpi\n        /* \"#utility.yul\":2777:2856   */\n      tag_215\n      tag_152\n      jump\t// in\n    tag_215:\n        /* \"#utility.yul\":2739:2858   */\n    tag_214:\n        /* \"#utility.yul\":2897:2898   */\n      0x00\n        /* \"#utility.yul\":2922:2975   */\n      tag_216\n        /* \"#utility.yul\":2967:2974   */\n      dup5\n        /* \"#utility.yul\":2958:2964   */\n      dup3\n        /* \"#utility.yul\":2947:2956   */\n      dup6\n        /* \"#utility.yul\":2943:2965   */\n      add\n        /* \"#utility.yul\":2922:2975   */\n      tag_159\n      jump\t// in\n    tag_216:\n        /* \"#utility.yul\":2912:2975   */\n      swap2\n      pop\n        /* \"#utility.yul\":2868:2985   */\n      pop\n        /* \"#utility.yul\":2663:2992   */\n      swap3\n      swap2\n      pop\n      pop\n      jump\t// out\n        /* \"#utility.yul\":2998:3472   */\n    tag_55:\n        /* \"#utility.yul\":3066:3072   */\n      0x00\n        /* \"#utility.yul\":3074:3080   */\n      dup1\n        /* \"#utility.yul\":3123:3125   */\n      0x40\n        /* \"#utility.yul\":3111:3120   */\n      dup4\n        /* \"#utility.yul\":3102:3109   */\n      dup6\n        /* \"#utility.yul\":3098:3121   */\n      sub\n        /* \"#utility.yul\":3094:3126   */\n      slt\n        /* \"#utility.yul\":3091:3210   */\n      iszero\n      tag_218\n      jumpi\n        /* \"#utility.yul\":3129:3208   */\n      tag_219\n      tag_152\n      jump\t// in\n    tag_219:\n        /* \"#utility.yul\":3091:3210   */\n    tag_218:\n        /* \"#utility.yul\":3249:3250   */\n      0x00\n        /* \"#utility.yul\":3274:3327   */\n      tag_220\n        /* \"#utility.yul\":3319:3326   */\n      dup6\n        /* \"#utility.yul\":3310:3316   */\n      dup3\n        /* \"#utility.yul\":3299:3308   */\n      dup7\n        /* \"#utility.yul\":3295:3317   */\n      add\n        /* \"#utility.yul\":3274:3327   */\n      tag_159\n      jump\t// in\n    tag_220:\n        /* \"#utility.yul\":3264:3327   */\n      swap3\n      pop\n        /* \"#utility.yul\":3220:3337   */\n      pop\n        /* \"#utility.yul\":3376:3378   */\n      0x20\n        /* \"#utility.yul\":3402:3455   */\n      tag_221\n        /* \"#utility.yul\":3447:3454   */\n      dup6\n        /* \"#utility.yul\":3438:3444   */\n      dup3\n        /* \"#utility.yul\":3427:3436   */\n      dup7\n        /* \"#utility.yul\":3423:3445   */\n      add\n        /* \"#utility.yul\":3402:3455   */\n      tag_156\n      jump\t// in\n    tag_221:\n        /* \"#utility.yul\":3392:3455   */\n      swap2\n      pop\n        /* \"#utility.yul\":3347:3465   */\n      pop\n        /* \"#utility.yul\":2998:3472   */\n      swap3\n      pop\n      swap3\n      swap1\n      pop\n      jump\t// out\n        /* \"#utility.yul\":3478:3647   */\n    tag_160:\n        /* \"#utility.yul\":3562:3573   */\n      0x00\n        /* \"#utility.yul\":3596:3602   */\n      dup3\n        /* \"#utility.yul\":3591:3594   */\n      dup3\n        /* \"#utility.yul\":3584:3603   */\n      mstore\n        /* \"#utility.yul\":3636:3640   */\n      0x20\n        /* \"#utility.yul\":3631:3634   */\n      dup3\n        /* \"#utility.yul\":3627:3641   */\n      add\n        /* \"#utility.yul\":3612:3641   */\n      swap1\n      pop\n        /* \"#utility.yul\":3478:3647   */\n      swap3\n      swap2\n      pop\n      pop\n      jump\t// out\n        /* \"#utility.yul\":3653:3821   */\n    tag_161:\n        /* \"#utility.yul\":3793:3813   */\n      0x4e6f7420656e6f756768207061796d656e740000000000000000000000000000\n        /* \"#utility.yul\":3789:3790   */\n      0x00\n        /* \"#utility.yul\":3781:3787   */\n      dup3\n        /* \"#utility.yul\":3777:3791   */\n      add\n        /* \"#utility.yul\":3770:3814   */\n      mstore\n        /* \"#utility.yul\":3653:3821   */\n      pop\n      jump\t// out\n        /* \"#utility.yul\":3827:4193   */\n    tag_162:\n        /* \"#utility.yul\":3969:3972   */\n      0x00\n        /* \"#utility.yul\":3990:4057   */\n      tag_225\n        /* \"#utility.yul\":4054:4056   */\n      0x12\n        /* \"#utility.yul\":4049:4052   */\n      dup4\n        /* \"#utility.yul\":3990:4057   */\n      tag_160\n      jump\t// in\n    tag_225:\n        /* \"#utility.yul\":3983:4057   */\n      swap2\n      pop\n        /* \"#utility.yul\":4066:4159   */\n      tag_226\n        /* \"#utility.yul\":4155:4158   */\n      dup3\n        /* \"#utility.yul\":4066:4159   */\n      tag_161\n      jump\t// in\n    tag_226:\n        /* \"#utility.yul\":4184:4186   */\n      0x20\n        /* \"#utility.yul\":4179:4182   */\n      dup3\n        /* \"#utility.yul\":4175:4187   */\n      add\n        /* \"#utility.yul\":4168:4187   */\n      swap1\n      pop\n        /* \"#utility.yul\":3827:4193   */\n      swap2\n      swap1\n      pop\n      jump\t// out\n        /* \"#utility.yul\":4199:4618   */\n    tag_71:\n        /* \"#utility.yul\":4365:4369   */\n      0x00\n        /* \"#utility.yul\":4403:4405   */\n      0x20\n        /* \"#utility.yul\":4392:4401   */\n      dup3\n        /* \"#utility.yul\":4388:4406   */\n      add\n        /* \"#utility.yul\":4380:4406   */\n      swap1\n      pop\n        /* \"#utility.yul\":4452:4461   */\n      dup2\n        /* \"#utility.yul\":4446:4450   */\n      dup2\n        /* \"#utility.yul\":4442:4462   */\n      sub\n        /* \"#utility.yul\":4438:4439   */\n      0x00\n        /* \"#utility.yul\":4427:4436   */\n      dup4\n        /* \"#utility.yul\":4423:4440   */\n      add\n        /* \"#utility.yul\":4416:4463   */\n      mstore\n        /* \"#utility.yul\":4480:4611   */\n      tag_228\n        /* \"#utility.yul\":4606:4610   */\n      dup2\n        /* \"#utility.yul\":4480:4611   */\n      tag_162\n      jump\t// in\n    tag_228:\n        /* \"#utility.yul\":4472:4611   */\n      swap1\n      pop\n        /* \"#utility.yul\":4199:4618   */\n      swap2\n      swap1\n      pop\n      jump\t// out\n        /* \"#utility.yul\":4624:4804   */\n    tag_163:\n        /* \"#utility.yul\":4672:4749   */\n      0x4e487b7100000000000000000000000000000000000000000000000000000000\n        /* \"#utility.yul\":4669:4670   */\n      0x00\n        /* \"#utility.yul\":4662:4750   */\n      mstore\n        /* \"#utility.yul\":4769:4773   */\n      0x11\n        /* \"#utility.yul\":4766:4767   */\n      0x04\n        /* \"#utility.yul\":4759:4774   */\n      mstore\n        /* \"#utility.yul\":4793:4797   */\n      0x24\n        /* \"#utility.yul\":4790:4791   */\n      0x00\n        /* \"#utility.yul\":4783:4798   */\n      revert\n        /* \"#utility.yul\":4810:5001   */\n    tag_83:\n        /* \"#utility.yul\":4850:4853   */\n      0x00\n        /* \"#utility.yul\":4869:4889   */\n      tag_231\n        /* \"#utility.yul\":4887:4888   */\n      dup3\n        /* \"#utility.yul\":4869:4889   */\n      tag_154\n      jump\t// in\n    tag_231:\n        /* \"#utility.yul\":4864:4889   */\n      swap2\n      pop\n        /* \"#utility.yul\":4903:4923   */\n      tag_232\n        /* \"#utility.yul\":4921:4922   */\n      dup4\n        /* \"#utility.yul\":4903:4923   */\n      tag_154\n      jump\t// in\n    tag_232:\n        /* \"#utility.yul\":4898:4923   */\n      swap3\n      pop\n        /* \"#utility.yul\":4946:4947   */\n      dup3\n        /* \"#utility.yul\":4943:4944   */\n      dup3\n        /* \"#utility.yul\":4939:4948   */\n      add\n        /* \"#utility.yul\":4932:4948   */\n      swap1\n      pop\n        /* \"#utility.yul\":4967:4970   */\n      dup1\n        /* \"#utility.yul\":4964:4965   */\n      dup3\n        /* \"#utility.yul\":4961:4971   */\n      gt\n        /* \"#utility.yul\":4958:4994   */\n      iszero\n      tag_233\n      jumpi\n        /* \"#utility.yul\":4974:4992   */\n      tag_234\n      tag_163\n      jump\t// in\n    tag_234:\n        /* \"#utility.yul\":4958:4994   */\n    tag_233:\n        /* \"#utility.yul\":4810:5001   */\n      swap3\n      swap2\n      pop\n      pop\n      jump\t// out\n        /* \"#utility.yul\":5007:5417   */\n    tag_88:\n        /* \"#utility.yul\":5047:5054   */\n      0x00\n        /* \"#utility.yul\":5070:5090   */\n      tag_236\n        /* \"#utility.yul\":5088:5089   */\n      dup3\n        /* \"#utility.yul\":5070:5090   */\n      tag_154\n      jump\t// in\n    tag_236:\n        /* \"#utility.yul\":5065:5090   */\n      swap2\n      pop\n        /* \"#utility.yul\":5104:5124   */\n      tag_237\n        /* \"#utility.yul\":5122:5123   */\n      dup4\n        /* \"#utility.yul\":5104:5124   */\n      tag_154\n      jump\t// in\n    tag_237:\n        /* \"#utility.yul\":5099:5124   */\n      swap3\n      pop\n        /* \"#utility.yul\":5159:5160   */\n      dup3\n        /* \"#utility.yul\":5156:5157   */\n      dup3\n        /* \"#utility.yul\":5152:5161   */\n      mul\n        /* \"#utility.yul\":5181:5211   */\n      tag_238\n        /* \"#utility.yul\":5199:5210   */\n      dup2\n        /* \"#utility.yul\":5181:5211   */\n      tag_154\n      jump\t// in\n    tag_238:\n        /* \"#utility.yul\":5170:5211   */\n      swap2\n      pop\n        /* \"#utility.yul\":5360:5361   */\n      dup3\n        /* \"#utility.yul\":5351:5358   */\n      dup3\n        /* \"#utility.yul\":5347:5362   */\n      div\n        /* \"#utility.yul\":5344:5345   */\n      dup5\n        /* \"#utility.yul\":5341:5363   */\n      eq\n        /* \"#utility.yul\":5321:5322   */\n      dup4\n        /* \"#utility.yul\":5314:5323   */\n      iszero\n        /* \"#utility.yul\":5294:5377   */\n      or\n        /* \"#utility.yul\":5271:5410   */\n      tag_239\n      jumpi\n        /* \"#utility.yul\":5390:5408   */\n      tag_240\n      tag_163\n      jump\t// in\n    tag_240:\n        /* \"#utility.yul\":5271:5410   */\n    tag_239:\n        /* \"#utility.yul\":5055:5417   */\n      pop\n        /* \"#utility.yul\":5007:5417   */\n      swap3\n      swap2\n      pop\n      pop\n      jump\t// out\n        /* \"#utility.yul\":5423:5570   */\n    tag_164:\n        /* \"#utility.yul\":5524:5535   */\n      0x00\n        /* \"#utility.yul\":5561:5564   */\n      dup2\n        /* \"#utility.yul\":5546:5564   */\n      swap1\n      pop\n        /* \"#utility.yul\":5423:5570   */\n      swap3\n      swap2\n      pop\n      pop\n      jump\t// out\n        /* \"#utility.yul\":5576:5690   */\n    tag_165:\n      pop\n      jump\t// out\n        /* \"#utility.yul\":5696:6094   */\n    tag_166:\n        /* \"#utility.yul\":5855:5858   */\n      0x00\n        /* \"#utility.yul\":5876:5959   */\n      tag_244\n        /* \"#utility.yul\":5957:5958   */\n      0x00\n        /* \"#utility.yul\":5952:5955   */\n      dup4\n        /* \"#utility.yul\":5876:5959   */\n      tag_164\n      jump\t// in\n    tag_244:\n        /* \"#utility.yul\":5869:5959   */\n      swap2\n      pop\n        /* \"#utility.yul\":5968:6061   */\n      tag_245\n        /* \"#utility.yul\":6057:6060   */\n      dup3\n        /* \"#utility.yul\":5968:6061   */\n      tag_165\n      jump\t// in\n    tag_245:\n        /* \"#utility.yul\":6086:6087   */\n      0x00\n        /* \"#utility.yul\":6081:6084   */\n      dup3\n        /* \"#utility.yul\":6077:6088   */\n      add\n        /* \"#utility.yul\":6070:6088   */\n      swap1\n      pop\n        /* \"#utility.yul\":5696:6094   */\n      swap2\n      swap1\n      pop\n      jump\t// out\n        /* \"#utility.yul\":6100:6479   */\n    tag_90:\n        /* \"#utility.yul\":6284:6287   */\n      0x00\n        /* \"#utility.yul\":6306:6453   */\n      tag_247\n        /* \"#utility.yul\":6449:6452   */\n      dup3\n        /* \"#utility.yul\":6306:6453   */\n      tag_166\n      jump\t// in\n    tag_247:\n        /* \"#utility.yul\":6299:6453   */\n      swap2\n      pop\n        /* \"#utility.yul\":6470:6473   */\n      dup2\n        /* \"#utility.yul\":6463:6473   */\n      swap1\n      pop\n        /* \"#utility.yul\":6100:6479   */\n      swap2\n      swap1\n      pop\n      jump\t// out\n        /* \"#utility.yul\":6485:6650   */\n    tag_167:\n        /* \"#utility.yul\":6625:6642   */\n      0x5472616e73666572206661696c65640000000000000000000000000000000000\n        /* \"#utility.yul\":6621:6622   */\n      0x00\n        /* \"#utility.yul\":6613:6619   */\n      dup3\n        /* \"#utility.yul\":6609:6623   */\n      add\n        /* \"#utility.yul\":6602:6643   */\n      mstore\n        /* \"#utility.yul\":6485:6650   */\n      pop\n      jump\t// out\n        /* \"#utility.yul\":6656:7022   */\n    tag_168:\n        /* \"#utility.yul\":6798:6801   */\n      0x00\n        /* \"#utility.yul\":6819:6886   */\n      tag_250\n        /* \"#utility.yul\":6883:6885   */\n      0x0f\n        /* \"#utility.yul\":6878:6881   */\n      dup4\n        /* \"#utility.yul\":6819:6886   */\n      tag_160\n      jump\t// in\n    tag_250:\n        /* \"#utility.yul\":6812:6886   */\n      swap2\n      pop\n        /* \"#utility.yul\":6895:6988   */\n      tag_251\n        /* \"#utility.yul\":6984:6987   */\n      dup3\n        /* \"#utility.yul\":6895:6988   */\n      tag_167\n      jump\t// in\n    tag_251:\n        /* \"#utility.yul\":7013:7015   */\n      0x20\n        /* \"#utility.yul\":7008:7011   */\n      dup3\n        /* \"#utility.yul\":7004:7016   */\n      add\n        /* \"#utility.yul\":6997:7016   */\n      swap1\n      pop\n        /* \"#utility.yul\":6656:7022   */\n      swap2\n      swap1\n      pop\n      jump\t// out\n        /* \"#utility.yul\":7028:7447   */\n    tag_96:\n        /* \"#utility.yul\":7194:7198   */\n      0x00\n        /* \"#utility.yul\":7232:7234   */\n      0x20\n        /* \"#utility.yul\":7221:7230   */\n      dup3\n        /* \"#utility.yul\":7217:7235   */\n      add\n        /* \"#utility.yul\":7209:7235   */\n      swap1\n      pop\n        /* \"#utility.yul\":7281:7290   */\n      dup2\n        /* \"#utility.yul\":7275:7279   */\n      dup2\n        /* \"#utility.yul\":7271:7291   */\n      sub\n        /* \"#utility.yul\":7267:7268   */\n      0x00\n        /* \"#utility.yul\":7256:7265   */\n      dup4\n        /* \"#utility.yul\":7252:7269   */\n      add\n        /* \"#utility.yul\":7245:7292   */\n      mstore\n        /* \"#utility.yul\":7309:7440   */\n      tag_253\n        /* \"#utility.yul\":7435:7439   */\n      dup2\n        /* \"#utility.yul\":7309:7440   */\n      tag_168\n      jump\t// in\n    tag_253:\n        /* \"#utility.yul\":7301:7440   */\n      swap1\n      pop\n        /* \"#utility.yul\":7028:7447   */\n      swap2\n      swap1\n      pop\n      jump\t// out\n        /* \"#utility.yul\":7453:7994   */\n    tag_102:\n        /* \"#utility.yul\":7624:7628   */\n      0x00\n        /* \"#utility.yul\":7662:7665   */\n      0x80\n        /* \"#utility.yul\":7651:7660   */\n      dup3\n        /* \"#utility.yul\":7647:7666   */\n      add\n        /* \"#utility.yul\":7639:7666   */\n      swap1\n      pop\n        /* \"#utility.yul\":7676:7747   */\n      tag_255\n        /* \"#utility.yul\":7744:7745   */\n      0x00\n        /* \"#utility.yul\":7733:7742   */\n      dup4\n        /* \"#utility.yul\":7729:7746   */\n      add\n        /* \"#utility.yul\":7720:7726   */\n      dup8\n        /* \"#utility.yul\":7676:7747   */\n      tag_150\n      jump\t// in\n    tag_255:\n        /* \"#utility.yul\":7757:7829   */\n      tag_256\n        /* \"#utility.yul\":7825:7827   */\n      0x20\n        /* \"#utility.yul\":7814:7823   */\n      dup4\n        /* \"#utility.yul\":7810:7828   */\n      add\n        /* \"#utility.yul\":7801:7807   */\n      dup7\n        /* \"#utility.yul\":7757:7829   */\n      tag_157\n      jump\t// in\n    tag_256:\n        /* \"#utility.yul\":7839:7905   */\n      tag_257\n        /* \"#utility.yul\":7901:7903   */\n      0x40\n        /* \"#utility.yul\":7890:7899   */\n      dup4\n        /* \"#utility.yul\":7886:7904   */\n      add\n        /* \"#utility.yul\":7877:7883   */\n      dup6\n        /* \"#utility.yul\":7839:7905   */\n      tag_147\n      jump\t// in\n    tag_257:\n        /* \"#utility.yul\":7915:7987   */\n      tag_258\n        /* \"#utility.yul\":7983:7985   */\n      0x60\n        /* \"#utility.yul\":7972:7981   */\n      dup4\n        /* \"#utility.yul\":7968:7986   */\n      add\n        /* \"#utility.yul\":7959:7965   */\n      dup5\n        /* \"#utility.yul\":7915:7987   */\n      tag_157\n      jump\t// in\n    tag_258:\n        /* \"#utility.yul\":7453:7994   */\n      swap6\n      swap5\n      pop\n      pop\n      pop\n      pop\n      pop\n      jump\t// out\n        /* \"#utility.yul\":8000:8194   */\n    tag_110:\n        /* \"#utility.yul\":8040:8044   */\n      0x00\n        /* \"#utility.yul\":8060:8080   */\n      tag_260\n        /* \"#utility.yul\":8078:8079   */\n      dup3\n        /* \"#utility.yul\":8060:8080   */\n      tag_154\n      jump\t// in\n    tag_260:\n        /* \"#utility.yul\":8055:8080   */\n      swap2\n      pop\n        /* \"#utility.yul\":8094:8114   */\n      tag_261\n        /* \"#utility.yul\":8112:8113   */\n      dup4\n        /* \"#utility.yul\":8094:8114   */\n      tag_154\n      jump\t// in\n    tag_261:\n        /* \"#utility.yul\":8089:8114   */\n      swap3\n      pop\n        /* \"#utility.yul\":8138:8139   */\n      dup3\n        /* \"#utility.yul\":8135:8136   */\n      dup3\n        /* \"#utility.yul\":8131:8140   */\n      sub\n        /* \"#utility.yul\":8123:8140   */\n      swap1\n      pop\n        /* \"#utility.yul\":8162:8163   */\n      dup2\n        /* \"#utility.yul\":8156:8160   */\n      dup2\n        /* \"#utility.yul\":8153:8164   */\n      gt\n        /* \"#utility.yul\":8150:8187   */\n      iszero\n      tag_262\n      jumpi\n        /* \"#utility.yul\":8167:8185   */\n      tag_263\n      tag_163\n      jump\t// in\n    tag_263:\n        /* \"#utility.yul\":8150:8187   */\n    tag_262:\n        /* \"#utility.yul\":8000:8194   */\n      swap3\n      swap2\n      pop\n      pop\n      jump\t// out\n        /* \"#utility.yul\":8200:8380   */\n    tag_169:\n        /* \"#utility.yul\":8248:8325   */\n      0x4e487b7100000000000000000000000000000000000000000000000000000000\n        /* \"#utility.yul\":8245:8246   */\n      0x00\n        /* \"#utility.yul\":8238:8326   */\n      mstore\n        /* \"#utility.yul\":8345:8349   */\n      0x12\n        /* \"#utility.yul\":8342:8343   */\n      0x04\n        /* \"#utility.yul\":8335:8350   */\n      mstore\n        /* \"#utility.yul\":8369:8373   */\n      0x24\n        /* \"#utility.yul\":8366:8367   */\n      0x00\n        /* \"#utility.yul\":8359:8374   */\n      revert\n        /* \"#utility.yul\":8386:8562   */\n    tag_112:\n        /* \"#utility.yul\":8418:8419   */\n      0x00\n        /* \"#utility.yul\":8435:8455   */\n      tag_266\n        /* \"#utility.yul\":8453:8454   */\n      dup3\n        /* \"#utility.yul\":8435:8455   */\n      tag_154\n      jump\t// in\n    tag_266:\n        /* \"#utility.yul\":8430:8455   */\n      swap2\n      pop\n        /* \"#utility.yul\":8469:8489   */\n      tag_267\n        /* \"#utility.yul\":8487:8488   */\n      dup4\n        /* \"#utility.yul\":8469:8489   */\n      tag_154\n      jump\t// in\n    tag_267:\n        /* \"#utility.yul\":8464:8489   */\n      swap3\n      pop\n        /* \"#utility.yul\":8508:8509   */\n      dup3\n        /* \"#utility.yul\":8498:8533   */\n      tag_268\n      jumpi\n        /* \"#utility.yul\":8513:8531   */\n      tag_269\n      tag_169\n      jump\t// in\n    tag_269:\n        /* \"#utility.yul\":8498:8533   */\n    tag_268:\n        /* \"#utility.yul\":8554:8555   */\n      dup3\n        /* \"#utility.yul\":8551:8552   */\n      dup3\n        /* \"#utility.yul\":8547:8556   */\n      mod\n        /* \"#utility.yul\":8542:8556   */\n      swap1\n      pop\n        /* \"#utility.yul\":8386:8562   */\n      swap3\n      swap2\n      pop\n      pop\n      jump\t// out\n        /* \"#utility.yul\":8568:8793   */\n    tag_170:\n        /* \"#utility.yul\":8708:8742   */\n      0x4f776e61626c653a206e6577206f776e657220697320746865207a65726f2061\n        /* \"#utility.yul\":8704:8705   */\n      0x00\n        /* \"#utility.yul\":8696:8702   */\n      dup3\n        /* \"#utility.yul\":8692:8706   */\n      add\n        /* \"#utility.yul\":8685:8743   */\n      mstore\n        /* \"#utility.yul\":8777:8785   */\n      0x6464726573730000000000000000000000000000000000000000000000000000\n        /* \"#utility.yul\":8772:8774   */\n      0x20\n        /* \"#utility.yul\":8764:8770   */\n      dup3\n        /* \"#utility.yul\":8760:8775   */\n      add\n        /* \"#utility.yul\":8753:8786   */\n      mstore\n        /* \"#utility.yul\":8568:8793   */\n      pop\n      jump\t// out\n        /* \"#utility.yul\":8799:9165   */\n    tag_171:\n        /* \"#utility.yul\":8941:8944   */\n      0x00\n        /* \"#utility.yul\":8962:9029   */\n      tag_272\n        /* \"#utility.yul\":9026:9028   */\n      0x26\n        /* \"#utility.yul\":9021:9024   */\n      dup4\n        /* \"#utility.yul\":8962:9029   */\n      tag_160\n      jump\t// in\n    tag_272:\n        /* \"#utility.yul\":8955:9029   */\n      swap2\n      pop\n        /* \"#utility.yul\":9038:9131   */\n      tag_273\n        /* \"#utility.yul\":9127:9130   */\n      dup3\n        /* \"#utility.yul\":9038:9131   */\n      tag_170\n      jump\t// in\n    tag_273:\n        /* \"#utility.yul\":9156:9158   */\n      0x40\n        /* \"#utility.yul\":9151:9154   */\n      dup3\n        /* \"#utility.yul\":9147:9159   */\n      add\n        /* \"#utility.yul\":9140:9159   */\n      swap1\n      pop\n        /* \"#utility.yul\":8799:9165   */\n      swap2\n      swap1\n      pop\n      jump\t// out\n        /* \"#utility.yul\":9171:9590   */\n    tag_119:\n        /* \"#utility.yul\":9337:9341   */\n      0x00\n        /* \"#utility.yul\":9375:9377   */\n      0x20\n        /* \"#utility.yul\":9364:9373   */\n      dup3\n        /* \"#utility.yul\":9360:9378   */\n      add\n        /* \"#utility.yul\":9352:9378   */\n      swap1\n      pop\n        /* \"#utility.yul\":9424:9433   */\n      dup2\n        /* \"#utility.yul\":9418:9422   */\n      dup2\n        /* \"#utility.yul\":9414:9434   */\n      sub\n        /* \"#utility.yul\":9410:9411   */\n      0x00\n        /* \"#utility.yul\":9399:9408   */\n      dup4\n        /* \"#utility.yul\":9395:9412   */\n      add\n        /* \"#utility.yul\":9388:9435   */\n      mstore\n        /* \"#utility.yul\":9452:9583   */\n      tag_275\n        /* \"#utility.yul\":9578:9582   */\n      dup2\n        /* \"#utility.yul\":9452:9583   */\n      tag_171\n      jump\t// in\n    tag_275:\n        /* \"#utility.yul\":9444:9583   */\n      swap1\n      pop\n        /* \"#utility.yul\":9171:9590   */\n      swap2\n      swap1\n      pop\n      jump\t// out\n        /* \"#utility.yul\":9596:9761   */\n    tag_172:\n        /* \"#utility.yul\":9736:9753   */\n      0x5769746864726177206661696c65640000000000000000000000000000000000\n        /* \"#utility.yul\":9732:9733   */\n      0x00\n        /* \"#utility.yul\":9724:9730   */\n      dup3\n        /* \"#utility.yul\":9720:9734   */\n      add\n        /* \"#utility.yul\":9713:9754   */\n      mstore\n        /* \"#utility.yul\":9596:9761   */\n      pop\n      jump\t// out\n        /* \"#utility.yul\":9767:10133   */\n    tag_173:\n        /* \"#utility.yul\":9909:9912   */\n      0x00\n        /* \"#utility.yul\":9930:9997   */\n      tag_278\n        /* \"#utility.yul\":9994:9996   */\n      0x0f\n        /* \"#utility.yul\":9989:9992   */\n      dup4\n        /* \"#utility.yul\":9930:9997   */\n      tag_160\n      jump\t// in\n    tag_278:\n        /* \"#utility.yul\":9923:9997   */\n      swap2\n      pop\n        /* \"#utility.yul\":10006:10099   */\n      tag_279\n        /* \"#utility.yul\":10095:10098   */\n      dup3\n        /* \"#utility.yul\":10006:10099   */\n      tag_172\n      jump\t// in\n    tag_279:\n        /* \"#utility.yul\":10124:10126   */\n      0x20\n        /* \"#utility.yul\":10119:10122   */\n      dup3\n        /* \"#utility.yul\":10115:10127   */\n      add\n        /* \"#utility.yul\":10108:10127   */\n      swap1\n      pop\n        /* \"#utility.yul\":9767:10133   */\n      swap2\n      swap1\n      pop\n      jump\t// out\n        /* \"#utility.yul\":10139:10558   */\n    tag_130:\n        /* \"#utility.yul\":10305:10309   */\n      0x00\n        /* \"#utility.yul\":10343:10345   */\n      0x20\n        /* \"#utility.yul\":10332:10341   */\n      dup3\n        /* \"#utility.yul\":10328:10346   */\n      add\n        /* \"#utility.yul\":10320:10346   */\n      swap1\n      pop\n        /* \"#utility.yul\":10392:10401   */\n      dup2\n        /* \"#utility.yul\":10386:10390   */\n      dup2\n        /* \"#utility.yul\":10382:10402   */\n      sub\n        /* \"#utility.yul\":10378:10379   */\n      0x00\n        /* \"#utility.yul\":10367:10376   */\n      dup4\n        /* \"#utility.yul\":10363:10380   */\n      add\n        /* \"#utility.yul\":10356:10403   */\n      mstore\n        /* \"#utility.yul\":10420:10551   */\n      tag_281\n        /* \"#utility.yul\":10546:10550   */\n      dup2\n        /* \"#utility.yul\":10420:10551   */\n      tag_173\n      jump\t// in\n    tag_281:\n        /* \"#utility.yul\":10412:10551   */\n      swap1\n      pop\n        /* \"#utility.yul\":10139:10558   */\n      swap2\n      swap1\n      pop\n      jump\t// out\n        /* \"#utility.yul\":10564:10746   */\n    tag_174:\n        /* \"#utility.yul\":10704:10738   */\n      0x4f776e61626c653a2063616c6c6572206973206e6f7420746865206f776e6572\n        /* \"#utility.yul\":10700:10701   */\n      0x00\n        /* \"#utility.yul\":10692:10698   */\n      dup3\n        /* \"#utility.yul\":10688:10702   */\n      add\n        /* \"#utility.yul\":10681:10739   */\n      mstore\n        /* \"#utility.yul\":10564:10746   */\n      pop\n      jump\t// out\n        /* \"#utility.yul\":10752:11118   */\n    tag_175:\n        /* \"#utility.yul\":10894:10897   */\n      0x00\n        /* \"#utility.yul\":10915:10982   */\n      tag_284\n        /* \"#utility.yul\":10979:10981   */\n      0x20\n        /* \"#utility.yul\":10974:10977   */\n      dup4\n        /* \"#utility.yul\":10915:10982   */\n      tag_160\n      jump\t// in\n    tag_284:\n        /* \"#utility.yul\":10908:10982   */\n      swap2\n      pop\n        /* \"#utility.yul\":10991:11084   */\n      tag_285\n        /* \"#utility.yul\":11080:11083   */\n      dup3\n        /* \"#utility.yul\":10991:11084   */\n      tag_174\n      jump\t// in\n    tag_285:\n        /* \"#utility.yul\":11109:11111   */\n      0x20\n        /* \"#utility.yul\":11104:11107   */\n      dup3\n        /* \"#utility.yul\":11100:11112   */\n      add\n        /* \"#utility.yul\":11093:11112   */\n      swap1\n      pop\n        /* \"#utility.yul\":10752:11118   */\n      swap2\n      swap1\n      pop\n      jump\t// out\n        /* \"#utility.yul\":11124:11543   */\n    tag_138:\n        /* \"#utility.yul\":11290:11294   */\n      0x00\n        /* \"#utility.yul\":11328:11330   */\n      0x20\n        /* \"#utility.yul\":11317:11326   */\n      dup3\n        /* \"#utility.yul\":11313:11331   */\n      add\n        /* \"#utility.yul\":11305:11331   */\n      swap1\n      pop\n        /* \"#utility.yul\":11377:11386   */\n      dup2\n        /* \"#utility.yul\":11371:11375   */\n      dup2\n        /* \"#utility.yul\":11367:11387   */\n      sub\n        /* \"#utility.yul\":11363:11364   */\n      0x00\n        /* \"#utility.yul\":11352:11361   */\n      dup4\n        /* \"#utility.yul\":11348:11365   */\n      add\n        /* \"#utility.yul\":11341:11388   */\n      mstore\n        /* \"#utility.yul\":11405:11536   */\n      tag_287\n        /* \"#utility.yul\":11531:11535   */\n      dup2\n        /* \"#utility.yul\":11405:11536   */\n      tag_175\n      jump\t// in\n    tag_287:\n        /* \"#utility.yul\":11397:11536   */\n      swap1\n      pop\n        /* \"#utility.yul\":11124:11543   */\n      swap2\n      swap1\n      pop\n      jump\t// out\n        /* \"#utility.yul\":11549:11730   */\n    tag_176:\n        /* \"#utility.yul\":11689:11722   */\n      0x5265656e7472616e637947756172643a207265656e7472616e742063616c6c00\n        /* \"#utility.yul\":11685:11686   */\n      0x00\n        /* \"#utility.yul\":11677:11683   */\n      dup3\n        /* \"#utility.yul\":11673:11687   */\n      add\n        /* \"#utility.yul\":11666:11723   */\n      mstore\n        /* \"#utility.yul\":11549:11730   */\n      pop\n      jump\t// out\n        /* \"#utility.yul\":11736:12102   */\n    tag_177:\n        /* \"#utility.yul\":11878:11881   */\n      0x00\n        /* \"#utility.yul\":11899:11966   */\n      tag_290\n        /* \"#utility.yul\":11963:11965   */\n      0x1f\n        /* \"#utility.yul\":11958:11961   */\n      dup4\n        /* \"#utility.yul\":11899:11966   */\n      tag_160\n      jump\t// in\n    tag_290:\n        /* \"#utility.yul\":11892:11966   */\n      swap2\n      pop\n        /* \"#utility.yul\":11975:12068   */\n      tag_291\n        /* \"#utility.yul\":12064:12067   */\n      dup3\n        /* \"#utility.yul\":11975:12068   */\n      tag_176\n      jump\t// in\n    tag_291:\n        /* \"#utility.yul\":12093:12095   */\n      0x20\n        /* \"#utility.yul\":12088:12091   */\n      dup3\n        /* \"#utility.yul\":12084:12096   */\n      add\n        /* \"#utility.yul\":12077:12096   */\n      swap1\n      pop\n        /* \"#utility.yul\":11736:12102   */\n      swap2\n      swap1\n      pop\n      jump\t// out\n        /* \"#utility.yul\":12108:12527   */\n    tag_143:\n        /* \"#utility.yul\":12274:12278   */\n      0x00\n        /* \"#utility.yul\":12312:12314   */\n      0x20\n        /* \"#utility.yul\":12301:12310   */\n      dup3\n        /* \"#utility.yul\":12297:12315   */\n      add\n        /* \"#utility.yul\":12289:12315   */\n      swap1\n      pop\n        /* \"#utility.yul\":12361:12370   */\n      dup2\n        /* \"#utility.yul\":12355:12359   */\n      dup2\n        /* \"#utility.yul\":12351:12371   */\n      sub\n        /* \"#utility.yul\":12347:12348   */\n      0x00\n        /* \"#utility.yul\":12336:12345   */\n      dup4\n        /* \"#utility.yul\":12332:12349   */\n      add\n        /* \"#utility.yul\":12325:12372   */\n      mstore\n        /* \"#utility.yul\":12389:12520   */\n      tag_293\n        /* \"#utility.yul\":12515:12519   */\n      dup2\n        /* \"#utility.yul\":12389:12520   */\n      tag_177\n      jump\t// in\n    tag_293:\n        /* \"#utility.yul\":12381:12520   */\n      swap1\n      pop\n        /* \"#utility.yul\":12108:12527   */\n      swap2\n      swap1\n      pop\n      jump\t// out\n\n    auxdata: 0xa26469706673582212200499ee4599ee7e1a9bf7de7a3ef5d9d146e345397077b31f046e11b81b5d235964736f6c63430008110033\n}\n",
				"bytecode": {
					"linkReferences": {},
					"object": "608060405234801561001057600080fd5b5061002d61002261003960201b60201c565b61004160201b60201c565b60018081905550610105565b600033905090565b60008060009054906101000a900473ffffffffffffffffffffffffffffffffffffffff169050816000806101000a81548173ffffffffffffffffffffffffffffffffffffffff021916908373ffffffffffffffffffffffffffffffffffffffff1602179055508173ffffffffffffffffffffffffffffffffffffffff168173ffffffffffffffffffffffffffffffffffffffff167f8be0079c531659141344cd1fd0a4f28419497f9722a3daafe3b4186f6b6457e060405160405180910390a35050565b610fb7806101146000396000f3fe6080604052600436106100955760003560e01c8063ebcfcf6b11610059578063ebcfcf6b1461017b578063ed88c68e146101b8578063f2fde38b146101c2578063f3fef3a3146101eb578063f71d96cb146102145761009c565b8063715018a6146100a1578063799ae223146100b85780638da5cb5b146100d6578063d4c6e78114610101578063d5ea664f1461013e5761009c565b3661009c57005b600080fd5b3480156100ad57600080fd5b506100b6610251565b005b6100c0610265565b6040516100cd919061095c565b60405180910390f35b3480156100e257600080fd5b506100eb6105a4565b6040516100f891906109b8565b60405180910390f35b34801561010d57600080fd5b5061012860048036038101906101239190610a0e565b6105cd565b6040516101359190610a4a565b60405180910390f35b34801561014a57600080fd5b5061016560048036038101906101609190610a91565b6105f2565b6040516101729190610a4a565b60405180910390f35b34801561018757600080fd5b506101a2600480360381019061019d9190610a91565b61060a565b6040516101af9190610a4a565b60405180910390f35b6101c0610622565b005b3480156101ce57600080fd5b506101e960048036038101906101e49190610a91565b610624565b005b3480156101f757600080fd5b50610212600480360381019061020d9190610abe565b6106a7565b005b34801561022057600080fd5b5061023b60048036038101906102369190610a0e565b610760565b60405161024891906109b8565b60405180910390f35b61025961079f565b610263600061081d565b565b60008034116102a9576040517f08c379a00000000000000000000000000000000000000000000000000000000081526004016102a090610b5b565b60405180910390fd5b6102b16108e1565b6000600360006102bf610930565b73ffffffffffffffffffffffffffffffffffffffff1673ffffffffffffffffffffffffffffffffffffffff168152602001908152602001600020540361036a576002610309610930565b9080600181540180825580915050600190039060005260206000200160009091909190916101000a81548173ffffffffffffffffffffffffffffffffffffffff021916908373ffffffffffffffffffffffffffffffffffffffff1602179055505b3460036000610377610930565b73ffffffffffffffffffffffffffffffffffffffff1673ffffffffffffffffffffffffffffffffffffffff16815260200190815260200160002060008282546103c09190610baa565b9250508190555060016103d360026105cd565b0361054f5760006103e2610930565b73ffffffffffffffffffffffffffffffffffffffff166002346104059190610bde565b60405161041190610c51565b60006040518083038185875af1925050503d806000811461044e576040519150601f19603f3d011682016040523d82523d6000602084013e610453565b606091505b5050905080610497576040517f08c379a000000000000000000000000000000000000000000000000000000000815260040161048e90610cb2565b60405180910390fd5b6002346104a49190610bde565b600460006104b0610930565b73ffffffffffffffffffffffffffffffffffffffff1673ffffffffffffffffffffffffffffffffffffffff16815260200190815260200160002060008282546104f99190610baa565b925050819055507fa879484791d530a16ed14b173b1ea9e94875683fe3c3761d7ba6a1a23d7bb805610529610930565b3460014260405161053d9493929190610cd2565b60405180910390a16001915050610599565b7fa879484791d530a16ed14b173b1ea9e94875683fe3c3761d7ba6a1a23d7bb805610578610930565b3460004260405161058c9493929190610cd2565b60405180910390a1600090505b6105a1610938565b90565b60008060009054906101000a900473ffffffffffffffffffffffffffffffffffffffff16905090565b6000816001436105dd9190610d17565b4060001c6105eb9190610d7a565b9050919050565b60046020528060005260406000206000915090505481565b60036020528060005260406000206000915090505481565b565b61062c61079f565b600073ffffffffffffffffffffffffffffffffffffffff168173ffffffffffffffffffffffffffffffffffffffff160361069b576040517f08c379a000000000000000000000000000000000000000000000000000000000815260040161069290610e1d565b60405180910390fd5b6106a48161081d565b50565b6106af61079f565b60008273ffffffffffffffffffffffffffffffffffffffff16826040516106d590610c51565b60006040518083038185875af1925050503d8060008114610712576040519150601f19603f3d011682016040523d82523d6000602084013e610717565b606091505b505090508061075b576040517f08c379a000000000000000000000000000000000000000000000000000000000815260040161075290610e89565b60405180910390fd5b505050565b6002818154811061077057600080fd5b906000526020600020016000915054906101000a900473ffffffffffffffffffffffffffffffffffffffff1681565b6107a7610930565b73ffffffffffffffffffffffffffffffffffffffff166107c56105a4565b73ffffffffffffffffffffffffffffffffffffffff161461081b576040517f08c379a000000000000000000000000000000000000000000000000000000000815260040161081290610ef5565b60405180910390fd5b565b60008060009054906101000a900473ffffffffffffffffffffffffffffffffffffffff169050816000806101000a81548173ffffffffffffffffffffffffffffffffffffffff021916908373ffffffffffffffffffffffffffffffffffffffff1602179055508173ffffffffffffffffffffffffffffffffffffffff168173ffffffffffffffffffffffffffffffffffffffff167f8be0079c531659141344cd1fd0a4f28419497f9722a3daafe3b4186f6b6457e060405160405180910390a35050565b600260015403610926576040517f08c379a000000000000000000000000000000000000000000000000000000000815260040161091d90610f61565b60405180910390fd5b6002600181905550565b600033905090565b60018081905550565b60008115159050919050565b61095681610941565b82525050565b6000602082019050610971600083018461094d565b92915050565b600073ffffffffffffffffffffffffffffffffffffffff82169050919050565b60006109a282610977565b9050919050565b6109b281610997565b82525050565b60006020820190506109cd60008301846109a9565b92915050565b600080fd5b6000819050919050565b6109eb816109d8565b81146109f657600080fd5b50565b600081359050610a08816109e2565b92915050565b600060208284031215610a2457610a236109d3565b5b6000610a32848285016109f9565b91505092915050565b610a44816109d8565b82525050565b6000602082019050610a5f6000830184610a3b565b92915050565b610a6e81610997565b8114610a7957600080fd5b50565b600081359050610a8b81610a65565b92915050565b600060208284031215610aa757610aa66109d3565b5b6000610ab584828501610a7c565b91505092915050565b60008060408385031215610ad557610ad46109d3565b5b6000610ae385828601610a7c565b9250506020610af4858286016109f9565b9150509250929050565b600082825260208201905092915050565b7f4e6f7420656e6f756768207061796d656e740000000000000000000000000000600082015250565b6000610b45601283610afe565b9150610b5082610b0f565b602082019050919050565b60006020820190508181036000830152610b7481610b38565b9050919050565b7f4e487b7100000000000000000000000000000000000000000000000000000000600052601160045260246000fd5b6000610bb5826109d8565b9150610bc0836109d8565b9250828201905080821115610bd857610bd7610b7b565b5b92915050565b6000610be9826109d8565b9150610bf4836109d8565b9250828202610c02816109d8565b91508282048414831517610c1957610c18610b7b565b5b5092915050565b600081905092915050565b50565b6000610c3b600083610c20565b9150610c4682610c2b565b600082019050919050565b6000610c5c82610c2e565b9150819050919050565b7f5472616e73666572206661696c65640000000000000000000000000000000000600082015250565b6000610c9c600f83610afe565b9150610ca782610c66565b602082019050919050565b60006020820190508181036000830152610ccb81610c8f565b9050919050565b6000608082019050610ce760008301876109a9565b610cf46020830186610a3b565b610d01604083018561094d565b610d0e6060830184610a3b565b95945050505050565b6000610d22826109d8565b9150610d2d836109d8565b9250828203905081811115610d4557610d44610b7b565b5b92915050565b7f4e487b7100000000000000000000000000000000000000000000000000000000600052601260045260246000fd5b6000610d85826109d8565b9150610d90836109d8565b925082610da057610d9f610d4b565b5b828206905092915050565b7f4f776e61626c653a206e6577206f776e657220697320746865207a65726f206160008201527f6464726573730000000000000000000000000000000000000000000000000000602082015250565b6000610e07602683610afe565b9150610e1282610dab565b604082019050919050565b60006020820190508181036000830152610e3681610dfa565b9050919050565b7f5769746864726177206661696c65640000000000000000000000000000000000600082015250565b6000610e73600f83610afe565b9150610e7e82610e3d565b602082019050919050565b60006020820190508181036000830152610ea281610e66565b9050919050565b7f4f776e61626c653a2063616c6c6572206973206e6f7420746865206f776e6572600082015250565b6000610edf602083610afe565b9150610eea82610ea9565b602082019050919050565b60006020820190508181036000830152610f0e81610ed2565b9050919050565b7f5265656e7472616e637947756172643a207265656e7472616e742063616c6c00600082015250565b6000610f4b601f83610afe565b9150610f5682610f15565b602082019050919050565b60006020820190508181036000830152610f7a81610f3e565b905091905056fea26469706673582212200499ee4599ee7e1a9bf7de7a3ef5d9d146e345397077b31f046e11b81b5d235964736f6c63430008110033",
					"opcodes": "PUSH1 0x80 PUSH1 0x40 MSTORE CALLVALUE DUP1 ISZERO PUSH2 0x10 JUMPI PUSH1 0x0 DUP1 REVERT JUMPDEST POP PUSH2 0x2D PUSH2 0x22 PUSH2 0x39 PUSH1 0x20 SHL PUSH1 0x20 SHR JUMP JUMPDEST PUSH2 0x41 PUSH1 0x20 SHL PUSH1 0x20 SHR JUMP JUMPDEST PUSH1 0x1 DUP1 DUP2 SWAP1 SSTORE POP PUSH2 0x105 JUMP JUMPDEST PUSH1 0x0 CALLER SWAP1 POP SWAP1 JUMP JUMPDEST PUSH1 0x0 DUP1 PUSH1 0x0 SWAP1 SLOAD SWAP1 PUSH2 0x100 EXP SWAP1 DIV PUSH20 0xFFFFFFFFFFFFFFFFFFFFFFFFFFFFFFFFFFFFFFFF AND SWAP1 POP DUP2 PUSH1 0x0 DUP1 PUSH2 0x100 EXP DUP2 SLOAD DUP2 PUSH20 0xFFFFFFFFFFFFFFFFFFFFFFFFFFFFFFFFFFFFFFFF MUL NOT AND SWAP1 DUP4 PUSH20 0xFFFFFFFFFFFFFFFFFFFFFFFFFFFFFFFFFFFFFFFF AND MUL OR SWAP1 SSTORE POP DUP2 PUSH20 0xFFFFFFFFFFFFFFFFFFFFFFFFFFFFFFFFFFFFFFFF AND DUP2 PUSH20 0xFFFFFFFFFFFFFFFFFFFFFFFFFFFFFFFFFFFFFFFF AND PUSH32 0x8BE0079C531659141344CD1FD0A4F28419497F9722A3DAAFE3B4186F6B6457E0 PUSH1 0x40 MLOAD PUSH1 0x40 MLOAD DUP1 SWAP2 SUB SWAP1 LOG3 POP POP JUMP JUMPDEST PUSH2 0xFB7 DUP1 PUSH2 0x114 PUSH1 0x0 CODECOPY PUSH1 0x0 RETURN INVALID PUSH1 0x80 PUSH1 0x40 MSTORE PUSH1 0x4 CALLDATASIZE LT PUSH2 0x95 JUMPI PUSH1 0x0 CALLDATALOAD PUSH1 0xE0 SHR DUP1 PUSH4 0xEBCFCF6B GT PUSH2 0x59 JUMPI DUP1 PUSH4 0xEBCFCF6B EQ PUSH2 0x17B JUMPI DUP1 PUSH4 0xED88C68E EQ PUSH2 0x1B8 JUMPI DUP1 PUSH4 0xF2FDE38B EQ PUSH2 0x1C2 JUMPI DUP1 PUSH4 0xF3FEF3A3 EQ PUSH2 0x1EB JUMPI DUP1 PUSH4 0xF71D96CB EQ PUSH2 0x214 JUMPI PUSH2 0x9C JUMP JUMPDEST DUP1 PUSH4 0x715018A6 EQ PUSH2 0xA1 JUMPI DUP1 PUSH4 0x799AE223 EQ PUSH2 0xB8 JUMPI DUP1 PUSH4 0x8DA5CB5B EQ PUSH2 0xD6 JUMPI DUP1 PUSH4 0xD4C6E781 EQ PUSH2 0x101 JUMPI DUP1 PUSH4 0xD5EA664F EQ PUSH2 0x13E JUMPI PUSH2 0x9C JUMP JUMPDEST CALLDATASIZE PUSH2 0x9C JUMPI STOP JUMPDEST PUSH1 0x0 DUP1 REVERT JUMPDEST CALLVALUE DUP1 ISZERO PUSH2 0xAD JUMPI PUSH1 0x0 DUP1 REVERT JUMPDEST POP PUSH2 0xB6 PUSH2 0x251 JUMP JUMPDEST STOP JUMPDEST PUSH2 0xC0 PUSH2 0x265 JUMP JUMPDEST PUSH1 0x40 MLOAD PUSH2 0xCD SWAP2 SWAP1 PUSH2 0x95C JUMP JUMPDEST PUSH1 0x40 MLOAD DUP1 SWAP2 SUB SWAP1 RETURN JUMPDEST CALLVALUE DUP1 ISZERO PUSH2 0xE2 JUMPI PUSH1 0x0 DUP1 REVERT JUMPDEST POP PUSH2 0xEB PUSH2 0x5A4 JUMP JUMPDEST PUSH1 0x40 MLOAD PUSH2 0xF8 SWAP2 SWAP1 PUSH2 0x9B8 JUMP JUMPDEST PUSH1 0x40 MLOAD DUP1 SWAP2 SUB SWAP1 RETURN JUMPDEST CALLVALUE DUP1 ISZERO PUSH2 0x10D JUMPI PUSH1 0x0 DUP1 REVERT JUMPDEST POP PUSH2 0x128 PUSH1 0x4 DUP1 CALLDATASIZE SUB DUP2 ADD SWAP1 PUSH2 0x123 SWAP2 SWAP1 PUSH2 0xA0E JUMP JUMPDEST PUSH2 0x5CD JUMP JUMPDEST PUSH1 0x40 MLOAD PUSH2 0x135 SWAP2 SWAP1 PUSH2 0xA4A JUMP JUMPDEST PUSH1 0x40 MLOAD DUP1 SWAP2 SUB SWAP1 RETURN JUMPDEST CALLVALUE DUP1 ISZERO PUSH2 0x14A JUMPI PUSH1 0x0 DUP1 REVERT JUMPDEST POP PUSH2 0x165 PUSH1 0x4 DUP1 CALLDATASIZE SUB DUP2 ADD SWAP1 PUSH2 0x160 SWAP2 SWAP1 PUSH2 0xA91 JUMP JUMPDEST PUSH2 0x5F2 JUMP JUMPDEST PUSH1 0x40 MLOAD PUSH2 0x172 SWAP2 SWAP1 PUSH2 0xA4A JUMP JUMPDEST PUSH1 0x40 MLOAD DUP1 SWAP2 SUB SWAP1 RETURN JUMPDEST CALLVALUE DUP1 ISZERO PUSH2 0x187 JUMPI PUSH1 0x0 DUP1 REVERT JUMPDEST POP PUSH2 0x1A2 PUSH1 0x4 DUP1 CALLDATASIZE SUB DUP2 ADD SWAP1 PUSH2 0x19D SWAP2 SWAP1 PUSH2 0xA91 JUMP JUMPDEST PUSH2 0x60A JUMP JUMPDEST PUSH1 0x40 MLOAD PUSH2 0x1AF SWAP2 SWAP1 PUSH2 0xA4A JUMP JUMPDEST PUSH1 0x40 MLOAD DUP1 SWAP2 SUB SWAP1 RETURN JUMPDEST PUSH2 0x1C0 PUSH2 0x622 JUMP JUMPDEST STOP JUMPDEST CALLVALUE DUP1 ISZERO PUSH2 0x1CE JUMPI PUSH1 0x0 DUP1 REVERT JUMPDEST POP PUSH2 0x1E9 PUSH1 0x4 DUP1 CALLDATASIZE SUB DUP2 ADD SWAP1 PUSH2 0x1E4 SWAP2 SWAP1 PUSH2 0xA91 JUMP JUMPDEST PUSH2 0x624 JUMP JUMPDEST STOP JUMPDEST CALLVALUE DUP1 ISZERO PUSH2 0x1F7 JUMPI PUSH1 0x0 DUP1 REVERT JUMPDEST POP PUSH2 0x212 PUSH1 0x4 DUP1 CALLDATASIZE SUB DUP2 ADD SWAP1 PUSH2 0x20D SWAP2 SWAP1 PUSH2 0xABE JUMP JUMPDEST PUSH2 0x6A7 JUMP JUMPDEST STOP JUMPDEST CALLVALUE DUP1 ISZERO PUSH2 0x220 JUMPI PUSH1 0x0 DUP1 REVERT JUMPDEST POP PUSH2 0x23B PUSH1 0x4 DUP1 CALLDATASIZE SUB DUP2 ADD SWAP1 PUSH2 0x236 SWAP2 SWAP1 PUSH2 0xA0E JUMP JUMPDEST PUSH2 0x760 JUMP JUMPDEST PUSH1 0x40 MLOAD PUSH2 0x248 SWAP2 SWAP1 PUSH2 0x9B8 JUMP JUMPDEST PUSH1 0x40 MLOAD DUP1 SWAP2 SUB SWAP1 RETURN JUMPDEST PUSH2 0x259 PUSH2 0x79F JUMP JUMPDEST PUSH2 0x263 PUSH1 0x0 PUSH2 0x81D JUMP JUMPDEST JUMP JUMPDEST PUSH1 0x0 DUP1 CALLVALUE GT PUSH2 0x2A9 JUMPI PUSH1 0x40 MLOAD PUSH32 0x8C379A000000000000000000000000000000000000000000000000000000000 DUP2 MSTORE PUSH1 0x4 ADD PUSH2 0x2A0 SWAP1 PUSH2 0xB5B JUMP JUMPDEST PUSH1 0x40 MLOAD DUP1 SWAP2 SUB SWAP1 REVERT JUMPDEST PUSH2 0x2B1 PUSH2 0x8E1 JUMP JUMPDEST PUSH1 0x0 PUSH1 0x3 PUSH1 0x0 PUSH2 0x2BF PUSH2 0x930 JUMP JUMPDEST PUSH20 0xFFFFFFFFFFFFFFFFFFFFFFFFFFFFFFFFFFFFFFFF AND PUSH20 0xFFFFFFFFFFFFFFFFFFFFFFFFFFFFFFFFFFFFFFFF AND DUP2 MSTORE PUSH1 0x20 ADD SWAP1 DUP2 MSTORE PUSH1 0x20 ADD PUSH1 0x0 KECCAK256 SLOAD SUB PUSH2 0x36A JUMPI PUSH1 0x2 PUSH2 0x309 PUSH2 0x930 JUMP JUMPDEST SWAP1 DUP1 PUSH1 0x1 DUP2 SLOAD ADD DUP1 DUP3 SSTORE DUP1 SWAP2 POP POP PUSH1 0x1 SWAP1 SUB SWAP1 PUSH1 0x0 MSTORE PUSH1 0x20 PUSH1 0x0 KECCAK256 ADD PUSH1 0x0 SWAP1 SWAP2 SWAP1 SWAP2 SWAP1 SWAP2 PUSH2 0x100 EXP DUP2 SLOAD DUP2 PUSH20 0xFFFFFFFFFFFFFFFFFFFFFFFFFFFFFFFFFFFFFFFF MUL NOT AND SWAP1 DUP4 PUSH20 0xFFFFFFFFFFFFFFFFFFFFFFFFFFFFFFFFFFFFFFFF AND MUL OR SWAP1 SSTORE POP JUMPDEST CALLVALUE PUSH1 0x3 PUSH1 0x0 PUSH2 0x377 PUSH2 0x930 JUMP JUMPDEST PUSH20 0xFFFFFFFFFFFFFFFFFFFFFFFFFFFFFFFFFFFFFFFF AND PUSH20 0xFFFFFFFFFFFFFFFFFFFFFFFFFFFFFFFFFFFFFFFF AND DUP2 MSTORE PUSH1 0x20 ADD SWAP1 DUP2 MSTORE PUSH1 0x20 ADD PUSH1 0x0 KECCAK256 PUSH1 0x0 DUP3 DUP3 SLOAD PUSH2 0x3C0 SWAP2 SWAP1 PUSH2 0xBAA JUMP JUMPDEST SWAP3 POP POP DUP2 SWAP1 SSTORE POP PUSH1 0x1 PUSH2 0x3D3 PUSH1 0x2 PUSH2 0x5CD JUMP JUMPDEST SUB PUSH2 0x54F JUMPI PUSH1 0x0 PUSH2 0x3E2 PUSH2 0x930 JUMP JUMPDEST PUSH20 0xFFFFFFFFFFFFFFFFFFFFFFFFFFFFFFFFFFFFFFFF AND PUSH1 0x2 CALLVALUE PUSH2 0x405 SWAP2 SWAP1 PUSH2 0xBDE JUMP JUMPDEST PUSH1 0x40 MLOAD PUSH2 0x411 SWAP1 PUSH2 0xC51 JUMP JUMPDEST PUSH1 0x0 PUSH1 0x40 MLOAD DUP1 DUP4 SUB DUP2 DUP6 DUP8 GAS CALL SWAP3 POP POP POP RETURNDATASIZE DUP1 PUSH1 0x0 DUP2 EQ PUSH2 0x44E JUMPI PUSH1 0x40 MLOAD SWAP2 POP PUSH1 0x1F NOT PUSH1 0x3F RETURNDATASIZE ADD AND DUP3 ADD PUSH1 0x40 MSTORE RETURNDATASIZE DUP3 MSTORE RETURNDATASIZE PUSH1 0x0 PUSH1 0x20 DUP5 ADD RETURNDATACOPY PUSH2 0x453 JUMP JUMPDEST PUSH1 0x60 SWAP2 POP JUMPDEST POP POP SWAP1 POP DUP1 PUSH2 0x497 JUMPI PUSH1 0x40 MLOAD PUSH32 0x8C379A000000000000000000000000000000000000000000000000000000000 DUP2 MSTORE PUSH1 0x4 ADD PUSH2 0x48E SWAP1 PUSH2 0xCB2 JUMP JUMPDEST PUSH1 0x40 MLOAD DUP1 SWAP2 SUB SWAP1 REVERT JUMPDEST PUSH1 0x2 CALLVALUE PUSH2 0x4A4 SWAP2 SWAP1 PUSH2 0xBDE JUMP JUMPDEST PUSH1 0x4 PUSH1 0x0 PUSH2 0x4B0 PUSH2 0x930 JUMP JUMPDEST PUSH20 0xFFFFFFFFFFFFFFFFFFFFFFFFFFFFFFFFFFFFFFFF AND PUSH20 0xFFFFFFFFFFFFFFFFFFFFFFFFFFFFFFFFFFFFFFFF AND DUP2 MSTORE PUSH1 0x20 ADD SWAP1 DUP2 MSTORE PUSH1 0x20 ADD PUSH1 0x0 KECCAK256 PUSH1 0x0 DUP3 DUP3 SLOAD PUSH2 0x4F9 SWAP2 SWAP1 PUSH2 0xBAA JUMP JUMPDEST SWAP3 POP POP DUP2 SWAP1 SSTORE POP PUSH32 0xA879484791D530A16ED14B173B1EA9E94875683FE3C3761D7BA6A1A23D7BB805 PUSH2 0x529 PUSH2 0x930 JUMP JUMPDEST CALLVALUE PUSH1 0x1 TIMESTAMP PUSH1 0x40 MLOAD PUSH2 0x53D SWAP5 SWAP4 SWAP3 SWAP2 SWAP1 PUSH2 0xCD2 JUMP JUMPDEST PUSH1 0x40 MLOAD DUP1 SWAP2 SUB SWAP1 LOG1 PUSH1 0x1 SWAP2 POP POP PUSH2 0x599 JUMP JUMPDEST PUSH32 0xA879484791D530A16ED14B173B1EA9E94875683FE3C3761D7BA6A1A23D7BB805 PUSH2 0x578 PUSH2 0x930 JUMP JUMPDEST CALLVALUE PUSH1 0x0 TIMESTAMP PUSH1 0x40 MLOAD PUSH2 0x58C SWAP5 SWAP4 SWAP3 SWAP2 SWAP1 PUSH2 0xCD2 JUMP JUMPDEST PUSH1 0x40 MLOAD DUP1 SWAP2 SUB SWAP1 LOG1 PUSH1 0x0 SWAP1 POP JUMPDEST PUSH2 0x5A1 PUSH2 0x938 JUMP JUMPDEST SWAP1 JUMP JUMPDEST PUSH1 0x0 DUP1 PUSH1 0x0 SWAP1 SLOAD SWAP1 PUSH2 0x100 EXP SWAP1 DIV PUSH20 0xFFFFFFFFFFFFFFFFFFFFFFFFFFFFFFFFFFFFFFFF AND SWAP1 POP SWAP1 JUMP JUMPDEST PUSH1 0x0 DUP2 PUSH1 0x1 NUMBER PUSH2 0x5DD SWAP2 SWAP1 PUSH2 0xD17 JUMP JUMPDEST BLOCKHASH PUSH1 0x0 SHR PUSH2 0x5EB SWAP2 SWAP1 PUSH2 0xD7A JUMP JUMPDEST SWAP1 POP SWAP2 SWAP1 POP JUMP JUMPDEST PUSH1 0x4 PUSH1 0x20 MSTORE DUP1 PUSH1 0x0 MSTORE PUSH1 0x40 PUSH1 0x0 KECCAK256 PUSH1 0x0 SWAP2 POP SWAP1 POP SLOAD DUP2 JUMP JUMPDEST PUSH1 0x3 PUSH1 0x20 MSTORE DUP1 PUSH1 0x0 MSTORE PUSH1 0x40 PUSH1 0x0 KECCAK256 PUSH1 0x0 SWAP2 POP SWAP1 POP SLOAD DUP2 JUMP JUMPDEST JUMP JUMPDEST PUSH2 0x62C PUSH2 0x79F JUMP JUMPDEST PUSH1 0x0 PUSH20 0xFFFFFFFFFFFFFFFFFFFFFFFFFFFFFFFFFFFFFFFF AND DUP2 PUSH20 0xFFFFFFFFFFFFFFFFFFFFFFFFFFFFFFFFFFFFFFFF AND SUB PUSH2 0x69B JUMPI PUSH1 0x40 MLOAD PUSH32 0x8C379A000000000000000000000000000000000000000000000000000000000 DUP2 MSTORE PUSH1 0x4 ADD PUSH2 0x692 SWAP1 PUSH2 0xE1D JUMP JUMPDEST PUSH1 0x40 MLOAD DUP1 SWAP2 SUB SWAP1 REVERT JUMPDEST PUSH2 0x6A4 DUP2 PUSH2 0x81D JUMP JUMPDEST POP JUMP JUMPDEST PUSH2 0x6AF PUSH2 0x79F JUMP JUMPDEST PUSH1 0x0 DUP3 PUSH20 0xFFFFFFFFFFFFFFFFFFFFFFFFFFFFFFFFFFFFFFFF AND DUP3 PUSH1 0x40 MLOAD PUSH2 0x6D5 SWAP1 PUSH2 0xC51 JUMP JUMPDEST PUSH1 0x0 PUSH1 0x40 MLOAD DUP1 DUP4 SUB DUP2 DUP6 DUP8 GAS CALL SWAP3 POP POP POP RETURNDATASIZE DUP1 PUSH1 0x0 DUP2 EQ PUSH2 0x712 JUMPI PUSH1 0x40 MLOAD SWAP2 POP PUSH1 0x1F NOT PUSH1 0x3F RETURNDATASIZE ADD AND DUP3 ADD PUSH1 0x40 MSTORE RETURNDATASIZE DUP3 MSTORE RETURNDATASIZE PUSH1 0x0 PUSH1 0x20 DUP5 ADD RETURNDATACOPY PUSH2 0x717 JUMP JUMPDEST PUSH1 0x60 SWAP2 POP JUMPDEST POP POP SWAP1 POP DUP1 PUSH2 0x75B JUMPI PUSH1 0x40 MLOAD PUSH32 0x8C379A000000000000000000000000000000000000000000000000000000000 DUP2 MSTORE PUSH1 0x4 ADD PUSH2 0x752 SWAP1 PUSH2 0xE89 JUMP JUMPDEST PUSH1 0x40 MLOAD DUP1 SWAP2 SUB SWAP1 REVERT JUMPDEST POP POP POP JUMP JUMPDEST PUSH1 0x2 DUP2 DUP2 SLOAD DUP2 LT PUSH2 0x770 JUMPI PUSH1 0x0 DUP1 REVERT JUMPDEST SWAP1 PUSH1 0x0 MSTORE PUSH1 0x20 PUSH1 0x0 KECCAK256 ADD PUSH1 0x0 SWAP2 POP SLOAD SWAP1 PUSH2 0x100 EXP SWAP1 DIV PUSH20 0xFFFFFFFFFFFFFFFFFFFFFFFFFFFFFFFFFFFFFFFF AND DUP2 JUMP JUMPDEST PUSH2 0x7A7 PUSH2 0x930 JUMP JUMPDEST PUSH20 0xFFFFFFFFFFFFFFFFFFFFFFFFFFFFFFFFFFFFFFFF AND PUSH2 0x7C5 PUSH2 0x5A4 JUMP JUMPDEST PUSH20 0xFFFFFFFFFFFFFFFFFFFFFFFFFFFFFFFFFFFFFFFF AND EQ PUSH2 0x81B JUMPI PUSH1 0x40 MLOAD PUSH32 0x8C379A000000000000000000000000000000000000000000000000000000000 DUP2 MSTORE PUSH1 0x4 ADD PUSH2 0x812 SWAP1 PUSH2 0xEF5 JUMP JUMPDEST PUSH1 0x40 MLOAD DUP1 SWAP2 SUB SWAP1 REVERT JUMPDEST JUMP JUMPDEST PUSH1 0x0 DUP1 PUSH1 0x0 SWAP1 SLOAD SWAP1 PUSH2 0x100 EXP SWAP1 DIV PUSH20 0xFFFFFFFFFFFFFFFFFFFFFFFFFFFFFFFFFFFFFFFF AND SWAP1 POP DUP2 PUSH1 0x0 DUP1 PUSH2 0x100 EXP DUP2 SLOAD DUP2 PUSH20 0xFFFFFFFFFFFFFFFFFFFFFFFFFFFFFFFFFFFFFFFF MUL NOT AND SWAP1 DUP4 PUSH20 0xFFFFFFFFFFFFFFFFFFFFFFFFFFFFFFFFFFFFFFFF AND MUL OR SWAP1 SSTORE POP DUP2 PUSH20 0xFFFFFFFFFFFFFFFFFFFFFFFFFFFFFFFFFFFFFFFF AND DUP2 PUSH20 0xFFFFFFFFFFFFFFFFFFFFFFFFFFFFFFFFFFFFFFFF AND PUSH32 0x8BE0079C531659141344CD1FD0A4F28419497F9722A3DAAFE3B4186F6B6457E0 PUSH1 0x40 MLOAD PUSH1 0x40 MLOAD DUP1 SWAP2 SUB SWAP1 LOG3 POP POP JUMP JUMPDEST PUSH1 0x2 PUSH1 0x1 SLOAD SUB PUSH2 0x926 JUMPI PUSH1 0x40 MLOAD PUSH32 0x8C379A000000000000000000000000000000000000000000000000000000000 DUP2 MSTORE PUSH1 0x4 ADD PUSH2 0x91D SWAP1 PUSH2 0xF61 JUMP JUMPDEST PUSH1 0x40 MLOAD DUP1 SWAP2 SUB SWAP1 REVERT JUMPDEST PUSH1 0x2 PUSH1 0x1 DUP2 SWAP1 SSTORE POP JUMP JUMPDEST PUSH1 0x0 CALLER SWAP1 POP SWAP1 JUMP JUMPDEST PUSH1 0x1 DUP1 DUP2 SWAP1 SSTORE POP JUMP JUMPDEST PUSH1 0x0 DUP2 ISZERO ISZERO SWAP1 POP SWAP2 SWAP1 POP JUMP JUMPDEST PUSH2 0x956 DUP2 PUSH2 0x941 JUMP JUMPDEST DUP3 MSTORE POP POP JUMP JUMPDEST PUSH1 0x0 PUSH1 0x20 DUP3 ADD SWAP1 POP PUSH2 0x971 PUSH1 0x0 DUP4 ADD DUP5 PUSH2 0x94D JUMP JUMPDEST SWAP3 SWAP2 POP POP JUMP JUMPDEST PUSH1 0x0 PUSH20 0xFFFFFFFFFFFFFFFFFFFFFFFFFFFFFFFFFFFFFFFF DUP3 AND SWAP1 POP SWAP2 SWAP1 POP JUMP JUMPDEST PUSH1 0x0 PUSH2 0x9A2 DUP3 PUSH2 0x977 JUMP JUMPDEST SWAP1 POP SWAP2 SWAP1 POP JUMP JUMPDEST PUSH2 0x9B2 DUP2 PUSH2 0x997 JUMP JUMPDEST DUP3 MSTORE POP POP JUMP JUMPDEST PUSH1 0x0 PUSH1 0x20 DUP3 ADD SWAP1 POP PUSH2 0x9CD PUSH1 0x0 DUP4 ADD DUP5 PUSH2 0x9A9 JUMP JUMPDEST SWAP3 SWAP2 POP POP JUMP JUMPDEST PUSH1 0x0 DUP1 REVERT JUMPDEST PUSH1 0x0 DUP2 SWAP1 POP SWAP2 SWAP1 POP JUMP JUMPDEST PUSH2 0x9EB DUP2 PUSH2 0x9D8 JUMP JUMPDEST DUP2 EQ PUSH2 0x9F6 JUMPI PUSH1 0x0 DUP1 REVERT JUMPDEST POP JUMP JUMPDEST PUSH1 0x0 DUP2 CALLDATALOAD SWAP1 POP PUSH2 0xA08 DUP2 PUSH2 0x9E2 JUMP JUMPDEST SWAP3 SWAP2 POP POP JUMP JUMPDEST PUSH1 0x0 PUSH1 0x20 DUP3 DUP5 SUB SLT ISZERO PUSH2 0xA24 JUMPI PUSH2 0xA23 PUSH2 0x9D3 JUMP JUMPDEST JUMPDEST PUSH1 0x0 PUSH2 0xA32 DUP5 DUP3 DUP6 ADD PUSH2 0x9F9 JUMP JUMPDEST SWAP2 POP POP SWAP3 SWAP2 POP POP JUMP JUMPDEST PUSH2 0xA44 DUP2 PUSH2 0x9D8 JUMP JUMPDEST DUP3 MSTORE POP POP JUMP JUMPDEST PUSH1 0x0 PUSH1 0x20 DUP3 ADD SWAP1 POP PUSH2 0xA5F PUSH1 0x0 DUP4 ADD DUP5 PUSH2 0xA3B JUMP JUMPDEST SWAP3 SWAP2 POP POP JUMP JUMPDEST PUSH2 0xA6E DUP2 PUSH2 0x997 JUMP JUMPDEST DUP2 EQ PUSH2 0xA79 JUMPI PUSH1 0x0 DUP1 REVERT JUMPDEST POP JUMP JUMPDEST PUSH1 0x0 DUP2 CALLDATALOAD SWAP1 POP PUSH2 0xA8B DUP2 PUSH2 0xA65 JUMP JUMPDEST SWAP3 SWAP2 POP POP JUMP JUMPDEST PUSH1 0x0 PUSH1 0x20 DUP3 DUP5 SUB SLT ISZERO PUSH2 0xAA7 JUMPI PUSH2 0xAA6 PUSH2 0x9D3 JUMP JUMPDEST JUMPDEST PUSH1 0x0 PUSH2 0xAB5 DUP5 DUP3 DUP6 ADD PUSH2 0xA7C JUMP JUMPDEST SWAP2 POP POP SWAP3 SWAP2 POP POP JUMP JUMPDEST PUSH1 0x0 DUP1 PUSH1 0x40 DUP4 DUP6 SUB SLT ISZERO PUSH2 0xAD5 JUMPI PUSH2 0xAD4 PUSH2 0x9D3 JUMP JUMPDEST JUMPDEST PUSH1 0x0 PUSH2 0xAE3 DUP6 DUP3 DUP7 ADD PUSH2 0xA7C JUMP JUMPDEST SWAP3 POP POP PUSH1 0x20 PUSH2 0xAF4 DUP6 DUP3 DUP7 ADD PUSH2 0x9F9 JUMP JUMPDEST SWAP2 POP POP SWAP3 POP SWAP3 SWAP1 POP JUMP JUMPDEST PUSH1 0x0 DUP3 DUP3 MSTORE PUSH1 0x20 DUP3 ADD SWAP1 POP SWAP3 SWAP2 POP POP JUMP JUMPDEST PUSH32 0x4E6F7420656E6F756768207061796D656E740000000000000000000000000000 PUSH1 0x0 DUP3 ADD MSTORE POP JUMP JUMPDEST PUSH1 0x0 PUSH2 0xB45 PUSH1 0x12 DUP4 PUSH2 0xAFE JUMP JUMPDEST SWAP2 POP PUSH2 0xB50 DUP3 PUSH2 0xB0F JUMP JUMPDEST PUSH1 0x20 DUP3 ADD SWAP1 POP SWAP2 SWAP1 POP JUMP JUMPDEST PUSH1 0x0 PUSH1 0x20 DUP3 ADD SWAP1 POP DUP2 DUP2 SUB PUSH1 0x0 DUP4 ADD MSTORE PUSH2 0xB74 DUP2 PUSH2 0xB38 JUMP JUMPDEST SWAP1 POP SWAP2 SWAP1 POP JUMP JUMPDEST PUSH32 0x4E487B7100000000000000000000000000000000000000000000000000000000 PUSH1 0x0 MSTORE PUSH1 0x11 PUSH1 0x4 MSTORE PUSH1 0x24 PUSH1 0x0 REVERT JUMPDEST PUSH1 0x0 PUSH2 0xBB5 DUP3 PUSH2 0x9D8 JUMP JUMPDEST SWAP2 POP PUSH2 0xBC0 DUP4 PUSH2 0x9D8 JUMP JUMPDEST SWAP3 POP DUP3 DUP3 ADD SWAP1 POP DUP1 DUP3 GT ISZERO PUSH2 0xBD8 JUMPI PUSH2 0xBD7 PUSH2 0xB7B JUMP JUMPDEST JUMPDEST SWAP3 SWAP2 POP POP JUMP JUMPDEST PUSH1 0x0 PUSH2 0xBE9 DUP3 PUSH2 0x9D8 JUMP JUMPDEST SWAP2 POP PUSH2 0xBF4 DUP4 PUSH2 0x9D8 JUMP JUMPDEST SWAP3 POP DUP3 DUP3 MUL PUSH2 0xC02 DUP2 PUSH2 0x9D8 JUMP JUMPDEST SWAP2 POP DUP3 DUP3 DIV DUP5 EQ DUP4 ISZERO OR PUSH2 0xC19 JUMPI PUSH2 0xC18 PUSH2 0xB7B JUMP JUMPDEST JUMPDEST POP SWAP3 SWAP2 POP POP JUMP JUMPDEST PUSH1 0x0 DUP2 SWAP1 POP SWAP3 SWAP2 POP POP JUMP JUMPDEST POP JUMP JUMPDEST PUSH1 0x0 PUSH2 0xC3B PUSH1 0x0 DUP4 PUSH2 0xC20 JUMP JUMPDEST SWAP2 POP PUSH2 0xC46 DUP3 PUSH2 0xC2B JUMP JUMPDEST PUSH1 0x0 DUP3 ADD SWAP1 POP SWAP2 SWAP1 POP JUMP JUMPDEST PUSH1 0x0 PUSH2 0xC5C DUP3 PUSH2 0xC2E JUMP JUMPDEST SWAP2 POP DUP2 SWAP1 POP SWAP2 SWAP1 POP JUMP JUMPDEST PUSH32 0x5472616E73666572206661696C65640000000000000000000000000000000000 PUSH1 0x0 DUP3 ADD MSTORE POP JUMP JUMPDEST PUSH1 0x0 PUSH2 0xC9C PUSH1 0xF DUP4 PUSH2 0xAFE JUMP JUMPDEST SWAP2 POP PUSH2 0xCA7 DUP3 PUSH2 0xC66 JUMP JUMPDEST PUSH1 0x20 DUP3 ADD SWAP1 POP SWAP2 SWAP1 POP JUMP JUMPDEST PUSH1 0x0 PUSH1 0x20 DUP3 ADD SWAP1 POP DUP2 DUP2 SUB PUSH1 0x0 DUP4 ADD MSTORE PUSH2 0xCCB DUP2 PUSH2 0xC8F JUMP JUMPDEST SWAP1 POP SWAP2 SWAP1 POP JUMP JUMPDEST PUSH1 0x0 PUSH1 0x80 DUP3 ADD SWAP1 POP PUSH2 0xCE7 PUSH1 0x0 DUP4 ADD DUP8 PUSH2 0x9A9 JUMP JUMPDEST PUSH2 0xCF4 PUSH1 0x20 DUP4 ADD DUP7 PUSH2 0xA3B JUMP JUMPDEST PUSH2 0xD01 PUSH1 0x40 DUP4 ADD DUP6 PUSH2 0x94D JUMP JUMPDEST PUSH2 0xD0E PUSH1 0x60 DUP4 ADD DUP5 PUSH2 0xA3B JUMP JUMPDEST SWAP6 SWAP5 POP POP POP POP POP JUMP JUMPDEST PUSH1 0x0 PUSH2 0xD22 DUP3 PUSH2 0x9D8 JUMP JUMPDEST SWAP2 POP PUSH2 0xD2D DUP4 PUSH2 0x9D8 JUMP JUMPDEST SWAP3 POP DUP3 DUP3 SUB SWAP1 POP DUP2 DUP2 GT ISZERO PUSH2 0xD45 JUMPI PUSH2 0xD44 PUSH2 0xB7B JUMP JUMPDEST JUMPDEST SWAP3 SWAP2 POP POP JUMP JUMPDEST PUSH32 0x4E487B7100000000000000000000000000000000000000000000000000000000 PUSH1 0x0 MSTORE PUSH1 0x12 PUSH1 0x4 MSTORE PUSH1 0x24 PUSH1 0x0 REVERT JUMPDEST PUSH1 0x0 PUSH2 0xD85 DUP3 PUSH2 0x9D8 JUMP JUMPDEST SWAP2 POP PUSH2 0xD90 DUP4 PUSH2 0x9D8 JUMP JUMPDEST SWAP3 POP DUP3 PUSH2 0xDA0 JUMPI PUSH2 0xD9F PUSH2 0xD4B JUMP JUMPDEST JUMPDEST DUP3 DUP3 MOD SWAP1 POP SWAP3 SWAP2 POP POP JUMP JUMPDEST PUSH32 0x4F776E61626C653A206E6577206F776E657220697320746865207A65726F2061 PUSH1 0x0 DUP3 ADD MSTORE PUSH32 0x6464726573730000000000000000000000000000000000000000000000000000 PUSH1 0x20 DUP3 ADD MSTORE POP JUMP JUMPDEST PUSH1 0x0 PUSH2 0xE07 PUSH1 0x26 DUP4 PUSH2 0xAFE JUMP JUMPDEST SWAP2 POP PUSH2 0xE12 DUP3 PUSH2 0xDAB JUMP JUMPDEST PUSH1 0x40 DUP3 ADD SWAP1 POP SWAP2 SWAP1 POP JUMP JUMPDEST PUSH1 0x0 PUSH1 0x20 DUP3 ADD SWAP1 POP DUP2 DUP2 SUB PUSH1 0x0 DUP4 ADD MSTORE PUSH2 0xE36 DUP2 PUSH2 0xDFA JUMP JUMPDEST SWAP1 POP SWAP2 SWAP1 POP JUMP JUMPDEST PUSH32 0x5769746864726177206661696C65640000000000000000000000000000000000 PUSH1 0x0 DUP3 ADD MSTORE POP JUMP JUMPDEST PUSH1 0x0 PUSH2 0xE73 PUSH1 0xF DUP4 PUSH2 0xAFE JUMP JUMPDEST SWAP2 POP PUSH2 0xE7E DUP3 PUSH2 0xE3D JUMP JUMPDEST PUSH1 0x20 DUP3 ADD SWAP1 POP SWAP2 SWAP1 POP JUMP JUMPDEST PUSH1 0x0 PUSH1 0x20 DUP3 ADD SWAP1 POP DUP2 DUP2 SUB PUSH1 0x0 DUP4 ADD MSTORE PUSH2 0xEA2 DUP2 PUSH2 0xE66 JUMP JUMPDEST SWAP1 POP SWAP2 SWAP1 POP JUMP JUMPDEST PUSH32 0x4F776E61626C653A2063616C6C6572206973206E6F7420746865206F776E6572 PUSH1 0x0 DUP3 ADD MSTORE POP JUMP JUMPDEST PUSH1 0x0 PUSH2 0xEDF PUSH1 0x20 DUP4 PUSH2 0xAFE JUMP JUMPDEST SWAP2 POP PUSH2 0xEEA DUP3 PUSH2 0xEA9 JUMP JUMPDEST PUSH1 0x20 DUP3 ADD SWAP1 POP SWAP2 SWAP1 POP JUMP JUMPDEST PUSH1 0x0 PUSH1 0x20 DUP3 ADD SWAP1 POP DUP2 DUP2 SUB PUSH1 0x0 DUP4 ADD MSTORE PUSH2 0xF0E DUP2 PUSH2 0xED2 JUMP JUMPDEST SWAP1 POP SWAP2 SWAP1 POP JUMP JUMPDEST PUSH32 0x5265656E7472616E637947756172643A207265656E7472616E742063616C6C00 PUSH1 0x0 DUP3 ADD MSTORE POP JUMP JUMPDEST PUSH1 0x0 PUSH2 0xF4B PUSH1 0x1F DUP4 PUSH2 0xAFE JUMP JUMPDEST SWAP2 POP PUSH2 0xF56 DUP3 PUSH2 0xF15 JUMP JUMPDEST PUSH1 0x20 DUP3 ADD SWAP1 POP SWAP2 SWAP1 POP JUMP JUMPDEST PUSH1 0x0 PUSH1 0x20 DUP3 ADD SWAP1 POP DUP2 DUP2 SUB PUSH1 0x0 DUP4 ADD MSTORE PUSH2 0xF7A DUP2 PUSH2 0xF3E JUMP JUMPDEST SWAP1 POP SWAP2 SWAP1 POP JUMP INVALID LOG2 PUSH5 0x6970667358 0x22 SLT KECCAK256 DIV SWAP10 0xEE GASLIMIT SWAP10 0xEE PUSH31 0x1A9BF7DE7A3EF5D9D146E345397077B31F046E11B81B5D235964736F6C6343 STOP ADDMOD GT STOP CALLER "
				},
				"gasEstimates": {
					"creation": {
						"codeDepositCost": "804600",
						"executionCost": "infinite",
						"totalCost": "infinite"
					},
					"external": {
						"RNG(uint256)": "infinite",
						"betAmounts(address)": "2814",
						"donate()": "142",
						"flipCoin()": "infinite",
						"owner()": "2567",
						"players(uint256)": "5044",
						"renounceOwnership()": "30399",
						"transferOwnership(address)": "30788",
						"winAmounts(address)": "2903",
						"withdraw(address,uint256)": "infinite"
					}
				},
				"methodIdentifiers": {
					"RNG(uint256)": "d4c6e781",
					"betAmounts(address)": "ebcfcf6b",
					"donate()": "ed88c68e",
					"flipCoin()": "799ae223",
					"owner()": "8da5cb5b",
					"players(uint256)": "f71d96cb",
					"renounceOwnership()": "715018a6",
					"transferOwnership(address)": "f2fde38b",
					"winAmounts(address)": "d5ea664f",
					"withdraw(address,uint256)": "f3fef3a3"
				}
			},
			"storageLayout": {
				"storage": [
					{
						"astId": 7,
						"contract": "contracts/MetisCasino.sol:MetisCasino",
						"label": "_owner",
						"offset": 0,
						"slot": "0",
						"type": "t_address"
					},
					{
						"astId": 123,
						"contract": "contracts/MetisCasino.sol:MetisCasino",
						"label": "_status",
						"offset": 0,
						"slot": "1",
						"type": "t_uint256"
					},
					{
						"astId": 518,
						"contract": "contracts/MetisCasino.sol:MetisCasino",
						"label": "players",
						"offset": 0,
						"slot": "2",
						"type": "t_array(t_address)dyn_storage"
					},
					{
						"astId": 522,
						"contract": "contracts/MetisCasino.sol:MetisCasino",
						"label": "betAmounts",
						"offset": 0,
						"slot": "3",
						"type": "t_mapping(t_address,t_uint256)"
					},
					{
						"astId": 526,
						"contract": "contracts/MetisCasino.sol:MetisCasino",
						"label": "winAmounts",
						"offset": 0,
						"slot": "4",
						"type": "t_mapping(t_address,t_uint256)"
					}
				],
				"types": {
					"t_address": {
						"encoding": "inplace",
						"label": "address",
						"numberOfBytes": "20"
					},
					"t_array(t_address)dyn_storage": {
						"base": "t_address",
						"encoding": "dynamic_array",
						"label": "address[]",
						"numberOfBytes": "32"
					},
					"t_mapping(t_address,t_uint256)": {
						"encoding": "mapping",
						"key": "t_address",
						"label": "mapping(address => uint256)",
						"numberOfBytes": "32",
						"value": "t_uint256"
					},
					"t_uint256": {
						"encoding": "inplace",
						"label": "uint256",
						"numberOfBytes": "32"
					}
				}
			},
			"userdoc": {
				"kind": "user",
				"methods": {},
				"version": 1
			}
		}
	}
}