{
	"data": {
		"bytecode": {
			"linkReferences": {},
			"object": "608060405273f753c11e5167247f156d22b0dd6c6333b934835c600260006101000a81548173ffffffffffffffffffffffffffffffffffffffff021916908373ffffffffffffffffffffffffffffffffffffffff1602179055506040518060a00160405280601d60ff168152602001601860ff168152602001601360ff168152602001600e60ff168152602001600960ff168152506003906005620000a6929190620001ae565b50348015620000b457600080fd5b50620000d5620000c9620000e260201b60201c565b620000ea60201b60201c565b6001808190555062000217565b600033905090565b60008060009054906101000a900473ffffffffffffffffffffffffffffffffffffffff169050816000806101000a81548173ffffffffffffffffffffffffffffffffffffffff021916908373ffffffffffffffffffffffffffffffffffffffff1602179055508173ffffffffffffffffffffffffffffffffffffffff168173ffffffffffffffffffffffffffffffffffffffff167f8be0079c531659141344cd1fd0a4f28419497f9722a3daafe3b4186f6b6457e060405160405180910390a35050565b8260058101928215620001e5579160200282015b82811115620001e4578251829060ff16905591602001919060010190620001c2565b5b509050620001f49190620001f8565b5090565b5b8082111562000213576000816000905550600101620001f9565b5090565b6128f080620002276000396000f3fe60806040526004361061014b5760003560e01c806391b7f5ed116100b6578063d0399bb81161006f578063d0399bb8146104a6578063d65ab5f2146104cf578063e4312377146104d9578063f2fde38b14610504578063f71d96cb1461052d578063fa3059491461056a5761014b565b806391b7f5ed14610372578063a035b1fe1461039b578063afc865dd146103c6578063b2eeed8614610403578063bbe192ba14610440578063bdc78c95146104695761014b565b80633ab1a494116101085780633ab1a494146102865780635aa68ac0146102af578063715018a6146102da5780638b5b9ccc146102f15780638da5cb5b1461031c5780638fefec47146103475761014b565b8063073cd85f14610150578063094bb204146101675780630fac9100146101a45780631581b600146101e1578063247bdda31461020c57806335c1d34914610249575b600080fd5b34801561015c57600080fd5b506101656105a7565b005b34801561017357600080fd5b5061018e60048036038101906101899190611d7a565b610f5a565b60405161019b9190611dc0565b60405180910390f35b3480156101b057600080fd5b506101cb60048036038101906101c69190611d7a565b610f72565b6040516101d89190611dc0565b60405180910390f35b3480156101ed57600080fd5b506101f6610f8a565b6040516102039190611dea565b60405180910390f35b34801561021857600080fd5b50610233600480360381019061022e9190611e31565b610fb0565b6040516102409190611dc0565b60405180910390f35b34801561025557600080fd5b50610270600480360381019061026b9190611e31565b610fcb565b60405161027d9190611dea565b60405180910390f35b34801561029257600080fd5b506102ad60048036038101906102a89190611d7a565b61100a565b005b3480156102bb57600080fd5b506102c4611056565b6040516102d19190611f1c565b60405180910390f35b3480156102e657600080fd5b506102ef6110e4565b005b3480156102fd57600080fd5b506103066110f8565b6040516103139190611f1c565b60405180910390f35b34801561032857600080fd5b50610331611186565b60405161033e9190611dea565b60405180910390f35b34801561035357600080fd5b5061035c6111af565b6040516103699190612175565b60405180910390f35b34801561037e57600080fd5b5061039960048036038101906103949190611e31565b61131d565b005b3480156103a757600080fd5b506103b061132f565b6040516103bd9190611dc0565b60405180910390f35b3480156103d257600080fd5b506103ed60048036038101906103e89190611e31565b611335565b6040516103fa9190611dc0565b60405180910390f35b34801561040f57600080fd5b5061042a60048036038101906104259190611d7a565b611363565b6040516104379190611dc0565b60405180910390f35b34801561044c57600080fd5b5061046760048036038101906104629190612197565b61137b565b005b34801561047557600080fd5b50610490600480360381019061048b9190611d7a565b611410565b60405161049d919061222d565b60405180910390f35b3480156104b257600080fd5b506104cd60048036038101906104c89190611e31565b611430565b005b6104d7611812565b005b3480156104e557600080fd5b506104ee6118f8565b6040516104fb91906122aa565b60405180910390f35b34801561051057600080fd5b5061052b60048036038101906105269190611d7a565b611943565b005b34801561053957600080fd5b50610554600480360381019061054f9190611e31565b6119c6565b6040516105619190611dea565b60405180910390f35b34801561057657600080fd5b50610591600480360381019061058c9190611d7a565b611a05565b60405161059e9190611dc0565b60405180910390f35b6105af611a1d565b6105b7611bbf565b6105bf611be1565b60005b600f805490508110156109355760005b600581101561092157600073ffffffffffffffffffffffffffffffffffffffff16848260058110610606576106056122c5565b5b602002015173ffffffffffffffffffffffffffffffffffffffff1614806107de57506010600085836005811061063f5761063e6122c5565b5b602002015173ffffffffffffffffffffffffffffffffffffffff1673ffffffffffffffffffffffffffffffffffffffff1681526020019081526020016000205460106000600f8581548110610697576106966122c5565b5b9060005260206000200160009054906101000a900473ffffffffffffffffffffffffffffffffffffffff1673ffffffffffffffffffffffffffffffffffffffff1673ffffffffffffffffffffffffffffffffffffffff16815260200190815260200160002054101580156107dd57506011600085836005811061071d5761071c6122c5565b5b602002015173ffffffffffffffffffffffffffffffffffffffff1673ffffffffffffffffffffffffffffffffffffffff1681526020019081526020016000205460116000600f8581548110610775576107746122c5565b5b9060005260206000200160009054906101000a900473ffffffffffffffffffffffffffffffffffffffff1673ffffffffffffffffffffffffffffffffffffffff1673ffffffffffffffffffffffffffffffffffffffff16815260200190815260200160002054105b5b1561090e5760006001826107f29190612323565b90505b600581101561087f578460018261080c9190612357565b6005811061081d5761081c6122c5565b5b6020020151858260058110610835576108346122c5565b5b602002019073ffffffffffffffffffffffffffffffffffffffff16908173ffffffffffffffffffffffffffffffffffffffff168152505080806108779061238b565b9150506107f5565b50600f8181548110610894576108936122c5565b5b9060005260206000200160009054906101000a900473ffffffffffffffffffffffffffffffffffffffff168482600581106108d2576108d16122c5565b5b602002019073ffffffffffffffffffffffffffffffffffffffff16908173ffffffffffffffffffffffffffffffffffffffff1681525050610921565b80806109199061238b565b9150506105d2565b50808061092d9061238b565b9150506105c2565b5060005b6005811015610c7157600073ffffffffffffffffffffffffffffffffffffffff1683826005811061096d5761096c6122c5565b5b602002015173ffffffffffffffffffffffffffffffffffffffff160315610c71578281600581106109a1576109a06122c5565b5b6020020151826000015182600581106109bd576109bc6122c5565b5b602002019073ffffffffffffffffffffffffffffffffffffffff16908173ffffffffffffffffffffffffffffffffffffffff168152505060106000848360058110610a0b57610a0a6122c5565b5b602002015173ffffffffffffffffffffffffffffffffffffffff1673ffffffffffffffffffffffffffffffffffffffff1681526020019081526020016000205482602001518260058110610a6257610a616122c5565b5b60200201818152505060006064600854600e5460038560058110610a8957610a886122c5565b5b0154610a9591906123d3565b610a9f91906123d3565b610aa99190612444565b90508083604001518360058110610ac357610ac26122c5565b5b6020020181815250506000848360058110610ae157610ae06122c5565b5b602002015173ffffffffffffffffffffffffffffffffffffffff1682604051610b09906124a6565b60006040518083038185875af1925050503d8060008114610b46576040519150601f19603f3d011682016040523d82523d6000602084013e610b4b565b606091505b5050905080610b8f576040517f08c379a0000000000000000000000000000000000000000000000000000000008152600401610b8690612518565b60405180910390fd5b81600b6000878660058110610ba757610ba66122c5565b5b602002015173ffffffffffffffffffffffffffffffffffffffff1673ffffffffffffffffffffffffffffffffffffffff1681526020019081526020016000206000828254610bf59190612323565b925050819055507fc5d0aba04b7cd5dd8a59ed0b989a6adaba9d0674b4783192e5904d65bc15d66f858460058110610c3057610c2f6122c5565b5b6020020151600185610c429190612323565b8442604051610c549493929190612538565b60405180910390a150508080610c699061238b565b915050610939565b50428160600181815250506000600260009054906101000a900473ffffffffffffffffffffffffffffffffffffffff1673ffffffffffffffffffffffffffffffffffffffff1647604051610cc4906124a6565b60006040518083038185875af1925050503d8060008114610d01576040519150601f19603f3d011682016040523d82523d6000602084013e610d06565b606091505b5050905080610d4a576040517f08c379a0000000000000000000000000000000000000000000000000000000008152600401610d41906125c9565b60405180910390fd5b5b6000600f805490501115610ecd57600060106000600f6001600f80549050610d739190612357565b81548110610d8457610d836122c5565b5b9060005260206000200160009054906101000a900473ffffffffffffffffffffffffffffffffffffffff1673ffffffffffffffffffffffffffffffffffffffff1673ffffffffffffffffffffffffffffffffffffffff16815260200190815260200160002081905550600060116000600f6001600f80549050610e079190612357565b81548110610e1857610e176122c5565b5b9060005260206000200160009054906101000a900473ffffffffffffffffffffffffffffffffffffffff1673ffffffffffffffffffffffffffffffffffffffff1673ffffffffffffffffffffffffffffffffffffffff16815260200190815260200160002081905550600f805480610e9357610e926125e9565b5b6001900381819060005260206000200160006101000a81549073ffffffffffffffffffffffffffffffffffffffff02191690559055610d4b565b6000600e81905550600d829080600181540180825580915050600190039060005260206000209060100201600090919091909150600082015181600001906005610f18929190611c1b565b50602082015181600501906005610f30929190611c98565b50604082015181600a01906005610f48929190611c98565b50606082015181600f01555050505050565b600b6020528060005260406000206000915090505481565b60106020528060005260406000206000915090505481565b600260009054906101000a900473ffffffffffffffffffffffffffffffffffffffff1681565b60038160058110610fc057600080fd5b016000915090505481565b600f8181548110610fdb57600080fd5b906000526020600020016000915054906101000a900473ffffffffffffffffffffffffffffffffffffffff1681565b611012611a1d565b80600260006101000a81548173ffffffffffffffffffffffffffffffffffffffff021916908373ffffffffffffffffffffffffffffffffffffffff16021790555050565b6060600f8054806020026020016040519081016040528092919081815260200182805480156110da57602002820191906000526020600020905b8160009054906101000a900473ffffffffffffffffffffffffffffffffffffffff1673ffffffffffffffffffffffffffffffffffffffff1681526020019060010190808311611090575b5050505050905090565b6110ec611a1d565b6110f66000611a9b565b565b6060600980548060200260200160405190810160405280929190818152602001828054801561117c57602002820191906000526020600020905b8160009054906101000a900473ffffffffffffffffffffffffffffffffffffffff1673ffffffffffffffffffffffffffffffffffffffff1681526020019060010190808311611132575b5050505050905090565b60008060009054906101000a900473ffffffffffffffffffffffffffffffffffffffff16905090565b6060600d805480602002602001604051908101604052809291908181526020016000905b82821015611314578382906000526020600020906010020160405180608001604052908160008201600580602002604051908101604052809291908260058015611268576020028201915b8160009054906101000a900473ffffffffffffffffffffffffffffffffffffffff1673ffffffffffffffffffffffffffffffffffffffff168152602001906001019080831161121e575b50505050508152602001600582016005806020026040519081016040528092919082600580156112ad576020028201915b815481526020019060010190808311611299575b50505050508152602001600a82016005806020026040519081016040528092919082600580156112f2576020028201915b8154815260200190600101908083116112de575b50505050508152602001600f82015481525050815260200190600101906111d3565b50505050905090565b611325611a1d565b8060088190555050565b60085481565b600d818154811061134557600080fd5b906000526020600020906010020160009150905080600f0154905081565b60116020528060005260406000206000915090505481565b611383611a1d565b846003600060058110611399576113986122c5565b5b01819055508360036001600581106113b4576113b36122c5565b5b01819055508260036002600581106113cf576113ce6122c5565b5b018190555081600380600581106113e9576113e86122c5565b5b0181905550806003600460058110611404576114036122c5565b5b01819055505050505050565b600c6020528060005260406000206000915054906101000a900460ff1681565b611438611b5f565b6000811180156114985750600c600061144f611bae565b73ffffffffffffffffffffffffffffffffffffffff1673ffffffffffffffffffffffffffffffffffffffff16815260200190815260200160002060009054906101000a900460ff165b6114d7576040517f08c379a00000000000000000000000000000000000000000000000000000000081526004016114ce90612664565b60405180910390fd5b6000600c60006114e5611bae565b73ffffffffffffffffffffffffffffffffffffffff1673ffffffffffffffffffffffffffffffffffffffff16815260200190815260200160002060006101000a81548160ff0219169083151502179055506000600a6000611544611bae565b73ffffffffffffffffffffffffffffffffffffffff1673ffffffffffffffffffffffffffffffffffffffff16815260200190815260200160002054036115ef57600961158e611bae565b9080600181540180825580915050600190039060005260206000200160009091909190916101000a81548173ffffffffffffffffffffffffffffffffffffffff021916908373ffffffffffffffffffffffffffffffffffffffff1602179055505b80600a60006115fc611bae565b73ffffffffffffffffffffffffffffffffffffffff1673ffffffffffffffffffffffffffffffffffffffff16815260200190815260200160002060008282546116459190612323565b9250508190555060006010600061165a611bae565b73ffffffffffffffffffffffffffffffffffffffff1673ffffffffffffffffffffffffffffffffffffffff168152602001908152602001600020540361170557600f6116a4611bae565b9080600181540180825580915050600190039060005260206000200160009091909190916101000a81548173ffffffffffffffffffffffffffffffffffffffff021916908373ffffffffffffffffffffffffffffffffffffffff1602179055505b8060106000611712611bae565b73ffffffffffffffffffffffffffffffffffffffff1673ffffffffffffffffffffffffffffffffffffffff168152602001908152602001600020600082825461175b9190612323565b92505081905550426011600061176f611bae565b73ffffffffffffffffffffffffffffffffffffffff1673ffffffffffffffffffffffffffffffffffffffff16815260200190815260200160002081905550600e60008154809291906117c09061238b565b91905055507f1a0da0f323e639ddc4f72afdc6e15f3fc4d63e8db62bd38a5c6ad04bc5a37be26117ee611bae565b82426040516117ff93929190612684565b60405180910390a161180f611bb6565b50565b600854341015611857576040517f08c379a000000000000000000000000000000000000000000000000000000000815260040161184e90612707565b60405180910390fd5b6001600c6000611865611bae565b73ffffffffffffffffffffffffffffffffffffffff1673ffffffffffffffffffffffffffffffffffffffff16815260200190815260200160002060006101000a81548160ff0219169083151502179055507f827a821cc7b9cae4c0baef42ee9cdeb791722ab1aa43532c255ea468ea6d5b1d6118df611bae565b426040516118ee929190612727565b60405180910390a1565b611900611cd8565b6003600580602002604051908101604052809291908260058015611939576020028201915b815481526020019060010190808311611925575b5050505050905090565b61194b611a1d565b600073ffffffffffffffffffffffffffffffffffffffff168173ffffffffffffffffffffffffffffffffffffffff16036119ba576040517f08c379a00000000000000000000000000000000000000000000000000000000081526004016119b1906127c2565b60405180910390fd5b6119c381611a9b565b50565b600981815481106119d657600080fd5b906000526020600020016000915054906101000a900473ffffffffffffffffffffffffffffffffffffffff1681565b600a6020528060005260406000206000915090505481565b611a25611bae565b73ffffffffffffffffffffffffffffffffffffffff16611a43611186565b73ffffffffffffffffffffffffffffffffffffffff1614611a99576040517f08c379a0000000000000000000000000000000000000000000000000000000008152600401611a909061282e565b60405180910390fd5b565b60008060009054906101000a900473ffffffffffffffffffffffffffffffffffffffff169050816000806101000a81548173ffffffffffffffffffffffffffffffffffffffff021916908373ffffffffffffffffffffffffffffffffffffffff1602179055508173ffffffffffffffffffffffffffffffffffffffff168173ffffffffffffffffffffffffffffffffffffffff167f8be0079c531659141344cd1fd0a4f28419497f9722a3daafe3b4186f6b6457e060405160405180910390a35050565b600260015403611ba4576040517f08c379a0000000000000000000000000000000000000000000000000000000008152600401611b9b9061289a565b60405180910390fd5b6002600181905550565b600033905090565b60018081905550565b6040518060a00160405280600590602082028036833780820191505090505090565b6040518060800160405280611bf4611bbf565b8152602001611c01611cd8565b8152602001611c0e611cd8565b8152602001600081525090565b8260058101928215611c87579160200282015b82811115611c865782518260006101000a81548173ffffffffffffffffffffffffffffffffffffffff021916908373ffffffffffffffffffffffffffffffffffffffff16021790555091602001919060010190611c2e565b5b509050611c949190611cfa565b5090565b8260058101928215611cc7579160200282015b82811115611cc6578251825591602001919060010190611cab565b5b509050611cd49190611cfa565b5090565b6040518060a00160405280600590602082028036833780820191505090505090565b5b80821115611d13576000816000905550600101611cfb565b5090565b600080fd5b600073ffffffffffffffffffffffffffffffffffffffff82169050919050565b6000611d4782611d1c565b9050919050565b611d5781611d3c565b8114611d6257600080fd5b50565b600081359050611d7481611d4e565b92915050565b600060208284031215611d9057611d8f611d17565b5b6000611d9e84828501611d65565b91505092915050565b6000819050919050565b611dba81611da7565b82525050565b6000602082019050611dd56000830184611db1565b92915050565b611de481611d3c565b82525050565b6000602082019050611dff6000830184611ddb565b92915050565b611e0e81611da7565b8114611e1957600080fd5b50565b600081359050611e2b81611e05565b92915050565b600060208284031215611e4757611e46611d17565b5b6000611e5584828501611e1c565b91505092915050565b600081519050919050565b600082825260208201905092915050565b6000819050602082019050919050565b611e9381611d3c565b82525050565b6000611ea58383611e8a565b60208301905092915050565b6000602082019050919050565b6000611ec982611e5e565b611ed38185611e69565b9350611ede83611e7a565b8060005b83811015611f0f578151611ef68882611e99565b9750611f0183611eb1565b925050600181019050611ee2565b5085935050505092915050565b60006020820190508181036000830152611f368184611ebe565b905092915050565b600081519050919050565b600082825260208201905092915050565b6000819050602082019050919050565b600060059050919050565b600081905092915050565b6000819050919050565b6000602082019050919050565b611fa081611f6a565b611faa8184611f75565b9250611fb582611f80565b8060005b83811015611fe6578151611fcd8782611e99565b9650611fd883611f8a565b925050600181019050611fb9565b505050505050565b600060059050919050565b600081905092915050565b6000819050919050565b61201781611da7565b82525050565b6000612029838361200e565b60208301905092915050565b6000602082019050919050565b61204b81611fee565b6120558184611ff9565b925061206082612004565b8060005b83811015612091578151612078878261201d565b965061208383612035565b925050600181019050612064565b505050505050565b610200820160008201516120b06000850182611f97565b5060208201516120c360a0850182612042565b5060408201516120d7610140850182612042565b5060608201516120eb6101e085018261200e565b50505050565b60006120fd8383612099565b6102008301905092915050565b6000602082019050919050565b600061212282611f3e565b61212c8185611f49565b935061213783611f5a565b8060005b8381101561216857815161214f88826120f1565b975061215a8361210a565b92505060018101905061213b565b5085935050505092915050565b6000602082019050818103600083015261218f8184612117565b905092915050565b600080600080600060a086880312156121b3576121b2611d17565b5b60006121c188828901611e1c565b95505060206121d288828901611e1c565b94505060406121e388828901611e1c565b93505060606121f488828901611e1c565b925050608061220588828901611e1c565b9150509295509295909350565b60008115159050919050565b61222781612212565b82525050565b6000602082019050612242600083018461221e565b92915050565b600081905092915050565b61225c81611fee565b6122668184612248565b925061227182612004565b8060005b838110156122a2578151612289878261201d565b965061229483612035565b925050600181019050612275565b505050505050565b600060a0820190506122bf6000830184612253565b92915050565b7f4e487b7100000000000000000000000000000000000000000000000000000000600052603260045260246000fd5b7f4e487b7100000000000000000000000000000000000000000000000000000000600052601160045260246000fd5b600061232e82611da7565b915061233983611da7565b9250828201905080821115612351576123506122f4565b5b92915050565b600061236282611da7565b915061236d83611da7565b9250828203905081811115612385576123846122f4565b5b92915050565b600061239682611da7565b91507fffffffffffffffffffffffffffffffffffffffffffffffffffffffffffffffff82036123c8576123c76122f4565b5b600182019050919050565b60006123de82611da7565b91506123e983611da7565b92508282026123f781611da7565b9150828204841483151761240e5761240d6122f4565b5b5092915050565b7f4e487b7100000000000000000000000000000000000000000000000000000000600052601260045260246000fd5b600061244f82611da7565b915061245a83611da7565b92508261246a57612469612415565b5b828204905092915050565b600081905092915050565b50565b6000612490600083612475565b915061249b82612480565b600082019050919050565b60006124b182612483565b9150819050919050565b600082825260208201905092915050565b7f4177617264207472616e73666572206661696c65640000000000000000000000600082015250565b60006125026015836124bb565b915061250d826124cc565b602082019050919050565b60006020820190508181036000830152612531816124f5565b9050919050565b600060808201905061254d6000830187611ddb565b61255a6020830186611db1565b6125676040830185611db1565b6125746060830184611db1565b95945050505050565b7f466565207472616e73666572206661696c656400000000000000000000000000600082015250565b60006125b36013836124bb565b91506125be8261257d565b602082019050919050565b600060208201905081810360008301526125e2816125a6565b9050919050565b7f4e487b7100000000000000000000000000000000000000000000000000000000600052603160045260246000fd5b7f626164206f7065726174696f6e00000000000000000000000000000000000000600082015250565b600061264e600d836124bb565b915061265982612618565b602082019050919050565b6000602082019050818103600083015261267d81612641565b9050919050565b60006060820190506126996000830186611ddb565b6126a66020830185611db1565b6126b36040830184611db1565b949350505050565b7f4e6f7420656e6f756768207061796d656e740000000000000000000000000000600082015250565b60006126f16012836124bb565b91506126fc826126bb565b602082019050919050565b60006020820190508181036000830152612720816126e4565b9050919050565b600060408201905061273c6000830185611ddb565b6127496020830184611db1565b9392505050565b7f4f776e61626c653a206e6577206f776e657220697320746865207a65726f206160008201527f6464726573730000000000000000000000000000000000000000000000000000602082015250565b60006127ac6026836124bb565b91506127b782612750565b604082019050919050565b600060208201905081810360008301526127db8161279f565b9050919050565b7f4f776e61626c653a2063616c6c6572206973206e6f7420746865206f776e6572600082015250565b60006128186020836124bb565b9150612823826127e2565b602082019050919050565b600060208201905081810360008301526128478161280b565b9050919050565b7f5265656e7472616e637947756172643a207265656e7472616e742063616c6c00600082015250565b6000612884601f836124bb565b915061288f8261284e565b602082019050919050565b600060208201905081810360008301526128b381612877565b905091905056fea2646970667358221220c735f669b9e2ecf9fec4e943ea798d0033909b95164a0e8a844405e6f66c332764736f6c63430008110033",
			"opcodes": "PUSH1 0x80 PUSH1 0x40 MSTORE PUSH20 0xF753C11E5167247F156D22B0DD6C6333B934835C PUSH1 0x2 PUSH1 0x0 PUSH2 0x100 EXP DUP2 SLOAD DUP2 PUSH20 0xFFFFFFFFFFFFFFFFFFFFFFFFFFFFFFFFFFFFFFFF MUL NOT AND SWAP1 DUP4 PUSH20 0xFFFFFFFFFFFFFFFFFFFFFFFFFFFFFFFFFFFFFFFF AND MUL OR SWAP1 SSTORE POP PUSH1 0x40 MLOAD DUP1 PUSH1 0xA0 ADD PUSH1 0x40 MSTORE DUP1 PUSH1 0x1D PUSH1 0xFF AND DUP2 MSTORE PUSH1 0x20 ADD PUSH1 0x18 PUSH1 0xFF AND DUP2 MSTORE PUSH1 0x20 ADD PUSH1 0x13 PUSH1 0xFF AND DUP2 MSTORE PUSH1 0x20 ADD PUSH1 0xE PUSH1 0xFF AND DUP2 MSTORE PUSH1 0x20 ADD PUSH1 0x9 PUSH1 0xFF AND DUP2 MSTORE POP PUSH1 0x3 SWAP1 PUSH1 0x5 PUSH3 0xA6 SWAP3 SWAP2 SWAP1 PUSH3 0x1AE JUMP JUMPDEST POP CALLVALUE DUP1 ISZERO PUSH3 0xB4 JUMPI PUSH1 0x0 DUP1 REVERT JUMPDEST POP PUSH3 0xD5 PUSH3 0xC9 PUSH3 0xE2 PUSH1 0x20 SHL PUSH1 0x20 SHR JUMP JUMPDEST PUSH3 0xEA PUSH1 0x20 SHL PUSH1 0x20 SHR JUMP JUMPDEST PUSH1 0x1 DUP1 DUP2 SWAP1 SSTORE POP PUSH3 0x217 JUMP JUMPDEST PUSH1 0x0 CALLER SWAP1 POP SWAP1 JUMP JUMPDEST PUSH1 0x0 DUP1 PUSH1 0x0 SWAP1 SLOAD SWAP1 PUSH2 0x100 EXP SWAP1 DIV PUSH20 0xFFFFFFFFFFFFFFFFFFFFFFFFFFFFFFFFFFFFFFFF AND SWAP1 POP DUP2 PUSH1 0x0 DUP1 PUSH2 0x100 EXP DUP2 SLOAD DUP2 PUSH20 0xFFFFFFFFFFFFFFFFFFFFFFFFFFFFFFFFFFFFFFFF MUL NOT AND SWAP1 DUP4 PUSH20 0xFFFFFFFFFFFFFFFFFFFFFFFFFFFFFFFFFFFFFFFF AND MUL OR SWAP1 SSTORE POP DUP2 PUSH20 0xFFFFFFFFFFFFFFFFFFFFFFFFFFFFFFFFFFFFFFFF AND DUP2 PUSH20 0xFFFFFFFFFFFFFFFFFFFFFFFFFFFFFFFFFFFFFFFF AND PUSH32 0x8BE0079C531659141344CD1FD0A4F28419497F9722A3DAAFE3B4186F6B6457E0 PUSH1 0x40 MLOAD PUSH1 0x40 MLOAD DUP1 SWAP2 SUB SWAP1 LOG3 POP POP JUMP JUMPDEST DUP3 PUSH1 0x5 DUP2 ADD SWAP3 DUP3 ISZERO PUSH3 0x1E5 JUMPI SWAP2 PUSH1 0x20 MUL DUP3 ADD JUMPDEST DUP3 DUP2 GT ISZERO PUSH3 0x1E4 JUMPI DUP3 MLOAD DUP3 SWAP1 PUSH1 0xFF AND SWAP1 SSTORE SWAP2 PUSH1 0x20 ADD SWAP2 SWAP1 PUSH1 0x1 ADD SWAP1 PUSH3 0x1C2 JUMP JUMPDEST JUMPDEST POP SWAP1 POP PUSH3 0x1F4 SWAP2 SWAP1 PUSH3 0x1F8 JUMP JUMPDEST POP SWAP1 JUMP JUMPDEST JUMPDEST DUP1 DUP3 GT ISZERO PUSH3 0x213 JUMPI PUSH1 0x0 DUP2 PUSH1 0x0 SWAP1 SSTORE POP PUSH1 0x1 ADD PUSH3 0x1F9 JUMP JUMPDEST POP SWAP1 JUMP JUMPDEST PUSH2 0x28F0 DUP1 PUSH3 0x227 PUSH1 0x0 CODECOPY PUSH1 0x0 RETURN INVALID PUSH1 0x80 PUSH1 0x40 MSTORE PUSH1 0x4 CALLDATASIZE LT PUSH2 0x14B JUMPI PUSH1 0x0 CALLDATALOAD PUSH1 0xE0 SHR DUP1 PUSH4 0x91B7F5ED GT PUSH2 0xB6 JUMPI DUP1 PUSH4 0xD0399BB8 GT PUSH2 0x6F JUMPI DUP1 PUSH4 0xD0399BB8 EQ PUSH2 0x4A6 JUMPI DUP1 PUSH4 0xD65AB5F2 EQ PUSH2 0x4CF JUMPI DUP1 PUSH4 0xE4312377 EQ PUSH2 0x4D9 JUMPI DUP1 PUSH4 0xF2FDE38B EQ PUSH2 0x504 JUMPI DUP1 PUSH4 0xF71D96CB EQ PUSH2 0x52D JUMPI DUP1 PUSH4 0xFA305949 EQ PUSH2 0x56A JUMPI PUSH2 0x14B JUMP JUMPDEST DUP1 PUSH4 0x91B7F5ED EQ PUSH2 0x372 JUMPI DUP1 PUSH4 0xA035B1FE EQ PUSH2 0x39B JUMPI DUP1 PUSH4 0xAFC865DD EQ PUSH2 0x3C6 JUMPI DUP1 PUSH4 0xB2EEED86 EQ PUSH2 0x403 JUMPI DUP1 PUSH4 0xBBE192BA EQ PUSH2 0x440 JUMPI DUP1 PUSH4 0xBDC78C95 EQ PUSH2 0x469 JUMPI PUSH2 0x14B JUMP JUMPDEST DUP1 PUSH4 0x3AB1A494 GT PUSH2 0x108 JUMPI DUP1 PUSH4 0x3AB1A494 EQ PUSH2 0x286 JUMPI DUP1 PUSH4 0x5AA68AC0 EQ PUSH2 0x2AF JUMPI DUP1 PUSH4 0x715018A6 EQ PUSH2 0x2DA JUMPI DUP1 PUSH4 0x8B5B9CCC EQ PUSH2 0x2F1 JUMPI DUP1 PUSH4 0x8DA5CB5B EQ PUSH2 0x31C JUMPI DUP1 PUSH4 0x8FEFEC47 EQ PUSH2 0x347 JUMPI PUSH2 0x14B JUMP JUMPDEST DUP1 PUSH4 0x73CD85F EQ PUSH2 0x150 JUMPI DUP1 PUSH4 0x94BB204 EQ PUSH2 0x167 JUMPI DUP1 PUSH4 0xFAC9100 EQ PUSH2 0x1A4 JUMPI DUP1 PUSH4 0x1581B600 EQ PUSH2 0x1E1 JUMPI DUP1 PUSH4 0x247BDDA3 EQ PUSH2 0x20C JUMPI DUP1 PUSH4 0x35C1D349 EQ PUSH2 0x249 JUMPI JUMPDEST PUSH1 0x0 DUP1 REVERT JUMPDEST CALLVALUE DUP1 ISZERO PUSH2 0x15C JUMPI PUSH1 0x0 DUP1 REVERT JUMPDEST POP PUSH2 0x165 PUSH2 0x5A7 JUMP JUMPDEST STOP JUMPDEST CALLVALUE DUP1 ISZERO PUSH2 0x173 JUMPI PUSH1 0x0 DUP1 REVERT JUMPDEST POP PUSH2 0x18E PUSH1 0x4 DUP1 CALLDATASIZE SUB DUP2 ADD SWAP1 PUSH2 0x189 SWAP2 SWAP1 PUSH2 0x1D7A JUMP JUMPDEST PUSH2 0xF5A JUMP JUMPDEST PUSH1 0x40 MLOAD PUSH2 0x19B SWAP2 SWAP1 PUSH2 0x1DC0 JUMP JUMPDEST PUSH1 0x40 MLOAD DUP1 SWAP2 SUB SWAP1 RETURN JUMPDEST CALLVALUE DUP1 ISZERO PUSH2 0x1B0 JUMPI PUSH1 0x0 DUP1 REVERT JUMPDEST POP PUSH2 0x1CB PUSH1 0x4 DUP1 CALLDATASIZE SUB DUP2 ADD SWAP1 PUSH2 0x1C6 SWAP2 SWAP1 PUSH2 0x1D7A JUMP JUMPDEST PUSH2 0xF72 JUMP JUMPDEST PUSH1 0x40 MLOAD PUSH2 0x1D8 SWAP2 SWAP1 PUSH2 0x1DC0 JUMP JUMPDEST PUSH1 0x40 MLOAD DUP1 SWAP2 SUB SWAP1 RETURN JUMPDEST CALLVALUE DUP1 ISZERO PUSH2 0x1ED JUMPI PUSH1 0x0 DUP1 REVERT JUMPDEST POP PUSH2 0x1F6 PUSH2 0xF8A JUMP JUMPDEST PUSH1 0x40 MLOAD PUSH2 0x203 SWAP2 SWAP1 PUSH2 0x1DEA JUMP JUMPDEST PUSH1 0x40 MLOAD DUP1 SWAP2 SUB SWAP1 RETURN JUMPDEST CALLVALUE DUP1 ISZERO PUSH2 0x218 JUMPI PUSH1 0x0 DUP1 REVERT JUMPDEST POP PUSH2 0x233 PUSH1 0x4 DUP1 CALLDATASIZE SUB DUP2 ADD SWAP1 PUSH2 0x22E SWAP2 SWAP1 PUSH2 0x1E31 JUMP JUMPDEST PUSH2 0xFB0 JUMP JUMPDEST PUSH1 0x40 MLOAD PUSH2 0x240 SWAP2 SWAP1 PUSH2 0x1DC0 JUMP JUMPDEST PUSH1 0x40 MLOAD DUP1 SWAP2 SUB SWAP1 RETURN JUMPDEST CALLVALUE DUP1 ISZERO PUSH2 0x255 JUMPI PUSH1 0x0 DUP1 REVERT JUMPDEST POP PUSH2 0x270 PUSH1 0x4 DUP1 CALLDATASIZE SUB DUP2 ADD SWAP1 PUSH2 0x26B SWAP2 SWAP1 PUSH2 0x1E31 JUMP JUMPDEST PUSH2 0xFCB JUMP JUMPDEST PUSH1 0x40 MLOAD PUSH2 0x27D SWAP2 SWAP1 PUSH2 0x1DEA JUMP JUMPDEST PUSH1 0x40 MLOAD DUP1 SWAP2 SUB SWAP1 RETURN JUMPDEST CALLVALUE DUP1 ISZERO PUSH2 0x292 JUMPI PUSH1 0x0 DUP1 REVERT JUMPDEST POP PUSH2 0x2AD PUSH1 0x4 DUP1 CALLDATASIZE SUB DUP2 ADD SWAP1 PUSH2 0x2A8 SWAP2 SWAP1 PUSH2 0x1D7A JUMP JUMPDEST PUSH2 0x100A JUMP JUMPDEST STOP JUMPDEST CALLVALUE DUP1 ISZERO PUSH2 0x2BB JUMPI PUSH1 0x0 DUP1 REVERT JUMPDEST POP PUSH2 0x2C4 PUSH2 0x1056 JUMP JUMPDEST PUSH1 0x40 MLOAD PUSH2 0x2D1 SWAP2 SWAP1 PUSH2 0x1F1C JUMP JUMPDEST PUSH1 0x40 MLOAD DUP1 SWAP2 SUB SWAP1 RETURN JUMPDEST CALLVALUE DUP1 ISZERO PUSH2 0x2E6 JUMPI PUSH1 0x0 DUP1 REVERT JUMPDEST POP PUSH2 0x2EF PUSH2 0x10E4 JUMP JUMPDEST STOP JUMPDEST CALLVALUE DUP1 ISZERO PUSH2 0x2FD JUMPI PUSH1 0x0 DUP1 REVERT JUMPDEST POP PUSH2 0x306 PUSH2 0x10F8 JUMP JUMPDEST PUSH1 0x40 MLOAD PUSH2 0x313 SWAP2 SWAP1 PUSH2 0x1F1C JUMP JUMPDEST PUSH1 0x40 MLOAD DUP1 SWAP2 SUB SWAP1 RETURN JUMPDEST CALLVALUE DUP1 ISZERO PUSH2 0x328 JUMPI PUSH1 0x0 DUP1 REVERT JUMPDEST POP PUSH2 0x331 PUSH2 0x1186 JUMP JUMPDEST PUSH1 0x40 MLOAD PUSH2 0x33E SWAP2 SWAP1 PUSH2 0x1DEA JUMP JUMPDEST PUSH1 0x40 MLOAD DUP1 SWAP2 SUB SWAP1 RETURN JUMPDEST CALLVALUE DUP1 ISZERO PUSH2 0x353 JUMPI PUSH1 0x0 DUP1 REVERT JUMPDEST POP PUSH2 0x35C PUSH2 0x11AF JUMP JUMPDEST PUSH1 0x40 MLOAD PUSH2 0x369 SWAP2 SWAP1 PUSH2 0x2175 JUMP JUMPDEST PUSH1 0x40 MLOAD DUP1 SWAP2 SUB SWAP1 RETURN JUMPDEST CALLVALUE DUP1 ISZERO PUSH2 0x37E JUMPI PUSH1 0x0 DUP1 REVERT JUMPDEST POP PUSH2 0x399 PUSH1 0x4 DUP1 CALLDATASIZE SUB DUP2 ADD SWAP1 PUSH2 0x394 SWAP2 SWAP1 PUSH2 0x1E31 JUMP JUMPDEST PUSH2 0x131D JUMP JUMPDEST STOP JUMPDEST CALLVALUE DUP1 ISZERO PUSH2 0x3A7 JUMPI PUSH1 0x0 DUP1 REVERT JUMPDEST POP PUSH2 0x3B0 PUSH2 0x132F JUMP JUMPDEST PUSH1 0x40 MLOAD PUSH2 0x3BD SWAP2 SWAP1 PUSH2 0x1DC0 JUMP JUMPDEST PUSH1 0x40 MLOAD DUP1 SWAP2 SUB SWAP1 RETURN JUMPDEST CALLVALUE DUP1 ISZERO PUSH2 0x3D2 JUMPI PUSH1 0x0 DUP1 REVERT JUMPDEST POP PUSH2 0x3ED PUSH1 0x4 DUP1 CALLDATASIZE SUB DUP2 ADD SWAP1 PUSH2 0x3E8 SWAP2 SWAP1 PUSH2 0x1E31 JUMP JUMPDEST PUSH2 0x1335 JUMP JUMPDEST PUSH1 0x40 MLOAD PUSH2 0x3FA SWAP2 SWAP1 PUSH2 0x1DC0 JUMP JUMPDEST PUSH1 0x40 MLOAD DUP1 SWAP2 SUB SWAP1 RETURN JUMPDEST CALLVALUE DUP1 ISZERO PUSH2 0x40F JUMPI PUSH1 0x0 DUP1 REVERT JUMPDEST POP PUSH2 0x42A PUSH1 0x4 DUP1 CALLDATASIZE SUB DUP2 ADD SWAP1 PUSH2 0x425 SWAP2 SWAP1 PUSH2 0x1D7A JUMP JUMPDEST PUSH2 0x1363 JUMP JUMPDEST PUSH1 0x40 MLOAD PUSH2 0x437 SWAP2 SWAP1 PUSH2 0x1DC0 JUMP JUMPDEST PUSH1 0x40 MLOAD DUP1 SWAP2 SUB SWAP1 RETURN JUMPDEST CALLVALUE DUP1 ISZERO PUSH2 0x44C JUMPI PUSH1 0x0 DUP1 REVERT JUMPDEST POP PUSH2 0x467 PUSH1 0x4 DUP1 CALLDATASIZE SUB DUP2 ADD SWAP1 PUSH2 0x462 SWAP2 SWAP1 PUSH2 0x2197 JUMP JUMPDEST PUSH2 0x137B JUMP JUMPDEST STOP JUMPDEST CALLVALUE DUP1 ISZERO PUSH2 0x475 JUMPI PUSH1 0x0 DUP1 REVERT JUMPDEST POP PUSH2 0x490 PUSH1 0x4 DUP1 CALLDATASIZE SUB DUP2 ADD SWAP1 PUSH2 0x48B SWAP2 SWAP1 PUSH2 0x1D7A JUMP JUMPDEST PUSH2 0x1410 JUMP JUMPDEST PUSH1 0x40 MLOAD PUSH2 0x49D SWAP2 SWAP1 PUSH2 0x222D JUMP JUMPDEST PUSH1 0x40 MLOAD DUP1 SWAP2 SUB SWAP1 RETURN JUMPDEST CALLVALUE DUP1 ISZERO PUSH2 0x4B2 JUMPI PUSH1 0x0 DUP1 REVERT JUMPDEST POP PUSH2 0x4CD PUSH1 0x4 DUP1 CALLDATASIZE SUB DUP2 ADD SWAP1 PUSH2 0x4C8 SWAP2 SWAP1 PUSH2 0x1E31 JUMP JUMPDEST PUSH2 0x1430 JUMP JUMPDEST STOP JUMPDEST PUSH2 0x4D7 PUSH2 0x1812 JUMP JUMPDEST STOP JUMPDEST CALLVALUE DUP1 ISZERO PUSH2 0x4E5 JUMPI PUSH1 0x0 DUP1 REVERT JUMPDEST POP PUSH2 0x4EE PUSH2 0x18F8 JUMP JUMPDEST PUSH1 0x40 MLOAD PUSH2 0x4FB SWAP2 SWAP1 PUSH2 0x22AA JUMP JUMPDEST PUSH1 0x40 MLOAD DUP1 SWAP2 SUB SWAP1 RETURN JUMPDEST CALLVALUE DUP1 ISZERO PUSH2 0x510 JUMPI PUSH1 0x0 DUP1 REVERT JUMPDEST POP PUSH2 0x52B PUSH1 0x4 DUP1 CALLDATASIZE SUB DUP2 ADD SWAP1 PUSH2 0x526 SWAP2 SWAP1 PUSH2 0x1D7A JUMP JUMPDEST PUSH2 0x1943 JUMP JUMPDEST STOP JUMPDEST CALLVALUE DUP1 ISZERO PUSH2 0x539 JUMPI PUSH1 0x0 DUP1 REVERT JUMPDEST POP PUSH2 0x554 PUSH1 0x4 DUP1 CALLDATASIZE SUB DUP2 ADD SWAP1 PUSH2 0x54F SWAP2 SWAP1 PUSH2 0x1E31 JUMP JUMPDEST PUSH2 0x19C6 JUMP JUMPDEST PUSH1 0x40 MLOAD PUSH2 0x561 SWAP2 SWAP1 PUSH2 0x1DEA JUMP JUMPDEST PUSH1 0x40 MLOAD DUP1 SWAP2 SUB SWAP1 RETURN JUMPDEST CALLVALUE DUP1 ISZERO PUSH2 0x576 JUMPI PUSH1 0x0 DUP1 REVERT JUMPDEST POP PUSH2 0x591 PUSH1 0x4 DUP1 CALLDATASIZE SUB DUP2 ADD SWAP1 PUSH2 0x58C SWAP2 SWAP1 PUSH2 0x1D7A JUMP JUMPDEST PUSH2 0x1A05 JUMP JUMPDEST PUSH1 0x40 MLOAD PUSH2 0x59E SWAP2 SWAP1 PUSH2 0x1DC0 JUMP JUMPDEST PUSH1 0x40 MLOAD DUP1 SWAP2 SUB SWAP1 RETURN JUMPDEST PUSH2 0x5AF PUSH2 0x1A1D JUMP JUMPDEST PUSH2 0x5B7 PUSH2 0x1BBF JUMP JUMPDEST PUSH2 0x5BF PUSH2 0x1BE1 JUMP JUMPDEST PUSH1 0x0 JUMPDEST PUSH1 0xF DUP1 SLOAD SWAP1 POP DUP2 LT ISZERO PUSH2 0x935 JUMPI PUSH1 0x0 JUMPDEST PUSH1 0x5 DUP2 LT ISZERO PUSH2 0x921 JUMPI PUSH1 0x0 PUSH20 0xFFFFFFFFFFFFFFFFFFFFFFFFFFFFFFFFFFFFFFFF AND DUP5 DUP3 PUSH1 0x5 DUP2 LT PUSH2 0x606 JUMPI PUSH2 0x605 PUSH2 0x22C5 JUMP JUMPDEST JUMPDEST PUSH1 0x20 MUL ADD MLOAD PUSH20 0xFFFFFFFFFFFFFFFFFFFFFFFFFFFFFFFFFFFFFFFF AND EQ DUP1 PUSH2 0x7DE JUMPI POP PUSH1 0x10 PUSH1 0x0 DUP6 DUP4 PUSH1 0x5 DUP2 LT PUSH2 0x63F JUMPI PUSH2 0x63E PUSH2 0x22C5 JUMP JUMPDEST JUMPDEST PUSH1 0x20 MUL ADD MLOAD PUSH20 0xFFFFFFFFFFFFFFFFFFFFFFFFFFFFFFFFFFFFFFFF AND PUSH20 0xFFFFFFFFFFFFFFFFFFFFFFFFFFFFFFFFFFFFFFFF AND DUP2 MSTORE PUSH1 0x20 ADD SWAP1 DUP2 MSTORE PUSH1 0x20 ADD PUSH1 0x0 KECCAK256 SLOAD PUSH1 0x10 PUSH1 0x0 PUSH1 0xF DUP6 DUP2 SLOAD DUP2 LT PUSH2 0x697 JUMPI PUSH2 0x696 PUSH2 0x22C5 JUMP JUMPDEST JUMPDEST SWAP1 PUSH1 0x0 MSTORE PUSH1 0x20 PUSH1 0x0 KECCAK256 ADD PUSH1 0x0 SWAP1 SLOAD SWAP1 PUSH2 0x100 EXP SWAP1 DIV PUSH20 0xFFFFFFFFFFFFFFFFFFFFFFFFFFFFFFFFFFFFFFFF AND PUSH20 0xFFFFFFFFFFFFFFFFFFFFFFFFFFFFFFFFFFFFFFFF AND PUSH20 0xFFFFFFFFFFFFFFFFFFFFFFFFFFFFFFFFFFFFFFFF AND DUP2 MSTORE PUSH1 0x20 ADD SWAP1 DUP2 MSTORE PUSH1 0x20 ADD PUSH1 0x0 KECCAK256 SLOAD LT ISZERO DUP1 ISZERO PUSH2 0x7DD JUMPI POP PUSH1 0x11 PUSH1 0x0 DUP6 DUP4 PUSH1 0x5 DUP2 LT PUSH2 0x71D JUMPI PUSH2 0x71C PUSH2 0x22C5 JUMP JUMPDEST JUMPDEST PUSH1 0x20 MUL ADD MLOAD PUSH20 0xFFFFFFFFFFFFFFFFFFFFFFFFFFFFFFFFFFFFFFFF AND PUSH20 0xFFFFFFFFFFFFFFFFFFFFFFFFFFFFFFFFFFFFFFFF AND DUP2 MSTORE PUSH1 0x20 ADD SWAP1 DUP2 MSTORE PUSH1 0x20 ADD PUSH1 0x0 KECCAK256 SLOAD PUSH1 0x11 PUSH1 0x0 PUSH1 0xF DUP6 DUP2 SLOAD DUP2 LT PUSH2 0x775 JUMPI PUSH2 0x774 PUSH2 0x22C5 JUMP JUMPDEST JUMPDEST SWAP1 PUSH1 0x0 MSTORE PUSH1 0x20 PUSH1 0x0 KECCAK256 ADD PUSH1 0x0 SWAP1 SLOAD SWAP1 PUSH2 0x100 EXP SWAP1 DIV PUSH20 0xFFFFFFFFFFFFFFFFFFFFFFFFFFFFFFFFFFFFFFFF AND PUSH20 0xFFFFFFFFFFFFFFFFFFFFFFFFFFFFFFFFFFFFFFFF AND PUSH20 0xFFFFFFFFFFFFFFFFFFFFFFFFFFFFFFFFFFFFFFFF AND DUP2 MSTORE PUSH1 0x20 ADD SWAP1 DUP2 MSTORE PUSH1 0x20 ADD PUSH1 0x0 KECCAK256 SLOAD LT JUMPDEST JUMPDEST ISZERO PUSH2 0x90E JUMPI PUSH1 0x0 PUSH1 0x1 DUP3 PUSH2 0x7F2 SWAP2 SWAP1 PUSH2 0x2323 JUMP JUMPDEST SWAP1 POP JUMPDEST PUSH1 0x5 DUP2 LT ISZERO PUSH2 0x87F JUMPI DUP5 PUSH1 0x1 DUP3 PUSH2 0x80C SWAP2 SWAP1 PUSH2 0x2357 JUMP JUMPDEST PUSH1 0x5 DUP2 LT PUSH2 0x81D JUMPI PUSH2 0x81C PUSH2 0x22C5 JUMP JUMPDEST JUMPDEST PUSH1 0x20 MUL ADD MLOAD DUP6 DUP3 PUSH1 0x5 DUP2 LT PUSH2 0x835 JUMPI PUSH2 0x834 PUSH2 0x22C5 JUMP JUMPDEST JUMPDEST PUSH1 0x20 MUL ADD SWAP1 PUSH20 0xFFFFFFFFFFFFFFFFFFFFFFFFFFFFFFFFFFFFFFFF AND SWAP1 DUP2 PUSH20 0xFFFFFFFFFFFFFFFFFFFFFFFFFFFFFFFFFFFFFFFF AND DUP2 MSTORE POP POP DUP1 DUP1 PUSH2 0x877 SWAP1 PUSH2 0x238B JUMP JUMPDEST SWAP2 POP POP PUSH2 0x7F5 JUMP JUMPDEST POP PUSH1 0xF DUP2 DUP2 SLOAD DUP2 LT PUSH2 0x894 JUMPI PUSH2 0x893 PUSH2 0x22C5 JUMP JUMPDEST JUMPDEST SWAP1 PUSH1 0x0 MSTORE PUSH1 0x20 PUSH1 0x0 KECCAK256 ADD PUSH1 0x0 SWAP1 SLOAD SWAP1 PUSH2 0x100 EXP SWAP1 DIV PUSH20 0xFFFFFFFFFFFFFFFFFFFFFFFFFFFFFFFFFFFFFFFF AND DUP5 DUP3 PUSH1 0x5 DUP2 LT PUSH2 0x8D2 JUMPI PUSH2 0x8D1 PUSH2 0x22C5 JUMP JUMPDEST JUMPDEST PUSH1 0x20 MUL ADD SWAP1 PUSH20 0xFFFFFFFFFFFFFFFFFFFFFFFFFFFFFFFFFFFFFFFF AND SWAP1 DUP2 PUSH20 0xFFFFFFFFFFFFFFFFFFFFFFFFFFFFFFFFFFFFFFFF AND DUP2 MSTORE POP POP PUSH2 0x921 JUMP JUMPDEST DUP1 DUP1 PUSH2 0x919 SWAP1 PUSH2 0x238B JUMP JUMPDEST SWAP2 POP POP PUSH2 0x5D2 JUMP JUMPDEST POP DUP1 DUP1 PUSH2 0x92D SWAP1 PUSH2 0x238B JUMP JUMPDEST SWAP2 POP POP PUSH2 0x5C2 JUMP JUMPDEST POP PUSH1 0x0 JUMPDEST PUSH1 0x5 DUP2 LT ISZERO PUSH2 0xC71 JUMPI PUSH1 0x0 PUSH20 0xFFFFFFFFFFFFFFFFFFFFFFFFFFFFFFFFFFFFFFFF AND DUP4 DUP3 PUSH1 0x5 DUP2 LT PUSH2 0x96D JUMPI PUSH2 0x96C PUSH2 0x22C5 JUMP JUMPDEST JUMPDEST PUSH1 0x20 MUL ADD MLOAD PUSH20 0xFFFFFFFFFFFFFFFFFFFFFFFFFFFFFFFFFFFFFFFF AND SUB ISZERO PUSH2 0xC71 JUMPI DUP3 DUP2 PUSH1 0x5 DUP2 LT PUSH2 0x9A1 JUMPI PUSH2 0x9A0 PUSH2 0x22C5 JUMP JUMPDEST JUMPDEST PUSH1 0x20 MUL ADD MLOAD DUP3 PUSH1 0x0 ADD MLOAD DUP3 PUSH1 0x5 DUP2 LT PUSH2 0x9BD JUMPI PUSH2 0x9BC PUSH2 0x22C5 JUMP JUMPDEST JUMPDEST PUSH1 0x20 MUL ADD SWAP1 PUSH20 0xFFFFFFFFFFFFFFFFFFFFFFFFFFFFFFFFFFFFFFFF AND SWAP1 DUP2 PUSH20 0xFFFFFFFFFFFFFFFFFFFFFFFFFFFFFFFFFFFFFFFF AND DUP2 MSTORE POP POP PUSH1 0x10 PUSH1 0x0 DUP5 DUP4 PUSH1 0x5 DUP2 LT PUSH2 0xA0B JUMPI PUSH2 0xA0A PUSH2 0x22C5 JUMP JUMPDEST JUMPDEST PUSH1 0x20 MUL ADD MLOAD PUSH20 0xFFFFFFFFFFFFFFFFFFFFFFFFFFFFFFFFFFFFFFFF AND PUSH20 0xFFFFFFFFFFFFFFFFFFFFFFFFFFFFFFFFFFFFFFFF AND DUP2 MSTORE PUSH1 0x20 ADD SWAP1 DUP2 MSTORE PUSH1 0x20 ADD PUSH1 0x0 KECCAK256 SLOAD DUP3 PUSH1 0x20 ADD MLOAD DUP3 PUSH1 0x5 DUP2 LT PUSH2 0xA62 JUMPI PUSH2 0xA61 PUSH2 0x22C5 JUMP JUMPDEST JUMPDEST PUSH1 0x20 MUL ADD DUP2 DUP2 MSTORE POP POP PUSH1 0x0 PUSH1 0x64 PUSH1 0x8 SLOAD PUSH1 0xE SLOAD PUSH1 0x3 DUP6 PUSH1 0x5 DUP2 LT PUSH2 0xA89 JUMPI PUSH2 0xA88 PUSH2 0x22C5 JUMP JUMPDEST JUMPDEST ADD SLOAD PUSH2 0xA95 SWAP2 SWAP1 PUSH2 0x23D3 JUMP JUMPDEST PUSH2 0xA9F SWAP2 SWAP1 PUSH2 0x23D3 JUMP JUMPDEST PUSH2 0xAA9 SWAP2 SWAP1 PUSH2 0x2444 JUMP JUMPDEST SWAP1 POP DUP1 DUP4 PUSH1 0x40 ADD MLOAD DUP4 PUSH1 0x5 DUP2 LT PUSH2 0xAC3 JUMPI PUSH2 0xAC2 PUSH2 0x22C5 JUMP JUMPDEST JUMPDEST PUSH1 0x20 MUL ADD DUP2 DUP2 MSTORE POP POP PUSH1 0x0 DUP5 DUP4 PUSH1 0x5 DUP2 LT PUSH2 0xAE1 JUMPI PUSH2 0xAE0 PUSH2 0x22C5 JUMP JUMPDEST JUMPDEST PUSH1 0x20 MUL ADD MLOAD PUSH20 0xFFFFFFFFFFFFFFFFFFFFFFFFFFFFFFFFFFFFFFFF AND DUP3 PUSH1 0x40 MLOAD PUSH2 0xB09 SWAP1 PUSH2 0x24A6 JUMP JUMPDEST PUSH1 0x0 PUSH1 0x40 MLOAD DUP1 DUP4 SUB DUP2 DUP6 DUP8 GAS CALL SWAP3 POP POP POP RETURNDATASIZE DUP1 PUSH1 0x0 DUP2 EQ PUSH2 0xB46 JUMPI PUSH1 0x40 MLOAD SWAP2 POP PUSH1 0x1F NOT PUSH1 0x3F RETURNDATASIZE ADD AND DUP3 ADD PUSH1 0x40 MSTORE RETURNDATASIZE DUP3 MSTORE RETURNDATASIZE PUSH1 0x0 PUSH1 0x20 DUP5 ADD RETURNDATACOPY PUSH2 0xB4B JUMP JUMPDEST PUSH1 0x60 SWAP2 POP JUMPDEST POP POP SWAP1 POP DUP1 PUSH2 0xB8F JUMPI PUSH1 0x40 MLOAD PUSH32 0x8C379A000000000000000000000000000000000000000000000000000000000 DUP2 MSTORE PUSH1 0x4 ADD PUSH2 0xB86 SWAP1 PUSH2 0x2518 JUMP JUMPDEST PUSH1 0x40 MLOAD DUP1 SWAP2 SUB SWAP1 REVERT JUMPDEST DUP2 PUSH1 0xB PUSH1 0x0 DUP8 DUP7 PUSH1 0x5 DUP2 LT PUSH2 0xBA7 JUMPI PUSH2 0xBA6 PUSH2 0x22C5 JUMP JUMPDEST JUMPDEST PUSH1 0x20 MUL ADD MLOAD PUSH20 0xFFFFFFFFFFFFFFFFFFFFFFFFFFFFFFFFFFFFFFFF AND PUSH20 0xFFFFFFFFFFFFFFFFFFFFFFFFFFFFFFFFFFFFFFFF AND DUP2 MSTORE PUSH1 0x20 ADD SWAP1 DUP2 MSTORE PUSH1 0x20 ADD PUSH1 0x0 KECCAK256 PUSH1 0x0 DUP3 DUP3 SLOAD PUSH2 0xBF5 SWAP2 SWAP1 PUSH2 0x2323 JUMP JUMPDEST SWAP3 POP POP DUP2 SWAP1 SSTORE POP PUSH32 0xC5D0ABA04B7CD5DD8A59ED0B989A6ADABA9D0674B4783192E5904D65BC15D66F DUP6 DUP5 PUSH1 0x5 DUP2 LT PUSH2 0xC30 JUMPI PUSH2 0xC2F PUSH2 0x22C5 JUMP JUMPDEST JUMPDEST PUSH1 0x20 MUL ADD MLOAD PUSH1 0x1 DUP6 PUSH2 0xC42 SWAP2 SWAP1 PUSH2 0x2323 JUMP JUMPDEST DUP5 TIMESTAMP PUSH1 0x40 MLOAD PUSH2 0xC54 SWAP5 SWAP4 SWAP3 SWAP2 SWAP1 PUSH2 0x2538 JUMP JUMPDEST PUSH1 0x40 MLOAD DUP1 SWAP2 SUB SWAP1 LOG1 POP POP DUP1 DUP1 PUSH2 0xC69 SWAP1 PUSH2 0x238B JUMP JUMPDEST SWAP2 POP POP PUSH2 0x939 JUMP JUMPDEST POP TIMESTAMP DUP2 PUSH1 0x60 ADD DUP2 DUP2 MSTORE POP POP PUSH1 0x0 PUSH1 0x2 PUSH1 0x0 SWAP1 SLOAD SWAP1 PUSH2 0x100 EXP SWAP1 DIV PUSH20 0xFFFFFFFFFFFFFFFFFFFFFFFFFFFFFFFFFFFFFFFF AND PUSH20 0xFFFFFFFFFFFFFFFFFFFFFFFFFFFFFFFFFFFFFFFF AND SELFBALANCE PUSH1 0x40 MLOAD PUSH2 0xCC4 SWAP1 PUSH2 0x24A6 JUMP JUMPDEST PUSH1 0x0 PUSH1 0x40 MLOAD DUP1 DUP4 SUB DUP2 DUP6 DUP8 GAS CALL SWAP3 POP POP POP RETURNDATASIZE DUP1 PUSH1 0x0 DUP2 EQ PUSH2 0xD01 JUMPI PUSH1 0x40 MLOAD SWAP2 POP PUSH1 0x1F NOT PUSH1 0x3F RETURNDATASIZE ADD AND DUP3 ADD PUSH1 0x40 MSTORE RETURNDATASIZE DUP3 MSTORE RETURNDATASIZE PUSH1 0x0 PUSH1 0x20 DUP5 ADD RETURNDATACOPY PUSH2 0xD06 JUMP JUMPDEST PUSH1 0x60 SWAP2 POP JUMPDEST POP POP SWAP1 POP DUP1 PUSH2 0xD4A JUMPI PUSH1 0x40 MLOAD PUSH32 0x8C379A000000000000000000000000000000000000000000000000000000000 DUP2 MSTORE PUSH1 0x4 ADD PUSH2 0xD41 SWAP1 PUSH2 0x25C9 JUMP JUMPDEST PUSH1 0x40 MLOAD DUP1 SWAP2 SUB SWAP1 REVERT JUMPDEST JUMPDEST PUSH1 0x0 PUSH1 0xF DUP1 SLOAD SWAP1 POP GT ISZERO PUSH2 0xECD JUMPI PUSH1 0x0 PUSH1 0x10 PUSH1 0x0 PUSH1 0xF PUSH1 0x1 PUSH1 0xF DUP1 SLOAD SWAP1 POP PUSH2 0xD73 SWAP2 SWAP1 PUSH2 0x2357 JUMP JUMPDEST DUP2 SLOAD DUP2 LT PUSH2 0xD84 JUMPI PUSH2 0xD83 PUSH2 0x22C5 JUMP JUMPDEST JUMPDEST SWAP1 PUSH1 0x0 MSTORE PUSH1 0x20 PUSH1 0x0 KECCAK256 ADD PUSH1 0x0 SWAP1 SLOAD SWAP1 PUSH2 0x100 EXP SWAP1 DIV PUSH20 0xFFFFFFFFFFFFFFFFFFFFFFFFFFFFFFFFFFFFFFFF AND PUSH20 0xFFFFFFFFFFFFFFFFFFFFFFFFFFFFFFFFFFFFFFFF AND PUSH20 0xFFFFFFFFFFFFFFFFFFFFFFFFFFFFFFFFFFFFFFFF AND DUP2 MSTORE PUSH1 0x20 ADD SWAP1 DUP2 MSTORE PUSH1 0x20 ADD PUSH1 0x0 KECCAK256 DUP2 SWAP1 SSTORE POP PUSH1 0x0 PUSH1 0x11 PUSH1 0x0 PUSH1 0xF PUSH1 0x1 PUSH1 0xF DUP1 SLOAD SWAP1 POP PUSH2 0xE07 SWAP2 SWAP1 PUSH2 0x2357 JUMP JUMPDEST DUP2 SLOAD DUP2 LT PUSH2 0xE18 JUMPI PUSH2 0xE17 PUSH2 0x22C5 JUMP JUMPDEST JUMPDEST SWAP1 PUSH1 0x0 MSTORE PUSH1 0x20 PUSH1 0x0 KECCAK256 ADD PUSH1 0x0 SWAP1 SLOAD SWAP1 PUSH2 0x100 EXP SWAP1 DIV PUSH20 0xFFFFFFFFFFFFFFFFFFFFFFFFFFFFFFFFFFFFFFFF AND PUSH20 0xFFFFFFFFFFFFFFFFFFFFFFFFFFFFFFFFFFFFFFFF AND PUSH20 0xFFFFFFFFFFFFFFFFFFFFFFFFFFFFFFFFFFFFFFFF AND DUP2 MSTORE PUSH1 0x20 ADD SWAP1 DUP2 MSTORE PUSH1 0x20 ADD PUSH1 0x0 KECCAK256 DUP2 SWAP1 SSTORE POP PUSH1 0xF DUP1 SLOAD DUP1 PUSH2 0xE93 JUMPI PUSH2 0xE92 PUSH2 0x25E9 JUMP JUMPDEST JUMPDEST PUSH1 0x1 SWAP1 SUB DUP2 DUP2 SWAP1 PUSH1 0x0 MSTORE PUSH1 0x20 PUSH1 0x0 KECCAK256 ADD PUSH1 0x0 PUSH2 0x100 EXP DUP2 SLOAD SWAP1 PUSH20 0xFFFFFFFFFFFFFFFFFFFFFFFFFFFFFFFFFFFFFFFF MUL NOT AND SWAP1 SSTORE SWAP1 SSTORE PUSH2 0xD4B JUMP JUMPDEST PUSH1 0x0 PUSH1 0xE DUP2 SWAP1 SSTORE POP PUSH1 0xD DUP3 SWAP1 DUP1 PUSH1 0x1 DUP2 SLOAD ADD DUP1 DUP3 SSTORE DUP1 SWAP2 POP POP PUSH1 0x1 SWAP1 SUB SWAP1 PUSH1 0x0 MSTORE PUSH1 0x20 PUSH1 0x0 KECCAK256 SWAP1 PUSH1 0x10 MUL ADD PUSH1 0x0 SWAP1 SWAP2 SWAP1 SWAP2 SWAP1 SWAP2 POP PUSH1 0x0 DUP3 ADD MLOAD DUP2 PUSH1 0x0 ADD SWAP1 PUSH1 0x5 PUSH2 0xF18 SWAP3 SWAP2 SWAP1 PUSH2 0x1C1B JUMP JUMPDEST POP PUSH1 0x20 DUP3 ADD MLOAD DUP2 PUSH1 0x5 ADD SWAP1 PUSH1 0x5 PUSH2 0xF30 SWAP3 SWAP2 SWAP1 PUSH2 0x1C98 JUMP JUMPDEST POP PUSH1 0x40 DUP3 ADD MLOAD DUP2 PUSH1 0xA ADD SWAP1 PUSH1 0x5 PUSH2 0xF48 SWAP3 SWAP2 SWAP1 PUSH2 0x1C98 JUMP JUMPDEST POP PUSH1 0x60 DUP3 ADD MLOAD DUP2 PUSH1 0xF ADD SSTORE POP POP POP POP POP JUMP JUMPDEST PUSH1 0xB PUSH1 0x20 MSTORE DUP1 PUSH1 0x0 MSTORE PUSH1 0x40 PUSH1 0x0 KECCAK256 PUSH1 0x0 SWAP2 POP SWAP1 POP SLOAD DUP2 JUMP JUMPDEST PUSH1 0x10 PUSH1 0x20 MSTORE DUP1 PUSH1 0x0 MSTORE PUSH1 0x40 PUSH1 0x0 KECCAK256 PUSH1 0x0 SWAP2 POP SWAP1 POP SLOAD DUP2 JUMP JUMPDEST PUSH1 0x2 PUSH1 0x0 SWAP1 SLOAD SWAP1 PUSH2 0x100 EXP SWAP1 DIV PUSH20 0xFFFFFFFFFFFFFFFFFFFFFFFFFFFFFFFFFFFFFFFF AND DUP2 JUMP JUMPDEST PUSH1 0x3 DUP2 PUSH1 0x5 DUP2 LT PUSH2 0xFC0 JUMPI PUSH1 0x0 DUP1 REVERT JUMPDEST ADD PUSH1 0x0 SWAP2 POP SWAP1 POP SLOAD DUP2 JUMP JUMPDEST PUSH1 0xF DUP2 DUP2 SLOAD DUP2 LT PUSH2 0xFDB JUMPI PUSH1 0x0 DUP1 REVERT JUMPDEST SWAP1 PUSH1 0x0 MSTORE PUSH1 0x20 PUSH1 0x0 KECCAK256 ADD PUSH1 0x0 SWAP2 POP SLOAD SWAP1 PUSH2 0x100 EXP SWAP1 DIV PUSH20 0xFFFFFFFFFFFFFFFFFFFFFFFFFFFFFFFFFFFFFFFF AND DUP2 JUMP JUMPDEST PUSH2 0x1012 PUSH2 0x1A1D JUMP JUMPDEST DUP1 PUSH1 0x2 PUSH1 0x0 PUSH2 0x100 EXP DUP2 SLOAD DUP2 PUSH20 0xFFFFFFFFFFFFFFFFFFFFFFFFFFFFFFFFFFFFFFFF MUL NOT AND SWAP1 DUP4 PUSH20 0xFFFFFFFFFFFFFFFFFFFFFFFFFFFFFFFFFFFFFFFF AND MUL OR SWAP1 SSTORE POP POP JUMP JUMPDEST PUSH1 0x60 PUSH1 0xF DUP1 SLOAD DUP1 PUSH1 0x20 MUL PUSH1 0x20 ADD PUSH1 0x40 MLOAD SWAP1 DUP2 ADD PUSH1 0x40 MSTORE DUP1 SWAP3 SWAP2 SWAP1 DUP2 DUP2 MSTORE PUSH1 0x20 ADD DUP3 DUP1 SLOAD DUP1 ISZERO PUSH2 0x10DA JUMPI PUSH1 0x20 MUL DUP3 ADD SWAP2 SWAP1 PUSH1 0x0 MSTORE PUSH1 0x20 PUSH1 0x0 KECCAK256 SWAP1 JUMPDEST DUP2 PUSH1 0x0 SWAP1 SLOAD SWAP1 PUSH2 0x100 EXP SWAP1 DIV PUSH20 0xFFFFFFFFFFFFFFFFFFFFFFFFFFFFFFFFFFFFFFFF AND PUSH20 0xFFFFFFFFFFFFFFFFFFFFFFFFFFFFFFFFFFFFFFFF AND DUP2 MSTORE PUSH1 0x20 ADD SWAP1 PUSH1 0x1 ADD SWAP1 DUP1 DUP4 GT PUSH2 0x1090 JUMPI JUMPDEST POP POP POP POP POP SWAP1 POP SWAP1 JUMP JUMPDEST PUSH2 0x10EC PUSH2 0x1A1D JUMP JUMPDEST PUSH2 0x10F6 PUSH1 0x0 PUSH2 0x1A9B JUMP JUMPDEST JUMP JUMPDEST PUSH1 0x60 PUSH1 0x9 DUP1 SLOAD DUP1 PUSH1 0x20 MUL PUSH1 0x20 ADD PUSH1 0x40 MLOAD SWAP1 DUP2 ADD PUSH1 0x40 MSTORE DUP1 SWAP3 SWAP2 SWAP1 DUP2 DUP2 MSTORE PUSH1 0x20 ADD DUP3 DUP1 SLOAD DUP1 ISZERO PUSH2 0x117C JUMPI PUSH1 0x20 MUL DUP3 ADD SWAP2 SWAP1 PUSH1 0x0 MSTORE PUSH1 0x20 PUSH1 0x0 KECCAK256 SWAP1 JUMPDEST DUP2 PUSH1 0x0 SWAP1 SLOAD SWAP1 PUSH2 0x100 EXP SWAP1 DIV PUSH20 0xFFFFFFFFFFFFFFFFFFFFFFFFFFFFFFFFFFFFFFFF AND PUSH20 0xFFFFFFFFFFFFFFFFFFFFFFFFFFFFFFFFFFFFFFFF AND DUP2 MSTORE PUSH1 0x20 ADD SWAP1 PUSH1 0x1 ADD SWAP1 DUP1 DUP4 GT PUSH2 0x1132 JUMPI JUMPDEST POP POP POP POP POP SWAP1 POP SWAP1 JUMP JUMPDEST PUSH1 0x0 DUP1 PUSH1 0x0 SWAP1 SLOAD SWAP1 PUSH2 0x100 EXP SWAP1 DIV PUSH20 0xFFFFFFFFFFFFFFFFFFFFFFFFFFFFFFFFFFFFFFFF AND SWAP1 POP SWAP1 JUMP JUMPDEST PUSH1 0x60 PUSH1 0xD DUP1 SLOAD DUP1 PUSH1 0x20 MUL PUSH1 0x20 ADD PUSH1 0x40 MLOAD SWAP1 DUP2 ADD PUSH1 0x40 MSTORE DUP1 SWAP3 SWAP2 SWAP1 DUP2 DUP2 MSTORE PUSH1 0x20 ADD PUSH1 0x0 SWAP1 JUMPDEST DUP3 DUP3 LT ISZERO PUSH2 0x1314 JUMPI DUP4 DUP3 SWAP1 PUSH1 0x0 MSTORE PUSH1 0x20 PUSH1 0x0 KECCAK256 SWAP1 PUSH1 0x10 MUL ADD PUSH1 0x40 MLOAD DUP1 PUSH1 0x80 ADD PUSH1 0x40 MSTORE SWAP1 DUP2 PUSH1 0x0 DUP3 ADD PUSH1 0x5 DUP1 PUSH1 0x20 MUL PUSH1 0x40 MLOAD SWAP1 DUP2 ADD PUSH1 0x40 MSTORE DUP1 SWAP3 SWAP2 SWAP1 DUP3 PUSH1 0x5 DUP1 ISZERO PUSH2 0x1268 JUMPI PUSH1 0x20 MUL DUP3 ADD SWAP2 JUMPDEST DUP2 PUSH1 0x0 SWAP1 SLOAD SWAP1 PUSH2 0x100 EXP SWAP1 DIV PUSH20 0xFFFFFFFFFFFFFFFFFFFFFFFFFFFFFFFFFFFFFFFF AND PUSH20 0xFFFFFFFFFFFFFFFFFFFFFFFFFFFFFFFFFFFFFFFF AND DUP2 MSTORE PUSH1 0x20 ADD SWAP1 PUSH1 0x1 ADD SWAP1 DUP1 DUP4 GT PUSH2 0x121E JUMPI JUMPDEST POP POP POP POP POP DUP2 MSTORE PUSH1 0x20 ADD PUSH1 0x5 DUP3 ADD PUSH1 0x5 DUP1 PUSH1 0x20 MUL PUSH1 0x40 MLOAD SWAP1 DUP2 ADD PUSH1 0x40 MSTORE DUP1 SWAP3 SWAP2 SWAP1 DUP3 PUSH1 0x5 DUP1 ISZERO PUSH2 0x12AD JUMPI PUSH1 0x20 MUL DUP3 ADD SWAP2 JUMPDEST DUP2 SLOAD DUP2 MSTORE PUSH1 0x20 ADD SWAP1 PUSH1 0x1 ADD SWAP1 DUP1 DUP4 GT PUSH2 0x1299 JUMPI JUMPDEST POP POP POP POP POP DUP2 MSTORE PUSH1 0x20 ADD PUSH1 0xA DUP3 ADD PUSH1 0x5 DUP1 PUSH1 0x20 MUL PUSH1 0x40 MLOAD SWAP1 DUP2 ADD PUSH1 0x40 MSTORE DUP1 SWAP3 SWAP2 SWAP1 DUP3 PUSH1 0x5 DUP1 ISZERO PUSH2 0x12F2 JUMPI PUSH1 0x20 MUL DUP3 ADD SWAP2 JUMPDEST DUP2 SLOAD DUP2 MSTORE PUSH1 0x20 ADD SWAP1 PUSH1 0x1 ADD SWAP1 DUP1 DUP4 GT PUSH2 0x12DE JUMPI JUMPDEST POP POP POP POP POP DUP2 MSTORE PUSH1 0x20 ADD PUSH1 0xF DUP3 ADD SLOAD DUP2 MSTORE POP POP DUP2 MSTORE PUSH1 0x20 ADD SWAP1 PUSH1 0x1 ADD SWAP1 PUSH2 0x11D3 JUMP JUMPDEST POP POP POP POP SWAP1 POP SWAP1 JUMP JUMPDEST PUSH2 0x1325 PUSH2 0x1A1D JUMP JUMPDEST DUP1 PUSH1 0x8 DUP2 SWAP1 SSTORE POP POP JUMP JUMPDEST PUSH1 0x8 SLOAD DUP2 JUMP JUMPDEST PUSH1 0xD DUP2 DUP2 SLOAD DUP2 LT PUSH2 0x1345 JUMPI PUSH1 0x0 DUP1 REVERT JUMPDEST SWAP1 PUSH1 0x0 MSTORE PUSH1 0x20 PUSH1 0x0 KECCAK256 SWAP1 PUSH1 0x10 MUL ADD PUSH1 0x0 SWAP2 POP SWAP1 POP DUP1 PUSH1 0xF ADD SLOAD SWAP1 POP DUP2 JUMP JUMPDEST PUSH1 0x11 PUSH1 0x20 MSTORE DUP1 PUSH1 0x0 MSTORE PUSH1 0x40 PUSH1 0x0 KECCAK256 PUSH1 0x0 SWAP2 POP SWAP1 POP SLOAD DUP2 JUMP JUMPDEST PUSH2 0x1383 PUSH2 0x1A1D JUMP JUMPDEST DUP5 PUSH1 0x3 PUSH1 0x0 PUSH1 0x5 DUP2 LT PUSH2 0x1399 JUMPI PUSH2 0x1398 PUSH2 0x22C5 JUMP JUMPDEST JUMPDEST ADD DUP2 SWAP1 SSTORE POP DUP4 PUSH1 0x3 PUSH1 0x1 PUSH1 0x5 DUP2 LT PUSH2 0x13B4 JUMPI PUSH2 0x13B3 PUSH2 0x22C5 JUMP JUMPDEST JUMPDEST ADD DUP2 SWAP1 SSTORE POP DUP3 PUSH1 0x3 PUSH1 0x2 PUSH1 0x5 DUP2 LT PUSH2 0x13CF JUMPI PUSH2 0x13CE PUSH2 0x22C5 JUMP JUMPDEST JUMPDEST ADD DUP2 SWAP1 SSTORE POP DUP2 PUSH1 0x3 DUP1 PUSH1 0x5 DUP2 LT PUSH2 0x13E9 JUMPI PUSH2 0x13E8 PUSH2 0x22C5 JUMP JUMPDEST JUMPDEST ADD DUP2 SWAP1 SSTORE POP DUP1 PUSH1 0x3 PUSH1 0x4 PUSH1 0x5 DUP2 LT PUSH2 0x1404 JUMPI PUSH2 0x1403 PUSH2 0x22C5 JUMP JUMPDEST JUMPDEST ADD DUP2 SWAP1 SSTORE POP POP POP POP POP POP JUMP JUMPDEST PUSH1 0xC PUSH1 0x20 MSTORE DUP1 PUSH1 0x0 MSTORE PUSH1 0x40 PUSH1 0x0 KECCAK256 PUSH1 0x0 SWAP2 POP SLOAD SWAP1 PUSH2 0x100 EXP SWAP1 DIV PUSH1 0xFF AND DUP2 JUMP JUMPDEST PUSH2 0x1438 PUSH2 0x1B5F JUMP JUMPDEST PUSH1 0x0 DUP2 GT DUP1 ISZERO PUSH2 0x1498 JUMPI POP PUSH1 0xC PUSH1 0x0 PUSH2 0x144F PUSH2 0x1BAE JUMP JUMPDEST PUSH20 0xFFFFFFFFFFFFFFFFFFFFFFFFFFFFFFFFFFFFFFFF AND PUSH20 0xFFFFFFFFFFFFFFFFFFFFFFFFFFFFFFFFFFFFFFFF AND DUP2 MSTORE PUSH1 0x20 ADD SWAP1 DUP2 MSTORE PUSH1 0x20 ADD PUSH1 0x0 KECCAK256 PUSH1 0x0 SWAP1 SLOAD SWAP1 PUSH2 0x100 EXP SWAP1 DIV PUSH1 0xFF AND JUMPDEST PUSH2 0x14D7 JUMPI PUSH1 0x40 MLOAD PUSH32 0x8C379A000000000000000000000000000000000000000000000000000000000 DUP2 MSTORE PUSH1 0x4 ADD PUSH2 0x14CE SWAP1 PUSH2 0x2664 JUMP JUMPDEST PUSH1 0x40 MLOAD DUP1 SWAP2 SUB SWAP1 REVERT JUMPDEST PUSH1 0x0 PUSH1 0xC PUSH1 0x0 PUSH2 0x14E5 PUSH2 0x1BAE JUMP JUMPDEST PUSH20 0xFFFFFFFFFFFFFFFFFFFFFFFFFFFFFFFFFFFFFFFF AND PUSH20 0xFFFFFFFFFFFFFFFFFFFFFFFFFFFFFFFFFFFFFFFF AND DUP2 MSTORE PUSH1 0x20 ADD SWAP1 DUP2 MSTORE PUSH1 0x20 ADD PUSH1 0x0 KECCAK256 PUSH1 0x0 PUSH2 0x100 EXP DUP2 SLOAD DUP2 PUSH1 0xFF MUL NOT AND SWAP1 DUP4 ISZERO ISZERO MUL OR SWAP1 SSTORE POP PUSH1 0x0 PUSH1 0xA PUSH1 0x0 PUSH2 0x1544 PUSH2 0x1BAE JUMP JUMPDEST PUSH20 0xFFFFFFFFFFFFFFFFFFFFFFFFFFFFFFFFFFFFFFFF AND PUSH20 0xFFFFFFFFFFFFFFFFFFFFFFFFFFFFFFFFFFFFFFFF AND DUP2 MSTORE PUSH1 0x20 ADD SWAP1 DUP2 MSTORE PUSH1 0x20 ADD PUSH1 0x0 KECCAK256 SLOAD SUB PUSH2 0x15EF JUMPI PUSH1 0x9 PUSH2 0x158E PUSH2 0x1BAE JUMP JUMPDEST SWAP1 DUP1 PUSH1 0x1 DUP2 SLOAD ADD DUP1 DUP3 SSTORE DUP1 SWAP2 POP POP PUSH1 0x1 SWAP1 SUB SWAP1 PUSH1 0x0 MSTORE PUSH1 0x20 PUSH1 0x0 KECCAK256 ADD PUSH1 0x0 SWAP1 SWAP2 SWAP1 SWAP2 SWAP1 SWAP2 PUSH2 0x100 EXP DUP2 SLOAD DUP2 PUSH20 0xFFFFFFFFFFFFFFFFFFFFFFFFFFFFFFFFFFFFFFFF MUL NOT AND SWAP1 DUP4 PUSH20 0xFFFFFFFFFFFFFFFFFFFFFFFFFFFFFFFFFFFFFFFF AND MUL OR SWAP1 SSTORE POP JUMPDEST DUP1 PUSH1 0xA PUSH1 0x0 PUSH2 0x15FC PUSH2 0x1BAE JUMP JUMPDEST PUSH20 0xFFFFFFFFFFFFFFFFFFFFFFFFFFFFFFFFFFFFFFFF AND PUSH20 0xFFFFFFFFFFFFFFFFFFFFFFFFFFFFFFFFFFFFFFFF AND DUP2 MSTORE PUSH1 0x20 ADD SWAP1 DUP2 MSTORE PUSH1 0x20 ADD PUSH1 0x0 KECCAK256 PUSH1 0x0 DUP3 DUP3 SLOAD PUSH2 0x1645 SWAP2 SWAP1 PUSH2 0x2323 JUMP JUMPDEST SWAP3 POP POP DUP2 SWAP1 SSTORE POP PUSH1 0x0 PUSH1 0x10 PUSH1 0x0 PUSH2 0x165A PUSH2 0x1BAE JUMP JUMPDEST PUSH20 0xFFFFFFFFFFFFFFFFFFFFFFFFFFFFFFFFFFFFFFFF AND PUSH20 0xFFFFFFFFFFFFFFFFFFFFFFFFFFFFFFFFFFFFFFFF AND DUP2 MSTORE PUSH1 0x20 ADD SWAP1 DUP2 MSTORE PUSH1 0x20 ADD PUSH1 0x0 KECCAK256 SLOAD SUB PUSH2 0x1705 JUMPI PUSH1 0xF PUSH2 0x16A4 PUSH2 0x1BAE JUMP JUMPDEST SWAP1 DUP1 PUSH1 0x1 DUP2 SLOAD ADD DUP1 DUP3 SSTORE DUP1 SWAP2 POP POP PUSH1 0x1 SWAP1 SUB SWAP1 PUSH1 0x0 MSTORE PUSH1 0x20 PUSH1 0x0 KECCAK256 ADD PUSH1 0x0 SWAP1 SWAP2 SWAP1 SWAP2 SWAP1 SWAP2 PUSH2 0x100 EXP DUP2 SLOAD DUP2 PUSH20 0xFFFFFFFFFFFFFFFFFFFFFFFFFFFFFFFFFFFFFFFF MUL NOT AND SWAP1 DUP4 PUSH20 0xFFFFFFFFFFFFFFFFFFFFFFFFFFFFFFFFFFFFFFFF AND MUL OR SWAP1 SSTORE POP JUMPDEST DUP1 PUSH1 0x10 PUSH1 0x0 PUSH2 0x1712 PUSH2 0x1BAE JUMP JUMPDEST PUSH20 0xFFFFFFFFFFFFFFFFFFFFFFFFFFFFFFFFFFFFFFFF AND PUSH20 0xFFFFFFFFFFFFFFFFFFFFFFFFFFFFFFFFFFFFFFFF AND DUP2 MSTORE PUSH1 0x20 ADD SWAP1 DUP2 MSTORE PUSH1 0x20 ADD PUSH1 0x0 KECCAK256 PUSH1 0x0 DUP3 DUP3 SLOAD PUSH2 0x175B SWAP2 SWAP1 PUSH2 0x2323 JUMP JUMPDEST SWAP3 POP POP DUP2 SWAP1 SSTORE POP TIMESTAMP PUSH1 0x11 PUSH1 0x0 PUSH2 0x176F PUSH2 0x1BAE JUMP JUMPDEST PUSH20 0xFFFFFFFFFFFFFFFFFFFFFFFFFFFFFFFFFFFFFFFF AND PUSH20 0xFFFFFFFFFFFFFFFFFFFFFFFFFFFFFFFFFFFFFFFF AND DUP2 MSTORE PUSH1 0x20 ADD SWAP1 DUP2 MSTORE PUSH1 0x20 ADD PUSH1 0x0 KECCAK256 DUP2 SWAP1 SSTORE POP PUSH1 0xE PUSH1 0x0 DUP2 SLOAD DUP1 SWAP3 SWAP2 SWAP1 PUSH2 0x17C0 SWAP1 PUSH2 0x238B JUMP JUMPDEST SWAP2 SWAP1 POP SSTORE POP PUSH32 0x1A0DA0F323E639DDC4F72AFDC6E15F3FC4D63E8DB62BD38A5C6AD04BC5A37BE2 PUSH2 0x17EE PUSH2 0x1BAE JUMP JUMPDEST DUP3 TIMESTAMP PUSH1 0x40 MLOAD PUSH2 0x17FF SWAP4 SWAP3 SWAP2 SWAP1 PUSH2 0x2684 JUMP JUMPDEST PUSH1 0x40 MLOAD DUP1 SWAP2 SUB SWAP1 LOG1 PUSH2 0x180F PUSH2 0x1BB6 JUMP JUMPDEST POP JUMP JUMPDEST PUSH1 0x8 SLOAD CALLVALUE LT ISZERO PUSH2 0x1857 JUMPI PUSH1 0x40 MLOAD PUSH32 0x8C379A000000000000000000000000000000000000000000000000000000000 DUP2 MSTORE PUSH1 0x4 ADD PUSH2 0x184E SWAP1 PUSH2 0x2707 JUMP JUMPDEST PUSH1 0x40 MLOAD DUP1 SWAP2 SUB SWAP1 REVERT JUMPDEST PUSH1 0x1 PUSH1 0xC PUSH1 0x0 PUSH2 0x1865 PUSH2 0x1BAE JUMP JUMPDEST PUSH20 0xFFFFFFFFFFFFFFFFFFFFFFFFFFFFFFFFFFFFFFFF AND PUSH20 0xFFFFFFFFFFFFFFFFFFFFFFFFFFFFFFFFFFFFFFFF AND DUP2 MSTORE PUSH1 0x20 ADD SWAP1 DUP2 MSTORE PUSH1 0x20 ADD PUSH1 0x0 KECCAK256 PUSH1 0x0 PUSH2 0x100 EXP DUP2 SLOAD DUP2 PUSH1 0xFF MUL NOT AND SWAP1 DUP4 ISZERO ISZERO MUL OR SWAP1 SSTORE POP PUSH32 0x827A821CC7B9CAE4C0BAEF42EE9CDEB791722AB1AA43532C255EA468EA6D5B1D PUSH2 0x18DF PUSH2 0x1BAE JUMP JUMPDEST TIMESTAMP PUSH1 0x40 MLOAD PUSH2 0x18EE SWAP3 SWAP2 SWAP1 PUSH2 0x2727 JUMP JUMPDEST PUSH1 0x40 MLOAD DUP1 SWAP2 SUB SWAP1 LOG1 JUMP JUMPDEST PUSH2 0x1900 PUSH2 0x1CD8 JUMP JUMPDEST PUSH1 0x3 PUSH1 0x5 DUP1 PUSH1 0x20 MUL PUSH1 0x40 MLOAD SWAP1 DUP2 ADD PUSH1 0x40 MSTORE DUP1 SWAP3 SWAP2 SWAP1 DUP3 PUSH1 0x5 DUP1 ISZERO PUSH2 0x1939 JUMPI PUSH1 0x20 MUL DUP3 ADD SWAP2 JUMPDEST DUP2 SLOAD DUP2 MSTORE PUSH1 0x20 ADD SWAP1 PUSH1 0x1 ADD SWAP1 DUP1 DUP4 GT PUSH2 0x1925 JUMPI JUMPDEST POP POP POP POP POP SWAP1 POP SWAP1 JUMP JUMPDEST PUSH2 0x194B PUSH2 0x1A1D JUMP JUMPDEST PUSH1 0x0 PUSH20 0xFFFFFFFFFFFFFFFFFFFFFFFFFFFFFFFFFFFFFFFF AND DUP2 PUSH20 0xFFFFFFFFFFFFFFFFFFFFFFFFFFFFFFFFFFFFFFFF AND SUB PUSH2 0x19BA JUMPI PUSH1 0x40 MLOAD PUSH32 0x8C379A000000000000000000000000000000000000000000000000000000000 DUP2 MSTORE PUSH1 0x4 ADD PUSH2 0x19B1 SWAP1 PUSH2 0x27C2 JUMP JUMPDEST PUSH1 0x40 MLOAD DUP1 SWAP2 SUB SWAP1 REVERT JUMPDEST PUSH2 0x19C3 DUP2 PUSH2 0x1A9B JUMP JUMPDEST POP JUMP JUMPDEST PUSH1 0x9 DUP2 DUP2 SLOAD DUP2 LT PUSH2 0x19D6 JUMPI PUSH1 0x0 DUP1 REVERT JUMPDEST SWAP1 PUSH1 0x0 MSTORE PUSH1 0x20 PUSH1 0x0 KECCAK256 ADD PUSH1 0x0 SWAP2 POP SLOAD SWAP1 PUSH2 0x100 EXP SWAP1 DIV PUSH20 0xFFFFFFFFFFFFFFFFFFFFFFFFFFFFFFFFFFFFFFFF AND DUP2 JUMP JUMPDEST PUSH1 0xA PUSH1 0x20 MSTORE DUP1 PUSH1 0x0 MSTORE PUSH1 0x40 PUSH1 0x0 KECCAK256 PUSH1 0x0 SWAP2 POP SWAP1 POP SLOAD DUP2 JUMP JUMPDEST PUSH2 0x1A25 PUSH2 0x1BAE JUMP JUMPDEST PUSH20 0xFFFFFFFFFFFFFFFFFFFFFFFFFFFFFFFFFFFFFFFF AND PUSH2 0x1A43 PUSH2 0x1186 JUMP JUMPDEST PUSH20 0xFFFFFFFFFFFFFFFFFFFFFFFFFFFFFFFFFFFFFFFF AND EQ PUSH2 0x1A99 JUMPI PUSH1 0x40 MLOAD PUSH32 0x8C379A000000000000000000000000000000000000000000000000000000000 DUP2 MSTORE PUSH1 0x4 ADD PUSH2 0x1A90 SWAP1 PUSH2 0x282E JUMP JUMPDEST PUSH1 0x40 MLOAD DUP1 SWAP2 SUB SWAP1 REVERT JUMPDEST JUMP JUMPDEST PUSH1 0x0 DUP1 PUSH1 0x0 SWAP1 SLOAD SWAP1 PUSH2 0x100 EXP SWAP1 DIV PUSH20 0xFFFFFFFFFFFFFFFFFFFFFFFFFFFFFFFFFFFFFFFF AND SWAP1 POP DUP2 PUSH1 0x0 DUP1 PUSH2 0x100 EXP DUP2 SLOAD DUP2 PUSH20 0xFFFFFFFFFFFFFFFFFFFFFFFFFFFFFFFFFFFFFFFF MUL NOT AND SWAP1 DUP4 PUSH20 0xFFFFFFFFFFFFFFFFFFFFFFFFFFFFFFFFFFFFFFFF AND MUL OR SWAP1 SSTORE POP DUP2 PUSH20 0xFFFFFFFFFFFFFFFFFFFFFFFFFFFFFFFFFFFFFFFF AND DUP2 PUSH20 0xFFFFFFFFFFFFFFFFFFFFFFFFFFFFFFFFFFFFFFFF AND PUSH32 0x8BE0079C531659141344CD1FD0A4F28419497F9722A3DAAFE3B4186F6B6457E0 PUSH1 0x40 MLOAD PUSH1 0x40 MLOAD DUP1 SWAP2 SUB SWAP1 LOG3 POP POP JUMP JUMPDEST PUSH1 0x2 PUSH1 0x1 SLOAD SUB PUSH2 0x1BA4 JUMPI PUSH1 0x40 MLOAD PUSH32 0x8C379A000000000000000000000000000000000000000000000000000000000 DUP2 MSTORE PUSH1 0x4 ADD PUSH2 0x1B9B SWAP1 PUSH2 0x289A JUMP JUMPDEST PUSH1 0x40 MLOAD DUP1 SWAP2 SUB SWAP1 REVERT JUMPDEST PUSH1 0x2 PUSH1 0x1 DUP2 SWAP1 SSTORE POP JUMP JUMPDEST PUSH1 0x0 CALLER SWAP1 POP SWAP1 JUMP JUMPDEST PUSH1 0x1 DUP1 DUP2 SWAP1 SSTORE POP JUMP JUMPDEST PUSH1 0x40 MLOAD DUP1 PUSH1 0xA0 ADD PUSH1 0x40 MSTORE DUP1 PUSH1 0x5 SWAP1 PUSH1 0x20 DUP3 MUL DUP1 CALLDATASIZE DUP4 CALLDATACOPY DUP1 DUP3 ADD SWAP2 POP POP SWAP1 POP POP SWAP1 JUMP JUMPDEST PUSH1 0x40 MLOAD DUP1 PUSH1 0x80 ADD PUSH1 0x40 MSTORE DUP1 PUSH2 0x1BF4 PUSH2 0x1BBF JUMP JUMPDEST DUP2 MSTORE PUSH1 0x20 ADD PUSH2 0x1C01 PUSH2 0x1CD8 JUMP JUMPDEST DUP2 MSTORE PUSH1 0x20 ADD PUSH2 0x1C0E PUSH2 0x1CD8 JUMP JUMPDEST DUP2 MSTORE PUSH1 0x20 ADD PUSH1 0x0 DUP2 MSTORE POP SWAP1 JUMP JUMPDEST DUP3 PUSH1 0x5 DUP2 ADD SWAP3 DUP3 ISZERO PUSH2 0x1C87 JUMPI SWAP2 PUSH1 0x20 MUL DUP3 ADD JUMPDEST DUP3 DUP2 GT ISZERO PUSH2 0x1C86 JUMPI DUP3 MLOAD DUP3 PUSH1 0x0 PUSH2 0x100 EXP DUP2 SLOAD DUP2 PUSH20 0xFFFFFFFFFFFFFFFFFFFFFFFFFFFFFFFFFFFFFFFF MUL NOT AND SWAP1 DUP4 PUSH20 0xFFFFFFFFFFFFFFFFFFFFFFFFFFFFFFFFFFFFFFFF AND MUL OR SWAP1 SSTORE POP SWAP2 PUSH1 0x20 ADD SWAP2 SWAP1 PUSH1 0x1 ADD SWAP1 PUSH2 0x1C2E JUMP JUMPDEST JUMPDEST POP SWAP1 POP PUSH2 0x1C94 SWAP2 SWAP1 PUSH2 0x1CFA JUMP JUMPDEST POP SWAP1 JUMP JUMPDEST DUP3 PUSH1 0x5 DUP2 ADD SWAP3 DUP3 ISZERO PUSH2 0x1CC7 JUMPI SWAP2 PUSH1 0x20 MUL DUP3 ADD JUMPDEST DUP3 DUP2 GT ISZERO PUSH2 0x1CC6 JUMPI DUP3 MLOAD DUP3 SSTORE SWAP2 PUSH1 0x20 ADD SWAP2 SWAP1 PUSH1 0x1 ADD SWAP1 PUSH2 0x1CAB JUMP JUMPDEST JUMPDEST POP SWAP1 POP PUSH2 0x1CD4 SWAP2 SWAP1 PUSH2 0x1CFA JUMP JUMPDEST POP SWAP1 JUMP JUMPDEST PUSH1 0x40 MLOAD DUP1 PUSH1 0xA0 ADD PUSH1 0x40 MSTORE DUP1 PUSH1 0x5 SWAP1 PUSH1 0x20 DUP3 MUL DUP1 CALLDATASIZE DUP4 CALLDATACOPY DUP1 DUP3 ADD SWAP2 POP POP SWAP1 POP POP SWAP1 JUMP JUMPDEST JUMPDEST DUP1 DUP3 GT ISZERO PUSH2 0x1D13 JUMPI PUSH1 0x0 DUP2 PUSH1 0x0 SWAP1 SSTORE POP PUSH1 0x1 ADD PUSH2 0x1CFB JUMP JUMPDEST POP SWAP1 JUMP JUMPDEST PUSH1 0x0 DUP1 REVERT JUMPDEST PUSH1 0x0 PUSH20 0xFFFFFFFFFFFFFFFFFFFFFFFFFFFFFFFFFFFFFFFF DUP3 AND SWAP1 POP SWAP2 SWAP1 POP JUMP JUMPDEST PUSH1 0x0 PUSH2 0x1D47 DUP3 PUSH2 0x1D1C JUMP JUMPDEST SWAP1 POP SWAP2 SWAP1 POP JUMP JUMPDEST PUSH2 0x1D57 DUP2 PUSH2 0x1D3C JUMP JUMPDEST DUP2 EQ PUSH2 0x1D62 JUMPI PUSH1 0x0 DUP1 REVERT JUMPDEST POP JUMP JUMPDEST PUSH1 0x0 DUP2 CALLDATALOAD SWAP1 POP PUSH2 0x1D74 DUP2 PUSH2 0x1D4E JUMP JUMPDEST SWAP3 SWAP2 POP POP JUMP JUMPDEST PUSH1 0x0 PUSH1 0x20 DUP3 DUP5 SUB SLT ISZERO PUSH2 0x1D90 JUMPI PUSH2 0x1D8F PUSH2 0x1D17 JUMP JUMPDEST JUMPDEST PUSH1 0x0 PUSH2 0x1D9E DUP5 DUP3 DUP6 ADD PUSH2 0x1D65 JUMP JUMPDEST SWAP2 POP POP SWAP3 SWAP2 POP POP JUMP JUMPDEST PUSH1 0x0 DUP2 SWAP1 POP SWAP2 SWAP1 POP JUMP JUMPDEST PUSH2 0x1DBA DUP2 PUSH2 0x1DA7 JUMP JUMPDEST DUP3 MSTORE POP POP JUMP JUMPDEST PUSH1 0x0 PUSH1 0x20 DUP3 ADD SWAP1 POP PUSH2 0x1DD5 PUSH1 0x0 DUP4 ADD DUP5 PUSH2 0x1DB1 JUMP JUMPDEST SWAP3 SWAP2 POP POP JUMP JUMPDEST PUSH2 0x1DE4 DUP2 PUSH2 0x1D3C JUMP JUMPDEST DUP3 MSTORE POP POP JUMP JUMPDEST PUSH1 0x0 PUSH1 0x20 DUP3 ADD SWAP1 POP PUSH2 0x1DFF PUSH1 0x0 DUP4 ADD DUP5 PUSH2 0x1DDB JUMP JUMPDEST SWAP3 SWAP2 POP POP JUMP JUMPDEST PUSH2 0x1E0E DUP2 PUSH2 0x1DA7 JUMP JUMPDEST DUP2 EQ PUSH2 0x1E19 JUMPI PUSH1 0x0 DUP1 REVERT JUMPDEST POP JUMP JUMPDEST PUSH1 0x0 DUP2 CALLDATALOAD SWAP1 POP PUSH2 0x1E2B DUP2 PUSH2 0x1E05 JUMP JUMPDEST SWAP3 SWAP2 POP POP JUMP JUMPDEST PUSH1 0x0 PUSH1 0x20 DUP3 DUP5 SUB SLT ISZERO PUSH2 0x1E47 JUMPI PUSH2 0x1E46 PUSH2 0x1D17 JUMP JUMPDEST JUMPDEST PUSH1 0x0 PUSH2 0x1E55 DUP5 DUP3 DUP6 ADD PUSH2 0x1E1C JUMP JUMPDEST SWAP2 POP POP SWAP3 SWAP2 POP POP JUMP JUMPDEST PUSH1 0x0 DUP2 MLOAD SWAP1 POP SWAP2 SWAP1 POP JUMP JUMPDEST PUSH1 0x0 DUP3 DUP3 MSTORE PUSH1 0x20 DUP3 ADD SWAP1 POP SWAP3 SWAP2 POP POP JUMP JUMPDEST PUSH1 0x0 DUP2 SWAP1 POP PUSH1 0x20 DUP3 ADD SWAP1 POP SWAP2 SWAP1 POP JUMP JUMPDEST PUSH2 0x1E93 DUP2 PUSH2 0x1D3C JUMP JUMPDEST DUP3 MSTORE POP POP JUMP JUMPDEST PUSH1 0x0 PUSH2 0x1EA5 DUP4 DUP4 PUSH2 0x1E8A JUMP JUMPDEST PUSH1 0x20 DUP4 ADD SWAP1 POP SWAP3 SWAP2 POP POP JUMP JUMPDEST PUSH1 0x0 PUSH1 0x20 DUP3 ADD SWAP1 POP SWAP2 SWAP1 POP JUMP JUMPDEST PUSH1 0x0 PUSH2 0x1EC9 DUP3 PUSH2 0x1E5E JUMP JUMPDEST PUSH2 0x1ED3 DUP2 DUP6 PUSH2 0x1E69 JUMP JUMPDEST SWAP4 POP PUSH2 0x1EDE DUP4 PUSH2 0x1E7A JUMP JUMPDEST DUP1 PUSH1 0x0 JUMPDEST DUP4 DUP2 LT ISZERO PUSH2 0x1F0F JUMPI DUP2 MLOAD PUSH2 0x1EF6 DUP9 DUP3 PUSH2 0x1E99 JUMP JUMPDEST SWAP8 POP PUSH2 0x1F01 DUP4 PUSH2 0x1EB1 JUMP JUMPDEST SWAP3 POP POP PUSH1 0x1 DUP2 ADD SWAP1 POP PUSH2 0x1EE2 JUMP JUMPDEST POP DUP6 SWAP4 POP POP POP POP SWAP3 SWAP2 POP POP JUMP JUMPDEST PUSH1 0x0 PUSH1 0x20 DUP3 ADD SWAP1 POP DUP2 DUP2 SUB PUSH1 0x0 DUP4 ADD MSTORE PUSH2 0x1F36 DUP2 DUP5 PUSH2 0x1EBE JUMP JUMPDEST SWAP1 POP SWAP3 SWAP2 POP POP JUMP JUMPDEST PUSH1 0x0 DUP2 MLOAD SWAP1 POP SWAP2 SWAP1 POP JUMP JUMPDEST PUSH1 0x0 DUP3 DUP3 MSTORE PUSH1 0x20 DUP3 ADD SWAP1 POP SWAP3 SWAP2 POP POP JUMP JUMPDEST PUSH1 0x0 DUP2 SWAP1 POP PUSH1 0x20 DUP3 ADD SWAP1 POP SWAP2 SWAP1 POP JUMP JUMPDEST PUSH1 0x0 PUSH1 0x5 SWAP1 POP SWAP2 SWAP1 POP JUMP JUMPDEST PUSH1 0x0 DUP2 SWAP1 POP SWAP3 SWAP2 POP POP JUMP JUMPDEST PUSH1 0x0 DUP2 SWAP1 POP SWAP2 SWAP1 POP JUMP JUMPDEST PUSH1 0x0 PUSH1 0x20 DUP3 ADD SWAP1 POP SWAP2 SWAP1 POP JUMP JUMPDEST PUSH2 0x1FA0 DUP2 PUSH2 0x1F6A JUMP JUMPDEST PUSH2 0x1FAA DUP2 DUP5 PUSH2 0x1F75 JUMP JUMPDEST SWAP3 POP PUSH2 0x1FB5 DUP3 PUSH2 0x1F80 JUMP JUMPDEST DUP1 PUSH1 0x0 JUMPDEST DUP4 DUP2 LT ISZERO PUSH2 0x1FE6 JUMPI DUP2 MLOAD PUSH2 0x1FCD DUP8 DUP3 PUSH2 0x1E99 JUMP JUMPDEST SWAP7 POP PUSH2 0x1FD8 DUP4 PUSH2 0x1F8A JUMP JUMPDEST SWAP3 POP POP PUSH1 0x1 DUP2 ADD SWAP1 POP PUSH2 0x1FB9 JUMP JUMPDEST POP POP POP POP POP POP JUMP JUMPDEST PUSH1 0x0 PUSH1 0x5 SWAP1 POP SWAP2 SWAP1 POP JUMP JUMPDEST PUSH1 0x0 DUP2 SWAP1 POP SWAP3 SWAP2 POP POP JUMP JUMPDEST PUSH1 0x0 DUP2 SWAP1 POP SWAP2 SWAP1 POP JUMP JUMPDEST PUSH2 0x2017 DUP2 PUSH2 0x1DA7 JUMP JUMPDEST DUP3 MSTORE POP POP JUMP JUMPDEST PUSH1 0x0 PUSH2 0x2029 DUP4 DUP4 PUSH2 0x200E JUMP JUMPDEST PUSH1 0x20 DUP4 ADD SWAP1 POP SWAP3 SWAP2 POP POP JUMP JUMPDEST PUSH1 0x0 PUSH1 0x20 DUP3 ADD SWAP1 POP SWAP2 SWAP1 POP JUMP JUMPDEST PUSH2 0x204B DUP2 PUSH2 0x1FEE JUMP JUMPDEST PUSH2 0x2055 DUP2 DUP5 PUSH2 0x1FF9 JUMP JUMPDEST SWAP3 POP PUSH2 0x2060 DUP3 PUSH2 0x2004 JUMP JUMPDEST DUP1 PUSH1 0x0 JUMPDEST DUP4 DUP2 LT ISZERO PUSH2 0x2091 JUMPI DUP2 MLOAD PUSH2 0x2078 DUP8 DUP3 PUSH2 0x201D JUMP JUMPDEST SWAP7 POP PUSH2 0x2083 DUP4 PUSH2 0x2035 JUMP JUMPDEST SWAP3 POP POP PUSH1 0x1 DUP2 ADD SWAP1 POP PUSH2 0x2064 JUMP JUMPDEST POP POP POP POP POP POP JUMP JUMPDEST PUSH2 0x200 DUP3 ADD PUSH1 0x0 DUP3 ADD MLOAD PUSH2 0x20B0 PUSH1 0x0 DUP6 ADD DUP3 PUSH2 0x1F97 JUMP JUMPDEST POP PUSH1 0x20 DUP3 ADD MLOAD PUSH2 0x20C3 PUSH1 0xA0 DUP6 ADD DUP3 PUSH2 0x2042 JUMP JUMPDEST POP PUSH1 0x40 DUP3 ADD MLOAD PUSH2 0x20D7 PUSH2 0x140 DUP6 ADD DUP3 PUSH2 0x2042 JUMP JUMPDEST POP PUSH1 0x60 DUP3 ADD MLOAD PUSH2 0x20EB PUSH2 0x1E0 DUP6 ADD DUP3 PUSH2 0x200E JUMP JUMPDEST POP POP POP POP JUMP JUMPDEST PUSH1 0x0 PUSH2 0x20FD DUP4 DUP4 PUSH2 0x2099 JUMP JUMPDEST PUSH2 0x200 DUP4 ADD SWAP1 POP SWAP3 SWAP2 POP POP JUMP JUMPDEST PUSH1 0x0 PUSH1 0x20 DUP3 ADD SWAP1 POP SWAP2 SWAP1 POP JUMP JUMPDEST PUSH1 0x0 PUSH2 0x2122 DUP3 PUSH2 0x1F3E JUMP JUMPDEST PUSH2 0x212C DUP2 DUP6 PUSH2 0x1F49 JUMP JUMPDEST SWAP4 POP PUSH2 0x2137 DUP4 PUSH2 0x1F5A JUMP JUMPDEST DUP1 PUSH1 0x0 JUMPDEST DUP4 DUP2 LT ISZERO PUSH2 0x2168 JUMPI DUP2 MLOAD PUSH2 0x214F DUP9 DUP3 PUSH2 0x20F1 JUMP JUMPDEST SWAP8 POP PUSH2 0x215A DUP4 PUSH2 0x210A JUMP JUMPDEST SWAP3 POP POP PUSH1 0x1 DUP2 ADD SWAP1 POP PUSH2 0x213B JUMP JUMPDEST POP DUP6 SWAP4 POP POP POP POP SWAP3 SWAP2 POP POP JUMP JUMPDEST PUSH1 0x0 PUSH1 0x20 DUP3 ADD SWAP1 POP DUP2 DUP2 SUB PUSH1 0x0 DUP4 ADD MSTORE PUSH2 0x218F DUP2 DUP5 PUSH2 0x2117 JUMP JUMPDEST SWAP1 POP SWAP3 SWAP2 POP POP JUMP JUMPDEST PUSH1 0x0 DUP1 PUSH1 0x0 DUP1 PUSH1 0x0 PUSH1 0xA0 DUP7 DUP9 SUB SLT ISZERO PUSH2 0x21B3 JUMPI PUSH2 0x21B2 PUSH2 0x1D17 JUMP JUMPDEST JUMPDEST PUSH1 0x0 PUSH2 0x21C1 DUP9 DUP3 DUP10 ADD PUSH2 0x1E1C JUMP JUMPDEST SWAP6 POP POP PUSH1 0x20 PUSH2 0x21D2 DUP9 DUP3 DUP10 ADD PUSH2 0x1E1C JUMP JUMPDEST SWAP5 POP POP PUSH1 0x40 PUSH2 0x21E3 DUP9 DUP3 DUP10 ADD PUSH2 0x1E1C JUMP JUMPDEST SWAP4 POP POP PUSH1 0x60 PUSH2 0x21F4 DUP9 DUP3 DUP10 ADD PUSH2 0x1E1C JUMP JUMPDEST SWAP3 POP POP PUSH1 0x80 PUSH2 0x2205 DUP9 DUP3 DUP10 ADD PUSH2 0x1E1C JUMP JUMPDEST SWAP2 POP POP SWAP3 SWAP6 POP SWAP3 SWAP6 SWAP1 SWAP4 POP JUMP JUMPDEST PUSH1 0x0 DUP2 ISZERO ISZERO SWAP1 POP SWAP2 SWAP1 POP JUMP JUMPDEST PUSH2 0x2227 DUP2 PUSH2 0x2212 JUMP JUMPDEST DUP3 MSTORE POP POP JUMP JUMPDEST PUSH1 0x0 PUSH1 0x20 DUP3 ADD SWAP1 POP PUSH2 0x2242 PUSH1 0x0 DUP4 ADD DUP5 PUSH2 0x221E JUMP JUMPDEST SWAP3 SWAP2 POP POP JUMP JUMPDEST PUSH1 0x0 DUP2 SWAP1 POP SWAP3 SWAP2 POP POP JUMP JUMPDEST PUSH2 0x225C DUP2 PUSH2 0x1FEE JUMP JUMPDEST PUSH2 0x2266 DUP2 DUP5 PUSH2 0x2248 JUMP JUMPDEST SWAP3 POP PUSH2 0x2271 DUP3 PUSH2 0x2004 JUMP JUMPDEST DUP1 PUSH1 0x0 JUMPDEST DUP4 DUP2 LT ISZERO PUSH2 0x22A2 JUMPI DUP2 MLOAD PUSH2 0x2289 DUP8 DUP3 PUSH2 0x201D JUMP JUMPDEST SWAP7 POP PUSH2 0x2294 DUP4 PUSH2 0x2035 JUMP JUMPDEST SWAP3 POP POP PUSH1 0x1 DUP2 ADD SWAP1 POP PUSH2 0x2275 JUMP JUMPDEST POP POP POP POP POP POP JUMP JUMPDEST PUSH1 0x0 PUSH1 0xA0 DUP3 ADD SWAP1 POP PUSH2 0x22BF PUSH1 0x0 DUP4 ADD DUP5 PUSH2 0x2253 JUMP JUMPDEST SWAP3 SWAP2 POP POP JUMP JUMPDEST PUSH32 0x4E487B7100000000000000000000000000000000000000000000000000000000 PUSH1 0x0 MSTORE PUSH1 0x32 PUSH1 0x4 MSTORE PUSH1 0x24 PUSH1 0x0 REVERT JUMPDEST PUSH32 0x4E487B7100000000000000000000000000000000000000000000000000000000 PUSH1 0x0 MSTORE PUSH1 0x11 PUSH1 0x4 MSTORE PUSH1 0x24 PUSH1 0x0 REVERT JUMPDEST PUSH1 0x0 PUSH2 0x232E DUP3 PUSH2 0x1DA7 JUMP JUMPDEST SWAP2 POP PUSH2 0x2339 DUP4 PUSH2 0x1DA7 JUMP JUMPDEST SWAP3 POP DUP3 DUP3 ADD SWAP1 POP DUP1 DUP3 GT ISZERO PUSH2 0x2351 JUMPI PUSH2 0x2350 PUSH2 0x22F4 JUMP JUMPDEST JUMPDEST SWAP3 SWAP2 POP POP JUMP JUMPDEST PUSH1 0x0 PUSH2 0x2362 DUP3 PUSH2 0x1DA7 JUMP JUMPDEST SWAP2 POP PUSH2 0x236D DUP4 PUSH2 0x1DA7 JUMP JUMPDEST SWAP3 POP DUP3 DUP3 SUB SWAP1 POP DUP2 DUP2 GT ISZERO PUSH2 0x2385 JUMPI PUSH2 0x2384 PUSH2 0x22F4 JUMP JUMPDEST JUMPDEST SWAP3 SWAP2 POP POP JUMP JUMPDEST PUSH1 0x0 PUSH2 0x2396 DUP3 PUSH2 0x1DA7 JUMP JUMPDEST SWAP2 POP PUSH32 0xFFFFFFFFFFFFFFFFFFFFFFFFFFFFFFFFFFFFFFFFFFFFFFFFFFFFFFFFFFFFFFFF DUP3 SUB PUSH2 0x23C8 JUMPI PUSH2 0x23C7 PUSH2 0x22F4 JUMP JUMPDEST JUMPDEST PUSH1 0x1 DUP3 ADD SWAP1 POP SWAP2 SWAP1 POP JUMP JUMPDEST PUSH1 0x0 PUSH2 0x23DE DUP3 PUSH2 0x1DA7 JUMP JUMPDEST SWAP2 POP PUSH2 0x23E9 DUP4 PUSH2 0x1DA7 JUMP JUMPDEST SWAP3 POP DUP3 DUP3 MUL PUSH2 0x23F7 DUP2 PUSH2 0x1DA7 JUMP JUMPDEST SWAP2 POP DUP3 DUP3 DIV DUP5 EQ DUP4 ISZERO OR PUSH2 0x240E JUMPI PUSH2 0x240D PUSH2 0x22F4 JUMP JUMPDEST JUMPDEST POP SWAP3 SWAP2 POP POP JUMP JUMPDEST PUSH32 0x4E487B7100000000000000000000000000000000000000000000000000000000 PUSH1 0x0 MSTORE PUSH1 0x12 PUSH1 0x4 MSTORE PUSH1 0x24 PUSH1 0x0 REVERT JUMPDEST PUSH1 0x0 PUSH2 0x244F DUP3 PUSH2 0x1DA7 JUMP JUMPDEST SWAP2 POP PUSH2 0x245A DUP4 PUSH2 0x1DA7 JUMP JUMPDEST SWAP3 POP DUP3 PUSH2 0x246A JUMPI PUSH2 0x2469 PUSH2 0x2415 JUMP JUMPDEST JUMPDEST DUP3 DUP3 DIV SWAP1 POP SWAP3 SWAP2 POP POP JUMP JUMPDEST PUSH1 0x0 DUP2 SWAP1 POP SWAP3 SWAP2 POP POP JUMP JUMPDEST POP JUMP JUMPDEST PUSH1 0x0 PUSH2 0x2490 PUSH1 0x0 DUP4 PUSH2 0x2475 JUMP JUMPDEST SWAP2 POP PUSH2 0x249B DUP3 PUSH2 0x2480 JUMP JUMPDEST PUSH1 0x0 DUP3 ADD SWAP1 POP SWAP2 SWAP1 POP JUMP JUMPDEST PUSH1 0x0 PUSH2 0x24B1 DUP3 PUSH2 0x2483 JUMP JUMPDEST SWAP2 POP DUP2 SWAP1 POP SWAP2 SWAP1 POP JUMP JUMPDEST PUSH1 0x0 DUP3 DUP3 MSTORE PUSH1 0x20 DUP3 ADD SWAP1 POP SWAP3 SWAP2 POP POP JUMP JUMPDEST PUSH32 0x4177617264207472616E73666572206661696C65640000000000000000000000 PUSH1 0x0 DUP3 ADD MSTORE POP JUMP JUMPDEST PUSH1 0x0 PUSH2 0x2502 PUSH1 0x15 DUP4 PUSH2 0x24BB JUMP JUMPDEST SWAP2 POP PUSH2 0x250D DUP3 PUSH2 0x24CC JUMP JUMPDEST PUSH1 0x20 DUP3 ADD SWAP1 POP SWAP2 SWAP1 POP JUMP JUMPDEST PUSH1 0x0 PUSH1 0x20 DUP3 ADD SWAP1 POP DUP2 DUP2 SUB PUSH1 0x0 DUP4 ADD MSTORE PUSH2 0x2531 DUP2 PUSH2 0x24F5 JUMP JUMPDEST SWAP1 POP SWAP2 SWAP1 POP JUMP JUMPDEST PUSH1 0x0 PUSH1 0x80 DUP3 ADD SWAP1 POP PUSH2 0x254D PUSH1 0x0 DUP4 ADD DUP8 PUSH2 0x1DDB JUMP JUMPDEST PUSH2 0x255A PUSH1 0x20 DUP4 ADD DUP7 PUSH2 0x1DB1 JUMP JUMPDEST PUSH2 0x2567 PUSH1 0x40 DUP4 ADD DUP6 PUSH2 0x1DB1 JUMP JUMPDEST PUSH2 0x2574 PUSH1 0x60 DUP4 ADD DUP5 PUSH2 0x1DB1 JUMP JUMPDEST SWAP6 SWAP5 POP POP POP POP POP JUMP JUMPDEST PUSH32 0x466565207472616E73666572206661696C656400000000000000000000000000 PUSH1 0x0 DUP3 ADD MSTORE POP JUMP JUMPDEST PUSH1 0x0 PUSH2 0x25B3 PUSH1 0x13 DUP4 PUSH2 0x24BB JUMP JUMPDEST SWAP2 POP PUSH2 0x25BE DUP3 PUSH2 0x257D JUMP JUMPDEST PUSH1 0x20 DUP3 ADD SWAP1 POP SWAP2 SWAP1 POP JUMP JUMPDEST PUSH1 0x0 PUSH1 0x20 DUP3 ADD SWAP1 POP DUP2 DUP2 SUB PUSH1 0x0 DUP4 ADD MSTORE PUSH2 0x25E2 DUP2 PUSH2 0x25A6 JUMP JUMPDEST SWAP1 POP SWAP2 SWAP1 POP JUMP JUMPDEST PUSH32 0x4E487B7100000000000000000000000000000000000000000000000000000000 PUSH1 0x0 MSTORE PUSH1 0x31 PUSH1 0x4 MSTORE PUSH1 0x24 PUSH1 0x0 REVERT JUMPDEST PUSH32 0x626164206F7065726174696F6E00000000000000000000000000000000000000 PUSH1 0x0 DUP3 ADD MSTORE POP JUMP JUMPDEST PUSH1 0x0 PUSH2 0x264E PUSH1 0xD DUP4 PUSH2 0x24BB JUMP JUMPDEST SWAP2 POP PUSH2 0x2659 DUP3 PUSH2 0x2618 JUMP JUMPDEST PUSH1 0x20 DUP3 ADD SWAP1 POP SWAP2 SWAP1 POP JUMP JUMPDEST PUSH1 0x0 PUSH1 0x20 DUP3 ADD SWAP1 POP DUP2 DUP2 SUB PUSH1 0x0 DUP4 ADD MSTORE PUSH2 0x267D DUP2 PUSH2 0x2641 JUMP JUMPDEST SWAP1 POP SWAP2 SWAP1 POP JUMP JUMPDEST PUSH1 0x0 PUSH1 0x60 DUP3 ADD SWAP1 POP PUSH2 0x2699 PUSH1 0x0 DUP4 ADD DUP7 PUSH2 0x1DDB JUMP JUMPDEST PUSH2 0x26A6 PUSH1 0x20 DUP4 ADD DUP6 PUSH2 0x1DB1 JUMP JUMPDEST PUSH2 0x26B3 PUSH1 0x40 DUP4 ADD DUP5 PUSH2 0x1DB1 JUMP JUMPDEST SWAP5 SWAP4 POP POP POP POP JUMP JUMPDEST PUSH32 0x4E6F7420656E6F756768207061796D656E740000000000000000000000000000 PUSH1 0x0 DUP3 ADD MSTORE POP JUMP JUMPDEST PUSH1 0x0 PUSH2 0x26F1 PUSH1 0x12 DUP4 PUSH2 0x24BB JUMP JUMPDEST SWAP2 POP PUSH2 0x26FC DUP3 PUSH2 0x26BB JUMP JUMPDEST PUSH1 0x20 DUP3 ADD SWAP1 POP SWAP2 SWAP1 POP JUMP JUMPDEST PUSH1 0x0 PUSH1 0x20 DUP3 ADD SWAP1 POP DUP2 DUP2 SUB PUSH1 0x0 DUP4 ADD MSTORE PUSH2 0x2720 DUP2 PUSH2 0x26E4 JUMP JUMPDEST SWAP1 POP SWAP2 SWAP1 POP JUMP JUMPDEST PUSH1 0x0 PUSH1 0x40 DUP3 ADD SWAP1 POP PUSH2 0x273C PUSH1 0x0 DUP4 ADD DUP6 PUSH2 0x1DDB JUMP JUMPDEST PUSH2 0x2749 PUSH1 0x20 DUP4 ADD DUP5 PUSH2 0x1DB1 JUMP JUMPDEST SWAP4 SWAP3 POP POP POP JUMP JUMPDEST PUSH32 0x4F776E61626C653A206E6577206F776E657220697320746865207A65726F2061 PUSH1 0x0 DUP3 ADD MSTORE PUSH32 0x6464726573730000000000000000000000000000000000000000000000000000 PUSH1 0x20 DUP3 ADD MSTORE POP JUMP JUMPDEST PUSH1 0x0 PUSH2 0x27AC PUSH1 0x26 DUP4 PUSH2 0x24BB JUMP JUMPDEST SWAP2 POP PUSH2 0x27B7 DUP3 PUSH2 0x2750 JUMP JUMPDEST PUSH1 0x40 DUP3 ADD SWAP1 POP SWAP2 SWAP1 POP JUMP JUMPDEST PUSH1 0x0 PUSH1 0x20 DUP3 ADD SWAP1 POP DUP2 DUP2 SUB PUSH1 0x0 DUP4 ADD MSTORE PUSH2 0x27DB DUP2 PUSH2 0x279F JUMP JUMPDEST SWAP1 POP SWAP2 SWAP1 POP JUMP JUMPDEST PUSH32 0x4F776E61626C653A2063616C6C6572206973206E6F7420746865206F776E6572 PUSH1 0x0 DUP3 ADD MSTORE POP JUMP JUMPDEST PUSH1 0x0 PUSH2 0x2818 PUSH1 0x20 DUP4 PUSH2 0x24BB JUMP JUMPDEST SWAP2 POP PUSH2 0x2823 DUP3 PUSH2 0x27E2 JUMP JUMPDEST PUSH1 0x20 DUP3 ADD SWAP1 POP SWAP2 SWAP1 POP JUMP JUMPDEST PUSH1 0x0 PUSH1 0x20 DUP3 ADD SWAP1 POP DUP2 DUP2 SUB PUSH1 0x0 DUP4 ADD MSTORE PUSH2 0x2847 DUP2 PUSH2 0x280B JUMP JUMPDEST SWAP1 POP SWAP2 SWAP1 POP JUMP JUMPDEST PUSH32 0x5265656E7472616E637947756172643A207265656E7472616E742063616C6C00 PUSH1 0x0 DUP3 ADD MSTORE POP JUMP JUMPDEST PUSH1 0x0 PUSH2 0x2884 PUSH1 0x1F DUP4 PUSH2 0x24BB JUMP JUMPDEST SWAP2 POP PUSH2 0x288F DUP3 PUSH2 0x284E JUMP JUMPDEST PUSH1 0x20 DUP3 ADD SWAP1 POP SWAP2 SWAP1 POP JUMP JUMPDEST PUSH1 0x0 PUSH1 0x20 DUP3 ADD SWAP1 POP DUP2 DUP2 SUB PUSH1 0x0 DUP4 ADD MSTORE PUSH2 0x28B3 DUP2 PUSH2 0x2877 JUMP JUMPDEST SWAP1 POP SWAP2 SWAP1 POP JUMP INVALID LOG2 PUSH5 0x6970667358 0x22 SLT KECCAK256 0xC7 CALLDATALOAD 0xF6 PUSH10 0xB9E2ECF9FEC4E943EA79 DUP14 STOP CALLER SWAP1 SWAP12 SWAP6 AND 0x4A 0xE DUP11 DUP5 DIFFICULTY SDIV 0xE6 0xF6 PUSH13 0x332764736F6C63430008110033 "
		},
		"gasEstimates": {
			"creation": {
				"codeDepositCost": "2096000",
				"executionCost": "infinite",
				"totalCost": "infinite"
			},
			"external": {
				"accAwards(address)": "2860",
				"accPoints(address)": "2946",
				"awardRecords(uint256)": "infinite",
				"awardShare(uint256)": "infinite",
				"awardize()": "infinite",
				"endGame(uint256)": "infinite",
				"getAwardRecords()": "infinite",
				"getAwardShare()": "infinite",
				"getParticipants()": "infinite",
				"getPlayers()": "infinite",
				"lastPlayedTimes(address)": "2903",
				"owner()": "2633",
				"participants(uint256)": "5090",
				"playable(address)": "2978",
				"players(uint256)": "5066",
				"price()": "2474",
				"renounceOwnership()": "30465",
				"setAward(uint256,uint256,uint256,uint256,uint256)": "infinite",
				"setPrice(uint256)": "24807",
				"setWithdrawAddress(address)": "27009",
				"startGame()": "infinite",
				"totalPoints(address)": "2882",
				"transferOwnership(address)": "30832",
				"withdrawAddress()": "2604"
			}
		},
		"methodIdentifiers": {
			"accAwards(address)": "094bb204",
			"accPoints(address)": "fa305949",
			"awardRecords(uint256)": "afc865dd",
			"awardShare(uint256)": "247bdda3",
			"awardize()": "073cd85f",
			"endGame(uint256)": "d0399bb8",
			"getAwardRecords()": "8fefec47",
			"getAwardShare()": "e4312377",
			"getParticipants()": "5aa68ac0",
			"getPlayers()": "8b5b9ccc",
			"lastPlayedTimes(address)": "b2eeed86",
			"owner()": "8da5cb5b",
			"participants(uint256)": "35c1d349",
			"playable(address)": "bdc78c95",
			"players(uint256)": "f71d96cb",
			"price()": "a035b1fe",
			"renounceOwnership()": "715018a6",
			"setAward(uint256,uint256,uint256,uint256,uint256)": "bbe192ba",
			"setPrice(uint256)": "91b7f5ed",
			"setWithdrawAddress(address)": "3ab1a494",
			"startGame()": "d65ab5f2",
			"totalPoints(address)": "0fac9100",
			"transferOwnership(address)": "f2fde38b",
			"withdrawAddress()": "1581b600"
		}
	},
	"abi": [
		{
			"anonymous": false,
			"inputs": [
				{
					"indexed": false,
					"internalType": "address",
					"name": "player",
					"type": "address"
				},
				{
					"indexed": false,
					"internalType": "uint256",
					"name": "rank",
					"type": "uint256"
				},
				{
					"indexed": false,
					"internalType": "uint256",
					"name": "amount",
					"type": "uint256"
				},
				{
					"indexed": false,
					"internalType": "uint256",
					"name": "timestamp",
					"type": "uint256"
				}
			],
			"name": "Award",
			"type": "event"
		},
		{
			"anonymous": false,
			"inputs": [
				{
					"indexed": false,
					"internalType": "address",
					"name": "player",
					"type": "address"
				},
				{
					"indexed": false,
					"internalType": "uint256",
					"name": "point",
					"type": "uint256"
				},
				{
					"indexed": false,
					"internalType": "uint256",
					"name": "timestamp",
					"type": "uint256"
				}
			],
			"name": "EndGame",
			"type": "event"
		},
		{
			"anonymous": false,
			"inputs": [
				{
					"indexed": true,
					"internalType": "address",
					"name": "previousOwner",
					"type": "address"
				},
				{
					"indexed": true,
					"internalType": "address",
					"name": "newOwner",
					"type": "address"
				}
			],
			"name": "OwnershipTransferred",
			"type": "event"
		},
		{
			"anonymous": false,
			"inputs": [
				{
					"indexed": false,
					"internalType": "address",
					"name": "player",
					"type": "address"
				},
				{
					"indexed": false,
					"internalType": "uint256",
					"name": "timestamp",
					"type": "uint256"
				}
			],
			"name": "StartGame",
			"type": "event"
		},
		{
			"inputs": [
				{
					"internalType": "address",
					"name": "",
					"type": "address"
				}
			],
			"name": "accAwards",
			"outputs": [
				{
					"internalType": "uint256",
					"name": "",
					"type": "uint256"
				}
			],
			"stateMutability": "view",
			"type": "function"
		},
		{
			"inputs": [
				{
					"internalType": "address",
					"name": "",
					"type": "address"
				}
			],
			"name": "accPoints",
			"outputs": [
				{
					"internalType": "uint256",
					"name": "",
					"type": "uint256"
				}
			],
			"stateMutability": "view",
			"type": "function"
		},
		{
			"inputs": [
				{
					"internalType": "uint256",
					"name": "",
					"type": "uint256"
				}
			],
			"name": "awardRecords",
			"outputs": [
				{
					"internalType": "uint256",
					"name": "timestamp",
					"type": "uint256"
				}
			],
			"stateMutability": "view",
			"type": "function"
		},
		{
			"inputs": [
				{
					"internalType": "uint256",
					"name": "",
					"type": "uint256"
				}
			],
			"name": "awardShare",
			"outputs": [
				{
					"internalType": "uint256",
					"name": "",
					"type": "uint256"
				}
			],
			"stateMutability": "view",
			"type": "function"
		},
		{
			"inputs": [],
			"name": "awardize",
			"outputs": [],
			"stateMutability": "nonpayable",
			"type": "function"
		},
		{
			"inputs": [
				{
					"internalType": "uint256",
					"name": "point",
					"type": "uint256"
				}
			],
			"name": "endGame",
			"outputs": [],
			"stateMutability": "nonpayable",
			"type": "function"
		},
		{
			"inputs": [],
			"name": "getAwardRecords",
			"outputs": [
				{
					"components": [
						{
							"internalType": "address[5]",
							"name": "awardees",
							"type": "address[5]"
						},
						{
							"internalType": "uint256[5]",
							"name": "scores",
							"type": "uint256[5]"
						},
						{
							"internalType": "uint256[5]",
							"name": "amounts",
							"type": "uint256[5]"
						},
						{
							"internalType": "uint256",
							"name": "timestamp",
							"type": "uint256"
						}
					],
					"internalType": "struct SnakeGame.AwardRecord[]",
					"name": "",
					"type": "tuple[]"
				}
			],
			"stateMutability": "view",
			"type": "function"
		},
		{
			"inputs": [],
			"name": "getAwardShare",
			"outputs": [
				{
					"internalType": "uint256[5]",
					"name": "",
					"type": "uint256[5]"
				}
			],
			"stateMutability": "view",
			"type": "function"
		},
		{
			"inputs": [],
			"name": "getParticipants",
			"outputs": [
				{
					"internalType": "address[]",
					"name": "",
					"type": "address[]"
				}
			],
			"stateMutability": "view",
			"type": "function"
		},
		{
			"inputs": [],
			"name": "getPlayers",
			"outputs": [
				{
					"internalType": "address[]",
					"name": "",
					"type": "address[]"
				}
			],
			"stateMutability": "view",
			"type": "function"
		},
		{
			"inputs": [
				{
					"internalType": "address",
					"name": "",
					"type": "address"
				}
			],
			"name": "lastPlayedTimes",
			"outputs": [
				{
					"internalType": "uint256",
					"name": "",
					"type": "uint256"
				}
			],
			"stateMutability": "view",
			"type": "function"
		},
		{
			"inputs": [],
			"name": "owner",
			"outputs": [
				{
					"internalType": "address",
					"name": "",
					"type": "address"
				}
			],
			"stateMutability": "view",
			"type": "function"
		},
		{
			"inputs": [
				{
					"internalType": "uint256",
					"name": "",
					"type": "uint256"
				}
			],
			"name": "participants",
			"outputs": [
				{
					"internalType": "address",
					"name": "",
					"type": "address"
				}
			],
			"stateMutability": "view",
			"type": "function"
		},
		{
			"inputs": [
				{
					"internalType": "address",
					"name": "",
					"type": "address"
				}
			],
			"name": "playable",
			"outputs": [
				{
					"internalType": "bool",
					"name": "",
					"type": "bool"
				}
			],
			"stateMutability": "view",
			"type": "function"
		},
		{
			"inputs": [
				{
					"internalType": "uint256",
					"name": "",
					"type": "uint256"
				}
			],
			"name": "players",
			"outputs": [
				{
					"internalType": "address",
					"name": "",
					"type": "address"
				}
			],
			"stateMutability": "view",
			"type": "function"
		},
		{
			"inputs": [],
			"name": "price",
			"outputs": [
				{
					"internalType": "uint256",
					"name": "",
					"type": "uint256"
				}
			],
			"stateMutability": "view",
			"type": "function"
		},
		{
			"inputs": [],
			"name": "renounceOwnership",
			"outputs": [],
			"stateMutability": "nonpayable",
			"type": "function"
		},
		{
			"inputs": [
				{
					"internalType": "uint256",
					"name": "first",
					"type": "uint256"
				},
				{
					"internalType": "uint256",
					"name": "second",
					"type": "uint256"
				},
				{
					"internalType": "uint256",
					"name": "third",
					"type": "uint256"
				},
				{
					"internalType": "uint256",
					"name": "fourth",
					"type": "uint256"
				},
				{
					"internalType": "uint256",
					"name": "fifth",
					"type": "uint256"
				}
			],
			"name": "setAward",
			"outputs": [],
			"stateMutability": "nonpayable",
			"type": "function"
		},
		{
			"inputs": [
				{
					"internalType": "uint256",
					"name": "_price",
					"type": "uint256"
				}
			],
			"name": "setPrice",
			"outputs": [],
			"stateMutability": "nonpayable",
			"type": "function"
		},
		{
			"inputs": [
				{
					"internalType": "address",
					"name": "_withdrawAddress",
					"type": "address"
				}
			],
			"name": "setWithdrawAddress",
			"outputs": [],
			"stateMutability": "nonpayable",
			"type": "function"
		},
		{
			"inputs": [],
			"name": "startGame",
			"outputs": [],
			"stateMutability": "payable",
			"type": "function"
		},
		{
			"inputs": [
				{
					"internalType": "address",
					"name": "",
					"type": "address"
				}
			],
			"name": "totalPoints",
			"outputs": [
				{
					"internalType": "uint256",
					"name": "",
					"type": "uint256"
				}
			],
			"stateMutability": "view",
			"type": "function"
		},
		{
			"inputs": [
				{
					"internalType": "address",
					"name": "newOwner",
					"type": "address"
				}
			],
			"name": "transferOwnership",
			"outputs": [],
			"stateMutability": "nonpayable",
			"type": "function"
		},
		{
			"inputs": [],
			"name": "withdrawAddress",
			"outputs": [
				{
					"internalType": "address",
					"name": "",
					"type": "address"
				}
			],
			"stateMutability": "view",
			"type": "function"
		}
	]
}